{
	"data": {
		"bytecode": {
			"linkReferences": {},
			"object": "6080604052735c6b0f7bf3e7ce046039bd8fabdfd3f9f50216785f806101000a81548173ffffffffffffffffffffffffffffffffffffffff021916908373ffffffffffffffffffffffffffffffffffffffff1602179055507303c6fced478cbbc9a4fab34ef9f40767739d1ff760015f6101000a81548173ffffffffffffffffffffffffffffffffffffffff021916908373ffffffffffffffffffffffffffffffffffffffff1602179055503480156100b6575f80fd5b50611ec3806100c45f395ff3fe608060405234801561000f575f80fd5b506004361061007b575f3560e01c8063775a8f5e11610059578063775a8f5e146100fb578063bf58c0cc1461012b578063e413c63d1461015b578063ec8712641461018b5761007b565b80634ee21a631461007f5780635964bdec146100af5780636900a3ae146100cb575b5f80fd5b61009960048036038101906100949190611091565b6101bb565b6040516100a69190611125565b60405180910390f35b6100c960048036038101906100c491906111a7565b6101e2565b005b6100e560048036038101906100e091906111f7565b610588565b6040516100f2919061129c565b60405180910390f35b610115600480360381019061011091906111f7565b61059f565b604051610122919061130e565b60405180910390f35b610145600480360381019061014091906111f7565b6105fc565b6040516101529190611425565b60405180910390f35b61017560048036038101906101709190611509565b61075a565b604051610182919061129c565b60405180910390f35b6101a560048036038101906101a091906111f7565b6108cb565b6040516101b291906115f9565b60405180910390f35b5f8183815181106101cf576101ce611613565b5b602001015160f81c60f81b905092915050565b5f151560035f8581526020019081526020015f205f015f8481526020019081526020015f2060020160019054906101000a900460ff1615150361028e576001151560035f8581526020019081526020015f205f015f8481526020019081526020015f2060020160019054906101000a9050505060035f8481526020019081526020015f20600b0182908060018154018082558091505060019003905f5260205f20015f90919091909150555b60035f8481526020019081526020015f205f015f8381526020019081526020015f206002015f9054906101000a900460ff166105835760035f8481526020019081526020015f205f015f8381526020019081526020015f205f0181908060018154018082558091505060019003905f5260205f2090600302015f909190919091505f820151815f015560208201518160010155604082015181600201555050600160035f8581526020019081526020015f20600d015f6101000a81548160ff0219169083151502179055506003805f8581526020019081526020015f205f015f8481526020019081526020015f205f018054905003610582576104d960035f8581526020019081526020015f205f015f8481526020019081526020015f205f01805480602002602001604051908101604052809291908181526020015f905b8282101561041a578382905f5260205f2090600302016040518060600160405290815f820154815260200160018201548152602001600282015481525050815260200190600101906103cd565b5050505060015f9054906101000a900473ffffffffffffffffffffffffffffffffffffffff1673ffffffffffffffffffffffffffffffffffffffff1663fb7344d0866040518263ffffffff1660e01b8152600401610478919061164f565b5f60405180830381865afa158015610492573d5f803e3d5ffd5b505050506040513d5f823e3d601f19601f820116820180604052508101906104ba9190611772565b84815181106104cc576104cb611613565b5b602002602001015161075a565b60035f8581526020019081526020015f205f015f8481526020019081526020015f20600101908161050a91906119b3565b50600160035f8581526020019081526020015f205f015f8481526020019081526020015f206002015f6101000a81548160ff021916908315150217905550600160035f8581526020019081526020015f20600c01546105699190611aaf565b60035f8581526020019081526020015f20600c01819055505b5b505050565b60605f6105948361059f565b905080915050919050565b6060602067ffffffffffffffff8111156105bc576105bb610f6d565b5b6040519080825280601f01601f1916602001820160405280156105ee5781602001600182028036833780820191505090505b509050816020820152919050565b60605f805f9054906101000a900473ffffffffffffffffffffffffffffffffffffffff1673ffffffffffffffffffffffffffffffffffffffff16633afc7282846040518263ffffffff1660e01b8152600401610658919061164f565b5f60405180830381865afa158015610672573d5f803e3d5ffd5b505050506040513d5f823e3d601f19601f8201168201806040525081019061069a9190611cc7565b90506060428260400151101561074f5760015f9054906101000a900473ffffffffffffffffffffffffffffffffffffffff1673ffffffffffffffffffffffffffffffffffffffff1663fb7344d0856040518263ffffffff1660e01b8152600401610704919061164f565b5f60405180830381865afa15801561071e573d5f803e3d5ffd5b505050506040513d5f823e3d601f19601f820116820180604052508101906107469190611772565b92505050610755565b80925050505b919050565b60605f6040518060400160405280855f8151811061077b5761077a611613565b5b6020026020010151602001518152602001855f8151811061079f5761079e611613565b5b60200260200101516040015181525090505f600190505b845181101561082d575f60405180604001604052808784815181106107de576107dd611613565b5b602002602001015160200151815260200187848151811061080257610801611613565b5b602002602001015160400151815250905061081d8382610dc6565b92505080806001019150506107b6565b505f7f30644e72e131a029b85045b68181585d97816a916871ca8d3c208c16d87cfd47826020015185604001516108649190611d0e565b61086e9190611d6e565b7f30644e72e131a029b85045b68181585d97816a916871ca8d3c208c16d87cfd47835f015186602001516108a29190611d0e565b6108ac9190611d6e565b6108b69190611aaf565b90506108c181610588565b9250505092915050565b6108d3610eb4565b5f60015f9054906101000a900473ffffffffffffffffffffffffffffffffffffffff1673ffffffffffffffffffffffffffffffffffffffff1663fb7344d0846040518263ffffffff1660e01b815260040161092e919061164f565b5f60405180830381865afa158015610948573d5f803e3d5ffd5b505050506040513d5f823e3d601f19601f820116820180604052508101906109709190611772565b905061097a610eb4565b815160035f8681526020019081526020015f20600c015410156109a1578092505050610dc1565b5f60035f8681526020019081526020015f20600b018054806020026020016040519081016040528092919081815260200182805480156109fe57602002820191905f5260205f20905b8154815260200190600101908083116109ea575b505050505090505f5b8151811015610d6a575f60035f8881526020019081526020015f205f015f848481518110610a3857610a37611613565b5b602002602001015181526020019081526020015f206040518060800160405290815f8201805480602002602001604051908101604052809291908181526020015f905b82821015610ac8578382905f5260205f2090600302016040518060600160405290815f82015481526020016001820154815260200160028201548152505081526020019060010190610a7b565b505050508152602001600182018054610ae0906117e6565b80601f0160208091040260200160405190810160405280929190818152602001828054610b0c906117e6565b8015610b575780601f10610b2e57610100808354040283529160200191610b57565b820191905f5260205f20905b815481529060010190602001808311610b3a57829003601f168201915b50505050508152602001600282015f9054906101000a900460ff161515151581526020016002820160019054906101000a900460ff16151515158152505090505f816020015190505f80600190505b8251811015610d5957603060f81b610bbe83856101bb565b7effffffffffffffffffffffffffffffffffffffffffffffffffffffffffffff191610158015610c1d5750603960f81b610bf883856101bb565b7effffffffffffffffffffffffffffffffffffffffffffffffffffffffffffff191611155b15610cf857600160035f8c81526020019081526020015f206001016030610c647f30644e72e131a029b85045b68181585d97816a916871ca8d3c208c16d87cfd47876101bb565b60f81c610c719190611daa565b60ff16600a8110610c8557610c84611613565b5b0154610c919190611aaf565b60035f8c81526020019081526020015f206001016030610cd17f30644e72e131a029b85045b68181585d97816a916871ca8d3c208c16d87cfd47876101bb565b60f81c610cde9190611daa565b60ff16600a8110610cf257610cf1611613565b5b01819055505b602660f81b610d0782856101bb565b7effffffffffffffffffffffffffffffffffffffffffffffffffffffffffffff191603610d4f578180610d3990611dde565b9250508080610d4790611dde565b915050610d54565b610d59565b610ba6565b505050508080600101915050610a07565b5060035f8681526020019081526020015f20600101600a806020026040519081016040528092919082600a8015610db6576020028201915b815481526020019060010190808311610da2575b505050505093505050505b919050565b610dce610ed7565b610dd6610eef565b835f0151815f60048110610ded57610dec611613565b5b602002018181525050836020015181600160048110610e0f57610e0e611613565b5b602002018181525050825f015181600260048110610e3057610e2f611613565b5b602002018181525050826020015181600360048110610e5257610e51611613565b5b6020020181815250505f60408360808460066107d05a03fa905080610eac576040517f08c379a0000000000000000000000000000000000000000000000000000000008152600401610ea390611e6f565b60405180910390fd5b505092915050565b604051806101400160405280600a90602082028036833780820191505090505090565b60405180604001604052805f81526020015f81525090565b6040518060800160405280600490602082028036833780820191505090505090565b5f604051905090565b5f80fd5b5f80fd5b5f819050919050565b610f3481610f22565b8114610f3e575f80fd5b50565b5f81359050610f4f81610f2b565b92915050565b5f80fd5b5f80fd5b5f601f19601f8301169050919050565b7f4e487b71000000000000000000000000000000000000000000000000000000005f52604160045260245ffd5b610fa382610f5d565b810181811067ffffffffffffffff82111715610fc257610fc1610f6d565b5b80604052505050565b5f610fd4610f11565b9050610fe08282610f9a565b919050565b5f67ffffffffffffffff821115610fff57610ffe610f6d565b5b61100882610f5d565b9050602081019050919050565b828183375f83830152505050565b5f61103561103084610fe5565b610fcb565b90508281526020810184848401111561105157611050610f59565b5b61105c848285611015565b509392505050565b5f82601f83011261107857611077610f55565b5b8135611088848260208601611023565b91505092915050565b5f80604083850312156110a7576110a6610f1a565b5b5f6110b485828601610f41565b925050602083013567ffffffffffffffff8111156110d5576110d4610f1e565b5b6110e185828601611064565b9150509250929050565b5f7fff0000000000000000000000000000000000000000000000000000000000000082169050919050565b61111f816110eb565b82525050565b5f6020820190506111385f830184611116565b92915050565b5f80fd5b5f80fd5b5f6060828403121561115b5761115a61113e565b5b6111656060610fcb565b90505f61117484828501610f41565b5f83015250602061118784828501610f41565b602083015250604061119b84828501610f41565b60408301525092915050565b5f805f60a084860312156111be576111bd610f1a565b5b5f6111cb86828701610f41565b93505060206111dc86828701610f41565b92505060406111ed86828701611146565b9150509250925092565b5f6020828403121561120c5761120b610f1a565b5b5f61121984828501610f41565b91505092915050565b5f81519050919050565b5f82825260208201905092915050565b5f5b8381101561125957808201518184015260208101905061123e565b5f8484015250505050565b5f61126e82611222565b611278818561122c565b935061128881856020860161123c565b61129181610f5d565b840191505092915050565b5f6020820190508181035f8301526112b48184611264565b905092915050565b5f81519050919050565b5f82825260208201905092915050565b5f6112e0826112bc565b6112ea81856112c6565b93506112fa81856020860161123c565b61130381610f5d565b840191505092915050565b5f6020820190508181035f83015261132681846112d6565b905092915050565b5f81519050919050565b5f82825260208201905092915050565b5f819050602082019050919050565b61136081610f22565b82525050565b606082015f82015161137a5f850182611357565b50602082015161138d6020850182611357565b5060408201516113a06040850182611357565b50505050565b5f6113b18383611366565b60608301905092915050565b5f602082019050919050565b5f6113d38261132e565b6113dd8185611338565b93506113e883611348565b805f5b838110156114185781516113ff88826113a6565b975061140a836113bd565b9250506001810190506113eb565b5085935050505092915050565b5f6020820190508181035f83015261143d81846113c9565b905092915050565b5f67ffffffffffffffff82111561145f5761145e610f6d565b5b602082029050602081019050919050565b5f80fd5b5f61148661148184611445565b610fcb565b905080838252602082019050606084028301858111156114a9576114a8611470565b5b835b818110156114d257806114be8882611146565b8452602084019350506060810190506114ab565b5050509392505050565b5f82601f8301126114f0576114ef610f55565b5b8135611500848260208601611474565b91505092915050565b5f806080838503121561151f5761151e610f1a565b5b5f83013567ffffffffffffffff81111561153c5761153b610f1e565b5b611548858286016114dc565b925050602061155985828601611146565b9150509250929050565b5f600a9050919050565b5f81905092915050565b5f819050919050565b5f61158b8383611357565b60208301905092915050565b5f602082019050919050565b6115ac81611563565b6115b6818461156d565b92506115c182611577565b805f5b838110156115f15781516115d88782611580565b96506115e383611597565b9250506001810190506115c4565b505050505050565b5f6101408201905061160d5f8301846115a3565b92915050565b7f4e487b71000000000000000000000000000000000000000000000000000000005f52603260045260245ffd5b61164981610f22565b82525050565b5f6020820190506116625f830184611640565b92915050565b5f8151905061167681610f2b565b92915050565b5f606082840312156116915761169061113e565b5b61169b6060610fcb565b90505f6116aa84828501611668565b5f8301525060206116bd84828501611668565b60208301525060406116d184828501611668565b60408301525092915050565b5f6116ef6116ea84611445565b610fcb565b9050808382526020820190506060840283018581111561171257611711611470565b5b835b8181101561173b5780611727888261167c565b845260208401935050606081019050611714565b5050509392505050565b5f82601f83011261175957611758610f55565b5b81516117698482602086016116dd565b91505092915050565b5f6020828403121561178757611786610f1a565b5b5f82015167ffffffffffffffff8111156117a4576117a3610f1e565b5b6117b084828501611745565b91505092915050565b7f4e487b71000000000000000000000000000000000000000000000000000000005f52602260045260245ffd5b5f60028204905060018216806117fd57607f821691505b6020821081036118105761180f6117b9565b5b50919050565b5f819050815f5260205f209050919050565b5f6020601f8301049050919050565b5f82821b905092915050565b5f600883026118727fffffffffffffffffffffffffffffffffffffffffffffffffffffffffffffffff82611837565b61187c8683611837565b95508019841693508086168417925050509392505050565b5f819050919050565b5f6118b76118b26118ad84610f22565b611894565b610f22565b9050919050565b5f819050919050565b6118d08361189d565b6118e46118dc826118be565b848454611843565b825550505050565b5f90565b6118f86118ec565b6119038184846118c7565b505050565b5b818110156119265761191b5f826118f0565b600181019050611909565b5050565b601f82111561196b5761193c81611816565b61194584611828565b81016020851015611954578190505b61196861196085611828565b830182611908565b50505b505050565b5f82821c905092915050565b5f61198b5f1984600802611970565b1980831691505092915050565b5f6119a3838361197c565b9150826002028217905092915050565b6119bc82611222565b67ffffffffffffffff8111156119d5576119d4610f6d565b5b6119df82546117e6565b6119ea82828561192a565b5f60209050601f831160018114611a1b575f8415611a09578287015190505b611a138582611998565b865550611a7a565b601f198416611a2986611816565b5f5b82811015611a5057848901518255600182019150602085019450602081019050611a2b565b86831015611a6d5784890151611a69601f89168261197c565b8355505b6001600288020188555050505b505050505050565b7f4e487b71000000000000000000000000000000000000000000000000000000005f52601160045260245ffd5b5f611ab982610f22565b9150611ac483610f22565b9250828201905080821115611adc57611adb611a82565b5b92915050565b5f611af4611aef84610fe5565b610fcb565b905082815260208101848484011115611b1057611b0f610f59565b5b611b1b84828561123c565b509392505050565b5f82601f830112611b3757611b36610f55565b5b8151611b47848260208601611ae2565b91505092915050565b5f67ffffffffffffffff821115611b6a57611b69610f6d565b5b602082029050602081019050919050565b5f611b8d611b8884611b50565b610fcb565b90508083825260208201905060208402830185811115611bb057611baf611470565b5b835b81811015611bf757805167ffffffffffffffff811115611bd557611bd4610f55565b5b808601611be28982611b23565b85526020850194505050602081019050611bb2565b5050509392505050565b5f82601f830112611c1557611c14610f55565b5b8151611c25848260208601611b7b565b91505092915050565b5f60608284031215611c4357611c4261113e565b5b611c4d6060610fcb565b90505f82015167ffffffffffffffff811115611c6c57611c6b611142565b5b611c7884828501611b23565b5f83015250602082015167ffffffffffffffff811115611c9b57611c9a611142565b5b611ca784828501611c01565b6020830152506040611cbb84828501611668565b60408301525092915050565b5f60208284031215611cdc57611cdb610f1a565b5b5f82015167ffffffffffffffff811115611cf957611cf8610f1e565b5b611d0584828501611c2e565b91505092915050565b5f611d1882610f22565b9150611d2383610f22565b9250828203905081811115611d3b57611d3a611a82565b5b92915050565b7f4e487b71000000000000000000000000000000000000000000000000000000005f52601260045260245ffd5b5f611d7882610f22565b9150611d8383610f22565b925082611d9357611d92611d41565b5b828206905092915050565b5f60ff82169050919050565b5f611db482611d9e565b9150611dbf83611d9e565b9250828203905060ff811115611dd857611dd7611a82565b5b92915050565b5f611de882610f22565b91507fffffffffffffffffffffffffffffffffffffffffffffffffffffffffffffffff8203611e1a57611e19611a82565b5b600182019050919050565b7f41646420706f696e7473206661696c65640000000000000000000000000000005f82015250565b5f611e5960118361122c565b9150611e6482611e25565b602082019050919050565b5f6020820190508181035f830152611e8681611e4d565b905091905056fea26469706673582212205b0152be259edfe95c31199da60e42fafbccc65e4a2b410e5ad8a687097aae4464736f6c63430008160033",
			"opcodes": "PUSH1 0x80 PUSH1 0x40 MSTORE PUSH20 0x5C6B0F7BF3E7CE046039BD8FABDFD3F9F5021678 PUSH0 DUP1 PUSH2 0x100 EXP DUP2 SLOAD DUP2 PUSH20 0xFFFFFFFFFFFFFFFFFFFFFFFFFFFFFFFFFFFFFFFF MUL NOT AND SWAP1 DUP4 PUSH20 0xFFFFFFFFFFFFFFFFFFFFFFFFFFFFFFFFFFFFFFFF AND MUL OR SWAP1 SSTORE POP PUSH20 0x3C6FCED478CBBC9A4FAB34EF9F40767739D1FF7 PUSH1 0x1 PUSH0 PUSH2 0x100 EXP DUP2 SLOAD DUP2 PUSH20 0xFFFFFFFFFFFFFFFFFFFFFFFFFFFFFFFFFFFFFFFF MUL NOT AND SWAP1 DUP4 PUSH20 0xFFFFFFFFFFFFFFFFFFFFFFFFFFFFFFFFFFFFFFFF AND MUL OR SWAP1 SSTORE POP CALLVALUE DUP1 ISZERO PUSH2 0xB6 JUMPI PUSH0 DUP1 REVERT JUMPDEST POP PUSH2 0x1EC3 DUP1 PUSH2 0xC4 PUSH0 CODECOPY PUSH0 RETURN INVALID PUSH1 0x80 PUSH1 0x40 MSTORE CALLVALUE DUP1 ISZERO PUSH2 0xF JUMPI PUSH0 DUP1 REVERT JUMPDEST POP PUSH1 0x4 CALLDATASIZE LT PUSH2 0x7B JUMPI PUSH0 CALLDATALOAD PUSH1 0xE0 SHR DUP1 PUSH4 0x775A8F5E GT PUSH2 0x59 JUMPI DUP1 PUSH4 0x775A8F5E EQ PUSH2 0xFB JUMPI DUP1 PUSH4 0xBF58C0CC EQ PUSH2 0x12B JUMPI DUP1 PUSH4 0xE413C63D EQ PUSH2 0x15B JUMPI DUP1 PUSH4 0xEC871264 EQ PUSH2 0x18B JUMPI PUSH2 0x7B JUMP JUMPDEST DUP1 PUSH4 0x4EE21A63 EQ PUSH2 0x7F JUMPI DUP1 PUSH4 0x5964BDEC EQ PUSH2 0xAF JUMPI DUP1 PUSH4 0x6900A3AE EQ PUSH2 0xCB JUMPI JUMPDEST PUSH0 DUP1 REVERT JUMPDEST PUSH2 0x99 PUSH1 0x4 DUP1 CALLDATASIZE SUB DUP2 ADD SWAP1 PUSH2 0x94 SWAP2 SWAP1 PUSH2 0x1091 JUMP JUMPDEST PUSH2 0x1BB JUMP JUMPDEST PUSH1 0x40 MLOAD PUSH2 0xA6 SWAP2 SWAP1 PUSH2 0x1125 JUMP JUMPDEST PUSH1 0x40 MLOAD DUP1 SWAP2 SUB SWAP1 RETURN JUMPDEST PUSH2 0xC9 PUSH1 0x4 DUP1 CALLDATASIZE SUB DUP2 ADD SWAP1 PUSH2 0xC4 SWAP2 SWAP1 PUSH2 0x11A7 JUMP JUMPDEST PUSH2 0x1E2 JUMP JUMPDEST STOP JUMPDEST PUSH2 0xE5 PUSH1 0x4 DUP1 CALLDATASIZE SUB DUP2 ADD SWAP1 PUSH2 0xE0 SWAP2 SWAP1 PUSH2 0x11F7 JUMP JUMPDEST PUSH2 0x588 JUMP JUMPDEST PUSH1 0x40 MLOAD PUSH2 0xF2 SWAP2 SWAP1 PUSH2 0x129C JUMP JUMPDEST PUSH1 0x40 MLOAD DUP1 SWAP2 SUB SWAP1 RETURN JUMPDEST PUSH2 0x115 PUSH1 0x4 DUP1 CALLDATASIZE SUB DUP2 ADD SWAP1 PUSH2 0x110 SWAP2 SWAP1 PUSH2 0x11F7 JUMP JUMPDEST PUSH2 0x59F JUMP JUMPDEST PUSH1 0x40 MLOAD PUSH2 0x122 SWAP2 SWAP1 PUSH2 0x130E JUMP JUMPDEST PUSH1 0x40 MLOAD DUP1 SWAP2 SUB SWAP1 RETURN JUMPDEST PUSH2 0x145 PUSH1 0x4 DUP1 CALLDATASIZE SUB DUP2 ADD SWAP1 PUSH2 0x140 SWAP2 SWAP1 PUSH2 0x11F7 JUMP JUMPDEST PUSH2 0x5FC JUMP JUMPDEST PUSH1 0x40 MLOAD PUSH2 0x152 SWAP2 SWAP1 PUSH2 0x1425 JUMP JUMPDEST PUSH1 0x40 MLOAD DUP1 SWAP2 SUB SWAP1 RETURN JUMPDEST PUSH2 0x175 PUSH1 0x4 DUP1 CALLDATASIZE SUB DUP2 ADD SWAP1 PUSH2 0x170 SWAP2 SWAP1 PUSH2 0x1509 JUMP JUMPDEST PUSH2 0x75A JUMP JUMPDEST PUSH1 0x40 MLOAD PUSH2 0x182 SWAP2 SWAP1 PUSH2 0x129C JUMP JUMPDEST PUSH1 0x40 MLOAD DUP1 SWAP2 SUB SWAP1 RETURN JUMPDEST PUSH2 0x1A5 PUSH1 0x4 DUP1 CALLDATASIZE SUB DUP2 ADD SWAP1 PUSH2 0x1A0 SWAP2 SWAP1 PUSH2 0x11F7 JUMP JUMPDEST PUSH2 0x8CB JUMP JUMPDEST PUSH1 0x40 MLOAD PUSH2 0x1B2 SWAP2 SWAP1 PUSH2 0x15F9 JUMP JUMPDEST PUSH1 0x40 MLOAD DUP1 SWAP2 SUB SWAP1 RETURN JUMPDEST PUSH0 DUP2 DUP4 DUP2 MLOAD DUP2 LT PUSH2 0x1CF JUMPI PUSH2 0x1CE PUSH2 0x1613 JUMP JUMPDEST JUMPDEST PUSH1 0x20 ADD ADD MLOAD PUSH1 0xF8 SHR PUSH1 0xF8 SHL SWAP1 POP SWAP3 SWAP2 POP POP JUMP JUMPDEST PUSH0 ISZERO ISZERO PUSH1 0x3 PUSH0 DUP6 DUP2 MSTORE PUSH1 0x20 ADD SWAP1 DUP2 MSTORE PUSH1 0x20 ADD PUSH0 KECCAK256 PUSH0 ADD PUSH0 DUP5 DUP2 MSTORE PUSH1 0x20 ADD SWAP1 DUP2 MSTORE PUSH1 0x20 ADD PUSH0 KECCAK256 PUSH1 0x2 ADD PUSH1 0x1 SWAP1 SLOAD SWAP1 PUSH2 0x100 EXP SWAP1 DIV PUSH1 0xFF AND ISZERO ISZERO SUB PUSH2 0x28E JUMPI PUSH1 0x1 ISZERO ISZERO PUSH1 0x3 PUSH0 DUP6 DUP2 MSTORE PUSH1 0x20 ADD SWAP1 DUP2 MSTORE PUSH1 0x20 ADD PUSH0 KECCAK256 PUSH0 ADD PUSH0 DUP5 DUP2 MSTORE PUSH1 0x20 ADD SWAP1 DUP2 MSTORE PUSH1 0x20 ADD PUSH0 KECCAK256 PUSH1 0x2 ADD PUSH1 0x1 SWAP1 SLOAD SWAP1 PUSH2 0x100 EXP SWAP1 POP POP POP PUSH1 0x3 PUSH0 DUP5 DUP2 MSTORE PUSH1 0x20 ADD SWAP1 DUP2 MSTORE PUSH1 0x20 ADD PUSH0 KECCAK256 PUSH1 0xB ADD DUP3 SWAP1 DUP1 PUSH1 0x1 DUP2 SLOAD ADD DUP1 DUP3 SSTORE DUP1 SWAP2 POP POP PUSH1 0x1 SWAP1 SUB SWAP1 PUSH0 MSTORE PUSH1 0x20 PUSH0 KECCAK256 ADD PUSH0 SWAP1 SWAP2 SWAP1 SWAP2 SWAP1 SWAP2 POP SSTORE JUMPDEST PUSH1 0x3 PUSH0 DUP5 DUP2 MSTORE PUSH1 0x20 ADD SWAP1 DUP2 MSTORE PUSH1 0x20 ADD PUSH0 KECCAK256 PUSH0 ADD PUSH0 DUP4 DUP2 MSTORE PUSH1 0x20 ADD SWAP1 DUP2 MSTORE PUSH1 0x20 ADD PUSH0 KECCAK256 PUSH1 0x2 ADD PUSH0 SWAP1 SLOAD SWAP1 PUSH2 0x100 EXP SWAP1 DIV PUSH1 0xFF AND PUSH2 0x583 JUMPI PUSH1 0x3 PUSH0 DUP5 DUP2 MSTORE PUSH1 0x20 ADD SWAP1 DUP2 MSTORE PUSH1 0x20 ADD PUSH0 KECCAK256 PUSH0 ADD PUSH0 DUP4 DUP2 MSTORE PUSH1 0x20 ADD SWAP1 DUP2 MSTORE PUSH1 0x20 ADD PUSH0 KECCAK256 PUSH0 ADD DUP2 SWAP1 DUP1 PUSH1 0x1 DUP2 SLOAD ADD DUP1 DUP3 SSTORE DUP1 SWAP2 POP POP PUSH1 0x1 SWAP1 SUB SWAP1 PUSH0 MSTORE PUSH1 0x20 PUSH0 KECCAK256 SWAP1 PUSH1 0x3 MUL ADD PUSH0 SWAP1 SWAP2 SWAP1 SWAP2 SWAP1 SWAP2 POP PUSH0 DUP3 ADD MLOAD DUP2 PUSH0 ADD SSTORE PUSH1 0x20 DUP3 ADD MLOAD DUP2 PUSH1 0x1 ADD SSTORE PUSH1 0x40 DUP3 ADD MLOAD DUP2 PUSH1 0x2 ADD SSTORE POP POP PUSH1 0x1 PUSH1 0x3 PUSH0 DUP6 DUP2 MSTORE PUSH1 0x20 ADD SWAP1 DUP2 MSTORE PUSH1 0x20 ADD PUSH0 KECCAK256 PUSH1 0xD ADD PUSH0 PUSH2 0x100 EXP DUP2 SLOAD DUP2 PUSH1 0xFF MUL NOT AND SWAP1 DUP4 ISZERO ISZERO MUL OR SWAP1 SSTORE POP PUSH1 0x3 DUP1 PUSH0 DUP6 DUP2 MSTORE PUSH1 0x20 ADD SWAP1 DUP2 MSTORE PUSH1 0x20 ADD PUSH0 KECCAK256 PUSH0 ADD PUSH0 DUP5 DUP2 MSTORE PUSH1 0x20 ADD SWAP1 DUP2 MSTORE PUSH1 0x20 ADD PUSH0 KECCAK256 PUSH0 ADD DUP1 SLOAD SWAP1 POP SUB PUSH2 0x582 JUMPI PUSH2 0x4D9 PUSH1 0x3 PUSH0 DUP6 DUP2 MSTORE PUSH1 0x20 ADD SWAP1 DUP2 MSTORE PUSH1 0x20 ADD PUSH0 KECCAK256 PUSH0 ADD PUSH0 DUP5 DUP2 MSTORE PUSH1 0x20 ADD SWAP1 DUP2 MSTORE PUSH1 0x20 ADD PUSH0 KECCAK256 PUSH0 ADD DUP1 SLOAD DUP1 PUSH1 0x20 MUL PUSH1 0x20 ADD PUSH1 0x40 MLOAD SWAP1 DUP2 ADD PUSH1 0x40 MSTORE DUP1 SWAP3 SWAP2 SWAP1 DUP2 DUP2 MSTORE PUSH1 0x20 ADD PUSH0 SWAP1 JUMPDEST DUP3 DUP3 LT ISZERO PUSH2 0x41A JUMPI DUP4 DUP3 SWAP1 PUSH0 MSTORE PUSH1 0x20 PUSH0 KECCAK256 SWAP1 PUSH1 0x3 MUL ADD PUSH1 0x40 MLOAD DUP1 PUSH1 0x60 ADD PUSH1 0x40 MSTORE SWAP1 DUP2 PUSH0 DUP3 ADD SLOAD DUP2 MSTORE PUSH1 0x20 ADD PUSH1 0x1 DUP3 ADD SLOAD DUP2 MSTORE PUSH1 0x20 ADD PUSH1 0x2 DUP3 ADD SLOAD DUP2 MSTORE POP POP DUP2 MSTORE PUSH1 0x20 ADD SWAP1 PUSH1 0x1 ADD SWAP1 PUSH2 0x3CD JUMP JUMPDEST POP POP POP POP PUSH1 0x1 PUSH0 SWAP1 SLOAD SWAP1 PUSH2 0x100 EXP SWAP1 DIV PUSH20 0xFFFFFFFFFFFFFFFFFFFFFFFFFFFFFFFFFFFFFFFF AND PUSH20 0xFFFFFFFFFFFFFFFFFFFFFFFFFFFFFFFFFFFFFFFF AND PUSH4 0xFB7344D0 DUP7 PUSH1 0x40 MLOAD DUP3 PUSH4 0xFFFFFFFF AND PUSH1 0xE0 SHL DUP2 MSTORE PUSH1 0x4 ADD PUSH2 0x478 SWAP2 SWAP1 PUSH2 0x164F JUMP JUMPDEST PUSH0 PUSH1 0x40 MLOAD DUP1 DUP4 SUB DUP2 DUP7 GAS STATICCALL ISZERO DUP1 ISZERO PUSH2 0x492 JUMPI RETURNDATASIZE PUSH0 DUP1 RETURNDATACOPY RETURNDATASIZE PUSH0 REVERT JUMPDEST POP POP POP POP PUSH1 0x40 MLOAD RETURNDATASIZE PUSH0 DUP3 RETURNDATACOPY RETURNDATASIZE PUSH1 0x1F NOT PUSH1 0x1F DUP3 ADD AND DUP3 ADD DUP1 PUSH1 0x40 MSTORE POP DUP2 ADD SWAP1 PUSH2 0x4BA SWAP2 SWAP1 PUSH2 0x1772 JUMP JUMPDEST DUP5 DUP2 MLOAD DUP2 LT PUSH2 0x4CC JUMPI PUSH2 0x4CB PUSH2 0x1613 JUMP JUMPDEST JUMPDEST PUSH1 0x20 MUL PUSH1 0x20 ADD ADD MLOAD PUSH2 0x75A JUMP JUMPDEST PUSH1 0x3 PUSH0 DUP6 DUP2 MSTORE PUSH1 0x20 ADD SWAP1 DUP2 MSTORE PUSH1 0x20 ADD PUSH0 KECCAK256 PUSH0 ADD PUSH0 DUP5 DUP2 MSTORE PUSH1 0x20 ADD SWAP1 DUP2 MSTORE PUSH1 0x20 ADD PUSH0 KECCAK256 PUSH1 0x1 ADD SWAP1 DUP2 PUSH2 0x50A SWAP2 SWAP1 PUSH2 0x19B3 JUMP JUMPDEST POP PUSH1 0x1 PUSH1 0x3 PUSH0 DUP6 DUP2 MSTORE PUSH1 0x20 ADD SWAP1 DUP2 MSTORE PUSH1 0x20 ADD PUSH0 KECCAK256 PUSH0 ADD PUSH0 DUP5 DUP2 MSTORE PUSH1 0x20 ADD SWAP1 DUP2 MSTORE PUSH1 0x20 ADD PUSH0 KECCAK256 PUSH1 0x2 ADD PUSH0 PUSH2 0x100 EXP DUP2 SLOAD DUP2 PUSH1 0xFF MUL NOT AND SWAP1 DUP4 ISZERO ISZERO MUL OR SWAP1 SSTORE POP PUSH1 0x1 PUSH1 0x3 PUSH0 DUP6 DUP2 MSTORE PUSH1 0x20 ADD SWAP1 DUP2 MSTORE PUSH1 0x20 ADD PUSH0 KECCAK256 PUSH1 0xC ADD SLOAD PUSH2 0x569 SWAP2 SWAP1 PUSH2 0x1AAF JUMP JUMPDEST PUSH1 0x3 PUSH0 DUP6 DUP2 MSTORE PUSH1 0x20 ADD SWAP1 DUP2 MSTORE PUSH1 0x20 ADD PUSH0 KECCAK256 PUSH1 0xC ADD DUP2 SWAP1 SSTORE POP JUMPDEST JUMPDEST POP POP POP JUMP JUMPDEST PUSH1 0x60 PUSH0 PUSH2 0x594 DUP4 PUSH2 0x59F JUMP JUMPDEST SWAP1 POP DUP1 SWAP2 POP POP SWAP2 SWAP1 POP JUMP JUMPDEST PUSH1 0x60 PUSH1 0x20 PUSH8 0xFFFFFFFFFFFFFFFF DUP2 GT ISZERO PUSH2 0x5BC JUMPI PUSH2 0x5BB PUSH2 0xF6D JUMP JUMPDEST JUMPDEST PUSH1 0x40 MLOAD SWAP1 DUP1 DUP3 MSTORE DUP1 PUSH1 0x1F ADD PUSH1 0x1F NOT AND PUSH1 0x20 ADD DUP3 ADD PUSH1 0x40 MSTORE DUP1 ISZERO PUSH2 0x5EE JUMPI DUP2 PUSH1 0x20 ADD PUSH1 0x1 DUP3 MUL DUP1 CALLDATASIZE DUP4 CALLDATACOPY DUP1 DUP3 ADD SWAP2 POP POP SWAP1 POP JUMPDEST POP SWAP1 POP DUP2 PUSH1 0x20 DUP3 ADD MSTORE SWAP2 SWAP1 POP JUMP JUMPDEST PUSH1 0x60 PUSH0 DUP1 PUSH0 SWAP1 SLOAD SWAP1 PUSH2 0x100 EXP SWAP1 DIV PUSH20 0xFFFFFFFFFFFFFFFFFFFFFFFFFFFFFFFFFFFFFFFF AND PUSH20 0xFFFFFFFFFFFFFFFFFFFFFFFFFFFFFFFFFFFFFFFF AND PUSH4 0x3AFC7282 DUP5 PUSH1 0x40 MLOAD DUP3 PUSH4 0xFFFFFFFF AND PUSH1 0xE0 SHL DUP2 MSTORE PUSH1 0x4 ADD PUSH2 0x658 SWAP2 SWAP1 PUSH2 0x164F JUMP JUMPDEST PUSH0 PUSH1 0x40 MLOAD DUP1 DUP4 SUB DUP2 DUP7 GAS STATICCALL ISZERO DUP1 ISZERO PUSH2 0x672 JUMPI RETURNDATASIZE PUSH0 DUP1 RETURNDATACOPY RETURNDATASIZE PUSH0 REVERT JUMPDEST POP POP POP POP PUSH1 0x40 MLOAD RETURNDATASIZE PUSH0 DUP3 RETURNDATACOPY RETURNDATASIZE PUSH1 0x1F NOT PUSH1 0x1F DUP3 ADD AND DUP3 ADD DUP1 PUSH1 0x40 MSTORE POP DUP2 ADD SWAP1 PUSH2 0x69A SWAP2 SWAP1 PUSH2 0x1CC7 JUMP JUMPDEST SWAP1 POP PUSH1 0x60 TIMESTAMP DUP3 PUSH1 0x40 ADD MLOAD LT ISZERO PUSH2 0x74F JUMPI PUSH1 0x1 PUSH0 SWAP1 SLOAD SWAP1 PUSH2 0x100 EXP SWAP1 DIV PUSH20 0xFFFFFFFFFFFFFFFFFFFFFFFFFFFFFFFFFFFFFFFF AND PUSH20 0xFFFFFFFFFFFFFFFFFFFFFFFFFFFFFFFFFFFFFFFF AND PUSH4 0xFB7344D0 DUP6 PUSH1 0x40 MLOAD DUP3 PUSH4 0xFFFFFFFF AND PUSH1 0xE0 SHL DUP2 MSTORE PUSH1 0x4 ADD PUSH2 0x704 SWAP2 SWAP1 PUSH2 0x164F JUMP JUMPDEST PUSH0 PUSH1 0x40 MLOAD DUP1 DUP4 SUB DUP2 DUP7 GAS STATICCALL ISZERO DUP1 ISZERO PUSH2 0x71E JUMPI RETURNDATASIZE PUSH0 DUP1 RETURNDATACOPY RETURNDATASIZE PUSH0 REVERT JUMPDEST POP POP POP POP PUSH1 0x40 MLOAD RETURNDATASIZE PUSH0 DUP3 RETURNDATACOPY RETURNDATASIZE PUSH1 0x1F NOT PUSH1 0x1F DUP3 ADD AND DUP3 ADD DUP1 PUSH1 0x40 MSTORE POP DUP2 ADD SWAP1 PUSH2 0x746 SWAP2 SWAP1 PUSH2 0x1772 JUMP JUMPDEST SWAP3 POP POP POP PUSH2 0x755 JUMP JUMPDEST DUP1 SWAP3 POP POP POP JUMPDEST SWAP2 SWAP1 POP JUMP JUMPDEST PUSH1 0x60 PUSH0 PUSH1 0x40 MLOAD DUP1 PUSH1 0x40 ADD PUSH1 0x40 MSTORE DUP1 DUP6 PUSH0 DUP2 MLOAD DUP2 LT PUSH2 0x77B JUMPI PUSH2 0x77A PUSH2 0x1613 JUMP JUMPDEST JUMPDEST PUSH1 0x20 MUL PUSH1 0x20 ADD ADD MLOAD PUSH1 0x20 ADD MLOAD DUP2 MSTORE PUSH1 0x20 ADD DUP6 PUSH0 DUP2 MLOAD DUP2 LT PUSH2 0x79F JUMPI PUSH2 0x79E PUSH2 0x1613 JUMP JUMPDEST JUMPDEST PUSH1 0x20 MUL PUSH1 0x20 ADD ADD MLOAD PUSH1 0x40 ADD MLOAD DUP2 MSTORE POP SWAP1 POP PUSH0 PUSH1 0x1 SWAP1 POP JUMPDEST DUP5 MLOAD DUP2 LT ISZERO PUSH2 0x82D JUMPI PUSH0 PUSH1 0x40 MLOAD DUP1 PUSH1 0x40 ADD PUSH1 0x40 MSTORE DUP1 DUP8 DUP5 DUP2 MLOAD DUP2 LT PUSH2 0x7DE JUMPI PUSH2 0x7DD PUSH2 0x1613 JUMP JUMPDEST JUMPDEST PUSH1 0x20 MUL PUSH1 0x20 ADD ADD MLOAD PUSH1 0x20 ADD MLOAD DUP2 MSTORE PUSH1 0x20 ADD DUP8 DUP5 DUP2 MLOAD DUP2 LT PUSH2 0x802 JUMPI PUSH2 0x801 PUSH2 0x1613 JUMP JUMPDEST JUMPDEST PUSH1 0x20 MUL PUSH1 0x20 ADD ADD MLOAD PUSH1 0x40 ADD MLOAD DUP2 MSTORE POP SWAP1 POP PUSH2 0x81D DUP4 DUP3 PUSH2 0xDC6 JUMP JUMPDEST SWAP3 POP POP DUP1 DUP1 PUSH1 0x1 ADD SWAP2 POP POP PUSH2 0x7B6 JUMP JUMPDEST POP PUSH0 PUSH32 0x30644E72E131A029B85045B68181585D97816A916871CA8D3C208C16D87CFD47 DUP3 PUSH1 0x20 ADD MLOAD DUP6 PUSH1 0x40 ADD MLOAD PUSH2 0x864 SWAP2 SWAP1 PUSH2 0x1D0E JUMP JUMPDEST PUSH2 0x86E SWAP2 SWAP1 PUSH2 0x1D6E JUMP JUMPDEST PUSH32 0x30644E72E131A029B85045B68181585D97816A916871CA8D3C208C16D87CFD47 DUP4 PUSH0 ADD MLOAD DUP7 PUSH1 0x20 ADD MLOAD PUSH2 0x8A2 SWAP2 SWAP1 PUSH2 0x1D0E JUMP JUMPDEST PUSH2 0x8AC SWAP2 SWAP1 PUSH2 0x1D6E JUMP JUMPDEST PUSH2 0x8B6 SWAP2 SWAP1 PUSH2 0x1AAF JUMP JUMPDEST SWAP1 POP PUSH2 0x8C1 DUP2 PUSH2 0x588 JUMP JUMPDEST SWAP3 POP POP POP SWAP3 SWAP2 POP POP JUMP JUMPDEST PUSH2 0x8D3 PUSH2 0xEB4 JUMP JUMPDEST PUSH0 PUSH1 0x1 PUSH0 SWAP1 SLOAD SWAP1 PUSH2 0x100 EXP SWAP1 DIV PUSH20 0xFFFFFFFFFFFFFFFFFFFFFFFFFFFFFFFFFFFFFFFF AND PUSH20 0xFFFFFFFFFFFFFFFFFFFFFFFFFFFFFFFFFFFFFFFF AND PUSH4 0xFB7344D0 DUP5 PUSH1 0x40 MLOAD DUP3 PUSH4 0xFFFFFFFF AND PUSH1 0xE0 SHL DUP2 MSTORE PUSH1 0x4 ADD PUSH2 0x92E SWAP2 SWAP1 PUSH2 0x164F JUMP JUMPDEST PUSH0 PUSH1 0x40 MLOAD DUP1 DUP4 SUB DUP2 DUP7 GAS STATICCALL ISZERO DUP1 ISZERO PUSH2 0x948 JUMPI RETURNDATASIZE PUSH0 DUP1 RETURNDATACOPY RETURNDATASIZE PUSH0 REVERT JUMPDEST POP POP POP POP PUSH1 0x40 MLOAD RETURNDATASIZE PUSH0 DUP3 RETURNDATACOPY RETURNDATASIZE PUSH1 0x1F NOT PUSH1 0x1F DUP3 ADD AND DUP3 ADD DUP1 PUSH1 0x40 MSTORE POP DUP2 ADD SWAP1 PUSH2 0x970 SWAP2 SWAP1 PUSH2 0x1772 JUMP JUMPDEST SWAP1 POP PUSH2 0x97A PUSH2 0xEB4 JUMP JUMPDEST DUP2 MLOAD PUSH1 0x3 PUSH0 DUP7 DUP2 MSTORE PUSH1 0x20 ADD SWAP1 DUP2 MSTORE PUSH1 0x20 ADD PUSH0 KECCAK256 PUSH1 0xC ADD SLOAD LT ISZERO PUSH2 0x9A1 JUMPI DUP1 SWAP3 POP POP POP PUSH2 0xDC1 JUMP JUMPDEST PUSH0 PUSH1 0x3 PUSH0 DUP7 DUP2 MSTORE PUSH1 0x20 ADD SWAP1 DUP2 MSTORE PUSH1 0x20 ADD PUSH0 KECCAK256 PUSH1 0xB ADD DUP1 SLOAD DUP1 PUSH1 0x20 MUL PUSH1 0x20 ADD PUSH1 0x40 MLOAD SWAP1 DUP2 ADD PUSH1 0x40 MSTORE DUP1 SWAP3 SWAP2 SWAP1 DUP2 DUP2 MSTORE PUSH1 0x20 ADD DUP3 DUP1 SLOAD DUP1 ISZERO PUSH2 0x9FE JUMPI PUSH1 0x20 MUL DUP3 ADD SWAP2 SWAP1 PUSH0 MSTORE PUSH1 0x20 PUSH0 KECCAK256 SWAP1 JUMPDEST DUP2 SLOAD DUP2 MSTORE PUSH1 0x20 ADD SWAP1 PUSH1 0x1 ADD SWAP1 DUP1 DUP4 GT PUSH2 0x9EA JUMPI JUMPDEST POP POP POP POP POP SWAP1 POP PUSH0 JUMPDEST DUP2 MLOAD DUP2 LT ISZERO PUSH2 0xD6A JUMPI PUSH0 PUSH1 0x3 PUSH0 DUP9 DUP2 MSTORE PUSH1 0x20 ADD SWAP1 DUP2 MSTORE PUSH1 0x20 ADD PUSH0 KECCAK256 PUSH0 ADD PUSH0 DUP5 DUP5 DUP2 MLOAD DUP2 LT PUSH2 0xA38 JUMPI PUSH2 0xA37 PUSH2 0x1613 JUMP JUMPDEST JUMPDEST PUSH1 0x20 MUL PUSH1 0x20 ADD ADD MLOAD DUP2 MSTORE PUSH1 0x20 ADD SWAP1 DUP2 MSTORE PUSH1 0x20 ADD PUSH0 KECCAK256 PUSH1 0x40 MLOAD DUP1 PUSH1 0x80 ADD PUSH1 0x40 MSTORE SWAP1 DUP2 PUSH0 DUP3 ADD DUP1 SLOAD DUP1 PUSH1 0x20 MUL PUSH1 0x20 ADD PUSH1 0x40 MLOAD SWAP1 DUP2 ADD PUSH1 0x40 MSTORE DUP1 SWAP3 SWAP2 SWAP1 DUP2 DUP2 MSTORE PUSH1 0x20 ADD PUSH0 SWAP1 JUMPDEST DUP3 DUP3 LT ISZERO PUSH2 0xAC8 JUMPI DUP4 DUP3 SWAP1 PUSH0 MSTORE PUSH1 0x20 PUSH0 KECCAK256 SWAP1 PUSH1 0x3 MUL ADD PUSH1 0x40 MLOAD DUP1 PUSH1 0x60 ADD PUSH1 0x40 MSTORE SWAP1 DUP2 PUSH0 DUP3 ADD SLOAD DUP2 MSTORE PUSH1 0x20 ADD PUSH1 0x1 DUP3 ADD SLOAD DUP2 MSTORE PUSH1 0x20 ADD PUSH1 0x2 DUP3 ADD SLOAD DUP2 MSTORE POP POP DUP2 MSTORE PUSH1 0x20 ADD SWAP1 PUSH1 0x1 ADD SWAP1 PUSH2 0xA7B JUMP JUMPDEST POP POP POP POP DUP2 MSTORE PUSH1 0x20 ADD PUSH1 0x1 DUP3 ADD DUP1 SLOAD PUSH2 0xAE0 SWAP1 PUSH2 0x17E6 JUMP JUMPDEST DUP1 PUSH1 0x1F ADD PUSH1 0x20 DUP1 SWAP2 DIV MUL PUSH1 0x20 ADD PUSH1 0x40 MLOAD SWAP1 DUP2 ADD PUSH1 0x40 MSTORE DUP1 SWAP3 SWAP2 SWAP1 DUP2 DUP2 MSTORE PUSH1 0x20 ADD DUP3 DUP1 SLOAD PUSH2 0xB0C SWAP1 PUSH2 0x17E6 JUMP JUMPDEST DUP1 ISZERO PUSH2 0xB57 JUMPI DUP1 PUSH1 0x1F LT PUSH2 0xB2E JUMPI PUSH2 0x100 DUP1 DUP4 SLOAD DIV MUL DUP4 MSTORE SWAP2 PUSH1 0x20 ADD SWAP2 PUSH2 0xB57 JUMP JUMPDEST DUP3 ADD SWAP2 SWAP1 PUSH0 MSTORE PUSH1 0x20 PUSH0 KECCAK256 SWAP1 JUMPDEST DUP2 SLOAD DUP2 MSTORE SWAP1 PUSH1 0x1 ADD SWAP1 PUSH1 0x20 ADD DUP1 DUP4 GT PUSH2 0xB3A JUMPI DUP3 SWAP1 SUB PUSH1 0x1F AND DUP3 ADD SWAP2 JUMPDEST POP POP POP POP POP DUP2 MSTORE PUSH1 0x20 ADD PUSH1 0x2 DUP3 ADD PUSH0 SWAP1 SLOAD SWAP1 PUSH2 0x100 EXP SWAP1 DIV PUSH1 0xFF AND ISZERO ISZERO ISZERO ISZERO DUP2 MSTORE PUSH1 0x20 ADD PUSH1 0x2 DUP3 ADD PUSH1 0x1 SWAP1 SLOAD SWAP1 PUSH2 0x100 EXP SWAP1 DIV PUSH1 0xFF AND ISZERO ISZERO ISZERO ISZERO DUP2 MSTORE POP POP SWAP1 POP PUSH0 DUP2 PUSH1 0x20 ADD MLOAD SWAP1 POP PUSH0 DUP1 PUSH1 0x1 SWAP1 POP JUMPDEST DUP3 MLOAD DUP2 LT ISZERO PUSH2 0xD59 JUMPI PUSH1 0x30 PUSH1 0xF8 SHL PUSH2 0xBBE DUP4 DUP6 PUSH2 0x1BB JUMP JUMPDEST PUSH31 0xFFFFFFFFFFFFFFFFFFFFFFFFFFFFFFFFFFFFFFFFFFFFFFFFFFFFFFFFFFFFFF NOT AND LT ISZERO DUP1 ISZERO PUSH2 0xC1D JUMPI POP PUSH1 0x39 PUSH1 0xF8 SHL PUSH2 0xBF8 DUP4 DUP6 PUSH2 0x1BB JUMP JUMPDEST PUSH31 0xFFFFFFFFFFFFFFFFFFFFFFFFFFFFFFFFFFFFFFFFFFFFFFFFFFFFFFFFFFFFFF NOT AND GT ISZERO JUMPDEST ISZERO PUSH2 0xCF8 JUMPI PUSH1 0x1 PUSH1 0x3 PUSH0 DUP13 DUP2 MSTORE PUSH1 0x20 ADD SWAP1 DUP2 MSTORE PUSH1 0x20 ADD PUSH0 KECCAK256 PUSH1 0x1 ADD PUSH1 0x30 PUSH2 0xC64 PUSH32 0x30644E72E131A029B85045B68181585D97816A916871CA8D3C208C16D87CFD47 DUP8 PUSH2 0x1BB JUMP JUMPDEST PUSH1 0xF8 SHR PUSH2 0xC71 SWAP2 SWAP1 PUSH2 0x1DAA JUMP JUMPDEST PUSH1 0xFF AND PUSH1 0xA DUP2 LT PUSH2 0xC85 JUMPI PUSH2 0xC84 PUSH2 0x1613 JUMP JUMPDEST JUMPDEST ADD SLOAD PUSH2 0xC91 SWAP2 SWAP1 PUSH2 0x1AAF JUMP JUMPDEST PUSH1 0x3 PUSH0 DUP13 DUP2 MSTORE PUSH1 0x20 ADD SWAP1 DUP2 MSTORE PUSH1 0x20 ADD PUSH0 KECCAK256 PUSH1 0x1 ADD PUSH1 0x30 PUSH2 0xCD1 PUSH32 0x30644E72E131A029B85045B68181585D97816A916871CA8D3C208C16D87CFD47 DUP8 PUSH2 0x1BB JUMP JUMPDEST PUSH1 0xF8 SHR PUSH2 0xCDE SWAP2 SWAP1 PUSH2 0x1DAA JUMP JUMPDEST PUSH1 0xFF AND PUSH1 0xA DUP2 LT PUSH2 0xCF2 JUMPI PUSH2 0xCF1 PUSH2 0x1613 JUMP JUMPDEST JUMPDEST ADD DUP2 SWAP1 SSTORE POP JUMPDEST PUSH1 0x26 PUSH1 0xF8 SHL PUSH2 0xD07 DUP3 DUP6 PUSH2 0x1BB JUMP JUMPDEST PUSH31 0xFFFFFFFFFFFFFFFFFFFFFFFFFFFFFFFFFFFFFFFFFFFFFFFFFFFFFFFFFFFFFF NOT AND SUB PUSH2 0xD4F JUMPI DUP2 DUP1 PUSH2 0xD39 SWAP1 PUSH2 0x1DDE JUMP JUMPDEST SWAP3 POP POP DUP1 DUP1 PUSH2 0xD47 SWAP1 PUSH2 0x1DDE JUMP JUMPDEST SWAP2 POP POP PUSH2 0xD54 JUMP JUMPDEST PUSH2 0xD59 JUMP JUMPDEST PUSH2 0xBA6 JUMP JUMPDEST POP POP POP POP DUP1 DUP1 PUSH1 0x1 ADD SWAP2 POP POP PUSH2 0xA07 JUMP JUMPDEST POP PUSH1 0x3 PUSH0 DUP7 DUP2 MSTORE PUSH1 0x20 ADD SWAP1 DUP2 MSTORE PUSH1 0x20 ADD PUSH0 KECCAK256 PUSH1 0x1 ADD PUSH1 0xA DUP1 PUSH1 0x20 MUL PUSH1 0x40 MLOAD SWAP1 DUP2 ADD PUSH1 0x40 MSTORE DUP1 SWAP3 SWAP2 SWAP1 DUP3 PUSH1 0xA DUP1 ISZERO PUSH2 0xDB6 JUMPI PUSH1 0x20 MUL DUP3 ADD SWAP2 JUMPDEST DUP2 SLOAD DUP2 MSTORE PUSH1 0x20 ADD SWAP1 PUSH1 0x1 ADD SWAP1 DUP1 DUP4 GT PUSH2 0xDA2 JUMPI JUMPDEST POP POP POP POP POP SWAP4 POP POP POP POP JUMPDEST SWAP2 SWAP1 POP JUMP JUMPDEST PUSH2 0xDCE PUSH2 0xED7 JUMP JUMPDEST PUSH2 0xDD6 PUSH2 0xEEF JUMP JUMPDEST DUP4 PUSH0 ADD MLOAD DUP2 PUSH0 PUSH1 0x4 DUP2 LT PUSH2 0xDED JUMPI PUSH2 0xDEC PUSH2 0x1613 JUMP JUMPDEST JUMPDEST PUSH1 0x20 MUL ADD DUP2 DUP2 MSTORE POP POP DUP4 PUSH1 0x20 ADD MLOAD DUP2 PUSH1 0x1 PUSH1 0x4 DUP2 LT PUSH2 0xE0F JUMPI PUSH2 0xE0E PUSH2 0x1613 JUMP JUMPDEST JUMPDEST PUSH1 0x20 MUL ADD DUP2 DUP2 MSTORE POP POP DUP3 PUSH0 ADD MLOAD DUP2 PUSH1 0x2 PUSH1 0x4 DUP2 LT PUSH2 0xE30 JUMPI PUSH2 0xE2F PUSH2 0x1613 JUMP JUMPDEST JUMPDEST PUSH1 0x20 MUL ADD DUP2 DUP2 MSTORE POP POP DUP3 PUSH1 0x20 ADD MLOAD DUP2 PUSH1 0x3 PUSH1 0x4 DUP2 LT PUSH2 0xE52 JUMPI PUSH2 0xE51 PUSH2 0x1613 JUMP JUMPDEST JUMPDEST PUSH1 0x20 MUL ADD DUP2 DUP2 MSTORE POP POP PUSH0 PUSH1 0x40 DUP4 PUSH1 0x80 DUP5 PUSH1 0x6 PUSH2 0x7D0 GAS SUB STATICCALL SWAP1 POP DUP1 PUSH2 0xEAC JUMPI PUSH1 0x40 MLOAD PUSH32 0x8C379A000000000000000000000000000000000000000000000000000000000 DUP2 MSTORE PUSH1 0x4 ADD PUSH2 0xEA3 SWAP1 PUSH2 0x1E6F JUMP JUMPDEST PUSH1 0x40 MLOAD DUP1 SWAP2 SUB SWAP1 REVERT JUMPDEST POP POP SWAP3 SWAP2 POP POP JUMP JUMPDEST PUSH1 0x40 MLOAD DUP1 PUSH2 0x140 ADD PUSH1 0x40 MSTORE DUP1 PUSH1 0xA SWAP1 PUSH1 0x20 DUP3 MUL DUP1 CALLDATASIZE DUP4 CALLDATACOPY DUP1 DUP3 ADD SWAP2 POP POP SWAP1 POP POP SWAP1 JUMP JUMPDEST PUSH1 0x40 MLOAD DUP1 PUSH1 0x40 ADD PUSH1 0x40 MSTORE DUP1 PUSH0 DUP2 MSTORE PUSH1 0x20 ADD PUSH0 DUP2 MSTORE POP SWAP1 JUMP JUMPDEST PUSH1 0x40 MLOAD DUP1 PUSH1 0x80 ADD PUSH1 0x40 MSTORE DUP1 PUSH1 0x4 SWAP1 PUSH1 0x20 DUP3 MUL DUP1 CALLDATASIZE DUP4 CALLDATACOPY DUP1 DUP3 ADD SWAP2 POP POP SWAP1 POP POP SWAP1 JUMP JUMPDEST PUSH0 PUSH1 0x40 MLOAD SWAP1 POP SWAP1 JUMP JUMPDEST PUSH0 DUP1 REVERT JUMPDEST PUSH0 DUP1 REVERT JUMPDEST PUSH0 DUP2 SWAP1 POP SWAP2 SWAP1 POP JUMP JUMPDEST PUSH2 0xF34 DUP2 PUSH2 0xF22 JUMP JUMPDEST DUP2 EQ PUSH2 0xF3E JUMPI PUSH0 DUP1 REVERT JUMPDEST POP JUMP JUMPDEST PUSH0 DUP2 CALLDATALOAD SWAP1 POP PUSH2 0xF4F DUP2 PUSH2 0xF2B JUMP JUMPDEST SWAP3 SWAP2 POP POP JUMP JUMPDEST PUSH0 DUP1 REVERT JUMPDEST PUSH0 DUP1 REVERT JUMPDEST PUSH0 PUSH1 0x1F NOT PUSH1 0x1F DUP4 ADD AND SWAP1 POP SWAP2 SWAP1 POP JUMP JUMPDEST PUSH32 0x4E487B7100000000000000000000000000000000000000000000000000000000 PUSH0 MSTORE PUSH1 0x41 PUSH1 0x4 MSTORE PUSH1 0x24 PUSH0 REVERT JUMPDEST PUSH2 0xFA3 DUP3 PUSH2 0xF5D JUMP JUMPDEST DUP2 ADD DUP2 DUP2 LT PUSH8 0xFFFFFFFFFFFFFFFF DUP3 GT OR ISZERO PUSH2 0xFC2 JUMPI PUSH2 0xFC1 PUSH2 0xF6D JUMP JUMPDEST JUMPDEST DUP1 PUSH1 0x40 MSTORE POP POP POP JUMP JUMPDEST PUSH0 PUSH2 0xFD4 PUSH2 0xF11 JUMP JUMPDEST SWAP1 POP PUSH2 0xFE0 DUP3 DUP3 PUSH2 0xF9A JUMP JUMPDEST SWAP2 SWAP1 POP JUMP JUMPDEST PUSH0 PUSH8 0xFFFFFFFFFFFFFFFF DUP3 GT ISZERO PUSH2 0xFFF JUMPI PUSH2 0xFFE PUSH2 0xF6D JUMP JUMPDEST JUMPDEST PUSH2 0x1008 DUP3 PUSH2 0xF5D JUMP JUMPDEST SWAP1 POP PUSH1 0x20 DUP2 ADD SWAP1 POP SWAP2 SWAP1 POP JUMP JUMPDEST DUP3 DUP2 DUP4 CALLDATACOPY PUSH0 DUP4 DUP4 ADD MSTORE POP POP POP JUMP JUMPDEST PUSH0 PUSH2 0x1035 PUSH2 0x1030 DUP5 PUSH2 0xFE5 JUMP JUMPDEST PUSH2 0xFCB JUMP JUMPDEST SWAP1 POP DUP3 DUP2 MSTORE PUSH1 0x20 DUP2 ADD DUP5 DUP5 DUP5 ADD GT ISZERO PUSH2 0x1051 JUMPI PUSH2 0x1050 PUSH2 0xF59 JUMP JUMPDEST JUMPDEST PUSH2 0x105C DUP5 DUP3 DUP6 PUSH2 0x1015 JUMP JUMPDEST POP SWAP4 SWAP3 POP POP POP JUMP JUMPDEST PUSH0 DUP3 PUSH1 0x1F DUP4 ADD SLT PUSH2 0x1078 JUMPI PUSH2 0x1077 PUSH2 0xF55 JUMP JUMPDEST JUMPDEST DUP2 CALLDATALOAD PUSH2 0x1088 DUP5 DUP3 PUSH1 0x20 DUP7 ADD PUSH2 0x1023 JUMP JUMPDEST SWAP2 POP POP SWAP3 SWAP2 POP POP JUMP JUMPDEST PUSH0 DUP1 PUSH1 0x40 DUP4 DUP6 SUB SLT ISZERO PUSH2 0x10A7 JUMPI PUSH2 0x10A6 PUSH2 0xF1A JUMP JUMPDEST JUMPDEST PUSH0 PUSH2 0x10B4 DUP6 DUP3 DUP7 ADD PUSH2 0xF41 JUMP JUMPDEST SWAP3 POP POP PUSH1 0x20 DUP4 ADD CALLDATALOAD PUSH8 0xFFFFFFFFFFFFFFFF DUP2 GT ISZERO PUSH2 0x10D5 JUMPI PUSH2 0x10D4 PUSH2 0xF1E JUMP JUMPDEST JUMPDEST PUSH2 0x10E1 DUP6 DUP3 DUP7 ADD PUSH2 0x1064 JUMP JUMPDEST SWAP2 POP POP SWAP3 POP SWAP3 SWAP1 POP JUMP JUMPDEST PUSH0 PUSH32 0xFF00000000000000000000000000000000000000000000000000000000000000 DUP3 AND SWAP1 POP SWAP2 SWAP1 POP JUMP JUMPDEST PUSH2 0x111F DUP2 PUSH2 0x10EB JUMP JUMPDEST DUP3 MSTORE POP POP JUMP JUMPDEST PUSH0 PUSH1 0x20 DUP3 ADD SWAP1 POP PUSH2 0x1138 PUSH0 DUP4 ADD DUP5 PUSH2 0x1116 JUMP JUMPDEST SWAP3 SWAP2 POP POP JUMP JUMPDEST PUSH0 DUP1 REVERT JUMPDEST PUSH0 DUP1 REVERT JUMPDEST PUSH0 PUSH1 0x60 DUP3 DUP5 SUB SLT ISZERO PUSH2 0x115B JUMPI PUSH2 0x115A PUSH2 0x113E JUMP JUMPDEST JUMPDEST PUSH2 0x1165 PUSH1 0x60 PUSH2 0xFCB JUMP JUMPDEST SWAP1 POP PUSH0 PUSH2 0x1174 DUP5 DUP3 DUP6 ADD PUSH2 0xF41 JUMP JUMPDEST PUSH0 DUP4 ADD MSTORE POP PUSH1 0x20 PUSH2 0x1187 DUP5 DUP3 DUP6 ADD PUSH2 0xF41 JUMP JUMPDEST PUSH1 0x20 DUP4 ADD MSTORE POP PUSH1 0x40 PUSH2 0x119B DUP5 DUP3 DUP6 ADD PUSH2 0xF41 JUMP JUMPDEST PUSH1 0x40 DUP4 ADD MSTORE POP SWAP3 SWAP2 POP POP JUMP JUMPDEST PUSH0 DUP1 PUSH0 PUSH1 0xA0 DUP5 DUP7 SUB SLT ISZERO PUSH2 0x11BE JUMPI PUSH2 0x11BD PUSH2 0xF1A JUMP JUMPDEST JUMPDEST PUSH0 PUSH2 0x11CB DUP7 DUP3 DUP8 ADD PUSH2 0xF41 JUMP JUMPDEST SWAP4 POP POP PUSH1 0x20 PUSH2 0x11DC DUP7 DUP3 DUP8 ADD PUSH2 0xF41 JUMP JUMPDEST SWAP3 POP POP PUSH1 0x40 PUSH2 0x11ED DUP7 DUP3 DUP8 ADD PUSH2 0x1146 JUMP JUMPDEST SWAP2 POP POP SWAP3 POP SWAP3 POP SWAP3 JUMP JUMPDEST PUSH0 PUSH1 0x20 DUP3 DUP5 SUB SLT ISZERO PUSH2 0x120C JUMPI PUSH2 0x120B PUSH2 0xF1A JUMP JUMPDEST JUMPDEST PUSH0 PUSH2 0x1219 DUP5 DUP3 DUP6 ADD PUSH2 0xF41 JUMP JUMPDEST SWAP2 POP POP SWAP3 SWAP2 POP POP JUMP JUMPDEST PUSH0 DUP2 MLOAD SWAP1 POP SWAP2 SWAP1 POP JUMP JUMPDEST PUSH0 DUP3 DUP3 MSTORE PUSH1 0x20 DUP3 ADD SWAP1 POP SWAP3 SWAP2 POP POP JUMP JUMPDEST PUSH0 JUMPDEST DUP4 DUP2 LT ISZERO PUSH2 0x1259 JUMPI DUP1 DUP3 ADD MLOAD DUP2 DUP5 ADD MSTORE PUSH1 0x20 DUP2 ADD SWAP1 POP PUSH2 0x123E JUMP JUMPDEST PUSH0 DUP5 DUP5 ADD MSTORE POP POP POP POP JUMP JUMPDEST PUSH0 PUSH2 0x126E DUP3 PUSH2 0x1222 JUMP JUMPDEST PUSH2 0x1278 DUP2 DUP6 PUSH2 0x122C JUMP JUMPDEST SWAP4 POP PUSH2 0x1288 DUP2 DUP6 PUSH1 0x20 DUP7 ADD PUSH2 0x123C JUMP JUMPDEST PUSH2 0x1291 DUP2 PUSH2 0xF5D JUMP JUMPDEST DUP5 ADD SWAP2 POP POP SWAP3 SWAP2 POP POP JUMP JUMPDEST PUSH0 PUSH1 0x20 DUP3 ADD SWAP1 POP DUP2 DUP2 SUB PUSH0 DUP4 ADD MSTORE PUSH2 0x12B4 DUP2 DUP5 PUSH2 0x1264 JUMP JUMPDEST SWAP1 POP SWAP3 SWAP2 POP POP JUMP JUMPDEST PUSH0 DUP2 MLOAD SWAP1 POP SWAP2 SWAP1 POP JUMP JUMPDEST PUSH0 DUP3 DUP3 MSTORE PUSH1 0x20 DUP3 ADD SWAP1 POP SWAP3 SWAP2 POP POP JUMP JUMPDEST PUSH0 PUSH2 0x12E0 DUP3 PUSH2 0x12BC JUMP JUMPDEST PUSH2 0x12EA DUP2 DUP6 PUSH2 0x12C6 JUMP JUMPDEST SWAP4 POP PUSH2 0x12FA DUP2 DUP6 PUSH1 0x20 DUP7 ADD PUSH2 0x123C JUMP JUMPDEST PUSH2 0x1303 DUP2 PUSH2 0xF5D JUMP JUMPDEST DUP5 ADD SWAP2 POP POP SWAP3 SWAP2 POP POP JUMP JUMPDEST PUSH0 PUSH1 0x20 DUP3 ADD SWAP1 POP DUP2 DUP2 SUB PUSH0 DUP4 ADD MSTORE PUSH2 0x1326 DUP2 DUP5 PUSH2 0x12D6 JUMP JUMPDEST SWAP1 POP SWAP3 SWAP2 POP POP JUMP JUMPDEST PUSH0 DUP2 MLOAD SWAP1 POP SWAP2 SWAP1 POP JUMP JUMPDEST PUSH0 DUP3 DUP3 MSTORE PUSH1 0x20 DUP3 ADD SWAP1 POP SWAP3 SWAP2 POP POP JUMP JUMPDEST PUSH0 DUP2 SWAP1 POP PUSH1 0x20 DUP3 ADD SWAP1 POP SWAP2 SWAP1 POP JUMP JUMPDEST PUSH2 0x1360 DUP2 PUSH2 0xF22 JUMP JUMPDEST DUP3 MSTORE POP POP JUMP JUMPDEST PUSH1 0x60 DUP3 ADD PUSH0 DUP3 ADD MLOAD PUSH2 0x137A PUSH0 DUP6 ADD DUP3 PUSH2 0x1357 JUMP JUMPDEST POP PUSH1 0x20 DUP3 ADD MLOAD PUSH2 0x138D PUSH1 0x20 DUP6 ADD DUP3 PUSH2 0x1357 JUMP JUMPDEST POP PUSH1 0x40 DUP3 ADD MLOAD PUSH2 0x13A0 PUSH1 0x40 DUP6 ADD DUP3 PUSH2 0x1357 JUMP JUMPDEST POP POP POP POP JUMP JUMPDEST PUSH0 PUSH2 0x13B1 DUP4 DUP4 PUSH2 0x1366 JUMP JUMPDEST PUSH1 0x60 DUP4 ADD SWAP1 POP SWAP3 SWAP2 POP POP JUMP JUMPDEST PUSH0 PUSH1 0x20 DUP3 ADD SWAP1 POP SWAP2 SWAP1 POP JUMP JUMPDEST PUSH0 PUSH2 0x13D3 DUP3 PUSH2 0x132E JUMP JUMPDEST PUSH2 0x13DD DUP2 DUP6 PUSH2 0x1338 JUMP JUMPDEST SWAP4 POP PUSH2 0x13E8 DUP4 PUSH2 0x1348 JUMP JUMPDEST DUP1 PUSH0 JUMPDEST DUP4 DUP2 LT ISZERO PUSH2 0x1418 JUMPI DUP2 MLOAD PUSH2 0x13FF DUP9 DUP3 PUSH2 0x13A6 JUMP JUMPDEST SWAP8 POP PUSH2 0x140A DUP4 PUSH2 0x13BD JUMP JUMPDEST SWAP3 POP POP PUSH1 0x1 DUP2 ADD SWAP1 POP PUSH2 0x13EB JUMP JUMPDEST POP DUP6 SWAP4 POP POP POP POP SWAP3 SWAP2 POP POP JUMP JUMPDEST PUSH0 PUSH1 0x20 DUP3 ADD SWAP1 POP DUP2 DUP2 SUB PUSH0 DUP4 ADD MSTORE PUSH2 0x143D DUP2 DUP5 PUSH2 0x13C9 JUMP JUMPDEST SWAP1 POP SWAP3 SWAP2 POP POP JUMP JUMPDEST PUSH0 PUSH8 0xFFFFFFFFFFFFFFFF DUP3 GT ISZERO PUSH2 0x145F JUMPI PUSH2 0x145E PUSH2 0xF6D JUMP JUMPDEST JUMPDEST PUSH1 0x20 DUP3 MUL SWAP1 POP PUSH1 0x20 DUP2 ADD SWAP1 POP SWAP2 SWAP1 POP JUMP JUMPDEST PUSH0 DUP1 REVERT JUMPDEST PUSH0 PUSH2 0x1486 PUSH2 0x1481 DUP5 PUSH2 0x1445 JUMP JUMPDEST PUSH2 0xFCB JUMP JUMPDEST SWAP1 POP DUP1 DUP4 DUP3 MSTORE PUSH1 0x20 DUP3 ADD SWAP1 POP PUSH1 0x60 DUP5 MUL DUP4 ADD DUP6 DUP2 GT ISZERO PUSH2 0x14A9 JUMPI PUSH2 0x14A8 PUSH2 0x1470 JUMP JUMPDEST JUMPDEST DUP4 JUMPDEST DUP2 DUP2 LT ISZERO PUSH2 0x14D2 JUMPI DUP1 PUSH2 0x14BE DUP9 DUP3 PUSH2 0x1146 JUMP JUMPDEST DUP5 MSTORE PUSH1 0x20 DUP5 ADD SWAP4 POP POP PUSH1 0x60 DUP2 ADD SWAP1 POP PUSH2 0x14AB JUMP JUMPDEST POP POP POP SWAP4 SWAP3 POP POP POP JUMP JUMPDEST PUSH0 DUP3 PUSH1 0x1F DUP4 ADD SLT PUSH2 0x14F0 JUMPI PUSH2 0x14EF PUSH2 0xF55 JUMP JUMPDEST JUMPDEST DUP2 CALLDATALOAD PUSH2 0x1500 DUP5 DUP3 PUSH1 0x20 DUP7 ADD PUSH2 0x1474 JUMP JUMPDEST SWAP2 POP POP SWAP3 SWAP2 POP POP JUMP JUMPDEST PUSH0 DUP1 PUSH1 0x80 DUP4 DUP6 SUB SLT ISZERO PUSH2 0x151F JUMPI PUSH2 0x151E PUSH2 0xF1A JUMP JUMPDEST JUMPDEST PUSH0 DUP4 ADD CALLDATALOAD PUSH8 0xFFFFFFFFFFFFFFFF DUP2 GT ISZERO PUSH2 0x153C JUMPI PUSH2 0x153B PUSH2 0xF1E JUMP JUMPDEST JUMPDEST PUSH2 0x1548 DUP6 DUP3 DUP7 ADD PUSH2 0x14DC JUMP JUMPDEST SWAP3 POP POP PUSH1 0x20 PUSH2 0x1559 DUP6 DUP3 DUP7 ADD PUSH2 0x1146 JUMP JUMPDEST SWAP2 POP POP SWAP3 POP SWAP3 SWAP1 POP JUMP JUMPDEST PUSH0 PUSH1 0xA SWAP1 POP SWAP2 SWAP1 POP JUMP JUMPDEST PUSH0 DUP2 SWAP1 POP SWAP3 SWAP2 POP POP JUMP JUMPDEST PUSH0 DUP2 SWAP1 POP SWAP2 SWAP1 POP JUMP JUMPDEST PUSH0 PUSH2 0x158B DUP4 DUP4 PUSH2 0x1357 JUMP JUMPDEST PUSH1 0x20 DUP4 ADD SWAP1 POP SWAP3 SWAP2 POP POP JUMP JUMPDEST PUSH0 PUSH1 0x20 DUP3 ADD SWAP1 POP SWAP2 SWAP1 POP JUMP JUMPDEST PUSH2 0x15AC DUP2 PUSH2 0x1563 JUMP JUMPDEST PUSH2 0x15B6 DUP2 DUP5 PUSH2 0x156D JUMP JUMPDEST SWAP3 POP PUSH2 0x15C1 DUP3 PUSH2 0x1577 JUMP JUMPDEST DUP1 PUSH0 JUMPDEST DUP4 DUP2 LT ISZERO PUSH2 0x15F1 JUMPI DUP2 MLOAD PUSH2 0x15D8 DUP8 DUP3 PUSH2 0x1580 JUMP JUMPDEST SWAP7 POP PUSH2 0x15E3 DUP4 PUSH2 0x1597 JUMP JUMPDEST SWAP3 POP POP PUSH1 0x1 DUP2 ADD SWAP1 POP PUSH2 0x15C4 JUMP JUMPDEST POP POP POP POP POP POP JUMP JUMPDEST PUSH0 PUSH2 0x140 DUP3 ADD SWAP1 POP PUSH2 0x160D PUSH0 DUP4 ADD DUP5 PUSH2 0x15A3 JUMP JUMPDEST SWAP3 SWAP2 POP POP JUMP JUMPDEST PUSH32 0x4E487B7100000000000000000000000000000000000000000000000000000000 PUSH0 MSTORE PUSH1 0x32 PUSH1 0x4 MSTORE PUSH1 0x24 PUSH0 REVERT JUMPDEST PUSH2 0x1649 DUP2 PUSH2 0xF22 JUMP JUMPDEST DUP3 MSTORE POP POP JUMP JUMPDEST PUSH0 PUSH1 0x20 DUP3 ADD SWAP1 POP PUSH2 0x1662 PUSH0 DUP4 ADD DUP5 PUSH2 0x1640 JUMP JUMPDEST SWAP3 SWAP2 POP POP JUMP JUMPDEST PUSH0 DUP2 MLOAD SWAP1 POP PUSH2 0x1676 DUP2 PUSH2 0xF2B JUMP JUMPDEST SWAP3 SWAP2 POP POP JUMP JUMPDEST PUSH0 PUSH1 0x60 DUP3 DUP5 SUB SLT ISZERO PUSH2 0x1691 JUMPI PUSH2 0x1690 PUSH2 0x113E JUMP JUMPDEST JUMPDEST PUSH2 0x169B PUSH1 0x60 PUSH2 0xFCB JUMP JUMPDEST SWAP1 POP PUSH0 PUSH2 0x16AA DUP5 DUP3 DUP6 ADD PUSH2 0x1668 JUMP JUMPDEST PUSH0 DUP4 ADD MSTORE POP PUSH1 0x20 PUSH2 0x16BD DUP5 DUP3 DUP6 ADD PUSH2 0x1668 JUMP JUMPDEST PUSH1 0x20 DUP4 ADD MSTORE POP PUSH1 0x40 PUSH2 0x16D1 DUP5 DUP3 DUP6 ADD PUSH2 0x1668 JUMP JUMPDEST PUSH1 0x40 DUP4 ADD MSTORE POP SWAP3 SWAP2 POP POP JUMP JUMPDEST PUSH0 PUSH2 0x16EF PUSH2 0x16EA DUP5 PUSH2 0x1445 JUMP JUMPDEST PUSH2 0xFCB JUMP JUMPDEST SWAP1 POP DUP1 DUP4 DUP3 MSTORE PUSH1 0x20 DUP3 ADD SWAP1 POP PUSH1 0x60 DUP5 MUL DUP4 ADD DUP6 DUP2 GT ISZERO PUSH2 0x1712 JUMPI PUSH2 0x1711 PUSH2 0x1470 JUMP JUMPDEST JUMPDEST DUP4 JUMPDEST DUP2 DUP2 LT ISZERO PUSH2 0x173B JUMPI DUP1 PUSH2 0x1727 DUP9 DUP3 PUSH2 0x167C JUMP JUMPDEST DUP5 MSTORE PUSH1 0x20 DUP5 ADD SWAP4 POP POP PUSH1 0x60 DUP2 ADD SWAP1 POP PUSH2 0x1714 JUMP JUMPDEST POP POP POP SWAP4 SWAP3 POP POP POP JUMP JUMPDEST PUSH0 DUP3 PUSH1 0x1F DUP4 ADD SLT PUSH2 0x1759 JUMPI PUSH2 0x1758 PUSH2 0xF55 JUMP JUMPDEST JUMPDEST DUP2 MLOAD PUSH2 0x1769 DUP5 DUP3 PUSH1 0x20 DUP7 ADD PUSH2 0x16DD JUMP JUMPDEST SWAP2 POP POP SWAP3 SWAP2 POP POP JUMP JUMPDEST PUSH0 PUSH1 0x20 DUP3 DUP5 SUB SLT ISZERO PUSH2 0x1787 JUMPI PUSH2 0x1786 PUSH2 0xF1A JUMP JUMPDEST JUMPDEST PUSH0 DUP3 ADD MLOAD PUSH8 0xFFFFFFFFFFFFFFFF DUP2 GT ISZERO PUSH2 0x17A4 JUMPI PUSH2 0x17A3 PUSH2 0xF1E JUMP JUMPDEST JUMPDEST PUSH2 0x17B0 DUP5 DUP3 DUP6 ADD PUSH2 0x1745 JUMP JUMPDEST SWAP2 POP POP SWAP3 SWAP2 POP POP JUMP JUMPDEST PUSH32 0x4E487B7100000000000000000000000000000000000000000000000000000000 PUSH0 MSTORE PUSH1 0x22 PUSH1 0x4 MSTORE PUSH1 0x24 PUSH0 REVERT JUMPDEST PUSH0 PUSH1 0x2 DUP3 DIV SWAP1 POP PUSH1 0x1 DUP3 AND DUP1 PUSH2 0x17FD JUMPI PUSH1 0x7F DUP3 AND SWAP2 POP JUMPDEST PUSH1 0x20 DUP3 LT DUP2 SUB PUSH2 0x1810 JUMPI PUSH2 0x180F PUSH2 0x17B9 JUMP JUMPDEST JUMPDEST POP SWAP2 SWAP1 POP JUMP JUMPDEST PUSH0 DUP2 SWAP1 POP DUP2 PUSH0 MSTORE PUSH1 0x20 PUSH0 KECCAK256 SWAP1 POP SWAP2 SWAP1 POP JUMP JUMPDEST PUSH0 PUSH1 0x20 PUSH1 0x1F DUP4 ADD DIV SWAP1 POP SWAP2 SWAP1 POP JUMP JUMPDEST PUSH0 DUP3 DUP3 SHL SWAP1 POP SWAP3 SWAP2 POP POP JUMP JUMPDEST PUSH0 PUSH1 0x8 DUP4 MUL PUSH2 0x1872 PUSH32 0xFFFFFFFFFFFFFFFFFFFFFFFFFFFFFFFFFFFFFFFFFFFFFFFFFFFFFFFFFFFFFFFF DUP3 PUSH2 0x1837 JUMP JUMPDEST PUSH2 0x187C DUP7 DUP4 PUSH2 0x1837 JUMP JUMPDEST SWAP6 POP DUP1 NOT DUP5 AND SWAP4 POP DUP1 DUP7 AND DUP5 OR SWAP3 POP POP POP SWAP4 SWAP3 POP POP POP JUMP JUMPDEST PUSH0 DUP2 SWAP1 POP SWAP2 SWAP1 POP JUMP JUMPDEST PUSH0 PUSH2 0x18B7 PUSH2 0x18B2 PUSH2 0x18AD DUP5 PUSH2 0xF22 JUMP JUMPDEST PUSH2 0x1894 JUMP JUMPDEST PUSH2 0xF22 JUMP JUMPDEST SWAP1 POP SWAP2 SWAP1 POP JUMP JUMPDEST PUSH0 DUP2 SWAP1 POP SWAP2 SWAP1 POP JUMP JUMPDEST PUSH2 0x18D0 DUP4 PUSH2 0x189D JUMP JUMPDEST PUSH2 0x18E4 PUSH2 0x18DC DUP3 PUSH2 0x18BE JUMP JUMPDEST DUP5 DUP5 SLOAD PUSH2 0x1843 JUMP JUMPDEST DUP3 SSTORE POP POP POP POP JUMP JUMPDEST PUSH0 SWAP1 JUMP JUMPDEST PUSH2 0x18F8 PUSH2 0x18EC JUMP JUMPDEST PUSH2 0x1903 DUP2 DUP5 DUP5 PUSH2 0x18C7 JUMP JUMPDEST POP POP POP JUMP JUMPDEST JUMPDEST DUP2 DUP2 LT ISZERO PUSH2 0x1926 JUMPI PUSH2 0x191B PUSH0 DUP3 PUSH2 0x18F0 JUMP JUMPDEST PUSH1 0x1 DUP2 ADD SWAP1 POP PUSH2 0x1909 JUMP JUMPDEST POP POP JUMP JUMPDEST PUSH1 0x1F DUP3 GT ISZERO PUSH2 0x196B JUMPI PUSH2 0x193C DUP2 PUSH2 0x1816 JUMP JUMPDEST PUSH2 0x1945 DUP5 PUSH2 0x1828 JUMP JUMPDEST DUP2 ADD PUSH1 0x20 DUP6 LT ISZERO PUSH2 0x1954 JUMPI DUP2 SWAP1 POP JUMPDEST PUSH2 0x1968 PUSH2 0x1960 DUP6 PUSH2 0x1828 JUMP JUMPDEST DUP4 ADD DUP3 PUSH2 0x1908 JUMP JUMPDEST POP POP JUMPDEST POP POP POP JUMP JUMPDEST PUSH0 DUP3 DUP3 SHR SWAP1 POP SWAP3 SWAP2 POP POP JUMP JUMPDEST PUSH0 PUSH2 0x198B PUSH0 NOT DUP5 PUSH1 0x8 MUL PUSH2 0x1970 JUMP JUMPDEST NOT DUP1 DUP4 AND SWAP2 POP POP SWAP3 SWAP2 POP POP JUMP JUMPDEST PUSH0 PUSH2 0x19A3 DUP4 DUP4 PUSH2 0x197C JUMP JUMPDEST SWAP2 POP DUP3 PUSH1 0x2 MUL DUP3 OR SWAP1 POP SWAP3 SWAP2 POP POP JUMP JUMPDEST PUSH2 0x19BC DUP3 PUSH2 0x1222 JUMP JUMPDEST PUSH8 0xFFFFFFFFFFFFFFFF DUP2 GT ISZERO PUSH2 0x19D5 JUMPI PUSH2 0x19D4 PUSH2 0xF6D JUMP JUMPDEST JUMPDEST PUSH2 0x19DF DUP3 SLOAD PUSH2 0x17E6 JUMP JUMPDEST PUSH2 0x19EA DUP3 DUP3 DUP6 PUSH2 0x192A JUMP JUMPDEST PUSH0 PUSH1 0x20 SWAP1 POP PUSH1 0x1F DUP4 GT PUSH1 0x1 DUP2 EQ PUSH2 0x1A1B JUMPI PUSH0 DUP5 ISZERO PUSH2 0x1A09 JUMPI DUP3 DUP8 ADD MLOAD SWAP1 POP JUMPDEST PUSH2 0x1A13 DUP6 DUP3 PUSH2 0x1998 JUMP JUMPDEST DUP7 SSTORE POP PUSH2 0x1A7A JUMP JUMPDEST PUSH1 0x1F NOT DUP5 AND PUSH2 0x1A29 DUP7 PUSH2 0x1816 JUMP JUMPDEST PUSH0 JUMPDEST DUP3 DUP2 LT ISZERO PUSH2 0x1A50 JUMPI DUP5 DUP10 ADD MLOAD DUP3 SSTORE PUSH1 0x1 DUP3 ADD SWAP2 POP PUSH1 0x20 DUP6 ADD SWAP5 POP PUSH1 0x20 DUP2 ADD SWAP1 POP PUSH2 0x1A2B JUMP JUMPDEST DUP7 DUP4 LT ISZERO PUSH2 0x1A6D JUMPI DUP5 DUP10 ADD MLOAD PUSH2 0x1A69 PUSH1 0x1F DUP10 AND DUP3 PUSH2 0x197C JUMP JUMPDEST DUP4 SSTORE POP JUMPDEST PUSH1 0x1 PUSH1 0x2 DUP9 MUL ADD DUP9 SSTORE POP POP POP JUMPDEST POP POP POP POP POP POP JUMP JUMPDEST PUSH32 0x4E487B7100000000000000000000000000000000000000000000000000000000 PUSH0 MSTORE PUSH1 0x11 PUSH1 0x4 MSTORE PUSH1 0x24 PUSH0 REVERT JUMPDEST PUSH0 PUSH2 0x1AB9 DUP3 PUSH2 0xF22 JUMP JUMPDEST SWAP2 POP PUSH2 0x1AC4 DUP4 PUSH2 0xF22 JUMP JUMPDEST SWAP3 POP DUP3 DUP3 ADD SWAP1 POP DUP1 DUP3 GT ISZERO PUSH2 0x1ADC JUMPI PUSH2 0x1ADB PUSH2 0x1A82 JUMP JUMPDEST JUMPDEST SWAP3 SWAP2 POP POP JUMP JUMPDEST PUSH0 PUSH2 0x1AF4 PUSH2 0x1AEF DUP5 PUSH2 0xFE5 JUMP JUMPDEST PUSH2 0xFCB JUMP JUMPDEST SWAP1 POP DUP3 DUP2 MSTORE PUSH1 0x20 DUP2 ADD DUP5 DUP5 DUP5 ADD GT ISZERO PUSH2 0x1B10 JUMPI PUSH2 0x1B0F PUSH2 0xF59 JUMP JUMPDEST JUMPDEST PUSH2 0x1B1B DUP5 DUP3 DUP6 PUSH2 0x123C JUMP JUMPDEST POP SWAP4 SWAP3 POP POP POP JUMP JUMPDEST PUSH0 DUP3 PUSH1 0x1F DUP4 ADD SLT PUSH2 0x1B37 JUMPI PUSH2 0x1B36 PUSH2 0xF55 JUMP JUMPDEST JUMPDEST DUP2 MLOAD PUSH2 0x1B47 DUP5 DUP3 PUSH1 0x20 DUP7 ADD PUSH2 0x1AE2 JUMP JUMPDEST SWAP2 POP POP SWAP3 SWAP2 POP POP JUMP JUMPDEST PUSH0 PUSH8 0xFFFFFFFFFFFFFFFF DUP3 GT ISZERO PUSH2 0x1B6A JUMPI PUSH2 0x1B69 PUSH2 0xF6D JUMP JUMPDEST JUMPDEST PUSH1 0x20 DUP3 MUL SWAP1 POP PUSH1 0x20 DUP2 ADD SWAP1 POP SWAP2 SWAP1 POP JUMP JUMPDEST PUSH0 PUSH2 0x1B8D PUSH2 0x1B88 DUP5 PUSH2 0x1B50 JUMP JUMPDEST PUSH2 0xFCB JUMP JUMPDEST SWAP1 POP DUP1 DUP4 DUP3 MSTORE PUSH1 0x20 DUP3 ADD SWAP1 POP PUSH1 0x20 DUP5 MUL DUP4 ADD DUP6 DUP2 GT ISZERO PUSH2 0x1BB0 JUMPI PUSH2 0x1BAF PUSH2 0x1470 JUMP JUMPDEST JUMPDEST DUP4 JUMPDEST DUP2 DUP2 LT ISZERO PUSH2 0x1BF7 JUMPI DUP1 MLOAD PUSH8 0xFFFFFFFFFFFFFFFF DUP2 GT ISZERO PUSH2 0x1BD5 JUMPI PUSH2 0x1BD4 PUSH2 0xF55 JUMP JUMPDEST JUMPDEST DUP1 DUP7 ADD PUSH2 0x1BE2 DUP10 DUP3 PUSH2 0x1B23 JUMP JUMPDEST DUP6 MSTORE PUSH1 0x20 DUP6 ADD SWAP5 POP POP POP PUSH1 0x20 DUP2 ADD SWAP1 POP PUSH2 0x1BB2 JUMP JUMPDEST POP POP POP SWAP4 SWAP3 POP POP POP JUMP JUMPDEST PUSH0 DUP3 PUSH1 0x1F DUP4 ADD SLT PUSH2 0x1C15 JUMPI PUSH2 0x1C14 PUSH2 0xF55 JUMP JUMPDEST JUMPDEST DUP2 MLOAD PUSH2 0x1C25 DUP5 DUP3 PUSH1 0x20 DUP7 ADD PUSH2 0x1B7B JUMP JUMPDEST SWAP2 POP POP SWAP3 SWAP2 POP POP JUMP JUMPDEST PUSH0 PUSH1 0x60 DUP3 DUP5 SUB SLT ISZERO PUSH2 0x1C43 JUMPI PUSH2 0x1C42 PUSH2 0x113E JUMP JUMPDEST JUMPDEST PUSH2 0x1C4D PUSH1 0x60 PUSH2 0xFCB JUMP JUMPDEST SWAP1 POP PUSH0 DUP3 ADD MLOAD PUSH8 0xFFFFFFFFFFFFFFFF DUP2 GT ISZERO PUSH2 0x1C6C JUMPI PUSH2 0x1C6B PUSH2 0x1142 JUMP JUMPDEST JUMPDEST PUSH2 0x1C78 DUP5 DUP3 DUP6 ADD PUSH2 0x1B23 JUMP JUMPDEST PUSH0 DUP4 ADD MSTORE POP PUSH1 0x20 DUP3 ADD MLOAD PUSH8 0xFFFFFFFFFFFFFFFF DUP2 GT ISZERO PUSH2 0x1C9B JUMPI PUSH2 0x1C9A PUSH2 0x1142 JUMP JUMPDEST JUMPDEST PUSH2 0x1CA7 DUP5 DUP3 DUP6 ADD PUSH2 0x1C01 JUMP JUMPDEST PUSH1 0x20 DUP4 ADD MSTORE POP PUSH1 0x40 PUSH2 0x1CBB DUP5 DUP3 DUP6 ADD PUSH2 0x1668 JUMP JUMPDEST PUSH1 0x40 DUP4 ADD MSTORE POP SWAP3 SWAP2 POP POP JUMP JUMPDEST PUSH0 PUSH1 0x20 DUP3 DUP5 SUB SLT ISZERO PUSH2 0x1CDC JUMPI PUSH2 0x1CDB PUSH2 0xF1A JUMP JUMPDEST JUMPDEST PUSH0 DUP3 ADD MLOAD PUSH8 0xFFFFFFFFFFFFFFFF DUP2 GT ISZERO PUSH2 0x1CF9 JUMPI PUSH2 0x1CF8 PUSH2 0xF1E JUMP JUMPDEST JUMPDEST PUSH2 0x1D05 DUP5 DUP3 DUP6 ADD PUSH2 0x1C2E JUMP JUMPDEST SWAP2 POP POP SWAP3 SWAP2 POP POP JUMP JUMPDEST PUSH0 PUSH2 0x1D18 DUP3 PUSH2 0xF22 JUMP JUMPDEST SWAP2 POP PUSH2 0x1D23 DUP4 PUSH2 0xF22 JUMP JUMPDEST SWAP3 POP DUP3 DUP3 SUB SWAP1 POP DUP2 DUP2 GT ISZERO PUSH2 0x1D3B JUMPI PUSH2 0x1D3A PUSH2 0x1A82 JUMP JUMPDEST JUMPDEST SWAP3 SWAP2 POP POP JUMP JUMPDEST PUSH32 0x4E487B7100000000000000000000000000000000000000000000000000000000 PUSH0 MSTORE PUSH1 0x12 PUSH1 0x4 MSTORE PUSH1 0x24 PUSH0 REVERT JUMPDEST PUSH0 PUSH2 0x1D78 DUP3 PUSH2 0xF22 JUMP JUMPDEST SWAP2 POP PUSH2 0x1D83 DUP4 PUSH2 0xF22 JUMP JUMPDEST SWAP3 POP DUP3 PUSH2 0x1D93 JUMPI PUSH2 0x1D92 PUSH2 0x1D41 JUMP JUMPDEST JUMPDEST DUP3 DUP3 MOD SWAP1 POP SWAP3 SWAP2 POP POP JUMP JUMPDEST PUSH0 PUSH1 0xFF DUP3 AND SWAP1 POP SWAP2 SWAP1 POP JUMP JUMPDEST PUSH0 PUSH2 0x1DB4 DUP3 PUSH2 0x1D9E JUMP JUMPDEST SWAP2 POP PUSH2 0x1DBF DUP4 PUSH2 0x1D9E JUMP JUMPDEST SWAP3 POP DUP3 DUP3 SUB SWAP1 POP PUSH1 0xFF DUP2 GT ISZERO PUSH2 0x1DD8 JUMPI PUSH2 0x1DD7 PUSH2 0x1A82 JUMP JUMPDEST JUMPDEST SWAP3 SWAP2 POP POP JUMP JUMPDEST PUSH0 PUSH2 0x1DE8 DUP3 PUSH2 0xF22 JUMP JUMPDEST SWAP2 POP PUSH32 0xFFFFFFFFFFFFFFFFFFFFFFFFFFFFFFFFFFFFFFFFFFFFFFFFFFFFFFFFFFFFFFFF DUP3 SUB PUSH2 0x1E1A JUMPI PUSH2 0x1E19 PUSH2 0x1A82 JUMP JUMPDEST JUMPDEST PUSH1 0x1 DUP3 ADD SWAP1 POP SWAP2 SWAP1 POP JUMP JUMPDEST PUSH32 0x41646420706F696E7473206661696C6564000000000000000000000000000000 PUSH0 DUP3 ADD MSTORE POP JUMP JUMPDEST PUSH0 PUSH2 0x1E59 PUSH1 0x11 DUP4 PUSH2 0x122C JUMP JUMPDEST SWAP2 POP PUSH2 0x1E64 DUP3 PUSH2 0x1E25 JUMP JUMPDEST PUSH1 0x20 DUP3 ADD SWAP1 POP SWAP2 SWAP1 POP JUMP JUMPDEST PUSH0 PUSH1 0x20 DUP3 ADD SWAP1 POP DUP2 DUP2 SUB PUSH0 DUP4 ADD MSTORE PUSH2 0x1E86 DUP2 PUSH2 0x1E4D JUMP JUMPDEST SWAP1 POP SWAP2 SWAP1 POP JUMP INVALID LOG2 PUSH5 0x6970667358 0x22 SLT KECCAK256 JUMPDEST ADD MSTORE 0xBE 0x25 SWAP15 0xDF 0xE9 0x5C BALANCE NOT SWAP14 0xA6 0xE TIMESTAMP STATICCALL 0xFB 0xCC 0xC6 0x5E 0x4A 0x2B COINBASE 0xE GAS 0xD8 0xA6 DUP8 MULMOD PUSH27 0xAE4464736F6C634300081600330000000000000000000000000000 "
		},
		"gasEstimates": {
			"creation": {
				"codeDepositCost": "1575000",
				"executionCost": "50182",
				"totalCost": "1625182"
			},
			"external": {
				"counting(uint256)": "infinite",
				"decrypt((uint256,uint256,uint256)[],(uint256,uint256,uint256))": "infinite",
				"getChar(uint256,string)": "infinite",
				"getballots(uint256)": "infinite",
				"toBytes(uint256)": "infinite",
				"toString(uint256)": "infinite",
				"uploadSi(uint256,uint256,(uint256,uint256,uint256))": "infinite"
			}
		},
		"methodIdentifiers": {
			"counting(uint256)": "ec871264",
			"decrypt((uint256,uint256,uint256)[],(uint256,uint256,uint256))": "e413c63d",
			"getChar(uint256,string)": "4ee21a63",
			"getballots(uint256)": "bf58c0cc",
			"toBytes(uint256)": "775a8f5e",
			"toString(uint256)": "6900a3ae",
			"uploadSi(uint256,uint256,(uint256,uint256,uint256))": "5964bdec"
		}
	},
	"abi": [
		{
			"inputs": [
				{
					"internalType": "uint256",
					"name": "round",
					"type": "uint256"
				}
			],
			"name": "counting",
			"outputs": [
				{
					"internalType": "uint256[10]",
					"name": "",
					"type": "uint256[10]"
				}
			],
			"stateMutability": "nonpayable",
			"type": "function"
		},
		{
			"inputs": [
				{
					"components": [
						{
							"internalType": "uint256",
							"name": "c0",
							"type": "uint256"
						},
						{
							"internalType": "uint256",
							"name": "x",
							"type": "uint256"
						},
						{
							"internalType": "uint256",
							"name": "y",
							"type": "uint256"
						}
					],
					"internalType": "struct Utils.record[]",
					"name": "s_i",
					"type": "tuple[]"
				},
				{
					"components": [
						{
							"internalType": "uint256",
							"name": "c0",
							"type": "uint256"
						},
						{
							"internalType": "uint256",
							"name": "x",
							"type": "uint256"
						},
						{
							"internalType": "uint256",
							"name": "y",
							"type": "uint256"
						}
					],
					"internalType": "struct Utils.record",
					"name": "ballot",
					"type": "tuple"
				}
			],
			"name": "decrypt",
			"outputs": [
				{
					"internalType": "string",
					"name": "",
					"type": "string"
				}
			],
			"stateMutability": "view",
			"type": "function"
		},
		{
			"inputs": [
				{
					"internalType": "uint256",
					"name": "index",
					"type": "uint256"
				},
				{
					"internalType": "string",
					"name": "s",
					"type": "string"
				}
			],
			"name": "getChar",
			"outputs": [
				{
					"internalType": "bytes1",
					"name": "",
					"type": "bytes1"
				}
			],
			"stateMutability": "pure",
			"type": "function"
		},
		{
			"inputs": [
				{
					"internalType": "uint256",
					"name": "round",
					"type": "uint256"
				}
			],
			"name": "getballots",
			"outputs": [
				{
					"components": [
						{
							"internalType": "uint256",
							"name": "c0",
							"type": "uint256"
						},
						{
							"internalType": "uint256",
							"name": "x",
							"type": "uint256"
						},
						{
							"internalType": "uint256",
							"name": "y",
							"type": "uint256"
						}
					],
					"internalType": "struct Utils.record[]",
					"name": "",
					"type": "tuple[]"
				}
			],
			"stateMutability": "view",
			"type": "function"
		},
		{
			"inputs": [
				{
					"internalType": "uint256",
					"name": "x",
					"type": "uint256"
				}
			],
			"name": "toBytes",
			"outputs": [
				{
					"internalType": "bytes",
					"name": "b",
					"type": "bytes"
				}
			],
			"stateMutability": "pure",
			"type": "function"
		},
		{
			"inputs": [
				{
					"internalType": "uint256",
					"name": "x",
					"type": "uint256"
				}
			],
			"name": "toString",
			"outputs": [
				{
					"internalType": "string",
					"name": "",
					"type": "string"
				}
			],
			"stateMutability": "pure",
			"type": "function"
		},
		{
			"inputs": [
				{
					"internalType": "uint256",
					"name": "round",
					"type": "uint256"
				},
				{
					"internalType": "uint256",
					"name": "index",
					"type": "uint256"
				},
				{
					"components": [
						{
							"internalType": "uint256",
							"name": "c0",
							"type": "uint256"
						},
						{
							"internalType": "uint256",
							"name": "x",
							"type": "uint256"
						},
						{
							"internalType": "uint256",
							"name": "y",
							"type": "uint256"
						}
					],
					"internalType": "struct Utils.record",
					"name": "s_i",
					"type": "tuple"
				}
			],
			"name": "uploadSi",
			"outputs": [],
			"stateMutability": "nonpayable",
			"type": "function"
		}
	]
}