{
	"data": {
		"bytecode": {
			"linkReferences": {},
			"object": "6080604052604051806040016040528060405180604001604052807f224e256f32533cdb3d10e255f40c75b971ad71e1974332a145b523cd1fa5382981526020017f2ab94d907ffd43b92d2d59cd2dc9f277b1dce25112266aa19db9c4af76a43fee815250815260200160405180604001604052807f24976833c58227908501c809826de16eddc884a91369c74647201ad0b1e7c0c081526020017f16733bd92e16d83797dd6378b9cf1d0d6778d12671a8b50144808fceaad9de4281525081525060035f820151815f01906002620000da9291906200010a565b50602082015181600201906002620000f49291906200010a565b50505034801562000103575f80fd5b506200016c565b82600281019282156200013c579160200282015b828111156200013b5782518255916020019190600101906200011e565b5b5090506200014b91906200014f565b5090565b5b8082111562000168575f815f90555060010162000150565b5090565b6123f8806200017a5f395ff3fe608060405234801561000f575f80fd5b506004361061007b575f3560e01c8063ac98cfe511610059578063ac98cfe514610115578063bc24678c14610131578063c705817114610161578063cbc431c8146101915761007b565b806323b819f51461007f57806325b3e077146100af5780634ea43115146100e4575b5f80fd5b61009960048036038101906100949190611715565b6101c1565b6040516100a69190611776565b60405180910390f35b6100c960048036038101906100c491906117c2565b6101f6565b6040516100db96959493929190611829565b60405180910390f35b6100fe60048036038101906100f991906118c0565b6102ab565b60405161010c929190611965565b60405180910390f35b61012f600480360381019061012a9190611993565b6103aa565b005b61014b60048036038101906101469190611a81565b610595565b6040516101589190611776565b60405180910390f35b61017b600480360381019061017691906117c2565b6106df565b6040516101889190611aed565b60405180910390f35b6101ab60048036038101906101a69190611b06565b610844565b6040516101b89190611b81565b60405180910390f35b6002818051602081018201805184825260208301602085012081835280955050505050505f915054906101000a900460ff1681565b6007602052805f5260405f205f91509050805f016040518060400160405290815f820154815260200160018201548152505090806002016040518060400160405290815f820154815260200160018201548152505090806004016040518060400160405290815f820154815260200160018201548152505090806006015f9054906101000a900460ff16908060060160019054906101000a900460ff16908060060160029054906101000a900460ff16905086565b6102b3611524565b60605f8360ff16815481106102cb576102ca611b9a565b5b905f5260205f20906002020160018460ff16815481106102ee576102ed611b9a565b5b905f5260205f2001816040518060400160405290815f8201548152602001600182015481525050915080805461032390611bf4565b80601f016020809104026020016040519081016040528092919081815260200182805461034f90611bf4565b801561039a5780601f106103715761010080835404028352916020019161039a565b820191905f5260205f20905b81548152906001019060200180831161037d57829003601f168201915b5050505050905091509150915091565b5f604051806040016040528084815260200183815250905073ab8483f64d9c6d1ecf9b849ae677dd3315835cb273ffffffffffffffffffffffffffffffffffffffff163373ffffffffffffffffffffffffffffffffffffffff160361045b578060075f8681526020019081526020015f205f015f820151815f0155602082015181600101559050506001151560075f8681526020019081526020015f206006015f9054906101000a9050505061058f565b734b20993bc481177ec7e8f571cecae8a9e22c02db73ffffffffffffffffffffffffffffffffffffffff163373ffffffffffffffffffffffffffffffffffffffff16036104f6578060075f8681526020019081526020015f206002015f820151815f0155602082015181600101559050506001151560075f8681526020019081526020015f2060060160019054906101000a9050505061058e565b7378731d3ca6b7e34ac0f824c42a7cc18a495cabab73ffffffffffffffffffffffffffffffffffffffff163373ffffffffffffffffffffffffffffffffffffffff160361058d578060075f8681526020019081526020015f206004015f820151815f0155602082015181600101559050506001151560075f8681526020019081526020015f2060060160029054906101000a905050505b5b5b50505050565b5f808490505f60405180604001604052808681526020018581525090505f61065360036040518060400160405290815f82016002806020026040519081016040528092919082600280156105fe576020028201915b8154815260200190600101908083116105ea575b5050505050815260200160028201600280602002604051908101604052809291908260028015610643576020028201915b81548152602001906001019080831161062f575b50505050508152505084846108e6565b905080801561068a575060028360405161066d9190611c68565b90815260200160405180910390205f9054906101000a900460ff16155b156106d15760016002846040516106a19190611c68565b90815260200160405180910390205f6101000a81548160ff021916908315150217905550600193505050506106d8565b5f93505050505b9392505050565b6106e7611524565b6001151560075f8481526020019081526020015f206006015f9054906101000a900460ff16151514801561074057506001151560075f8481526020019081526020015f2060060160029054906101000a900460ff161515145b801561077157506001151560075f8481526020019081526020015f2060060160019054906101000a900460ff161515145b15610827575f6107e260075f8581526020019081526020015f205f016040518060400160405290815f820154815260200160018201548152505060075f8681526020019081526020015f206002016040518060400160405290815f8201548152602001600182015481525050610903565b905061081f8160075f8681526020019081526020015f206004016040518060400160405290815f8201548152602001600182015481525050610903565b91505061083f565b60405180604001604052805f81526020015f81525090505b919050565b5f8060405180604001604052808681526020018581525090505f81908060018154018082558091505060019003905f5260205f2090600202015f909190919091505f820151815f0155602082015181600101555050600183908060018154018082558091505060019003905f5260205f20015f9091909190915090816108ca9190611e1b565b5060015f805490506108dc9190611f17565b9150509392505050565b5f6108fa846108f4856109f1565b84610ad3565b90509392505050565b61090b611524565b61091361153c565b835f0151815f6004811061092a57610929611b9a565b5b60200201818152505083602001518160016004811061094c5761094b611b9a565b5b602002018181525050825f01518160026004811061096d5761096c611b9a565b5b60200201818152505082602001518160036004811061098f5761098e611b9a565b5b6020020181815250505f60408360808460066107d05a03fa9050806109e9576040517f08c379a00000000000000000000000000000000000000000000000000000000081526004016109e090611f94565b60405180910390fd5b505092915050565b6109f9611524565b5f600283604051610a0a9190611c68565b602060405180830381855afa158015610a25573d5f803e3d5ffd5b5050506040513d601f19601f82011682018060405250810190610a489190611fe5565b90505f7f30644e72e131a029b85045b68181585d97816a916871ca8d3c208c16d87cfd47825f1c610a79919061203d565b90505f5b600115610aca57610a8d82610c26565b90505f811115610ab6576040518060400160405280838152602001828152509350505050610ace565b600182610ac3919061206d565b9150610a7d565b5050505b919050565b5f80600267ffffffffffffffff811115610af057610aef6115f1565b5b604051908082528060200260200182016040528015610b2957816020015b610b16611524565b815260200190600190039081610b0e5790505b5090505f600267ffffffffffffffff811115610b4857610b476115f1565b5b604051908082528060200260200182016040528015610b8157816020015b610b6e61155e565b815260200190600190039081610b665790505b509050610b8d84610cad565b825f81518110610ba057610b9f611b9a565b5b60200260200101819052508482600181518110610bc057610bbf611b9a565b5b6020026020010181905250610bd3610d59565b815f81518110610be657610be5611b9a565b5b60200260200101819052508581600181518110610c0657610c05611b9a565b5b6020026020010181905250610c1b8282610e23565b925050509392505050565b5f610ca67f30644e72e131a029b85045b68181585d97816a916871ca8d3c208c16d87cfd47806003610c8460037f30644e72e131a029b85045b68181585d97816a916871ca8d3c208c16d87cfd47886111c59092919063ffffffff16565b610c8e919061206d565b610c98919061203d565b61121090919063ffffffff16565b9050919050565b610cb5611524565b610cbe82611440565b15610cdf5760405180604001604052805f81526020015f8152509050610d54565b6040518060400160405280835f015181526020017f30644e72e131a029b85045b68181585d97816a916871ca8d3c208c16d87cfd478460200151610d23919061203d565b7f30644e72e131a029b85045b68181585d97816a916871ca8d3c208c16d87cfd47610d4e9190611f17565b81525090505b919050565b610d6161155e565b604051806040016040528060405180604001604052807f198e9393920d483a7260bfb731fb5d25f1aa493335a9e71297e485b7aef312c281526020017f1800deef121f1e76426a00665e5c4479674322d4f75edadd46debd5cd992f6ed815250815260200160405180604001604052807f090689d0585ff075ec9e99ad690c3395bc4b313370b38ef355acdadcd122975b81526020017f12c85ea5db8c6deb4aab71808dcb408fe3d1e7690c43d37b4ce6cc0166fa7daa815250815250905090565b5f8151835114610e68576040517f08c379a0000000000000000000000000000000000000000000000000000000008152600401610e5f906120ea565b60405180910390fd5b5f835190505f600682610e7b9190612108565b90505f8167ffffffffffffffff811115610e9857610e976115f1565b5b604051908082528060200260200182016040528015610ec65781602001602082028036833780820191505090505b5090505f5b8381101561113e57868181518110610ee657610ee5611b9a565b5b60200260200101515f0151825f600684610f009190612108565b610f0a919061206d565b81518110610f1b57610f1a611b9a565b5b602002602001018181525050868181518110610f3a57610f39611b9a565b5b602002602001015160200151826001600684610f569190612108565b610f60919061206d565b81518110610f7157610f70611b9a565b5b602002602001018181525050858181518110610f9057610f8f611b9a565b5b60200260200101515f01515f60028110610fad57610fac611b9a565b5b6020020151826002600684610fc29190612108565b610fcc919061206d565b81518110610fdd57610fdc611b9a565b5b602002602001018181525050858181518110610ffc57610ffb611b9a565b5b60200260200101515f015160016002811061101a57611019611b9a565b5b602002015182600360068461102f9190612108565b611039919061206d565b8151811061104a57611049611b9a565b5b60200260200101818152505085818151811061106957611068611b9a565b5b6020026020010151602001515f6002811061108757611086611b9a565b5b602002015182600460068461109c9190612108565b6110a6919061206d565b815181106110b7576110b6611b9a565b5b6020026020010181815250508581815181106110d6576110d5611b9a565b5b6020026020010151602001516001600281106110f5576110f4611b9a565b5b602002015182600560068461110a9190612108565b611114919061206d565b8151811061112557611124611b9a565b5b6020026020010181815250508080600101915050610ecb565b50611147611584565b5f602082602086026020860160086107d05a03fa90508061119d576040517f08c379a000000000000000000000000000000000000000000000000000000000815260040161119490612193565b60405180910390fd5b5f825f600181106111b1576111b0611b9a565b5b602002015114159550505050505092915050565b5f6040516020810160208152602080820152602060408201528560608201528460808201528360a082015260208260c08360055f19fa611203575f80fd5b8151925050509392505050565b5f600161121d848461145d565b1461122a575f905061143a565b5f8303611239575f905061143a565b6003600483611248919061203d565b0361127757611270836004600185611260919061206d565b61126a91906121b1565b846111c5565b905061143a565b5f6001836112859190611f17565b90505f5b5f600283611297919061203d565b036112bf576002826112a991906121b1565b91506001816112b8919061206d565b9050611289565b5f600290505b7fffffffffffffffffffffffffffffffffffffffffffffffffffffffffffffffff6112f0828761145d565b1461130957600181611302919061206d565b90506112c5565b5f61132d87600260018761131d919061206d565b61132791906121b1565b886111c5565b90505f61133b8886896111c5565b90505f61134984878a6111c5565b90505f8590505f805f8590505b60011561142f578590505f91505f91505b83821015611393576001810315611393576113848160028e6111c5565b90508180600101925050611367565b5f82036113ac57869a505050505050505050505061143a565b6113da85600184876113be9190611f17565b6113c89190611f17565b60026113d49190612310565b8e6111c5565b92508b83846113e99190612108565b6113f3919061203d565b94508b83886114029190612108565b61140c919061203d565b96508b858761141b9190612108565b611425919061203d565b9550819350611356565b505050505050505050505b92915050565b5f80825f015114801561145657505f8260200151145b9050919050565b5f806114828460026001866114729190611f17565b61147c91906121b1565b856111c5565b90505f8114806114925750600181145b156114a0578091505061151e565b6001836114ad9190611f17565b81036114dc577fffffffffffffffffffffffffffffffffffffffffffffffffffffffffffffffff91505061151e565b5f61151c576040517f08c379a0000000000000000000000000000000000000000000000000000000008152600401611513906123a4565b60405180910390fd5b505b92915050565b60405180604001604052805f81526020015f81525090565b6040518060800160405280600490602082028036833780820191505090505090565b60405180604001604052806115716115a6565b815260200161157e6115a6565b81525090565b6040518060200160405280600190602082028036833780820191505090505090565b6040518060400160405280600290602082028036833780820191505090505090565b5f604051905090565b5f80fd5b5f80fd5b5f80fd5b5f80fd5b5f601f19601f8301169050919050565b7f4e487b71000000000000000000000000000000000000000000000000000000005f52604160045260245ffd5b611627826115e1565b810181811067ffffffffffffffff82111715611646576116456115f1565b5b80604052505050565b5f6116586115c8565b9050611664828261161e565b919050565b5f67ffffffffffffffff821115611683576116826115f1565b5b61168c826115e1565b9050602081019050919050565b828183375f83830152505050565b5f6116b96116b484611669565b61164f565b9050828152602081018484840111156116d5576116d46115dd565b5b6116e0848285611699565b509392505050565b5f82601f8301126116fc576116fb6115d9565b5b813561170c8482602086016116a7565b91505092915050565b5f6020828403121561172a576117296115d1565b5b5f82013567ffffffffffffffff811115611747576117466115d5565b5b611753848285016116e8565b91505092915050565b5f8115159050919050565b6117708161175c565b82525050565b5f6020820190506117895f830184611767565b92915050565b5f819050919050565b6117a18161178f565b81146117ab575f80fd5b50565b5f813590506117bc81611798565b92915050565b5f602082840312156117d7576117d66115d1565b5b5f6117e4848285016117ae565b91505092915050565b6117f68161178f565b82525050565b604082015f8201516118105f8501826117ed565b50602082015161182360208501826117ed565b50505050565b5f6101208201905061183d5f8301896117fc565b61184a60408301886117fc565b61185760808301876117fc565b61186460c0830186611767565b61187160e0830185611767565b61187f610100830184611767565b979650505050505050565b5f60ff82169050919050565b61189f8161188a565b81146118a9575f80fd5b50565b5f813590506118ba81611896565b92915050565b5f602082840312156118d5576118d46115d1565b5b5f6118e2848285016118ac565b91505092915050565b5f81519050919050565b5f82825260208201905092915050565b5f5b83811015611922578082015181840152602081019050611907565b5f8484015250505050565b5f611937826118eb565b61194181856118f5565b9350611951818560208601611905565b61195a816115e1565b840191505092915050565b5f6060820190506119785f8301856117fc565b818103604083015261198a818461192d565b90509392505050565b5f805f606084860312156119aa576119a96115d1565b5b5f6119b7868287016117ae565b93505060206119c8868287016117ae565b92505060406119d9868287016117ae565b9150509250925092565b5f67ffffffffffffffff8211156119fd576119fc6115f1565b5b611a06826115e1565b9050602081019050919050565b5f611a25611a20846119e3565b61164f565b905082815260208101848484011115611a4157611a406115dd565b5b611a4c848285611699565b509392505050565b5f82601f830112611a6857611a676115d9565b5b8135611a78848260208601611a13565b91505092915050565b5f805f60608486031215611a9857611a976115d1565b5b5f84013567ffffffffffffffff811115611ab557611ab46115d5565b5b611ac186828701611a54565b9350506020611ad2868287016117ae565b9250506040611ae3868287016117ae565b9150509250925092565b5f604082019050611b005f8301846117fc565b92915050565b5f805f60608486031215611b1d57611b1c6115d1565b5b5f611b2a868287016117ae565b9350506020611b3b868287016117ae565b925050604084013567ffffffffffffffff811115611b5c57611b5b6115d5565b5b611b6886828701611a54565b9150509250925092565b611b7b8161178f565b82525050565b5f602082019050611b945f830184611b72565b92915050565b7f4e487b71000000000000000000000000000000000000000000000000000000005f52603260045260245ffd5b7f4e487b71000000000000000000000000000000000000000000000000000000005f52602260045260245ffd5b5f6002820490506001821680611c0b57607f821691505b602082108103611c1e57611c1d611bc7565b5b50919050565b5f81519050919050565b5f81905092915050565b5f611c4282611c24565b611c4c8185611c2e565b9350611c5c818560208601611905565b80840191505092915050565b5f611c738284611c38565b915081905092915050565b5f819050815f5260205f209050919050565b5f6020601f8301049050919050565b5f82821b905092915050565b5f60088302611cda7fffffffffffffffffffffffffffffffffffffffffffffffffffffffffffffffff82611c9f565b611ce48683611c9f565b95508019841693508086168417925050509392505050565b5f819050919050565b5f611d1f611d1a611d158461178f565b611cfc565b61178f565b9050919050565b5f819050919050565b611d3883611d05565b611d4c611d4482611d26565b848454611cab565b825550505050565b5f90565b611d60611d54565b611d6b818484611d2f565b505050565b5b81811015611d8e57611d835f82611d58565b600181019050611d71565b5050565b601f821115611dd357611da481611c7e565b611dad84611c90565b81016020851015611dbc578190505b611dd0611dc885611c90565b830182611d70565b50505b505050565b5f82821c905092915050565b5f611df35f1984600802611dd8565b1980831691505092915050565b5f611e0b8383611de4565b9150826002028217905092915050565b611e24826118eb565b67ffffffffffffffff811115611e3d57611e3c6115f1565b5b611e478254611bf4565b611e52828285611d92565b5f60209050601f831160018114611e83575f8415611e71578287015190505b611e7b8582611e00565b865550611ee2565b601f198416611e9186611c7e565b5f5b82811015611eb857848901518255600182019150602085019450602081019050611e93565b86831015611ed55784890151611ed1601f891682611de4565b8355505b6001600288020188555050505b505050505050565b7f4e487b71000000000000000000000000000000000000000000000000000000005f52601160045260245ffd5b5f611f218261178f565b9150611f2c8361178f565b9250828203905081811115611f4457611f43611eea565b5b92915050565b7f41646420706f696e7473206661696c65640000000000000000000000000000005f82015250565b5f611f7e6011836118f5565b9150611f8982611f4a565b602082019050919050565b5f6020820190508181035f830152611fab81611f72565b9050919050565b5f819050919050565b611fc481611fb2565b8114611fce575f80fd5b50565b5f81519050611fdf81611fbb565b92915050565b5f60208284031215611ffa57611ff96115d1565b5b5f61200784828501611fd1565b91505092915050565b7f4e487b71000000000000000000000000000000000000000000000000000000005f52601260045260245ffd5b5f6120478261178f565b91506120528361178f565b92508261206257612061612010565b5b828206905092915050565b5f6120778261178f565b91506120828361178f565b925082820190508082111561209a57612099611eea565b5b92915050565b7f506f696e7420636f756e74206d69736d617463682e00000000000000000000005f82015250565b5f6120d46015836118f5565b91506120df826120a0565b602082019050919050565b5f6020820190508181035f830152612101816120c8565b9050919050565b5f6121128261178f565b915061211d8361178f565b925082820261212b8161178f565b9150828204841483151761214257612141611eea565b5b5092915050565b7f50616972696e67206f7065726174696f6e206661696c65642e000000000000005f82015250565b5f61217d6019836118f5565b915061218882612149565b602082019050919050565b5f6020820190508181035f8301526121aa81612171565b9050919050565b5f6121bb8261178f565b91506121c68361178f565b9250826121d6576121d5612010565b5b828204905092915050565b5f8160011c9050919050565b5f808291508390505b60018511156122365780860481111561221257612211611eea565b5b60018516156122215780820291505b808102905061222f856121e1565b94506121f6565b94509492505050565b5f8261224e5760019050612309565b8161225b575f9050612309565b8160018114612271576002811461227b576122aa565b6001915050612309565b60ff84111561228d5761228c611eea565b5b8360020a9150848211156122a4576122a3611eea565b5b50612309565b5060208310610133831016604e8410600b84101617156122df5782820a9050838111156122da576122d9611eea565b5b612309565b6122ec84848460016121ed565b9250905081840481111561230357612302611eea565b5b81810290505b9392505050565b5f61231a8261178f565b91506123258361178f565b92506123527fffffffffffffffffffffffffffffffffffffffffffffffffffffffffffffffff848461223f565b905092915050565b7f4661696c656420746f2063616c63756c617465206c6567656e6472652e0000005f82015250565b5f61238e601d836118f5565b91506123998261235a565b602082019050919050565b5f6020820190508181035f8301526123bb81612382565b905091905056fea264697066735822122009ffa0e75ce790d77d7230f5d7684637e70029d7716bb92c74648d5e67f8b0dd64736f6c63430008160033",
			"opcodes": "PUSH1 0x80 PUSH1 0x40 MSTORE PUSH1 0x40 MLOAD DUP1 PUSH1 0x40 ADD PUSH1 0x40 MSTORE DUP1 PUSH1 0x40 MLOAD DUP1 PUSH1 0x40 ADD PUSH1 0x40 MSTORE DUP1 PUSH32 0x224E256F32533CDB3D10E255F40C75B971AD71E1974332A145B523CD1FA53829 DUP2 MSTORE PUSH1 0x20 ADD PUSH32 0x2AB94D907FFD43B92D2D59CD2DC9F277B1DCE25112266AA19DB9C4AF76A43FEE DUP2 MSTORE POP DUP2 MSTORE PUSH1 0x20 ADD PUSH1 0x40 MLOAD DUP1 PUSH1 0x40 ADD PUSH1 0x40 MSTORE DUP1 PUSH32 0x24976833C58227908501C809826DE16EDDC884A91369C74647201AD0B1E7C0C0 DUP2 MSTORE PUSH1 0x20 ADD PUSH32 0x16733BD92E16D83797DD6378B9CF1D0D6778D12671A8B50144808FCEAAD9DE42 DUP2 MSTORE POP DUP2 MSTORE POP PUSH1 0x3 PUSH0 DUP3 ADD MLOAD DUP2 PUSH0 ADD SWAP1 PUSH1 0x2 PUSH3 0xDA SWAP3 SWAP2 SWAP1 PUSH3 0x10A JUMP JUMPDEST POP PUSH1 0x20 DUP3 ADD MLOAD DUP2 PUSH1 0x2 ADD SWAP1 PUSH1 0x2 PUSH3 0xF4 SWAP3 SWAP2 SWAP1 PUSH3 0x10A JUMP JUMPDEST POP POP POP CALLVALUE DUP1 ISZERO PUSH3 0x103 JUMPI PUSH0 DUP1 REVERT JUMPDEST POP PUSH3 0x16C JUMP JUMPDEST DUP3 PUSH1 0x2 DUP2 ADD SWAP3 DUP3 ISZERO PUSH3 0x13C JUMPI SWAP2 PUSH1 0x20 MUL DUP3 ADD JUMPDEST DUP3 DUP2 GT ISZERO PUSH3 0x13B JUMPI DUP3 MLOAD DUP3 SSTORE SWAP2 PUSH1 0x20 ADD SWAP2 SWAP1 PUSH1 0x1 ADD SWAP1 PUSH3 0x11E JUMP JUMPDEST JUMPDEST POP SWAP1 POP PUSH3 0x14B SWAP2 SWAP1 PUSH3 0x14F JUMP JUMPDEST POP SWAP1 JUMP JUMPDEST JUMPDEST DUP1 DUP3 GT ISZERO PUSH3 0x168 JUMPI PUSH0 DUP2 PUSH0 SWAP1 SSTORE POP PUSH1 0x1 ADD PUSH3 0x150 JUMP JUMPDEST POP SWAP1 JUMP JUMPDEST PUSH2 0x23F8 DUP1 PUSH3 0x17A PUSH0 CODECOPY PUSH0 RETURN INVALID PUSH1 0x80 PUSH1 0x40 MSTORE CALLVALUE DUP1 ISZERO PUSH2 0xF JUMPI PUSH0 DUP1 REVERT JUMPDEST POP PUSH1 0x4 CALLDATASIZE LT PUSH2 0x7B JUMPI PUSH0 CALLDATALOAD PUSH1 0xE0 SHR DUP1 PUSH4 0xAC98CFE5 GT PUSH2 0x59 JUMPI DUP1 PUSH4 0xAC98CFE5 EQ PUSH2 0x115 JUMPI DUP1 PUSH4 0xBC24678C EQ PUSH2 0x131 JUMPI DUP1 PUSH4 0xC7058171 EQ PUSH2 0x161 JUMPI DUP1 PUSH4 0xCBC431C8 EQ PUSH2 0x191 JUMPI PUSH2 0x7B JUMP JUMPDEST DUP1 PUSH4 0x23B819F5 EQ PUSH2 0x7F JUMPI DUP1 PUSH4 0x25B3E077 EQ PUSH2 0xAF JUMPI DUP1 PUSH4 0x4EA43115 EQ PUSH2 0xE4 JUMPI JUMPDEST PUSH0 DUP1 REVERT JUMPDEST PUSH2 0x99 PUSH1 0x4 DUP1 CALLDATASIZE SUB DUP2 ADD SWAP1 PUSH2 0x94 SWAP2 SWAP1 PUSH2 0x1715 JUMP JUMPDEST PUSH2 0x1C1 JUMP JUMPDEST PUSH1 0x40 MLOAD PUSH2 0xA6 SWAP2 SWAP1 PUSH2 0x1776 JUMP JUMPDEST PUSH1 0x40 MLOAD DUP1 SWAP2 SUB SWAP1 RETURN JUMPDEST PUSH2 0xC9 PUSH1 0x4 DUP1 CALLDATASIZE SUB DUP2 ADD SWAP1 PUSH2 0xC4 SWAP2 SWAP1 PUSH2 0x17C2 JUMP JUMPDEST PUSH2 0x1F6 JUMP JUMPDEST PUSH1 0x40 MLOAD PUSH2 0xDB SWAP7 SWAP6 SWAP5 SWAP4 SWAP3 SWAP2 SWAP1 PUSH2 0x1829 JUMP JUMPDEST PUSH1 0x40 MLOAD DUP1 SWAP2 SUB SWAP1 RETURN JUMPDEST PUSH2 0xFE PUSH1 0x4 DUP1 CALLDATASIZE SUB DUP2 ADD SWAP1 PUSH2 0xF9 SWAP2 SWAP1 PUSH2 0x18C0 JUMP JUMPDEST PUSH2 0x2AB JUMP JUMPDEST PUSH1 0x40 MLOAD PUSH2 0x10C SWAP3 SWAP2 SWAP1 PUSH2 0x1965 JUMP JUMPDEST PUSH1 0x40 MLOAD DUP1 SWAP2 SUB SWAP1 RETURN JUMPDEST PUSH2 0x12F PUSH1 0x4 DUP1 CALLDATASIZE SUB DUP2 ADD SWAP1 PUSH2 0x12A SWAP2 SWAP1 PUSH2 0x1993 JUMP JUMPDEST PUSH2 0x3AA JUMP JUMPDEST STOP JUMPDEST PUSH2 0x14B PUSH1 0x4 DUP1 CALLDATASIZE SUB DUP2 ADD SWAP1 PUSH2 0x146 SWAP2 SWAP1 PUSH2 0x1A81 JUMP JUMPDEST PUSH2 0x595 JUMP JUMPDEST PUSH1 0x40 MLOAD PUSH2 0x158 SWAP2 SWAP1 PUSH2 0x1776 JUMP JUMPDEST PUSH1 0x40 MLOAD DUP1 SWAP2 SUB SWAP1 RETURN JUMPDEST PUSH2 0x17B PUSH1 0x4 DUP1 CALLDATASIZE SUB DUP2 ADD SWAP1 PUSH2 0x176 SWAP2 SWAP1 PUSH2 0x17C2 JUMP JUMPDEST PUSH2 0x6DF JUMP JUMPDEST PUSH1 0x40 MLOAD PUSH2 0x188 SWAP2 SWAP1 PUSH2 0x1AED JUMP JUMPDEST PUSH1 0x40 MLOAD DUP1 SWAP2 SUB SWAP1 RETURN JUMPDEST PUSH2 0x1AB PUSH1 0x4 DUP1 CALLDATASIZE SUB DUP2 ADD SWAP1 PUSH2 0x1A6 SWAP2 SWAP1 PUSH2 0x1B06 JUMP JUMPDEST PUSH2 0x844 JUMP JUMPDEST PUSH1 0x40 MLOAD PUSH2 0x1B8 SWAP2 SWAP1 PUSH2 0x1B81 JUMP JUMPDEST PUSH1 0x40 MLOAD DUP1 SWAP2 SUB SWAP1 RETURN JUMPDEST PUSH1 0x2 DUP2 DUP1 MLOAD PUSH1 0x20 DUP2 ADD DUP3 ADD DUP1 MLOAD DUP5 DUP3 MSTORE PUSH1 0x20 DUP4 ADD PUSH1 0x20 DUP6 ADD KECCAK256 DUP2 DUP4 MSTORE DUP1 SWAP6 POP POP POP POP POP POP PUSH0 SWAP2 POP SLOAD SWAP1 PUSH2 0x100 EXP SWAP1 DIV PUSH1 0xFF AND DUP2 JUMP JUMPDEST PUSH1 0x7 PUSH1 0x20 MSTORE DUP1 PUSH0 MSTORE PUSH1 0x40 PUSH0 KECCAK256 PUSH0 SWAP2 POP SWAP1 POP DUP1 PUSH0 ADD PUSH1 0x40 MLOAD DUP1 PUSH1 0x40 ADD PUSH1 0x40 MSTORE SWAP1 DUP2 PUSH0 DUP3 ADD SLOAD DUP2 MSTORE PUSH1 0x20 ADD PUSH1 0x1 DUP3 ADD SLOAD DUP2 MSTORE POP POP SWAP1 DUP1 PUSH1 0x2 ADD PUSH1 0x40 MLOAD DUP1 PUSH1 0x40 ADD PUSH1 0x40 MSTORE SWAP1 DUP2 PUSH0 DUP3 ADD SLOAD DUP2 MSTORE PUSH1 0x20 ADD PUSH1 0x1 DUP3 ADD SLOAD DUP2 MSTORE POP POP SWAP1 DUP1 PUSH1 0x4 ADD PUSH1 0x40 MLOAD DUP1 PUSH1 0x40 ADD PUSH1 0x40 MSTORE SWAP1 DUP2 PUSH0 DUP3 ADD SLOAD DUP2 MSTORE PUSH1 0x20 ADD PUSH1 0x1 DUP3 ADD SLOAD DUP2 MSTORE POP POP SWAP1 DUP1 PUSH1 0x6 ADD PUSH0 SWAP1 SLOAD SWAP1 PUSH2 0x100 EXP SWAP1 DIV PUSH1 0xFF AND SWAP1 DUP1 PUSH1 0x6 ADD PUSH1 0x1 SWAP1 SLOAD SWAP1 PUSH2 0x100 EXP SWAP1 DIV PUSH1 0xFF AND SWAP1 DUP1 PUSH1 0x6 ADD PUSH1 0x2 SWAP1 SLOAD SWAP1 PUSH2 0x100 EXP SWAP1 DIV PUSH1 0xFF AND SWAP1 POP DUP7 JUMP JUMPDEST PUSH2 0x2B3 PUSH2 0x1524 JUMP JUMPDEST PUSH1 0x60 PUSH0 DUP4 PUSH1 0xFF AND DUP2 SLOAD DUP2 LT PUSH2 0x2CB JUMPI PUSH2 0x2CA PUSH2 0x1B9A JUMP JUMPDEST JUMPDEST SWAP1 PUSH0 MSTORE PUSH1 0x20 PUSH0 KECCAK256 SWAP1 PUSH1 0x2 MUL ADD PUSH1 0x1 DUP5 PUSH1 0xFF AND DUP2 SLOAD DUP2 LT PUSH2 0x2EE JUMPI PUSH2 0x2ED PUSH2 0x1B9A JUMP JUMPDEST JUMPDEST SWAP1 PUSH0 MSTORE PUSH1 0x20 PUSH0 KECCAK256 ADD DUP2 PUSH1 0x40 MLOAD DUP1 PUSH1 0x40 ADD PUSH1 0x40 MSTORE SWAP1 DUP2 PUSH0 DUP3 ADD SLOAD DUP2 MSTORE PUSH1 0x20 ADD PUSH1 0x1 DUP3 ADD SLOAD DUP2 MSTORE POP POP SWAP2 POP DUP1 DUP1 SLOAD PUSH2 0x323 SWAP1 PUSH2 0x1BF4 JUMP JUMPDEST DUP1 PUSH1 0x1F ADD PUSH1 0x20 DUP1 SWAP2 DIV MUL PUSH1 0x20 ADD PUSH1 0x40 MLOAD SWAP1 DUP2 ADD PUSH1 0x40 MSTORE DUP1 SWAP3 SWAP2 SWAP1 DUP2 DUP2 MSTORE PUSH1 0x20 ADD DUP3 DUP1 SLOAD PUSH2 0x34F SWAP1 PUSH2 0x1BF4 JUMP JUMPDEST DUP1 ISZERO PUSH2 0x39A JUMPI DUP1 PUSH1 0x1F LT PUSH2 0x371 JUMPI PUSH2 0x100 DUP1 DUP4 SLOAD DIV MUL DUP4 MSTORE SWAP2 PUSH1 0x20 ADD SWAP2 PUSH2 0x39A JUMP JUMPDEST DUP3 ADD SWAP2 SWAP1 PUSH0 MSTORE PUSH1 0x20 PUSH0 KECCAK256 SWAP1 JUMPDEST DUP2 SLOAD DUP2 MSTORE SWAP1 PUSH1 0x1 ADD SWAP1 PUSH1 0x20 ADD DUP1 DUP4 GT PUSH2 0x37D JUMPI DUP3 SWAP1 SUB PUSH1 0x1F AND DUP3 ADD SWAP2 JUMPDEST POP POP POP POP POP SWAP1 POP SWAP2 POP SWAP2 POP SWAP2 POP SWAP2 JUMP JUMPDEST PUSH0 PUSH1 0x40 MLOAD DUP1 PUSH1 0x40 ADD PUSH1 0x40 MSTORE DUP1 DUP5 DUP2 MSTORE PUSH1 0x20 ADD DUP4 DUP2 MSTORE POP SWAP1 POP PUSH20 0xAB8483F64D9C6D1ECF9B849AE677DD3315835CB2 PUSH20 0xFFFFFFFFFFFFFFFFFFFFFFFFFFFFFFFFFFFFFFFF AND CALLER PUSH20 0xFFFFFFFFFFFFFFFFFFFFFFFFFFFFFFFFFFFFFFFF AND SUB PUSH2 0x45B JUMPI DUP1 PUSH1 0x7 PUSH0 DUP7 DUP2 MSTORE PUSH1 0x20 ADD SWAP1 DUP2 MSTORE PUSH1 0x20 ADD PUSH0 KECCAK256 PUSH0 ADD PUSH0 DUP3 ADD MLOAD DUP2 PUSH0 ADD SSTORE PUSH1 0x20 DUP3 ADD MLOAD DUP2 PUSH1 0x1 ADD SSTORE SWAP1 POP POP PUSH1 0x1 ISZERO ISZERO PUSH1 0x7 PUSH0 DUP7 DUP2 MSTORE PUSH1 0x20 ADD SWAP1 DUP2 MSTORE PUSH1 0x20 ADD PUSH0 KECCAK256 PUSH1 0x6 ADD PUSH0 SWAP1 SLOAD SWAP1 PUSH2 0x100 EXP SWAP1 POP POP POP PUSH2 0x58F JUMP JUMPDEST PUSH20 0x4B20993BC481177EC7E8F571CECAE8A9E22C02DB PUSH20 0xFFFFFFFFFFFFFFFFFFFFFFFFFFFFFFFFFFFFFFFF AND CALLER PUSH20 0xFFFFFFFFFFFFFFFFFFFFFFFFFFFFFFFFFFFFFFFF AND SUB PUSH2 0x4F6 JUMPI DUP1 PUSH1 0x7 PUSH0 DUP7 DUP2 MSTORE PUSH1 0x20 ADD SWAP1 DUP2 MSTORE PUSH1 0x20 ADD PUSH0 KECCAK256 PUSH1 0x2 ADD PUSH0 DUP3 ADD MLOAD DUP2 PUSH0 ADD SSTORE PUSH1 0x20 DUP3 ADD MLOAD DUP2 PUSH1 0x1 ADD SSTORE SWAP1 POP POP PUSH1 0x1 ISZERO ISZERO PUSH1 0x7 PUSH0 DUP7 DUP2 MSTORE PUSH1 0x20 ADD SWAP1 DUP2 MSTORE PUSH1 0x20 ADD PUSH0 KECCAK256 PUSH1 0x6 ADD PUSH1 0x1 SWAP1 SLOAD SWAP1 PUSH2 0x100 EXP SWAP1 POP POP POP PUSH2 0x58E JUMP JUMPDEST PUSH20 0x78731D3CA6B7E34AC0F824C42A7CC18A495CABAB PUSH20 0xFFFFFFFFFFFFFFFFFFFFFFFFFFFFFFFFFFFFFFFF AND CALLER PUSH20 0xFFFFFFFFFFFFFFFFFFFFFFFFFFFFFFFFFFFFFFFF AND SUB PUSH2 0x58D JUMPI DUP1 PUSH1 0x7 PUSH0 DUP7 DUP2 MSTORE PUSH1 0x20 ADD SWAP1 DUP2 MSTORE PUSH1 0x20 ADD PUSH0 KECCAK256 PUSH1 0x4 ADD PUSH0 DUP3 ADD MLOAD DUP2 PUSH0 ADD SSTORE PUSH1 0x20 DUP3 ADD MLOAD DUP2 PUSH1 0x1 ADD SSTORE SWAP1 POP POP PUSH1 0x1 ISZERO ISZERO PUSH1 0x7 PUSH0 DUP7 DUP2 MSTORE PUSH1 0x20 ADD SWAP1 DUP2 MSTORE PUSH1 0x20 ADD PUSH0 KECCAK256 PUSH1 0x6 ADD PUSH1 0x2 SWAP1 SLOAD SWAP1 PUSH2 0x100 EXP SWAP1 POP POP POP JUMPDEST JUMPDEST JUMPDEST POP POP POP POP JUMP JUMPDEST PUSH0 DUP1 DUP5 SWAP1 POP PUSH0 PUSH1 0x40 MLOAD DUP1 PUSH1 0x40 ADD PUSH1 0x40 MSTORE DUP1 DUP7 DUP2 MSTORE PUSH1 0x20 ADD DUP6 DUP2 MSTORE POP SWAP1 POP PUSH0 PUSH2 0x653 PUSH1 0x3 PUSH1 0x40 MLOAD DUP1 PUSH1 0x40 ADD PUSH1 0x40 MSTORE SWAP1 DUP2 PUSH0 DUP3 ADD PUSH1 0x2 DUP1 PUSH1 0x20 MUL PUSH1 0x40 MLOAD SWAP1 DUP2 ADD PUSH1 0x40 MSTORE DUP1 SWAP3 SWAP2 SWAP1 DUP3 PUSH1 0x2 DUP1 ISZERO PUSH2 0x5FE JUMPI PUSH1 0x20 MUL DUP3 ADD SWAP2 JUMPDEST DUP2 SLOAD DUP2 MSTORE PUSH1 0x20 ADD SWAP1 PUSH1 0x1 ADD SWAP1 DUP1 DUP4 GT PUSH2 0x5EA JUMPI JUMPDEST POP POP POP POP POP DUP2 MSTORE PUSH1 0x20 ADD PUSH1 0x2 DUP3 ADD PUSH1 0x2 DUP1 PUSH1 0x20 MUL PUSH1 0x40 MLOAD SWAP1 DUP2 ADD PUSH1 0x40 MSTORE DUP1 SWAP3 SWAP2 SWAP1 DUP3 PUSH1 0x2 DUP1 ISZERO PUSH2 0x643 JUMPI PUSH1 0x20 MUL DUP3 ADD SWAP2 JUMPDEST DUP2 SLOAD DUP2 MSTORE PUSH1 0x20 ADD SWAP1 PUSH1 0x1 ADD SWAP1 DUP1 DUP4 GT PUSH2 0x62F JUMPI JUMPDEST POP POP POP POP POP DUP2 MSTORE POP POP DUP5 DUP5 PUSH2 0x8E6 JUMP JUMPDEST SWAP1 POP DUP1 DUP1 ISZERO PUSH2 0x68A JUMPI POP PUSH1 0x2 DUP4 PUSH1 0x40 MLOAD PUSH2 0x66D SWAP2 SWAP1 PUSH2 0x1C68 JUMP JUMPDEST SWAP1 DUP2 MSTORE PUSH1 0x20 ADD PUSH1 0x40 MLOAD DUP1 SWAP2 SUB SWAP1 KECCAK256 PUSH0 SWAP1 SLOAD SWAP1 PUSH2 0x100 EXP SWAP1 DIV PUSH1 0xFF AND ISZERO JUMPDEST ISZERO PUSH2 0x6D1 JUMPI PUSH1 0x1 PUSH1 0x2 DUP5 PUSH1 0x40 MLOAD PUSH2 0x6A1 SWAP2 SWAP1 PUSH2 0x1C68 JUMP JUMPDEST SWAP1 DUP2 MSTORE PUSH1 0x20 ADD PUSH1 0x40 MLOAD DUP1 SWAP2 SUB SWAP1 KECCAK256 PUSH0 PUSH2 0x100 EXP DUP2 SLOAD DUP2 PUSH1 0xFF MUL NOT AND SWAP1 DUP4 ISZERO ISZERO MUL OR SWAP1 SSTORE POP PUSH1 0x1 SWAP4 POP POP POP POP PUSH2 0x6D8 JUMP JUMPDEST PUSH0 SWAP4 POP POP POP POP JUMPDEST SWAP4 SWAP3 POP POP POP JUMP JUMPDEST PUSH2 0x6E7 PUSH2 0x1524 JUMP JUMPDEST PUSH1 0x1 ISZERO ISZERO PUSH1 0x7 PUSH0 DUP5 DUP2 MSTORE PUSH1 0x20 ADD SWAP1 DUP2 MSTORE PUSH1 0x20 ADD PUSH0 KECCAK256 PUSH1 0x6 ADD PUSH0 SWAP1 SLOAD SWAP1 PUSH2 0x100 EXP SWAP1 DIV PUSH1 0xFF AND ISZERO ISZERO EQ DUP1 ISZERO PUSH2 0x740 JUMPI POP PUSH1 0x1 ISZERO ISZERO PUSH1 0x7 PUSH0 DUP5 DUP2 MSTORE PUSH1 0x20 ADD SWAP1 DUP2 MSTORE PUSH1 0x20 ADD PUSH0 KECCAK256 PUSH1 0x6 ADD PUSH1 0x2 SWAP1 SLOAD SWAP1 PUSH2 0x100 EXP SWAP1 DIV PUSH1 0xFF AND ISZERO ISZERO EQ JUMPDEST DUP1 ISZERO PUSH2 0x771 JUMPI POP PUSH1 0x1 ISZERO ISZERO PUSH1 0x7 PUSH0 DUP5 DUP2 MSTORE PUSH1 0x20 ADD SWAP1 DUP2 MSTORE PUSH1 0x20 ADD PUSH0 KECCAK256 PUSH1 0x6 ADD PUSH1 0x1 SWAP1 SLOAD SWAP1 PUSH2 0x100 EXP SWAP1 DIV PUSH1 0xFF AND ISZERO ISZERO EQ JUMPDEST ISZERO PUSH2 0x827 JUMPI PUSH0 PUSH2 0x7E2 PUSH1 0x7 PUSH0 DUP6 DUP2 MSTORE PUSH1 0x20 ADD SWAP1 DUP2 MSTORE PUSH1 0x20 ADD PUSH0 KECCAK256 PUSH0 ADD PUSH1 0x40 MLOAD DUP1 PUSH1 0x40 ADD PUSH1 0x40 MSTORE SWAP1 DUP2 PUSH0 DUP3 ADD SLOAD DUP2 MSTORE PUSH1 0x20 ADD PUSH1 0x1 DUP3 ADD SLOAD DUP2 MSTORE POP POP PUSH1 0x7 PUSH0 DUP7 DUP2 MSTORE PUSH1 0x20 ADD SWAP1 DUP2 MSTORE PUSH1 0x20 ADD PUSH0 KECCAK256 PUSH1 0x2 ADD PUSH1 0x40 MLOAD DUP1 PUSH1 0x40 ADD PUSH1 0x40 MSTORE SWAP1 DUP2 PUSH0 DUP3 ADD SLOAD DUP2 MSTORE PUSH1 0x20 ADD PUSH1 0x1 DUP3 ADD SLOAD DUP2 MSTORE POP POP PUSH2 0x903 JUMP JUMPDEST SWAP1 POP PUSH2 0x81F DUP2 PUSH1 0x7 PUSH0 DUP7 DUP2 MSTORE PUSH1 0x20 ADD SWAP1 DUP2 MSTORE PUSH1 0x20 ADD PUSH0 KECCAK256 PUSH1 0x4 ADD PUSH1 0x40 MLOAD DUP1 PUSH1 0x40 ADD PUSH1 0x40 MSTORE SWAP1 DUP2 PUSH0 DUP3 ADD SLOAD DUP2 MSTORE PUSH1 0x20 ADD PUSH1 0x1 DUP3 ADD SLOAD DUP2 MSTORE POP POP PUSH2 0x903 JUMP JUMPDEST SWAP2 POP POP PUSH2 0x83F JUMP JUMPDEST PUSH1 0x40 MLOAD DUP1 PUSH1 0x40 ADD PUSH1 0x40 MSTORE DUP1 PUSH0 DUP2 MSTORE PUSH1 0x20 ADD PUSH0 DUP2 MSTORE POP SWAP1 POP JUMPDEST SWAP2 SWAP1 POP JUMP JUMPDEST PUSH0 DUP1 PUSH1 0x40 MLOAD DUP1 PUSH1 0x40 ADD PUSH1 0x40 MSTORE DUP1 DUP7 DUP2 MSTORE PUSH1 0x20 ADD DUP6 DUP2 MSTORE POP SWAP1 POP PUSH0 DUP2 SWAP1 DUP1 PUSH1 0x1 DUP2 SLOAD ADD DUP1 DUP3 SSTORE DUP1 SWAP2 POP POP PUSH1 0x1 SWAP1 SUB SWAP1 PUSH0 MSTORE PUSH1 0x20 PUSH0 KECCAK256 SWAP1 PUSH1 0x2 MUL ADD PUSH0 SWAP1 SWAP2 SWAP1 SWAP2 SWAP1 SWAP2 POP PUSH0 DUP3 ADD MLOAD DUP2 PUSH0 ADD SSTORE PUSH1 0x20 DUP3 ADD MLOAD DUP2 PUSH1 0x1 ADD SSTORE POP POP PUSH1 0x1 DUP4 SWAP1 DUP1 PUSH1 0x1 DUP2 SLOAD ADD DUP1 DUP3 SSTORE DUP1 SWAP2 POP POP PUSH1 0x1 SWAP1 SUB SWAP1 PUSH0 MSTORE PUSH1 0x20 PUSH0 KECCAK256 ADD PUSH0 SWAP1 SWAP2 SWAP1 SWAP2 SWAP1 SWAP2 POP SWAP1 DUP2 PUSH2 0x8CA SWAP2 SWAP1 PUSH2 0x1E1B JUMP JUMPDEST POP PUSH1 0x1 PUSH0 DUP1 SLOAD SWAP1 POP PUSH2 0x8DC SWAP2 SWAP1 PUSH2 0x1F17 JUMP JUMPDEST SWAP2 POP POP SWAP4 SWAP3 POP POP POP JUMP JUMPDEST PUSH0 PUSH2 0x8FA DUP5 PUSH2 0x8F4 DUP6 PUSH2 0x9F1 JUMP JUMPDEST DUP5 PUSH2 0xAD3 JUMP JUMPDEST SWAP1 POP SWAP4 SWAP3 POP POP POP JUMP JUMPDEST PUSH2 0x90B PUSH2 0x1524 JUMP JUMPDEST PUSH2 0x913 PUSH2 0x153C JUMP JUMPDEST DUP4 PUSH0 ADD MLOAD DUP2 PUSH0 PUSH1 0x4 DUP2 LT PUSH2 0x92A JUMPI PUSH2 0x929 PUSH2 0x1B9A JUMP JUMPDEST JUMPDEST PUSH1 0x20 MUL ADD DUP2 DUP2 MSTORE POP POP DUP4 PUSH1 0x20 ADD MLOAD DUP2 PUSH1 0x1 PUSH1 0x4 DUP2 LT PUSH2 0x94C JUMPI PUSH2 0x94B PUSH2 0x1B9A JUMP JUMPDEST JUMPDEST PUSH1 0x20 MUL ADD DUP2 DUP2 MSTORE POP POP DUP3 PUSH0 ADD MLOAD DUP2 PUSH1 0x2 PUSH1 0x4 DUP2 LT PUSH2 0x96D JUMPI PUSH2 0x96C PUSH2 0x1B9A JUMP JUMPDEST JUMPDEST PUSH1 0x20 MUL ADD DUP2 DUP2 MSTORE POP POP DUP3 PUSH1 0x20 ADD MLOAD DUP2 PUSH1 0x3 PUSH1 0x4 DUP2 LT PUSH2 0x98F JUMPI PUSH2 0x98E PUSH2 0x1B9A JUMP JUMPDEST JUMPDEST PUSH1 0x20 MUL ADD DUP2 DUP2 MSTORE POP POP PUSH0 PUSH1 0x40 DUP4 PUSH1 0x80 DUP5 PUSH1 0x6 PUSH2 0x7D0 GAS SUB STATICCALL SWAP1 POP DUP1 PUSH2 0x9E9 JUMPI PUSH1 0x40 MLOAD PUSH32 0x8C379A000000000000000000000000000000000000000000000000000000000 DUP2 MSTORE PUSH1 0x4 ADD PUSH2 0x9E0 SWAP1 PUSH2 0x1F94 JUMP JUMPDEST PUSH1 0x40 MLOAD DUP1 SWAP2 SUB SWAP1 REVERT JUMPDEST POP POP SWAP3 SWAP2 POP POP JUMP JUMPDEST PUSH2 0x9F9 PUSH2 0x1524 JUMP JUMPDEST PUSH0 PUSH1 0x2 DUP4 PUSH1 0x40 MLOAD PUSH2 0xA0A SWAP2 SWAP1 PUSH2 0x1C68 JUMP JUMPDEST PUSH1 0x20 PUSH1 0x40 MLOAD DUP1 DUP4 SUB DUP2 DUP6 GAS STATICCALL ISZERO DUP1 ISZERO PUSH2 0xA25 JUMPI RETURNDATASIZE PUSH0 DUP1 RETURNDATACOPY RETURNDATASIZE PUSH0 REVERT JUMPDEST POP POP POP PUSH1 0x40 MLOAD RETURNDATASIZE PUSH1 0x1F NOT PUSH1 0x1F DUP3 ADD AND DUP3 ADD DUP1 PUSH1 0x40 MSTORE POP DUP2 ADD SWAP1 PUSH2 0xA48 SWAP2 SWAP1 PUSH2 0x1FE5 JUMP JUMPDEST SWAP1 POP PUSH0 PUSH32 0x30644E72E131A029B85045B68181585D97816A916871CA8D3C208C16D87CFD47 DUP3 PUSH0 SHR PUSH2 0xA79 SWAP2 SWAP1 PUSH2 0x203D JUMP JUMPDEST SWAP1 POP PUSH0 JUMPDEST PUSH1 0x1 ISZERO PUSH2 0xACA JUMPI PUSH2 0xA8D DUP3 PUSH2 0xC26 JUMP JUMPDEST SWAP1 POP PUSH0 DUP2 GT ISZERO PUSH2 0xAB6 JUMPI PUSH1 0x40 MLOAD DUP1 PUSH1 0x40 ADD PUSH1 0x40 MSTORE DUP1 DUP4 DUP2 MSTORE PUSH1 0x20 ADD DUP3 DUP2 MSTORE POP SWAP4 POP POP POP POP PUSH2 0xACE JUMP JUMPDEST PUSH1 0x1 DUP3 PUSH2 0xAC3 SWAP2 SWAP1 PUSH2 0x206D JUMP JUMPDEST SWAP2 POP PUSH2 0xA7D JUMP JUMPDEST POP POP POP JUMPDEST SWAP2 SWAP1 POP JUMP JUMPDEST PUSH0 DUP1 PUSH1 0x2 PUSH8 0xFFFFFFFFFFFFFFFF DUP2 GT ISZERO PUSH2 0xAF0 JUMPI PUSH2 0xAEF PUSH2 0x15F1 JUMP JUMPDEST JUMPDEST PUSH1 0x40 MLOAD SWAP1 DUP1 DUP3 MSTORE DUP1 PUSH1 0x20 MUL PUSH1 0x20 ADD DUP3 ADD PUSH1 0x40 MSTORE DUP1 ISZERO PUSH2 0xB29 JUMPI DUP2 PUSH1 0x20 ADD JUMPDEST PUSH2 0xB16 PUSH2 0x1524 JUMP JUMPDEST DUP2 MSTORE PUSH1 0x20 ADD SWAP1 PUSH1 0x1 SWAP1 SUB SWAP1 DUP2 PUSH2 0xB0E JUMPI SWAP1 POP JUMPDEST POP SWAP1 POP PUSH0 PUSH1 0x2 PUSH8 0xFFFFFFFFFFFFFFFF DUP2 GT ISZERO PUSH2 0xB48 JUMPI PUSH2 0xB47 PUSH2 0x15F1 JUMP JUMPDEST JUMPDEST PUSH1 0x40 MLOAD SWAP1 DUP1 DUP3 MSTORE DUP1 PUSH1 0x20 MUL PUSH1 0x20 ADD DUP3 ADD PUSH1 0x40 MSTORE DUP1 ISZERO PUSH2 0xB81 JUMPI DUP2 PUSH1 0x20 ADD JUMPDEST PUSH2 0xB6E PUSH2 0x155E JUMP JUMPDEST DUP2 MSTORE PUSH1 0x20 ADD SWAP1 PUSH1 0x1 SWAP1 SUB SWAP1 DUP2 PUSH2 0xB66 JUMPI SWAP1 POP JUMPDEST POP SWAP1 POP PUSH2 0xB8D DUP5 PUSH2 0xCAD JUMP JUMPDEST DUP3 PUSH0 DUP2 MLOAD DUP2 LT PUSH2 0xBA0 JUMPI PUSH2 0xB9F PUSH2 0x1B9A JUMP JUMPDEST JUMPDEST PUSH1 0x20 MUL PUSH1 0x20 ADD ADD DUP2 SWAP1 MSTORE POP DUP5 DUP3 PUSH1 0x1 DUP2 MLOAD DUP2 LT PUSH2 0xBC0 JUMPI PUSH2 0xBBF PUSH2 0x1B9A JUMP JUMPDEST JUMPDEST PUSH1 0x20 MUL PUSH1 0x20 ADD ADD DUP2 SWAP1 MSTORE POP PUSH2 0xBD3 PUSH2 0xD59 JUMP JUMPDEST DUP2 PUSH0 DUP2 MLOAD DUP2 LT PUSH2 0xBE6 JUMPI PUSH2 0xBE5 PUSH2 0x1B9A JUMP JUMPDEST JUMPDEST PUSH1 0x20 MUL PUSH1 0x20 ADD ADD DUP2 SWAP1 MSTORE POP DUP6 DUP2 PUSH1 0x1 DUP2 MLOAD DUP2 LT PUSH2 0xC06 JUMPI PUSH2 0xC05 PUSH2 0x1B9A JUMP JUMPDEST JUMPDEST PUSH1 0x20 MUL PUSH1 0x20 ADD ADD DUP2 SWAP1 MSTORE POP PUSH2 0xC1B DUP3 DUP3 PUSH2 0xE23 JUMP JUMPDEST SWAP3 POP POP POP SWAP4 SWAP3 POP POP POP JUMP JUMPDEST PUSH0 PUSH2 0xCA6 PUSH32 0x30644E72E131A029B85045B68181585D97816A916871CA8D3C208C16D87CFD47 DUP1 PUSH1 0x3 PUSH2 0xC84 PUSH1 0x3 PUSH32 0x30644E72E131A029B85045B68181585D97816A916871CA8D3C208C16D87CFD47 DUP9 PUSH2 0x11C5 SWAP1 SWAP3 SWAP2 SWAP1 PUSH4 0xFFFFFFFF AND JUMP JUMPDEST PUSH2 0xC8E SWAP2 SWAP1 PUSH2 0x206D JUMP JUMPDEST PUSH2 0xC98 SWAP2 SWAP1 PUSH2 0x203D JUMP JUMPDEST PUSH2 0x1210 SWAP1 SWAP2 SWAP1 PUSH4 0xFFFFFFFF AND JUMP JUMPDEST SWAP1 POP SWAP2 SWAP1 POP JUMP JUMPDEST PUSH2 0xCB5 PUSH2 0x1524 JUMP JUMPDEST PUSH2 0xCBE DUP3 PUSH2 0x1440 JUMP JUMPDEST ISZERO PUSH2 0xCDF JUMPI PUSH1 0x40 MLOAD DUP1 PUSH1 0x40 ADD PUSH1 0x40 MSTORE DUP1 PUSH0 DUP2 MSTORE PUSH1 0x20 ADD PUSH0 DUP2 MSTORE POP SWAP1 POP PUSH2 0xD54 JUMP JUMPDEST PUSH1 0x40 MLOAD DUP1 PUSH1 0x40 ADD PUSH1 0x40 MSTORE DUP1 DUP4 PUSH0 ADD MLOAD DUP2 MSTORE PUSH1 0x20 ADD PUSH32 0x30644E72E131A029B85045B68181585D97816A916871CA8D3C208C16D87CFD47 DUP5 PUSH1 0x20 ADD MLOAD PUSH2 0xD23 SWAP2 SWAP1 PUSH2 0x203D JUMP JUMPDEST PUSH32 0x30644E72E131A029B85045B68181585D97816A916871CA8D3C208C16D87CFD47 PUSH2 0xD4E SWAP2 SWAP1 PUSH2 0x1F17 JUMP JUMPDEST DUP2 MSTORE POP SWAP1 POP JUMPDEST SWAP2 SWAP1 POP JUMP JUMPDEST PUSH2 0xD61 PUSH2 0x155E JUMP JUMPDEST PUSH1 0x40 MLOAD DUP1 PUSH1 0x40 ADD PUSH1 0x40 MSTORE DUP1 PUSH1 0x40 MLOAD DUP1 PUSH1 0x40 ADD PUSH1 0x40 MSTORE DUP1 PUSH32 0x198E9393920D483A7260BFB731FB5D25F1AA493335A9E71297E485B7AEF312C2 DUP2 MSTORE PUSH1 0x20 ADD PUSH32 0x1800DEEF121F1E76426A00665E5C4479674322D4F75EDADD46DEBD5CD992F6ED DUP2 MSTORE POP DUP2 MSTORE PUSH1 0x20 ADD PUSH1 0x40 MLOAD DUP1 PUSH1 0x40 ADD PUSH1 0x40 MSTORE DUP1 PUSH32 0x90689D0585FF075EC9E99AD690C3395BC4B313370B38EF355ACDADCD122975B DUP2 MSTORE PUSH1 0x20 ADD PUSH32 0x12C85EA5DB8C6DEB4AAB71808DCB408FE3D1E7690C43D37B4CE6CC0166FA7DAA DUP2 MSTORE POP DUP2 MSTORE POP SWAP1 POP SWAP1 JUMP JUMPDEST PUSH0 DUP2 MLOAD DUP4 MLOAD EQ PUSH2 0xE68 JUMPI PUSH1 0x40 MLOAD PUSH32 0x8C379A000000000000000000000000000000000000000000000000000000000 DUP2 MSTORE PUSH1 0x4 ADD PUSH2 0xE5F SWAP1 PUSH2 0x20EA JUMP JUMPDEST PUSH1 0x40 MLOAD DUP1 SWAP2 SUB SWAP1 REVERT JUMPDEST PUSH0 DUP4 MLOAD SWAP1 POP PUSH0 PUSH1 0x6 DUP3 PUSH2 0xE7B SWAP2 SWAP1 PUSH2 0x2108 JUMP JUMPDEST SWAP1 POP PUSH0 DUP2 PUSH8 0xFFFFFFFFFFFFFFFF DUP2 GT ISZERO PUSH2 0xE98 JUMPI PUSH2 0xE97 PUSH2 0x15F1 JUMP JUMPDEST JUMPDEST PUSH1 0x40 MLOAD SWAP1 DUP1 DUP3 MSTORE DUP1 PUSH1 0x20 MUL PUSH1 0x20 ADD DUP3 ADD PUSH1 0x40 MSTORE DUP1 ISZERO PUSH2 0xEC6 JUMPI DUP2 PUSH1 0x20 ADD PUSH1 0x20 DUP3 MUL DUP1 CALLDATASIZE DUP4 CALLDATACOPY DUP1 DUP3 ADD SWAP2 POP POP SWAP1 POP JUMPDEST POP SWAP1 POP PUSH0 JUMPDEST DUP4 DUP2 LT ISZERO PUSH2 0x113E JUMPI DUP7 DUP2 DUP2 MLOAD DUP2 LT PUSH2 0xEE6 JUMPI PUSH2 0xEE5 PUSH2 0x1B9A JUMP JUMPDEST JUMPDEST PUSH1 0x20 MUL PUSH1 0x20 ADD ADD MLOAD PUSH0 ADD MLOAD DUP3 PUSH0 PUSH1 0x6 DUP5 PUSH2 0xF00 SWAP2 SWAP1 PUSH2 0x2108 JUMP JUMPDEST PUSH2 0xF0A SWAP2 SWAP1 PUSH2 0x206D JUMP JUMPDEST DUP2 MLOAD DUP2 LT PUSH2 0xF1B JUMPI PUSH2 0xF1A PUSH2 0x1B9A JUMP JUMPDEST JUMPDEST PUSH1 0x20 MUL PUSH1 0x20 ADD ADD DUP2 DUP2 MSTORE POP POP DUP7 DUP2 DUP2 MLOAD DUP2 LT PUSH2 0xF3A JUMPI PUSH2 0xF39 PUSH2 0x1B9A JUMP JUMPDEST JUMPDEST PUSH1 0x20 MUL PUSH1 0x20 ADD ADD MLOAD PUSH1 0x20 ADD MLOAD DUP3 PUSH1 0x1 PUSH1 0x6 DUP5 PUSH2 0xF56 SWAP2 SWAP1 PUSH2 0x2108 JUMP JUMPDEST PUSH2 0xF60 SWAP2 SWAP1 PUSH2 0x206D JUMP JUMPDEST DUP2 MLOAD DUP2 LT PUSH2 0xF71 JUMPI PUSH2 0xF70 PUSH2 0x1B9A JUMP JUMPDEST JUMPDEST PUSH1 0x20 MUL PUSH1 0x20 ADD ADD DUP2 DUP2 MSTORE POP POP DUP6 DUP2 DUP2 MLOAD DUP2 LT PUSH2 0xF90 JUMPI PUSH2 0xF8F PUSH2 0x1B9A JUMP JUMPDEST JUMPDEST PUSH1 0x20 MUL PUSH1 0x20 ADD ADD MLOAD PUSH0 ADD MLOAD PUSH0 PUSH1 0x2 DUP2 LT PUSH2 0xFAD JUMPI PUSH2 0xFAC PUSH2 0x1B9A JUMP JUMPDEST JUMPDEST PUSH1 0x20 MUL ADD MLOAD DUP3 PUSH1 0x2 PUSH1 0x6 DUP5 PUSH2 0xFC2 SWAP2 SWAP1 PUSH2 0x2108 JUMP JUMPDEST PUSH2 0xFCC SWAP2 SWAP1 PUSH2 0x206D JUMP JUMPDEST DUP2 MLOAD DUP2 LT PUSH2 0xFDD JUMPI PUSH2 0xFDC PUSH2 0x1B9A JUMP JUMPDEST JUMPDEST PUSH1 0x20 MUL PUSH1 0x20 ADD ADD DUP2 DUP2 MSTORE POP POP DUP6 DUP2 DUP2 MLOAD DUP2 LT PUSH2 0xFFC JUMPI PUSH2 0xFFB PUSH2 0x1B9A JUMP JUMPDEST JUMPDEST PUSH1 0x20 MUL PUSH1 0x20 ADD ADD MLOAD PUSH0 ADD MLOAD PUSH1 0x1 PUSH1 0x2 DUP2 LT PUSH2 0x101A JUMPI PUSH2 0x1019 PUSH2 0x1B9A JUMP JUMPDEST JUMPDEST PUSH1 0x20 MUL ADD MLOAD DUP3 PUSH1 0x3 PUSH1 0x6 DUP5 PUSH2 0x102F SWAP2 SWAP1 PUSH2 0x2108 JUMP JUMPDEST PUSH2 0x1039 SWAP2 SWAP1 PUSH2 0x206D JUMP JUMPDEST DUP2 MLOAD DUP2 LT PUSH2 0x104A JUMPI PUSH2 0x1049 PUSH2 0x1B9A JUMP JUMPDEST JUMPDEST PUSH1 0x20 MUL PUSH1 0x20 ADD ADD DUP2 DUP2 MSTORE POP POP DUP6 DUP2 DUP2 MLOAD DUP2 LT PUSH2 0x1069 JUMPI PUSH2 0x1068 PUSH2 0x1B9A JUMP JUMPDEST JUMPDEST PUSH1 0x20 MUL PUSH1 0x20 ADD ADD MLOAD PUSH1 0x20 ADD MLOAD PUSH0 PUSH1 0x2 DUP2 LT PUSH2 0x1087 JUMPI PUSH2 0x1086 PUSH2 0x1B9A JUMP JUMPDEST JUMPDEST PUSH1 0x20 MUL ADD MLOAD DUP3 PUSH1 0x4 PUSH1 0x6 DUP5 PUSH2 0x109C SWAP2 SWAP1 PUSH2 0x2108 JUMP JUMPDEST PUSH2 0x10A6 SWAP2 SWAP1 PUSH2 0x206D JUMP JUMPDEST DUP2 MLOAD DUP2 LT PUSH2 0x10B7 JUMPI PUSH2 0x10B6 PUSH2 0x1B9A JUMP JUMPDEST JUMPDEST PUSH1 0x20 MUL PUSH1 0x20 ADD ADD DUP2 DUP2 MSTORE POP POP DUP6 DUP2 DUP2 MLOAD DUP2 LT PUSH2 0x10D6 JUMPI PUSH2 0x10D5 PUSH2 0x1B9A JUMP JUMPDEST JUMPDEST PUSH1 0x20 MUL PUSH1 0x20 ADD ADD MLOAD PUSH1 0x20 ADD MLOAD PUSH1 0x1 PUSH1 0x2 DUP2 LT PUSH2 0x10F5 JUMPI PUSH2 0x10F4 PUSH2 0x1B9A JUMP JUMPDEST JUMPDEST PUSH1 0x20 MUL ADD MLOAD DUP3 PUSH1 0x5 PUSH1 0x6 DUP5 PUSH2 0x110A SWAP2 SWAP1 PUSH2 0x2108 JUMP JUMPDEST PUSH2 0x1114 SWAP2 SWAP1 PUSH2 0x206D JUMP JUMPDEST DUP2 MLOAD DUP2 LT PUSH2 0x1125 JUMPI PUSH2 0x1124 PUSH2 0x1B9A JUMP JUMPDEST JUMPDEST PUSH1 0x20 MUL PUSH1 0x20 ADD ADD DUP2 DUP2 MSTORE POP POP DUP1 DUP1 PUSH1 0x1 ADD SWAP2 POP POP PUSH2 0xECB JUMP JUMPDEST POP PUSH2 0x1147 PUSH2 0x1584 JUMP JUMPDEST PUSH0 PUSH1 0x20 DUP3 PUSH1 0x20 DUP7 MUL PUSH1 0x20 DUP7 ADD PUSH1 0x8 PUSH2 0x7D0 GAS SUB STATICCALL SWAP1 POP DUP1 PUSH2 0x119D JUMPI PUSH1 0x40 MLOAD PUSH32 0x8C379A000000000000000000000000000000000000000000000000000000000 DUP2 MSTORE PUSH1 0x4 ADD PUSH2 0x1194 SWAP1 PUSH2 0x2193 JUMP JUMPDEST PUSH1 0x40 MLOAD DUP1 SWAP2 SUB SWAP1 REVERT JUMPDEST PUSH0 DUP3 PUSH0 PUSH1 0x1 DUP2 LT PUSH2 0x11B1 JUMPI PUSH2 0x11B0 PUSH2 0x1B9A JUMP JUMPDEST JUMPDEST PUSH1 0x20 MUL ADD MLOAD EQ ISZERO SWAP6 POP POP POP POP POP POP SWAP3 SWAP2 POP POP JUMP JUMPDEST PUSH0 PUSH1 0x40 MLOAD PUSH1 0x20 DUP2 ADD PUSH1 0x20 DUP2 MSTORE PUSH1 0x20 DUP1 DUP3 ADD MSTORE PUSH1 0x20 PUSH1 0x40 DUP3 ADD MSTORE DUP6 PUSH1 0x60 DUP3 ADD MSTORE DUP5 PUSH1 0x80 DUP3 ADD MSTORE DUP4 PUSH1 0xA0 DUP3 ADD MSTORE PUSH1 0x20 DUP3 PUSH1 0xC0 DUP4 PUSH1 0x5 PUSH0 NOT STATICCALL PUSH2 0x1203 JUMPI PUSH0 DUP1 REVERT JUMPDEST DUP2 MLOAD SWAP3 POP POP POP SWAP4 SWAP3 POP POP POP JUMP JUMPDEST PUSH0 PUSH1 0x1 PUSH2 0x121D DUP5 DUP5 PUSH2 0x145D JUMP JUMPDEST EQ PUSH2 0x122A JUMPI PUSH0 SWAP1 POP PUSH2 0x143A JUMP JUMPDEST PUSH0 DUP4 SUB PUSH2 0x1239 JUMPI PUSH0 SWAP1 POP PUSH2 0x143A JUMP JUMPDEST PUSH1 0x3 PUSH1 0x4 DUP4 PUSH2 0x1248 SWAP2 SWAP1 PUSH2 0x203D JUMP JUMPDEST SUB PUSH2 0x1277 JUMPI PUSH2 0x1270 DUP4 PUSH1 0x4 PUSH1 0x1 DUP6 PUSH2 0x1260 SWAP2 SWAP1 PUSH2 0x206D JUMP JUMPDEST PUSH2 0x126A SWAP2 SWAP1 PUSH2 0x21B1 JUMP JUMPDEST DUP5 PUSH2 0x11C5 JUMP JUMPDEST SWAP1 POP PUSH2 0x143A JUMP JUMPDEST PUSH0 PUSH1 0x1 DUP4 PUSH2 0x1285 SWAP2 SWAP1 PUSH2 0x1F17 JUMP JUMPDEST SWAP1 POP PUSH0 JUMPDEST PUSH0 PUSH1 0x2 DUP4 PUSH2 0x1297 SWAP2 SWAP1 PUSH2 0x203D JUMP JUMPDEST SUB PUSH2 0x12BF JUMPI PUSH1 0x2 DUP3 PUSH2 0x12A9 SWAP2 SWAP1 PUSH2 0x21B1 JUMP JUMPDEST SWAP2 POP PUSH1 0x1 DUP2 PUSH2 0x12B8 SWAP2 SWAP1 PUSH2 0x206D JUMP JUMPDEST SWAP1 POP PUSH2 0x1289 JUMP JUMPDEST PUSH0 PUSH1 0x2 SWAP1 POP JUMPDEST PUSH32 0xFFFFFFFFFFFFFFFFFFFFFFFFFFFFFFFFFFFFFFFFFFFFFFFFFFFFFFFFFFFFFFFF PUSH2 0x12F0 DUP3 DUP8 PUSH2 0x145D JUMP JUMPDEST EQ PUSH2 0x1309 JUMPI PUSH1 0x1 DUP2 PUSH2 0x1302 SWAP2 SWAP1 PUSH2 0x206D JUMP JUMPDEST SWAP1 POP PUSH2 0x12C5 JUMP JUMPDEST PUSH0 PUSH2 0x132D DUP8 PUSH1 0x2 PUSH1 0x1 DUP8 PUSH2 0x131D SWAP2 SWAP1 PUSH2 0x206D JUMP JUMPDEST PUSH2 0x1327 SWAP2 SWAP1 PUSH2 0x21B1 JUMP JUMPDEST DUP9 PUSH2 0x11C5 JUMP JUMPDEST SWAP1 POP PUSH0 PUSH2 0x133B DUP9 DUP7 DUP10 PUSH2 0x11C5 JUMP JUMPDEST SWAP1 POP PUSH0 PUSH2 0x1349 DUP5 DUP8 DUP11 PUSH2 0x11C5 JUMP JUMPDEST SWAP1 POP PUSH0 DUP6 SWAP1 POP PUSH0 DUP1 PUSH0 DUP6 SWAP1 POP JUMPDEST PUSH1 0x1 ISZERO PUSH2 0x142F JUMPI DUP6 SWAP1 POP PUSH0 SWAP2 POP PUSH0 SWAP2 POP JUMPDEST DUP4 DUP3 LT ISZERO PUSH2 0x1393 JUMPI PUSH1 0x1 DUP2 SUB ISZERO PUSH2 0x1393 JUMPI PUSH2 0x1384 DUP2 PUSH1 0x2 DUP15 PUSH2 0x11C5 JUMP JUMPDEST SWAP1 POP DUP2 DUP1 PUSH1 0x1 ADD SWAP3 POP POP PUSH2 0x1367 JUMP JUMPDEST PUSH0 DUP3 SUB PUSH2 0x13AC JUMPI DUP7 SWAP11 POP POP POP POP POP POP POP POP POP POP POP PUSH2 0x143A JUMP JUMPDEST PUSH2 0x13DA DUP6 PUSH1 0x1 DUP5 DUP8 PUSH2 0x13BE SWAP2 SWAP1 PUSH2 0x1F17 JUMP JUMPDEST PUSH2 0x13C8 SWAP2 SWAP1 PUSH2 0x1F17 JUMP JUMPDEST PUSH1 0x2 PUSH2 0x13D4 SWAP2 SWAP1 PUSH2 0x2310 JUMP JUMPDEST DUP15 PUSH2 0x11C5 JUMP JUMPDEST SWAP3 POP DUP12 DUP4 DUP5 PUSH2 0x13E9 SWAP2 SWAP1 PUSH2 0x2108 JUMP JUMPDEST PUSH2 0x13F3 SWAP2 SWAP1 PUSH2 0x203D JUMP JUMPDEST SWAP5 POP DUP12 DUP4 DUP9 PUSH2 0x1402 SWAP2 SWAP1 PUSH2 0x2108 JUMP JUMPDEST PUSH2 0x140C SWAP2 SWAP1 PUSH2 0x203D JUMP JUMPDEST SWAP7 POP DUP12 DUP6 DUP8 PUSH2 0x141B SWAP2 SWAP1 PUSH2 0x2108 JUMP JUMPDEST PUSH2 0x1425 SWAP2 SWAP1 PUSH2 0x203D JUMP JUMPDEST SWAP6 POP DUP2 SWAP4 POP PUSH2 0x1356 JUMP JUMPDEST POP POP POP POP POP POP POP POP POP POP JUMPDEST SWAP3 SWAP2 POP POP JUMP JUMPDEST PUSH0 DUP1 DUP3 PUSH0 ADD MLOAD EQ DUP1 ISZERO PUSH2 0x1456 JUMPI POP PUSH0 DUP3 PUSH1 0x20 ADD MLOAD EQ JUMPDEST SWAP1 POP SWAP2 SWAP1 POP JUMP JUMPDEST PUSH0 DUP1 PUSH2 0x1482 DUP5 PUSH1 0x2 PUSH1 0x1 DUP7 PUSH2 0x1472 SWAP2 SWAP1 PUSH2 0x1F17 JUMP JUMPDEST PUSH2 0x147C SWAP2 SWAP1 PUSH2 0x21B1 JUMP JUMPDEST DUP6 PUSH2 0x11C5 JUMP JUMPDEST SWAP1 POP PUSH0 DUP2 EQ DUP1 PUSH2 0x1492 JUMPI POP PUSH1 0x1 DUP2 EQ JUMPDEST ISZERO PUSH2 0x14A0 JUMPI DUP1 SWAP2 POP POP PUSH2 0x151E JUMP JUMPDEST PUSH1 0x1 DUP4 PUSH2 0x14AD SWAP2 SWAP1 PUSH2 0x1F17 JUMP JUMPDEST DUP2 SUB PUSH2 0x14DC JUMPI PUSH32 0xFFFFFFFFFFFFFFFFFFFFFFFFFFFFFFFFFFFFFFFFFFFFFFFFFFFFFFFFFFFFFFFF SWAP2 POP POP PUSH2 0x151E JUMP JUMPDEST PUSH0 PUSH2 0x151C JUMPI PUSH1 0x40 MLOAD PUSH32 0x8C379A000000000000000000000000000000000000000000000000000000000 DUP2 MSTORE PUSH1 0x4 ADD PUSH2 0x1513 SWAP1 PUSH2 0x23A4 JUMP JUMPDEST PUSH1 0x40 MLOAD DUP1 SWAP2 SUB SWAP1 REVERT JUMPDEST POP JUMPDEST SWAP3 SWAP2 POP POP JUMP JUMPDEST PUSH1 0x40 MLOAD DUP1 PUSH1 0x40 ADD PUSH1 0x40 MSTORE DUP1 PUSH0 DUP2 MSTORE PUSH1 0x20 ADD PUSH0 DUP2 MSTORE POP SWAP1 JUMP JUMPDEST PUSH1 0x40 MLOAD DUP1 PUSH1 0x80 ADD PUSH1 0x40 MSTORE DUP1 PUSH1 0x4 SWAP1 PUSH1 0x20 DUP3 MUL DUP1 CALLDATASIZE DUP4 CALLDATACOPY DUP1 DUP3 ADD SWAP2 POP POP SWAP1 POP POP SWAP1 JUMP JUMPDEST PUSH1 0x40 MLOAD DUP1 PUSH1 0x40 ADD PUSH1 0x40 MSTORE DUP1 PUSH2 0x1571 PUSH2 0x15A6 JUMP JUMPDEST DUP2 MSTORE PUSH1 0x20 ADD PUSH2 0x157E PUSH2 0x15A6 JUMP JUMPDEST DUP2 MSTORE POP SWAP1 JUMP JUMPDEST PUSH1 0x40 MLOAD DUP1 PUSH1 0x20 ADD PUSH1 0x40 MSTORE DUP1 PUSH1 0x1 SWAP1 PUSH1 0x20 DUP3 MUL DUP1 CALLDATASIZE DUP4 CALLDATACOPY DUP1 DUP3 ADD SWAP2 POP POP SWAP1 POP POP SWAP1 JUMP JUMPDEST PUSH1 0x40 MLOAD DUP1 PUSH1 0x40 ADD PUSH1 0x40 MSTORE DUP1 PUSH1 0x2 SWAP1 PUSH1 0x20 DUP3 MUL DUP1 CALLDATASIZE DUP4 CALLDATACOPY DUP1 DUP3 ADD SWAP2 POP POP SWAP1 POP POP SWAP1 JUMP JUMPDEST PUSH0 PUSH1 0x40 MLOAD SWAP1 POP SWAP1 JUMP JUMPDEST PUSH0 DUP1 REVERT JUMPDEST PUSH0 DUP1 REVERT JUMPDEST PUSH0 DUP1 REVERT JUMPDEST PUSH0 DUP1 REVERT JUMPDEST PUSH0 PUSH1 0x1F NOT PUSH1 0x1F DUP4 ADD AND SWAP1 POP SWAP2 SWAP1 POP JUMP JUMPDEST PUSH32 0x4E487B7100000000000000000000000000000000000000000000000000000000 PUSH0 MSTORE PUSH1 0x41 PUSH1 0x4 MSTORE PUSH1 0x24 PUSH0 REVERT JUMPDEST PUSH2 0x1627 DUP3 PUSH2 0x15E1 JUMP JUMPDEST DUP2 ADD DUP2 DUP2 LT PUSH8 0xFFFFFFFFFFFFFFFF DUP3 GT OR ISZERO PUSH2 0x1646 JUMPI PUSH2 0x1645 PUSH2 0x15F1 JUMP JUMPDEST JUMPDEST DUP1 PUSH1 0x40 MSTORE POP POP POP JUMP JUMPDEST PUSH0 PUSH2 0x1658 PUSH2 0x15C8 JUMP JUMPDEST SWAP1 POP PUSH2 0x1664 DUP3 DUP3 PUSH2 0x161E JUMP JUMPDEST SWAP2 SWAP1 POP JUMP JUMPDEST PUSH0 PUSH8 0xFFFFFFFFFFFFFFFF DUP3 GT ISZERO PUSH2 0x1683 JUMPI PUSH2 0x1682 PUSH2 0x15F1 JUMP JUMPDEST JUMPDEST PUSH2 0x168C DUP3 PUSH2 0x15E1 JUMP JUMPDEST SWAP1 POP PUSH1 0x20 DUP2 ADD SWAP1 POP SWAP2 SWAP1 POP JUMP JUMPDEST DUP3 DUP2 DUP4 CALLDATACOPY PUSH0 DUP4 DUP4 ADD MSTORE POP POP POP JUMP JUMPDEST PUSH0 PUSH2 0x16B9 PUSH2 0x16B4 DUP5 PUSH2 0x1669 JUMP JUMPDEST PUSH2 0x164F JUMP JUMPDEST SWAP1 POP DUP3 DUP2 MSTORE PUSH1 0x20 DUP2 ADD DUP5 DUP5 DUP5 ADD GT ISZERO PUSH2 0x16D5 JUMPI PUSH2 0x16D4 PUSH2 0x15DD JUMP JUMPDEST JUMPDEST PUSH2 0x16E0 DUP5 DUP3 DUP6 PUSH2 0x1699 JUMP JUMPDEST POP SWAP4 SWAP3 POP POP POP JUMP JUMPDEST PUSH0 DUP3 PUSH1 0x1F DUP4 ADD SLT PUSH2 0x16FC JUMPI PUSH2 0x16FB PUSH2 0x15D9 JUMP JUMPDEST JUMPDEST DUP2 CALLDATALOAD PUSH2 0x170C DUP5 DUP3 PUSH1 0x20 DUP7 ADD PUSH2 0x16A7 JUMP JUMPDEST SWAP2 POP POP SWAP3 SWAP2 POP POP JUMP JUMPDEST PUSH0 PUSH1 0x20 DUP3 DUP5 SUB SLT ISZERO PUSH2 0x172A JUMPI PUSH2 0x1729 PUSH2 0x15D1 JUMP JUMPDEST JUMPDEST PUSH0 DUP3 ADD CALLDATALOAD PUSH8 0xFFFFFFFFFFFFFFFF DUP2 GT ISZERO PUSH2 0x1747 JUMPI PUSH2 0x1746 PUSH2 0x15D5 JUMP JUMPDEST JUMPDEST PUSH2 0x1753 DUP5 DUP3 DUP6 ADD PUSH2 0x16E8 JUMP JUMPDEST SWAP2 POP POP SWAP3 SWAP2 POP POP JUMP JUMPDEST PUSH0 DUP2 ISZERO ISZERO SWAP1 POP SWAP2 SWAP1 POP JUMP JUMPDEST PUSH2 0x1770 DUP2 PUSH2 0x175C JUMP JUMPDEST DUP3 MSTORE POP POP JUMP JUMPDEST PUSH0 PUSH1 0x20 DUP3 ADD SWAP1 POP PUSH2 0x1789 PUSH0 DUP4 ADD DUP5 PUSH2 0x1767 JUMP JUMPDEST SWAP3 SWAP2 POP POP JUMP JUMPDEST PUSH0 DUP2 SWAP1 POP SWAP2 SWAP1 POP JUMP JUMPDEST PUSH2 0x17A1 DUP2 PUSH2 0x178F JUMP JUMPDEST DUP2 EQ PUSH2 0x17AB JUMPI PUSH0 DUP1 REVERT JUMPDEST POP JUMP JUMPDEST PUSH0 DUP2 CALLDATALOAD SWAP1 POP PUSH2 0x17BC DUP2 PUSH2 0x1798 JUMP JUMPDEST SWAP3 SWAP2 POP POP JUMP JUMPDEST PUSH0 PUSH1 0x20 DUP3 DUP5 SUB SLT ISZERO PUSH2 0x17D7 JUMPI PUSH2 0x17D6 PUSH2 0x15D1 JUMP JUMPDEST JUMPDEST PUSH0 PUSH2 0x17E4 DUP5 DUP3 DUP6 ADD PUSH2 0x17AE JUMP JUMPDEST SWAP2 POP POP SWAP3 SWAP2 POP POP JUMP JUMPDEST PUSH2 0x17F6 DUP2 PUSH2 0x178F JUMP JUMPDEST DUP3 MSTORE POP POP JUMP JUMPDEST PUSH1 0x40 DUP3 ADD PUSH0 DUP3 ADD MLOAD PUSH2 0x1810 PUSH0 DUP6 ADD DUP3 PUSH2 0x17ED JUMP JUMPDEST POP PUSH1 0x20 DUP3 ADD MLOAD PUSH2 0x1823 PUSH1 0x20 DUP6 ADD DUP3 PUSH2 0x17ED JUMP JUMPDEST POP POP POP POP JUMP JUMPDEST PUSH0 PUSH2 0x120 DUP3 ADD SWAP1 POP PUSH2 0x183D PUSH0 DUP4 ADD DUP10 PUSH2 0x17FC JUMP JUMPDEST PUSH2 0x184A PUSH1 0x40 DUP4 ADD DUP9 PUSH2 0x17FC JUMP JUMPDEST PUSH2 0x1857 PUSH1 0x80 DUP4 ADD DUP8 PUSH2 0x17FC JUMP JUMPDEST PUSH2 0x1864 PUSH1 0xC0 DUP4 ADD DUP7 PUSH2 0x1767 JUMP JUMPDEST PUSH2 0x1871 PUSH1 0xE0 DUP4 ADD DUP6 PUSH2 0x1767 JUMP JUMPDEST PUSH2 0x187F PUSH2 0x100 DUP4 ADD DUP5 PUSH2 0x1767 JUMP JUMPDEST SWAP8 SWAP7 POP POP POP POP POP POP POP JUMP JUMPDEST PUSH0 PUSH1 0xFF DUP3 AND SWAP1 POP SWAP2 SWAP1 POP JUMP JUMPDEST PUSH2 0x189F DUP2 PUSH2 0x188A JUMP JUMPDEST DUP2 EQ PUSH2 0x18A9 JUMPI PUSH0 DUP1 REVERT JUMPDEST POP JUMP JUMPDEST PUSH0 DUP2 CALLDATALOAD SWAP1 POP PUSH2 0x18BA DUP2 PUSH2 0x1896 JUMP JUMPDEST SWAP3 SWAP2 POP POP JUMP JUMPDEST PUSH0 PUSH1 0x20 DUP3 DUP5 SUB SLT ISZERO PUSH2 0x18D5 JUMPI PUSH2 0x18D4 PUSH2 0x15D1 JUMP JUMPDEST JUMPDEST PUSH0 PUSH2 0x18E2 DUP5 DUP3 DUP6 ADD PUSH2 0x18AC JUMP JUMPDEST SWAP2 POP POP SWAP3 SWAP2 POP POP JUMP JUMPDEST PUSH0 DUP2 MLOAD SWAP1 POP SWAP2 SWAP1 POP JUMP JUMPDEST PUSH0 DUP3 DUP3 MSTORE PUSH1 0x20 DUP3 ADD SWAP1 POP SWAP3 SWAP2 POP POP JUMP JUMPDEST PUSH0 JUMPDEST DUP4 DUP2 LT ISZERO PUSH2 0x1922 JUMPI DUP1 DUP3 ADD MLOAD DUP2 DUP5 ADD MSTORE PUSH1 0x20 DUP2 ADD SWAP1 POP PUSH2 0x1907 JUMP JUMPDEST PUSH0 DUP5 DUP5 ADD MSTORE POP POP POP POP JUMP JUMPDEST PUSH0 PUSH2 0x1937 DUP3 PUSH2 0x18EB JUMP JUMPDEST PUSH2 0x1941 DUP2 DUP6 PUSH2 0x18F5 JUMP JUMPDEST SWAP4 POP PUSH2 0x1951 DUP2 DUP6 PUSH1 0x20 DUP7 ADD PUSH2 0x1905 JUMP JUMPDEST PUSH2 0x195A DUP2 PUSH2 0x15E1 JUMP JUMPDEST DUP5 ADD SWAP2 POP POP SWAP3 SWAP2 POP POP JUMP JUMPDEST PUSH0 PUSH1 0x60 DUP3 ADD SWAP1 POP PUSH2 0x1978 PUSH0 DUP4 ADD DUP6 PUSH2 0x17FC JUMP JUMPDEST DUP2 DUP2 SUB PUSH1 0x40 DUP4 ADD MSTORE PUSH2 0x198A DUP2 DUP5 PUSH2 0x192D JUMP JUMPDEST SWAP1 POP SWAP4 SWAP3 POP POP POP JUMP JUMPDEST PUSH0 DUP1 PUSH0 PUSH1 0x60 DUP5 DUP7 SUB SLT ISZERO PUSH2 0x19AA JUMPI PUSH2 0x19A9 PUSH2 0x15D1 JUMP JUMPDEST JUMPDEST PUSH0 PUSH2 0x19B7 DUP7 DUP3 DUP8 ADD PUSH2 0x17AE JUMP JUMPDEST SWAP4 POP POP PUSH1 0x20 PUSH2 0x19C8 DUP7 DUP3 DUP8 ADD PUSH2 0x17AE JUMP JUMPDEST SWAP3 POP POP PUSH1 0x40 PUSH2 0x19D9 DUP7 DUP3 DUP8 ADD PUSH2 0x17AE JUMP JUMPDEST SWAP2 POP POP SWAP3 POP SWAP3 POP SWAP3 JUMP JUMPDEST PUSH0 PUSH8 0xFFFFFFFFFFFFFFFF DUP3 GT ISZERO PUSH2 0x19FD JUMPI PUSH2 0x19FC PUSH2 0x15F1 JUMP JUMPDEST JUMPDEST PUSH2 0x1A06 DUP3 PUSH2 0x15E1 JUMP JUMPDEST SWAP1 POP PUSH1 0x20 DUP2 ADD SWAP1 POP SWAP2 SWAP1 POP JUMP JUMPDEST PUSH0 PUSH2 0x1A25 PUSH2 0x1A20 DUP5 PUSH2 0x19E3 JUMP JUMPDEST PUSH2 0x164F JUMP JUMPDEST SWAP1 POP DUP3 DUP2 MSTORE PUSH1 0x20 DUP2 ADD DUP5 DUP5 DUP5 ADD GT ISZERO PUSH2 0x1A41 JUMPI PUSH2 0x1A40 PUSH2 0x15DD JUMP JUMPDEST JUMPDEST PUSH2 0x1A4C DUP5 DUP3 DUP6 PUSH2 0x1699 JUMP JUMPDEST POP SWAP4 SWAP3 POP POP POP JUMP JUMPDEST PUSH0 DUP3 PUSH1 0x1F DUP4 ADD SLT PUSH2 0x1A68 JUMPI PUSH2 0x1A67 PUSH2 0x15D9 JUMP JUMPDEST JUMPDEST DUP2 CALLDATALOAD PUSH2 0x1A78 DUP5 DUP3 PUSH1 0x20 DUP7 ADD PUSH2 0x1A13 JUMP JUMPDEST SWAP2 POP POP SWAP3 SWAP2 POP POP JUMP JUMPDEST PUSH0 DUP1 PUSH0 PUSH1 0x60 DUP5 DUP7 SUB SLT ISZERO PUSH2 0x1A98 JUMPI PUSH2 0x1A97 PUSH2 0x15D1 JUMP JUMPDEST JUMPDEST PUSH0 DUP5 ADD CALLDATALOAD PUSH8 0xFFFFFFFFFFFFFFFF DUP2 GT ISZERO PUSH2 0x1AB5 JUMPI PUSH2 0x1AB4 PUSH2 0x15D5 JUMP JUMPDEST JUMPDEST PUSH2 0x1AC1 DUP7 DUP3 DUP8 ADD PUSH2 0x1A54 JUMP JUMPDEST SWAP4 POP POP PUSH1 0x20 PUSH2 0x1AD2 DUP7 DUP3 DUP8 ADD PUSH2 0x17AE JUMP JUMPDEST SWAP3 POP POP PUSH1 0x40 PUSH2 0x1AE3 DUP7 DUP3 DUP8 ADD PUSH2 0x17AE JUMP JUMPDEST SWAP2 POP POP SWAP3 POP SWAP3 POP SWAP3 JUMP JUMPDEST PUSH0 PUSH1 0x40 DUP3 ADD SWAP1 POP PUSH2 0x1B00 PUSH0 DUP4 ADD DUP5 PUSH2 0x17FC JUMP JUMPDEST SWAP3 SWAP2 POP POP JUMP JUMPDEST PUSH0 DUP1 PUSH0 PUSH1 0x60 DUP5 DUP7 SUB SLT ISZERO PUSH2 0x1B1D JUMPI PUSH2 0x1B1C PUSH2 0x15D1 JUMP JUMPDEST JUMPDEST PUSH0 PUSH2 0x1B2A DUP7 DUP3 DUP8 ADD PUSH2 0x17AE JUMP JUMPDEST SWAP4 POP POP PUSH1 0x20 PUSH2 0x1B3B DUP7 DUP3 DUP8 ADD PUSH2 0x17AE JUMP JUMPDEST SWAP3 POP POP PUSH1 0x40 DUP5 ADD CALLDATALOAD PUSH8 0xFFFFFFFFFFFFFFFF DUP2 GT ISZERO PUSH2 0x1B5C JUMPI PUSH2 0x1B5B PUSH2 0x15D5 JUMP JUMPDEST JUMPDEST PUSH2 0x1B68 DUP7 DUP3 DUP8 ADD PUSH2 0x1A54 JUMP JUMPDEST SWAP2 POP POP SWAP3 POP SWAP3 POP SWAP3 JUMP JUMPDEST PUSH2 0x1B7B DUP2 PUSH2 0x178F JUMP JUMPDEST DUP3 MSTORE POP POP JUMP JUMPDEST PUSH0 PUSH1 0x20 DUP3 ADD SWAP1 POP PUSH2 0x1B94 PUSH0 DUP4 ADD DUP5 PUSH2 0x1B72 JUMP JUMPDEST SWAP3 SWAP2 POP POP JUMP JUMPDEST PUSH32 0x4E487B7100000000000000000000000000000000000000000000000000000000 PUSH0 MSTORE PUSH1 0x32 PUSH1 0x4 MSTORE PUSH1 0x24 PUSH0 REVERT JUMPDEST PUSH32 0x4E487B7100000000000000000000000000000000000000000000000000000000 PUSH0 MSTORE PUSH1 0x22 PUSH1 0x4 MSTORE PUSH1 0x24 PUSH0 REVERT JUMPDEST PUSH0 PUSH1 0x2 DUP3 DIV SWAP1 POP PUSH1 0x1 DUP3 AND DUP1 PUSH2 0x1C0B JUMPI PUSH1 0x7F DUP3 AND SWAP2 POP JUMPDEST PUSH1 0x20 DUP3 LT DUP2 SUB PUSH2 0x1C1E JUMPI PUSH2 0x1C1D PUSH2 0x1BC7 JUMP JUMPDEST JUMPDEST POP SWAP2 SWAP1 POP JUMP JUMPDEST PUSH0 DUP2 MLOAD SWAP1 POP SWAP2 SWAP1 POP JUMP JUMPDEST PUSH0 DUP2 SWAP1 POP SWAP3 SWAP2 POP POP JUMP JUMPDEST PUSH0 PUSH2 0x1C42 DUP3 PUSH2 0x1C24 JUMP JUMPDEST PUSH2 0x1C4C DUP2 DUP6 PUSH2 0x1C2E JUMP JUMPDEST SWAP4 POP PUSH2 0x1C5C DUP2 DUP6 PUSH1 0x20 DUP7 ADD PUSH2 0x1905 JUMP JUMPDEST DUP1 DUP5 ADD SWAP2 POP POP SWAP3 SWAP2 POP POP JUMP JUMPDEST PUSH0 PUSH2 0x1C73 DUP3 DUP5 PUSH2 0x1C38 JUMP JUMPDEST SWAP2 POP DUP2 SWAP1 POP SWAP3 SWAP2 POP POP JUMP JUMPDEST PUSH0 DUP2 SWAP1 POP DUP2 PUSH0 MSTORE PUSH1 0x20 PUSH0 KECCAK256 SWAP1 POP SWAP2 SWAP1 POP JUMP JUMPDEST PUSH0 PUSH1 0x20 PUSH1 0x1F DUP4 ADD DIV SWAP1 POP SWAP2 SWAP1 POP JUMP JUMPDEST PUSH0 DUP3 DUP3 SHL SWAP1 POP SWAP3 SWAP2 POP POP JUMP JUMPDEST PUSH0 PUSH1 0x8 DUP4 MUL PUSH2 0x1CDA PUSH32 0xFFFFFFFFFFFFFFFFFFFFFFFFFFFFFFFFFFFFFFFFFFFFFFFFFFFFFFFFFFFFFFFF DUP3 PUSH2 0x1C9F JUMP JUMPDEST PUSH2 0x1CE4 DUP7 DUP4 PUSH2 0x1C9F JUMP JUMPDEST SWAP6 POP DUP1 NOT DUP5 AND SWAP4 POP DUP1 DUP7 AND DUP5 OR SWAP3 POP POP POP SWAP4 SWAP3 POP POP POP JUMP JUMPDEST PUSH0 DUP2 SWAP1 POP SWAP2 SWAP1 POP JUMP JUMPDEST PUSH0 PUSH2 0x1D1F PUSH2 0x1D1A PUSH2 0x1D15 DUP5 PUSH2 0x178F JUMP JUMPDEST PUSH2 0x1CFC JUMP JUMPDEST PUSH2 0x178F JUMP JUMPDEST SWAP1 POP SWAP2 SWAP1 POP JUMP JUMPDEST PUSH0 DUP2 SWAP1 POP SWAP2 SWAP1 POP JUMP JUMPDEST PUSH2 0x1D38 DUP4 PUSH2 0x1D05 JUMP JUMPDEST PUSH2 0x1D4C PUSH2 0x1D44 DUP3 PUSH2 0x1D26 JUMP JUMPDEST DUP5 DUP5 SLOAD PUSH2 0x1CAB JUMP JUMPDEST DUP3 SSTORE POP POP POP POP JUMP JUMPDEST PUSH0 SWAP1 JUMP JUMPDEST PUSH2 0x1D60 PUSH2 0x1D54 JUMP JUMPDEST PUSH2 0x1D6B DUP2 DUP5 DUP5 PUSH2 0x1D2F JUMP JUMPDEST POP POP POP JUMP JUMPDEST JUMPDEST DUP2 DUP2 LT ISZERO PUSH2 0x1D8E JUMPI PUSH2 0x1D83 PUSH0 DUP3 PUSH2 0x1D58 JUMP JUMPDEST PUSH1 0x1 DUP2 ADD SWAP1 POP PUSH2 0x1D71 JUMP JUMPDEST POP POP JUMP JUMPDEST PUSH1 0x1F DUP3 GT ISZERO PUSH2 0x1DD3 JUMPI PUSH2 0x1DA4 DUP2 PUSH2 0x1C7E JUMP JUMPDEST PUSH2 0x1DAD DUP5 PUSH2 0x1C90 JUMP JUMPDEST DUP2 ADD PUSH1 0x20 DUP6 LT ISZERO PUSH2 0x1DBC JUMPI DUP2 SWAP1 POP JUMPDEST PUSH2 0x1DD0 PUSH2 0x1DC8 DUP6 PUSH2 0x1C90 JUMP JUMPDEST DUP4 ADD DUP3 PUSH2 0x1D70 JUMP JUMPDEST POP POP JUMPDEST POP POP POP JUMP JUMPDEST PUSH0 DUP3 DUP3 SHR SWAP1 POP SWAP3 SWAP2 POP POP JUMP JUMPDEST PUSH0 PUSH2 0x1DF3 PUSH0 NOT DUP5 PUSH1 0x8 MUL PUSH2 0x1DD8 JUMP JUMPDEST NOT DUP1 DUP4 AND SWAP2 POP POP SWAP3 SWAP2 POP POP JUMP JUMPDEST PUSH0 PUSH2 0x1E0B DUP4 DUP4 PUSH2 0x1DE4 JUMP JUMPDEST SWAP2 POP DUP3 PUSH1 0x2 MUL DUP3 OR SWAP1 POP SWAP3 SWAP2 POP POP JUMP JUMPDEST PUSH2 0x1E24 DUP3 PUSH2 0x18EB JUMP JUMPDEST PUSH8 0xFFFFFFFFFFFFFFFF DUP2 GT ISZERO PUSH2 0x1E3D JUMPI PUSH2 0x1E3C PUSH2 0x15F1 JUMP JUMPDEST JUMPDEST PUSH2 0x1E47 DUP3 SLOAD PUSH2 0x1BF4 JUMP JUMPDEST PUSH2 0x1E52 DUP3 DUP3 DUP6 PUSH2 0x1D92 JUMP JUMPDEST PUSH0 PUSH1 0x20 SWAP1 POP PUSH1 0x1F DUP4 GT PUSH1 0x1 DUP2 EQ PUSH2 0x1E83 JUMPI PUSH0 DUP5 ISZERO PUSH2 0x1E71 JUMPI DUP3 DUP8 ADD MLOAD SWAP1 POP JUMPDEST PUSH2 0x1E7B DUP6 DUP3 PUSH2 0x1E00 JUMP JUMPDEST DUP7 SSTORE POP PUSH2 0x1EE2 JUMP JUMPDEST PUSH1 0x1F NOT DUP5 AND PUSH2 0x1E91 DUP7 PUSH2 0x1C7E JUMP JUMPDEST PUSH0 JUMPDEST DUP3 DUP2 LT ISZERO PUSH2 0x1EB8 JUMPI DUP5 DUP10 ADD MLOAD DUP3 SSTORE PUSH1 0x1 DUP3 ADD SWAP2 POP PUSH1 0x20 DUP6 ADD SWAP5 POP PUSH1 0x20 DUP2 ADD SWAP1 POP PUSH2 0x1E93 JUMP JUMPDEST DUP7 DUP4 LT ISZERO PUSH2 0x1ED5 JUMPI DUP5 DUP10 ADD MLOAD PUSH2 0x1ED1 PUSH1 0x1F DUP10 AND DUP3 PUSH2 0x1DE4 JUMP JUMPDEST DUP4 SSTORE POP JUMPDEST PUSH1 0x1 PUSH1 0x2 DUP9 MUL ADD DUP9 SSTORE POP POP POP JUMPDEST POP POP POP POP POP POP JUMP JUMPDEST PUSH32 0x4E487B7100000000000000000000000000000000000000000000000000000000 PUSH0 MSTORE PUSH1 0x11 PUSH1 0x4 MSTORE PUSH1 0x24 PUSH0 REVERT JUMPDEST PUSH0 PUSH2 0x1F21 DUP3 PUSH2 0x178F JUMP JUMPDEST SWAP2 POP PUSH2 0x1F2C DUP4 PUSH2 0x178F JUMP JUMPDEST SWAP3 POP DUP3 DUP3 SUB SWAP1 POP DUP2 DUP2 GT ISZERO PUSH2 0x1F44 JUMPI PUSH2 0x1F43 PUSH2 0x1EEA JUMP JUMPDEST JUMPDEST SWAP3 SWAP2 POP POP JUMP JUMPDEST PUSH32 0x41646420706F696E7473206661696C6564000000000000000000000000000000 PUSH0 DUP3 ADD MSTORE POP JUMP JUMPDEST PUSH0 PUSH2 0x1F7E PUSH1 0x11 DUP4 PUSH2 0x18F5 JUMP JUMPDEST SWAP2 POP PUSH2 0x1F89 DUP3 PUSH2 0x1F4A JUMP JUMPDEST PUSH1 0x20 DUP3 ADD SWAP1 POP SWAP2 SWAP1 POP JUMP JUMPDEST PUSH0 PUSH1 0x20 DUP3 ADD SWAP1 POP DUP2 DUP2 SUB PUSH0 DUP4 ADD MSTORE PUSH2 0x1FAB DUP2 PUSH2 0x1F72 JUMP JUMPDEST SWAP1 POP SWAP2 SWAP1 POP JUMP JUMPDEST PUSH0 DUP2 SWAP1 POP SWAP2 SWAP1 POP JUMP JUMPDEST PUSH2 0x1FC4 DUP2 PUSH2 0x1FB2 JUMP JUMPDEST DUP2 EQ PUSH2 0x1FCE JUMPI PUSH0 DUP1 REVERT JUMPDEST POP JUMP JUMPDEST PUSH0 DUP2 MLOAD SWAP1 POP PUSH2 0x1FDF DUP2 PUSH2 0x1FBB JUMP JUMPDEST SWAP3 SWAP2 POP POP JUMP JUMPDEST PUSH0 PUSH1 0x20 DUP3 DUP5 SUB SLT ISZERO PUSH2 0x1FFA JUMPI PUSH2 0x1FF9 PUSH2 0x15D1 JUMP JUMPDEST JUMPDEST PUSH0 PUSH2 0x2007 DUP5 DUP3 DUP6 ADD PUSH2 0x1FD1 JUMP JUMPDEST SWAP2 POP POP SWAP3 SWAP2 POP POP JUMP JUMPDEST PUSH32 0x4E487B7100000000000000000000000000000000000000000000000000000000 PUSH0 MSTORE PUSH1 0x12 PUSH1 0x4 MSTORE PUSH1 0x24 PUSH0 REVERT JUMPDEST PUSH0 PUSH2 0x2047 DUP3 PUSH2 0x178F JUMP JUMPDEST SWAP2 POP PUSH2 0x2052 DUP4 PUSH2 0x178F JUMP JUMPDEST SWAP3 POP DUP3 PUSH2 0x2062 JUMPI PUSH2 0x2061 PUSH2 0x2010 JUMP JUMPDEST JUMPDEST DUP3 DUP3 MOD SWAP1 POP SWAP3 SWAP2 POP POP JUMP JUMPDEST PUSH0 PUSH2 0x2077 DUP3 PUSH2 0x178F JUMP JUMPDEST SWAP2 POP PUSH2 0x2082 DUP4 PUSH2 0x178F JUMP JUMPDEST SWAP3 POP DUP3 DUP3 ADD SWAP1 POP DUP1 DUP3 GT ISZERO PUSH2 0x209A JUMPI PUSH2 0x2099 PUSH2 0x1EEA JUMP JUMPDEST JUMPDEST SWAP3 SWAP2 POP POP JUMP JUMPDEST PUSH32 0x506F696E7420636F756E74206D69736D617463682E0000000000000000000000 PUSH0 DUP3 ADD MSTORE POP JUMP JUMPDEST PUSH0 PUSH2 0x20D4 PUSH1 0x15 DUP4 PUSH2 0x18F5 JUMP JUMPDEST SWAP2 POP PUSH2 0x20DF DUP3 PUSH2 0x20A0 JUMP JUMPDEST PUSH1 0x20 DUP3 ADD SWAP1 POP SWAP2 SWAP1 POP JUMP JUMPDEST PUSH0 PUSH1 0x20 DUP3 ADD SWAP1 POP DUP2 DUP2 SUB PUSH0 DUP4 ADD MSTORE PUSH2 0x2101 DUP2 PUSH2 0x20C8 JUMP JUMPDEST SWAP1 POP SWAP2 SWAP1 POP JUMP JUMPDEST PUSH0 PUSH2 0x2112 DUP3 PUSH2 0x178F JUMP JUMPDEST SWAP2 POP PUSH2 0x211D DUP4 PUSH2 0x178F JUMP JUMPDEST SWAP3 POP DUP3 DUP3 MUL PUSH2 0x212B DUP2 PUSH2 0x178F JUMP JUMPDEST SWAP2 POP DUP3 DUP3 DIV DUP5 EQ DUP4 ISZERO OR PUSH2 0x2142 JUMPI PUSH2 0x2141 PUSH2 0x1EEA JUMP JUMPDEST JUMPDEST POP SWAP3 SWAP2 POP POP JUMP JUMPDEST PUSH32 0x50616972696E67206F7065726174696F6E206661696C65642E00000000000000 PUSH0 DUP3 ADD MSTORE POP JUMP JUMPDEST PUSH0 PUSH2 0x217D PUSH1 0x19 DUP4 PUSH2 0x18F5 JUMP JUMPDEST SWAP2 POP PUSH2 0x2188 DUP3 PUSH2 0x2149 JUMP JUMPDEST PUSH1 0x20 DUP3 ADD SWAP1 POP SWAP2 SWAP1 POP JUMP JUMPDEST PUSH0 PUSH1 0x20 DUP3 ADD SWAP1 POP DUP2 DUP2 SUB PUSH0 DUP4 ADD MSTORE PUSH2 0x21AA DUP2 PUSH2 0x2171 JUMP JUMPDEST SWAP1 POP SWAP2 SWAP1 POP JUMP JUMPDEST PUSH0 PUSH2 0x21BB DUP3 PUSH2 0x178F JUMP JUMPDEST SWAP2 POP PUSH2 0x21C6 DUP4 PUSH2 0x178F JUMP JUMPDEST SWAP3 POP DUP3 PUSH2 0x21D6 JUMPI PUSH2 0x21D5 PUSH2 0x2010 JUMP JUMPDEST JUMPDEST DUP3 DUP3 DIV SWAP1 POP SWAP3 SWAP2 POP POP JUMP JUMPDEST PUSH0 DUP2 PUSH1 0x1 SHR SWAP1 POP SWAP2 SWAP1 POP JUMP JUMPDEST PUSH0 DUP1 DUP3 SWAP2 POP DUP4 SWAP1 POP JUMPDEST PUSH1 0x1 DUP6 GT ISZERO PUSH2 0x2236 JUMPI DUP1 DUP7 DIV DUP2 GT ISZERO PUSH2 0x2212 JUMPI PUSH2 0x2211 PUSH2 0x1EEA JUMP JUMPDEST JUMPDEST PUSH1 0x1 DUP6 AND ISZERO PUSH2 0x2221 JUMPI DUP1 DUP3 MUL SWAP2 POP JUMPDEST DUP1 DUP2 MUL SWAP1 POP PUSH2 0x222F DUP6 PUSH2 0x21E1 JUMP JUMPDEST SWAP5 POP PUSH2 0x21F6 JUMP JUMPDEST SWAP5 POP SWAP5 SWAP3 POP POP POP JUMP JUMPDEST PUSH0 DUP3 PUSH2 0x224E JUMPI PUSH1 0x1 SWAP1 POP PUSH2 0x2309 JUMP JUMPDEST DUP2 PUSH2 0x225B JUMPI PUSH0 SWAP1 POP PUSH2 0x2309 JUMP JUMPDEST DUP2 PUSH1 0x1 DUP2 EQ PUSH2 0x2271 JUMPI PUSH1 0x2 DUP2 EQ PUSH2 0x227B JUMPI PUSH2 0x22AA JUMP JUMPDEST PUSH1 0x1 SWAP2 POP POP PUSH2 0x2309 JUMP JUMPDEST PUSH1 0xFF DUP5 GT ISZERO PUSH2 0x228D JUMPI PUSH2 0x228C PUSH2 0x1EEA JUMP JUMPDEST JUMPDEST DUP4 PUSH1 0x2 EXP SWAP2 POP DUP5 DUP3 GT ISZERO PUSH2 0x22A4 JUMPI PUSH2 0x22A3 PUSH2 0x1EEA JUMP JUMPDEST JUMPDEST POP PUSH2 0x2309 JUMP JUMPDEST POP PUSH1 0x20 DUP4 LT PUSH2 0x133 DUP4 LT AND PUSH1 0x4E DUP5 LT PUSH1 0xB DUP5 LT AND OR ISZERO PUSH2 0x22DF JUMPI DUP3 DUP3 EXP SWAP1 POP DUP4 DUP2 GT ISZERO PUSH2 0x22DA JUMPI PUSH2 0x22D9 PUSH2 0x1EEA JUMP JUMPDEST JUMPDEST PUSH2 0x2309 JUMP JUMPDEST PUSH2 0x22EC DUP5 DUP5 DUP5 PUSH1 0x1 PUSH2 0x21ED JUMP JUMPDEST SWAP3 POP SWAP1 POP DUP2 DUP5 DIV DUP2 GT ISZERO PUSH2 0x2303 JUMPI PUSH2 0x2302 PUSH2 0x1EEA JUMP JUMPDEST JUMPDEST DUP2 DUP2 MUL SWAP1 POP JUMPDEST SWAP4 SWAP3 POP POP POP JUMP JUMPDEST PUSH0 PUSH2 0x231A DUP3 PUSH2 0x178F JUMP JUMPDEST SWAP2 POP PUSH2 0x2325 DUP4 PUSH2 0x178F JUMP JUMPDEST SWAP3 POP PUSH2 0x2352 PUSH32 0xFFFFFFFFFFFFFFFFFFFFFFFFFFFFFFFFFFFFFFFFFFFFFFFFFFFFFFFFFFFFFFFF DUP5 DUP5 PUSH2 0x223F JUMP JUMPDEST SWAP1 POP SWAP3 SWAP2 POP POP JUMP JUMPDEST PUSH32 0x4661696C656420746F2063616C63756C617465206C6567656E6472652E000000 PUSH0 DUP3 ADD MSTORE POP JUMP JUMPDEST PUSH0 PUSH2 0x238E PUSH1 0x1D DUP4 PUSH2 0x18F5 JUMP JUMPDEST SWAP2 POP PUSH2 0x2399 DUP3 PUSH2 0x235A JUMP JUMPDEST PUSH1 0x20 DUP3 ADD SWAP1 POP SWAP2 SWAP1 POP JUMP JUMPDEST PUSH0 PUSH1 0x20 DUP3 ADD SWAP1 POP DUP2 DUP2 SUB PUSH0 DUP4 ADD MSTORE PUSH2 0x23BB DUP2 PUSH2 0x2382 JUMP JUMPDEST SWAP1 POP SWAP2 SWAP1 POP JUMP INVALID LOG2 PUSH5 0x6970667358 0x22 SLT KECCAK256 MULMOD SELFDESTRUCT LOG0 0xE7 0x5C 0xE7 SWAP1 0xD7 PUSH30 0x7230F5D7684637E70029D7716BB92C74648D5E67F8B0DD64736F6C634300 ADDMOD AND STOP CALLER "
		},
		"gasEstimates": {
			"creation": {
				"codeDepositCost": "1841600",
				"executionCost": "infinite",
				"totalCost": "infinite"
			},
			"external": {
				"getMessage(uint8)": "infinite",
				"getSig(uint256)": "infinite",
				"pkList(bytes)": "infinite",
				"regist(string,uint256,uint256)": "infinite",
				"requestSig(uint256,uint256,string)": "infinite",
				"signList(uint256)": "infinite",
				"uploadSig(uint256,uint256,uint256)": "infinite"
			}
		},
		"methodIdentifiers": {
			"getMessage(uint8)": "4ea43115",
			"getSig(uint256)": "c7058171",
			"pkList(bytes)": "23b819f5",
			"regist(string,uint256,uint256)": "bc24678c",
			"requestSig(uint256,uint256,string)": "cbc431c8",
			"signList(uint256)": "25b3e077",
			"uploadSig(uint256,uint256,uint256)": "ac98cfe5"
		}
	},
	"abi": [
		{
			"inputs": [
				{
					"internalType": "uint8",
					"name": "index",
					"type": "uint8"
				}
			],
			"name": "getMessage",
			"outputs": [
				{
					"components": [
						{
							"internalType": "uint256",
							"name": "x",
							"type": "uint256"
						},
						{
							"internalType": "uint256",
							"name": "y",
							"type": "uint256"
						}
					],
					"internalType": "struct BLS.E1Point",
					"name": "m",
					"type": "tuple"
				},
				{
					"internalType": "string",
					"name": "idInfo",
					"type": "string"
				}
			],
			"stateMutability": "view",
			"type": "function"
		},
		{
			"inputs": [
				{
					"internalType": "uint256",
					"name": "index",
					"type": "uint256"
				}
			],
			"name": "getSig",
			"outputs": [
				{
					"components": [
						{
							"internalType": "uint256",
							"name": "x",
							"type": "uint256"
						},
						{
							"internalType": "uint256",
							"name": "y",
							"type": "uint256"
						}
					],
					"internalType": "struct BLS.E1Point",
					"name": "",
					"type": "tuple"
				}
			],
			"stateMutability": "view",
			"type": "function"
		},
		{
			"inputs": [
				{
					"internalType": "bytes",
					"name": "",
					"type": "bytes"
				}
			],
			"name": "pkList",
			"outputs": [
				{
					"internalType": "bool",
					"name": "",
					"type": "bool"
				}
			],
			"stateMutability": "view",
			"type": "function"
		},
		{
			"inputs": [
				{
					"internalType": "string",
					"name": "pki",
					"type": "string"
				},
				{
					"internalType": "uint256",
					"name": "x",
					"type": "uint256"
				},
				{
					"internalType": "uint256",
					"name": "y",
					"type": "uint256"
				}
			],
			"name": "regist",
			"outputs": [
				{
					"internalType": "bool",
					"name": "",
					"type": "bool"
				}
			],
			"stateMutability": "nonpayable",
			"type": "function"
		},
		{
			"inputs": [
				{
					"internalType": "uint256",
					"name": "x",
					"type": "uint256"
				},
				{
					"internalType": "uint256",
					"name": "y",
					"type": "uint256"
				},
				{
					"internalType": "string",
					"name": "idInfo",
					"type": "string"
				}
			],
			"name": "requestSig",
			"outputs": [
				{
					"internalType": "uint256",
					"name": "",
					"type": "uint256"
				}
			],
			"stateMutability": "nonpayable",
			"type": "function"
		},
		{
			"inputs": [
				{
					"internalType": "uint256",
					"name": "",
					"type": "uint256"
				}
			],
			"name": "signList",
			"outputs": [
				{
					"components": [
						{
							"internalType": "uint256",
							"name": "x",
							"type": "uint256"
						},
						{
							"internalType": "uint256",
							"name": "y",
							"type": "uint256"
						}
					],
					"internalType": "struct BLS.E1Point",
					"name": "sig_CA",
					"type": "tuple"
				},
				{
					"components": [
						{
							"internalType": "uint256",
							"name": "x",
							"type": "uint256"
						},
						{
							"internalType": "uint256",
							"name": "y",
							"type": "uint256"
						}
					],
					"internalType": "struct BLS.E1Point",
					"name": "sig_O",
					"type": "tuple"
				},
				{
					"components": [
						{
							"internalType": "uint256",
							"name": "x",
							"type": "uint256"
						},
						{
							"internalType": "uint256",
							"name": "y",
							"type": "uint256"
						}
					],
					"internalType": "struct BLS.E1Point",
					"name": "sig_C",
					"type": "tuple"
				},
				{
					"internalType": "bool",
					"name": "CA",
					"type": "bool"
				},
				{
					"internalType": "bool",
					"name": "O",
					"type": "bool"
				},
				{
					"internalType": "bool",
					"name": "C",
					"type": "bool"
				}
			],
			"stateMutability": "view",
			"type": "function"
		},
		{
			"inputs": [
				{
					"internalType": "uint256",
					"name": "index",
					"type": "uint256"
				},
				{
					"internalType": "uint256",
					"name": "x",
					"type": "uint256"
				},
				{
					"internalType": "uint256",
					"name": "y",
					"type": "uint256"
				}
			],
			"name": "uploadSig",
			"outputs": [],
			"stateMutability": "nonpayable",
			"type": "function"
		}
	]
}