{
	"data": {
		"bytecode": {
			"linkReferences": {},
			"object": "6080604052735c6b0f7bf3e7ce046039bd8fabdfd3f9f502167860025f6101000a81548173ffffffffffffffffffffffffffffffffffffffff021916908373ffffffffffffffffffffffffffffffffffffffff160217905550348015610063575f80fd5b506110f3806100715f395ff3fe608060405234801561000f575f80fd5b506004361061004a575f3560e01c8063775a8f5e1461004e578063cfc5a9691461007e578063d94a9d1b146100ae578063fb7344d0146100ca575b5f80fd5b6100686004803603810190610063919061074c565b6100fa565b6040516100759190610801565b60405180910390f35b61009860048036038101906100939190610854565b610157565b6040516100a5919061088e565b60405180910390f35b6100c860048036038101906100c391906108a7565b6101e6565b005b6100e460048036038101906100df919061074c565b6105ea565b6040516100f19190610a3b565b60405180910390f35b6060602067ffffffffffffffff81111561011757610116610a5b565b5b6040519080825280601f01601f1916602001820160405280156101495781602001600182028036833780820191505090505b509050816020820152919050565b5f805f5b602060ff168110156101dc576001816101749190610ab5565b602060ff166101839190610ae8565b600861018f9190610b1b565b600261019b9190610c8b565b8482602081106101ae576101ad610cd5565b5b1a60f81b60f81c60ff166101c29190610b1b565b826101cd9190610ab5565b9150808060010191505061015b565b5080915050919050565b5f60405180606001604052808581526020018481526020018381525090505f60025f9054906101000a900473ffffffffffffffffffffffffffffffffffffffff1673ffffffffffffffffffffffffffffffffffffffff16633afc72828a6040518263ffffffff1660e01b815260040161025f919061088e565b5f60405180830381865afa158015610279573d5f803e3d5ffd5b505050506040513d5f823e3d601f19601f820116820180604052508101906102a19190610f8a565b60400151148061034f57504260025f9054906101000a900473ffffffffffffffffffffffffffffffffffffffff1673ffffffffffffffffffffffffffffffffffffffff16633afc72828a6040518263ffffffff1660e01b8152600401610307919061088e565b5f60405180830381865afa158015610321573d5f803e3d5ffd5b505050506040513d5f823e3d601f19601f820116820180604052508101906103499190610f8a565b60400151105b80610385575060015f8981526020019081526020015f205f015f8681526020019081526020015f205f9054906101000a900460ff165b1561039057506105e1565b5f6103c3826040015183602001518a896103aa9190610ab5565b6103b49190610ab5565b6103be9190610ab5565b6100fa565b90505f6002826040516103d6919061100b565b602060405180830381855afa1580156103f1573d5f803e3d5ffd5b5050506040513d601f19601f820116820180604052508101906104149190611035565b90505f61042082610157565b90505f61046e7f86efe464cb0c44b38865700220d035da34110dea1a8dd075de1d5acaf725dd42837f30644e72e131a029b85045b68181585d97816a916871ca8d3c208c16d87cfd47610673565b90507f30644e72e131a029b85045b68181585d97816a916871ca8d3c208c16d87cfd478b8261049d9190610b1b565b6104a7919061108d565b6104f27f86efe464cb0c44b38865700220d035da34110dea1a8dd075de1d5acaf725dd428c7f30644e72e131a029b85045b68181585d97816a916871ca8d3c208c16d87cfd47610673565b036105db575f6040518060600160405280875f0151815260200187602001518152602001876040015181525090505f808e81526020019081526020015f2081908060018154018082558091505060019003905f5260205f2090600302015f909190919091505f820151815f0155602082015181600101556040820151816002015550506001805f8f81526020019081526020015f205f015f8c81526020019081526020015f205f6101000a81548160ff0219169083151502179055506001805f8f81526020019081526020015f206001015f6101000a81548160ff021916908315150217905550505b50505050505b50505050505050565b60605f808381526020019081526020015f20805480602002602001604051908101604052809291908181526020015f905b82821015610668578382905f5260205f2090600302016040518060600160405290815f8201548152602001600182015481526020016002820154815250508152602001906001019061061b565b505050509050919050565b5f806040518060c001604052806020815260200160208152602001602081526020018681526020018581526020018481525090506106af6106e6565b60208160c0845f60055f19f16106c3575f80fd5b805f600181106106d6576106d5610cd5565b5b6020020151925050509392505050565b6040518060200160405280600190602082028036833780820191505090505090565b5f604051905090565b5f80fd5b5f80fd5b5f819050919050565b61072b81610719565b8114610735575f80fd5b50565b5f8135905061074681610722565b92915050565b5f6020828403121561076157610760610711565b5b5f61076e84828501610738565b91505092915050565b5f81519050919050565b5f82825260208201905092915050565b5f5b838110156107ae578082015181840152602081019050610793565b5f8484015250505050565b5f601f19601f8301169050919050565b5f6107d382610777565b6107dd8185610781565b93506107ed818560208601610791565b6107f6816107b9565b840191505092915050565b5f6020820190508181035f83015261081981846107c9565b905092915050565b5f819050919050565b61083381610821565b811461083d575f80fd5b50565b5f8135905061084e8161082a565b92915050565b5f6020828403121561086957610868610711565b5b5f61087684828501610840565b91505092915050565b61088881610719565b82525050565b5f6020820190506108a15f83018461087f565b92915050565b5f805f805f805f60e0888a0312156108c2576108c1610711565b5b5f6108cf8a828b01610738565b97505060206108e08a828b01610738565b96505060406108f18a828b01610738565b95505060606109028a828b01610738565b94505060806109138a828b01610738565b93505060a06109248a828b01610738565b92505060c06109358a828b01610738565b91505092959891949750929550565b5f81519050919050565b5f82825260208201905092915050565b5f819050602082019050919050565b61097681610719565b82525050565b606082015f8201516109905f85018261096d565b5060208201516109a3602085018261096d565b5060408201516109b6604085018261096d565b50505050565b5f6109c7838361097c565b60608301905092915050565b5f602082019050919050565b5f6109e982610944565b6109f3818561094e565b93506109fe8361095e565b805f5b83811015610a2e578151610a1588826109bc565b9750610a20836109d3565b925050600181019050610a01565b5085935050505092915050565b5f6020820190508181035f830152610a5381846109df565b905092915050565b7f4e487b71000000000000000000000000000000000000000000000000000000005f52604160045260245ffd5b7f4e487b71000000000000000000000000000000000000000000000000000000005f52601160045260245ffd5b5f610abf82610719565b9150610aca83610719565b9250828201905080821115610ae257610ae1610a88565b5b92915050565b5f610af282610719565b9150610afd83610719565b9250828203905081811115610b1557610b14610a88565b5b92915050565b5f610b2582610719565b9150610b3083610719565b9250828202610b3e81610719565b91508282048414831517610b5557610b54610a88565b5b5092915050565b5f8160011c9050919050565b5f808291508390505b6001851115610bb157808604811115610b8d57610b8c610a88565b5b6001851615610b9c5780820291505b8081029050610baa85610b5c565b9450610b71565b94509492505050565b5f82610bc95760019050610c84565b81610bd6575f9050610c84565b8160018114610bec5760028114610bf657610c25565b6001915050610c84565b60ff841115610c0857610c07610a88565b5b8360020a915084821115610c1f57610c1e610a88565b5b50610c84565b5060208310610133831016604e8410600b8410161715610c5a5782820a905083811115610c5557610c54610a88565b5b610c84565b610c678484846001610b68565b92509050818404811115610c7e57610c7d610a88565b5b81810290505b9392505050565b5f610c9582610719565b9150610ca083610719565b9250610ccd7fffffffffffffffffffffffffffffffffffffffffffffffffffffffffffffffff8484610bba565b905092915050565b7f4e487b71000000000000000000000000000000000000000000000000000000005f52603260045260245ffd5b5f80fd5b610d0f826107b9565b810181811067ffffffffffffffff82111715610d2e57610d2d610a5b565b5b80604052505050565b5f610d40610708565b9050610d4c8282610d06565b919050565b5f80fd5b5f80fd5b5f80fd5b5f67ffffffffffffffff821115610d7757610d76610a5b565b5b610d80826107b9565b9050602081019050919050565b5f610d9f610d9a84610d5d565b610d37565b905082815260208101848484011115610dbb57610dba610d59565b5b610dc6848285610791565b509392505050565b5f82601f830112610de257610de1610d55565b5b8151610df2848260208601610d8d565b91505092915050565b5f67ffffffffffffffff821115610e1557610e14610a5b565b5b602082029050602081019050919050565b5f80fd5b5f610e3c610e3784610dfb565b610d37565b90508083825260208201905060208402830185811115610e5f57610e5e610e26565b5b835b81811015610ea657805167ffffffffffffffff811115610e8457610e83610d55565b5b808601610e918982610dce565b85526020850194505050602081019050610e61565b5050509392505050565b5f82601f830112610ec457610ec3610d55565b5b8151610ed4848260208601610e2a565b91505092915050565b5f81519050610eeb81610722565b92915050565b5f60608284031215610f0657610f05610d02565b5b610f106060610d37565b90505f82015167ffffffffffffffff811115610f2f57610f2e610d51565b5b610f3b84828501610dce565b5f83015250602082015167ffffffffffffffff811115610f5e57610f5d610d51565b5b610f6a84828501610eb0565b6020830152506040610f7e84828501610edd565b60408301525092915050565b5f60208284031215610f9f57610f9e610711565b5b5f82015167ffffffffffffffff811115610fbc57610fbb610715565b5b610fc884828501610ef1565b91505092915050565b5f81905092915050565b5f610fe582610777565b610fef8185610fd1565b9350610fff818560208601610791565b80840191505092915050565b5f6110168284610fdb565b915081905092915050565b5f8151905061102f8161082a565b92915050565b5f6020828403121561104a57611049610711565b5b5f61105784828501611021565b91505092915050565b7f4e487b71000000000000000000000000000000000000000000000000000000005f52601260045260245ffd5b5f61109782610719565b91506110a283610719565b9250826110b2576110b1611060565b5b82820690509291505056fea26469706673582212206aecdeb5f53d40a7a0a91e5a94eba0030bfc58ccf1e16c0b50d1115cdfdb76b264736f6c63430008160033",
			"opcodes": "PUSH1 0x80 PUSH1 0x40 MSTORE PUSH20 0x5C6B0F7BF3E7CE046039BD8FABDFD3F9F5021678 PUSH1 0x2 PUSH0 PUSH2 0x100 EXP DUP2 SLOAD DUP2 PUSH20 0xFFFFFFFFFFFFFFFFFFFFFFFFFFFFFFFFFFFFFFFF MUL NOT AND SWAP1 DUP4 PUSH20 0xFFFFFFFFFFFFFFFFFFFFFFFFFFFFFFFFFFFFFFFF AND MUL OR SWAP1 SSTORE POP CALLVALUE DUP1 ISZERO PUSH2 0x63 JUMPI PUSH0 DUP1 REVERT JUMPDEST POP PUSH2 0x10F3 DUP1 PUSH2 0x71 PUSH0 CODECOPY PUSH0 RETURN INVALID PUSH1 0x80 PUSH1 0x40 MSTORE CALLVALUE DUP1 ISZERO PUSH2 0xF JUMPI PUSH0 DUP1 REVERT JUMPDEST POP PUSH1 0x4 CALLDATASIZE LT PUSH2 0x4A JUMPI PUSH0 CALLDATALOAD PUSH1 0xE0 SHR DUP1 PUSH4 0x775A8F5E EQ PUSH2 0x4E JUMPI DUP1 PUSH4 0xCFC5A969 EQ PUSH2 0x7E JUMPI DUP1 PUSH4 0xD94A9D1B EQ PUSH2 0xAE JUMPI DUP1 PUSH4 0xFB7344D0 EQ PUSH2 0xCA JUMPI JUMPDEST PUSH0 DUP1 REVERT JUMPDEST PUSH2 0x68 PUSH1 0x4 DUP1 CALLDATASIZE SUB DUP2 ADD SWAP1 PUSH2 0x63 SWAP2 SWAP1 PUSH2 0x74C JUMP JUMPDEST PUSH2 0xFA JUMP JUMPDEST PUSH1 0x40 MLOAD PUSH2 0x75 SWAP2 SWAP1 PUSH2 0x801 JUMP JUMPDEST PUSH1 0x40 MLOAD DUP1 SWAP2 SUB SWAP1 RETURN JUMPDEST PUSH2 0x98 PUSH1 0x4 DUP1 CALLDATASIZE SUB DUP2 ADD SWAP1 PUSH2 0x93 SWAP2 SWAP1 PUSH2 0x854 JUMP JUMPDEST PUSH2 0x157 JUMP JUMPDEST PUSH1 0x40 MLOAD PUSH2 0xA5 SWAP2 SWAP1 PUSH2 0x88E JUMP JUMPDEST PUSH1 0x40 MLOAD DUP1 SWAP2 SUB SWAP1 RETURN JUMPDEST PUSH2 0xC8 PUSH1 0x4 DUP1 CALLDATASIZE SUB DUP2 ADD SWAP1 PUSH2 0xC3 SWAP2 SWAP1 PUSH2 0x8A7 JUMP JUMPDEST PUSH2 0x1E6 JUMP JUMPDEST STOP JUMPDEST PUSH2 0xE4 PUSH1 0x4 DUP1 CALLDATASIZE SUB DUP2 ADD SWAP1 PUSH2 0xDF SWAP2 SWAP1 PUSH2 0x74C JUMP JUMPDEST PUSH2 0x5EA JUMP JUMPDEST PUSH1 0x40 MLOAD PUSH2 0xF1 SWAP2 SWAP1 PUSH2 0xA3B JUMP JUMPDEST PUSH1 0x40 MLOAD DUP1 SWAP2 SUB SWAP1 RETURN JUMPDEST PUSH1 0x60 PUSH1 0x20 PUSH8 0xFFFFFFFFFFFFFFFF DUP2 GT ISZERO PUSH2 0x117 JUMPI PUSH2 0x116 PUSH2 0xA5B JUMP JUMPDEST JUMPDEST PUSH1 0x40 MLOAD SWAP1 DUP1 DUP3 MSTORE DUP1 PUSH1 0x1F ADD PUSH1 0x1F NOT AND PUSH1 0x20 ADD DUP3 ADD PUSH1 0x40 MSTORE DUP1 ISZERO PUSH2 0x149 JUMPI DUP2 PUSH1 0x20 ADD PUSH1 0x1 DUP3 MUL DUP1 CALLDATASIZE DUP4 CALLDATACOPY DUP1 DUP3 ADD SWAP2 POP POP SWAP1 POP JUMPDEST POP SWAP1 POP DUP2 PUSH1 0x20 DUP3 ADD MSTORE SWAP2 SWAP1 POP JUMP JUMPDEST PUSH0 DUP1 PUSH0 JUMPDEST PUSH1 0x20 PUSH1 0xFF AND DUP2 LT ISZERO PUSH2 0x1DC JUMPI PUSH1 0x1 DUP2 PUSH2 0x174 SWAP2 SWAP1 PUSH2 0xAB5 JUMP JUMPDEST PUSH1 0x20 PUSH1 0xFF AND PUSH2 0x183 SWAP2 SWAP1 PUSH2 0xAE8 JUMP JUMPDEST PUSH1 0x8 PUSH2 0x18F SWAP2 SWAP1 PUSH2 0xB1B JUMP JUMPDEST PUSH1 0x2 PUSH2 0x19B SWAP2 SWAP1 PUSH2 0xC8B JUMP JUMPDEST DUP5 DUP3 PUSH1 0x20 DUP2 LT PUSH2 0x1AE JUMPI PUSH2 0x1AD PUSH2 0xCD5 JUMP JUMPDEST JUMPDEST BYTE PUSH1 0xF8 SHL PUSH1 0xF8 SHR PUSH1 0xFF AND PUSH2 0x1C2 SWAP2 SWAP1 PUSH2 0xB1B JUMP JUMPDEST DUP3 PUSH2 0x1CD SWAP2 SWAP1 PUSH2 0xAB5 JUMP JUMPDEST SWAP2 POP DUP1 DUP1 PUSH1 0x1 ADD SWAP2 POP POP PUSH2 0x15B JUMP JUMPDEST POP DUP1 SWAP2 POP POP SWAP2 SWAP1 POP JUMP JUMPDEST PUSH0 PUSH1 0x40 MLOAD DUP1 PUSH1 0x60 ADD PUSH1 0x40 MSTORE DUP1 DUP6 DUP2 MSTORE PUSH1 0x20 ADD DUP5 DUP2 MSTORE PUSH1 0x20 ADD DUP4 DUP2 MSTORE POP SWAP1 POP PUSH0 PUSH1 0x2 PUSH0 SWAP1 SLOAD SWAP1 PUSH2 0x100 EXP SWAP1 DIV PUSH20 0xFFFFFFFFFFFFFFFFFFFFFFFFFFFFFFFFFFFFFFFF AND PUSH20 0xFFFFFFFFFFFFFFFFFFFFFFFFFFFFFFFFFFFFFFFF AND PUSH4 0x3AFC7282 DUP11 PUSH1 0x40 MLOAD DUP3 PUSH4 0xFFFFFFFF AND PUSH1 0xE0 SHL DUP2 MSTORE PUSH1 0x4 ADD PUSH2 0x25F SWAP2 SWAP1 PUSH2 0x88E JUMP JUMPDEST PUSH0 PUSH1 0x40 MLOAD DUP1 DUP4 SUB DUP2 DUP7 GAS STATICCALL ISZERO DUP1 ISZERO PUSH2 0x279 JUMPI RETURNDATASIZE PUSH0 DUP1 RETURNDATACOPY RETURNDATASIZE PUSH0 REVERT JUMPDEST POP POP POP POP PUSH1 0x40 MLOAD RETURNDATASIZE PUSH0 DUP3 RETURNDATACOPY RETURNDATASIZE PUSH1 0x1F NOT PUSH1 0x1F DUP3 ADD AND DUP3 ADD DUP1 PUSH1 0x40 MSTORE POP DUP2 ADD SWAP1 PUSH2 0x2A1 SWAP2 SWAP1 PUSH2 0xF8A JUMP JUMPDEST PUSH1 0x40 ADD MLOAD EQ DUP1 PUSH2 0x34F JUMPI POP TIMESTAMP PUSH1 0x2 PUSH0 SWAP1 SLOAD SWAP1 PUSH2 0x100 EXP SWAP1 DIV PUSH20 0xFFFFFFFFFFFFFFFFFFFFFFFFFFFFFFFFFFFFFFFF AND PUSH20 0xFFFFFFFFFFFFFFFFFFFFFFFFFFFFFFFFFFFFFFFF AND PUSH4 0x3AFC7282 DUP11 PUSH1 0x40 MLOAD DUP3 PUSH4 0xFFFFFFFF AND PUSH1 0xE0 SHL DUP2 MSTORE PUSH1 0x4 ADD PUSH2 0x307 SWAP2 SWAP1 PUSH2 0x88E JUMP JUMPDEST PUSH0 PUSH1 0x40 MLOAD DUP1 DUP4 SUB DUP2 DUP7 GAS STATICCALL ISZERO DUP1 ISZERO PUSH2 0x321 JUMPI RETURNDATASIZE PUSH0 DUP1 RETURNDATACOPY RETURNDATASIZE PUSH0 REVERT JUMPDEST POP POP POP POP PUSH1 0x40 MLOAD RETURNDATASIZE PUSH0 DUP3 RETURNDATACOPY RETURNDATASIZE PUSH1 0x1F NOT PUSH1 0x1F DUP3 ADD AND DUP3 ADD DUP1 PUSH1 0x40 MSTORE POP DUP2 ADD SWAP1 PUSH2 0x349 SWAP2 SWAP1 PUSH2 0xF8A JUMP JUMPDEST PUSH1 0x40 ADD MLOAD LT JUMPDEST DUP1 PUSH2 0x385 JUMPI POP PUSH1 0x1 PUSH0 DUP10 DUP2 MSTORE PUSH1 0x20 ADD SWAP1 DUP2 MSTORE PUSH1 0x20 ADD PUSH0 KECCAK256 PUSH0 ADD PUSH0 DUP7 DUP2 MSTORE PUSH1 0x20 ADD SWAP1 DUP2 MSTORE PUSH1 0x20 ADD PUSH0 KECCAK256 PUSH0 SWAP1 SLOAD SWAP1 PUSH2 0x100 EXP SWAP1 DIV PUSH1 0xFF AND JUMPDEST ISZERO PUSH2 0x390 JUMPI POP PUSH2 0x5E1 JUMP JUMPDEST PUSH0 PUSH2 0x3C3 DUP3 PUSH1 0x40 ADD MLOAD DUP4 PUSH1 0x20 ADD MLOAD DUP11 DUP10 PUSH2 0x3AA SWAP2 SWAP1 PUSH2 0xAB5 JUMP JUMPDEST PUSH2 0x3B4 SWAP2 SWAP1 PUSH2 0xAB5 JUMP JUMPDEST PUSH2 0x3BE SWAP2 SWAP1 PUSH2 0xAB5 JUMP JUMPDEST PUSH2 0xFA JUMP JUMPDEST SWAP1 POP PUSH0 PUSH1 0x2 DUP3 PUSH1 0x40 MLOAD PUSH2 0x3D6 SWAP2 SWAP1 PUSH2 0x100B JUMP JUMPDEST PUSH1 0x20 PUSH1 0x40 MLOAD DUP1 DUP4 SUB DUP2 DUP6 GAS STATICCALL ISZERO DUP1 ISZERO PUSH2 0x3F1 JUMPI RETURNDATASIZE PUSH0 DUP1 RETURNDATACOPY RETURNDATASIZE PUSH0 REVERT JUMPDEST POP POP POP PUSH1 0x40 MLOAD RETURNDATASIZE PUSH1 0x1F NOT PUSH1 0x1F DUP3 ADD AND DUP3 ADD DUP1 PUSH1 0x40 MSTORE POP DUP2 ADD SWAP1 PUSH2 0x414 SWAP2 SWAP1 PUSH2 0x1035 JUMP JUMPDEST SWAP1 POP PUSH0 PUSH2 0x420 DUP3 PUSH2 0x157 JUMP JUMPDEST SWAP1 POP PUSH0 PUSH2 0x46E PUSH32 0x86EFE464CB0C44B38865700220D035DA34110DEA1A8DD075DE1D5ACAF725DD42 DUP4 PUSH32 0x30644E72E131A029B85045B68181585D97816A916871CA8D3C208C16D87CFD47 PUSH2 0x673 JUMP JUMPDEST SWAP1 POP PUSH32 0x30644E72E131A029B85045B68181585D97816A916871CA8D3C208C16D87CFD47 DUP12 DUP3 PUSH2 0x49D SWAP2 SWAP1 PUSH2 0xB1B JUMP JUMPDEST PUSH2 0x4A7 SWAP2 SWAP1 PUSH2 0x108D JUMP JUMPDEST PUSH2 0x4F2 PUSH32 0x86EFE464CB0C44B38865700220D035DA34110DEA1A8DD075DE1D5ACAF725DD42 DUP13 PUSH32 0x30644E72E131A029B85045B68181585D97816A916871CA8D3C208C16D87CFD47 PUSH2 0x673 JUMP JUMPDEST SUB PUSH2 0x5DB JUMPI PUSH0 PUSH1 0x40 MLOAD DUP1 PUSH1 0x60 ADD PUSH1 0x40 MSTORE DUP1 DUP8 PUSH0 ADD MLOAD DUP2 MSTORE PUSH1 0x20 ADD DUP8 PUSH1 0x20 ADD MLOAD DUP2 MSTORE PUSH1 0x20 ADD DUP8 PUSH1 0x40 ADD MLOAD DUP2 MSTORE POP SWAP1 POP PUSH0 DUP1 DUP15 DUP2 MSTORE PUSH1 0x20 ADD SWAP1 DUP2 MSTORE PUSH1 0x20 ADD PUSH0 KECCAK256 DUP2 SWAP1 DUP1 PUSH1 0x1 DUP2 SLOAD ADD DUP1 DUP3 SSTORE DUP1 SWAP2 POP POP PUSH1 0x1 SWAP1 SUB SWAP1 PUSH0 MSTORE PUSH1 0x20 PUSH0 KECCAK256 SWAP1 PUSH1 0x3 MUL ADD PUSH0 SWAP1 SWAP2 SWAP1 SWAP2 SWAP1 SWAP2 POP PUSH0 DUP3 ADD MLOAD DUP2 PUSH0 ADD SSTORE PUSH1 0x20 DUP3 ADD MLOAD DUP2 PUSH1 0x1 ADD SSTORE PUSH1 0x40 DUP3 ADD MLOAD DUP2 PUSH1 0x2 ADD SSTORE POP POP PUSH1 0x1 DUP1 PUSH0 DUP16 DUP2 MSTORE PUSH1 0x20 ADD SWAP1 DUP2 MSTORE PUSH1 0x20 ADD PUSH0 KECCAK256 PUSH0 ADD PUSH0 DUP13 DUP2 MSTORE PUSH1 0x20 ADD SWAP1 DUP2 MSTORE PUSH1 0x20 ADD PUSH0 KECCAK256 PUSH0 PUSH2 0x100 EXP DUP2 SLOAD DUP2 PUSH1 0xFF MUL NOT AND SWAP1 DUP4 ISZERO ISZERO MUL OR SWAP1 SSTORE POP PUSH1 0x1 DUP1 PUSH0 DUP16 DUP2 MSTORE PUSH1 0x20 ADD SWAP1 DUP2 MSTORE PUSH1 0x20 ADD PUSH0 KECCAK256 PUSH1 0x1 ADD PUSH0 PUSH2 0x100 EXP DUP2 SLOAD DUP2 PUSH1 0xFF MUL NOT AND SWAP1 DUP4 ISZERO ISZERO MUL OR SWAP1 SSTORE POP POP JUMPDEST POP POP POP POP POP JUMPDEST POP POP POP POP POP POP POP JUMP JUMPDEST PUSH1 0x60 PUSH0 DUP1 DUP4 DUP2 MSTORE PUSH1 0x20 ADD SWAP1 DUP2 MSTORE PUSH1 0x20 ADD PUSH0 KECCAK256 DUP1 SLOAD DUP1 PUSH1 0x20 MUL PUSH1 0x20 ADD PUSH1 0x40 MLOAD SWAP1 DUP2 ADD PUSH1 0x40 MSTORE DUP1 SWAP3 SWAP2 SWAP1 DUP2 DUP2 MSTORE PUSH1 0x20 ADD PUSH0 SWAP1 JUMPDEST DUP3 DUP3 LT ISZERO PUSH2 0x668 JUMPI DUP4 DUP3 SWAP1 PUSH0 MSTORE PUSH1 0x20 PUSH0 KECCAK256 SWAP1 PUSH1 0x3 MUL ADD PUSH1 0x40 MLOAD DUP1 PUSH1 0x60 ADD PUSH1 0x40 MSTORE SWAP1 DUP2 PUSH0 DUP3 ADD SLOAD DUP2 MSTORE PUSH1 0x20 ADD PUSH1 0x1 DUP3 ADD SLOAD DUP2 MSTORE PUSH1 0x20 ADD PUSH1 0x2 DUP3 ADD SLOAD DUP2 MSTORE POP POP DUP2 MSTORE PUSH1 0x20 ADD SWAP1 PUSH1 0x1 ADD SWAP1 PUSH2 0x61B JUMP JUMPDEST POP POP POP POP SWAP1 POP SWAP2 SWAP1 POP JUMP JUMPDEST PUSH0 DUP1 PUSH1 0x40 MLOAD DUP1 PUSH1 0xC0 ADD PUSH1 0x40 MSTORE DUP1 PUSH1 0x20 DUP2 MSTORE PUSH1 0x20 ADD PUSH1 0x20 DUP2 MSTORE PUSH1 0x20 ADD PUSH1 0x20 DUP2 MSTORE PUSH1 0x20 ADD DUP7 DUP2 MSTORE PUSH1 0x20 ADD DUP6 DUP2 MSTORE PUSH1 0x20 ADD DUP5 DUP2 MSTORE POP SWAP1 POP PUSH2 0x6AF PUSH2 0x6E6 JUMP JUMPDEST PUSH1 0x20 DUP2 PUSH1 0xC0 DUP5 PUSH0 PUSH1 0x5 PUSH0 NOT CALL PUSH2 0x6C3 JUMPI PUSH0 DUP1 REVERT JUMPDEST DUP1 PUSH0 PUSH1 0x1 DUP2 LT PUSH2 0x6D6 JUMPI PUSH2 0x6D5 PUSH2 0xCD5 JUMP JUMPDEST JUMPDEST PUSH1 0x20 MUL ADD MLOAD SWAP3 POP POP POP SWAP4 SWAP3 POP POP POP JUMP JUMPDEST PUSH1 0x40 MLOAD DUP1 PUSH1 0x20 ADD PUSH1 0x40 MSTORE DUP1 PUSH1 0x1 SWAP1 PUSH1 0x20 DUP3 MUL DUP1 CALLDATASIZE DUP4 CALLDATACOPY DUP1 DUP3 ADD SWAP2 POP POP SWAP1 POP POP SWAP1 JUMP JUMPDEST PUSH0 PUSH1 0x40 MLOAD SWAP1 POP SWAP1 JUMP JUMPDEST PUSH0 DUP1 REVERT JUMPDEST PUSH0 DUP1 REVERT JUMPDEST PUSH0 DUP2 SWAP1 POP SWAP2 SWAP1 POP JUMP JUMPDEST PUSH2 0x72B DUP2 PUSH2 0x719 JUMP JUMPDEST DUP2 EQ PUSH2 0x735 JUMPI PUSH0 DUP1 REVERT JUMPDEST POP JUMP JUMPDEST PUSH0 DUP2 CALLDATALOAD SWAP1 POP PUSH2 0x746 DUP2 PUSH2 0x722 JUMP JUMPDEST SWAP3 SWAP2 POP POP JUMP JUMPDEST PUSH0 PUSH1 0x20 DUP3 DUP5 SUB SLT ISZERO PUSH2 0x761 JUMPI PUSH2 0x760 PUSH2 0x711 JUMP JUMPDEST JUMPDEST PUSH0 PUSH2 0x76E DUP5 DUP3 DUP6 ADD PUSH2 0x738 JUMP JUMPDEST SWAP2 POP POP SWAP3 SWAP2 POP POP JUMP JUMPDEST PUSH0 DUP2 MLOAD SWAP1 POP SWAP2 SWAP1 POP JUMP JUMPDEST PUSH0 DUP3 DUP3 MSTORE PUSH1 0x20 DUP3 ADD SWAP1 POP SWAP3 SWAP2 POP POP JUMP JUMPDEST PUSH0 JUMPDEST DUP4 DUP2 LT ISZERO PUSH2 0x7AE JUMPI DUP1 DUP3 ADD MLOAD DUP2 DUP5 ADD MSTORE PUSH1 0x20 DUP2 ADD SWAP1 POP PUSH2 0x793 JUMP JUMPDEST PUSH0 DUP5 DUP5 ADD MSTORE POP POP POP POP JUMP JUMPDEST PUSH0 PUSH1 0x1F NOT PUSH1 0x1F DUP4 ADD AND SWAP1 POP SWAP2 SWAP1 POP JUMP JUMPDEST PUSH0 PUSH2 0x7D3 DUP3 PUSH2 0x777 JUMP JUMPDEST PUSH2 0x7DD DUP2 DUP6 PUSH2 0x781 JUMP JUMPDEST SWAP4 POP PUSH2 0x7ED DUP2 DUP6 PUSH1 0x20 DUP7 ADD PUSH2 0x791 JUMP JUMPDEST PUSH2 0x7F6 DUP2 PUSH2 0x7B9 JUMP JUMPDEST DUP5 ADD SWAP2 POP POP SWAP3 SWAP2 POP POP JUMP JUMPDEST PUSH0 PUSH1 0x20 DUP3 ADD SWAP1 POP DUP2 DUP2 SUB PUSH0 DUP4 ADD MSTORE PUSH2 0x819 DUP2 DUP5 PUSH2 0x7C9 JUMP JUMPDEST SWAP1 POP SWAP3 SWAP2 POP POP JUMP JUMPDEST PUSH0 DUP2 SWAP1 POP SWAP2 SWAP1 POP JUMP JUMPDEST PUSH2 0x833 DUP2 PUSH2 0x821 JUMP JUMPDEST DUP2 EQ PUSH2 0x83D JUMPI PUSH0 DUP1 REVERT JUMPDEST POP JUMP JUMPDEST PUSH0 DUP2 CALLDATALOAD SWAP1 POP PUSH2 0x84E DUP2 PUSH2 0x82A JUMP JUMPDEST SWAP3 SWAP2 POP POP JUMP JUMPDEST PUSH0 PUSH1 0x20 DUP3 DUP5 SUB SLT ISZERO PUSH2 0x869 JUMPI PUSH2 0x868 PUSH2 0x711 JUMP JUMPDEST JUMPDEST PUSH0 PUSH2 0x876 DUP5 DUP3 DUP6 ADD PUSH2 0x840 JUMP JUMPDEST SWAP2 POP POP SWAP3 SWAP2 POP POP JUMP JUMPDEST PUSH2 0x888 DUP2 PUSH2 0x719 JUMP JUMPDEST DUP3 MSTORE POP POP JUMP JUMPDEST PUSH0 PUSH1 0x20 DUP3 ADD SWAP1 POP PUSH2 0x8A1 PUSH0 DUP4 ADD DUP5 PUSH2 0x87F JUMP JUMPDEST SWAP3 SWAP2 POP POP JUMP JUMPDEST PUSH0 DUP1 PUSH0 DUP1 PUSH0 DUP1 PUSH0 PUSH1 0xE0 DUP9 DUP11 SUB SLT ISZERO PUSH2 0x8C2 JUMPI PUSH2 0x8C1 PUSH2 0x711 JUMP JUMPDEST JUMPDEST PUSH0 PUSH2 0x8CF DUP11 DUP3 DUP12 ADD PUSH2 0x738 JUMP JUMPDEST SWAP8 POP POP PUSH1 0x20 PUSH2 0x8E0 DUP11 DUP3 DUP12 ADD PUSH2 0x738 JUMP JUMPDEST SWAP7 POP POP PUSH1 0x40 PUSH2 0x8F1 DUP11 DUP3 DUP12 ADD PUSH2 0x738 JUMP JUMPDEST SWAP6 POP POP PUSH1 0x60 PUSH2 0x902 DUP11 DUP3 DUP12 ADD PUSH2 0x738 JUMP JUMPDEST SWAP5 POP POP PUSH1 0x80 PUSH2 0x913 DUP11 DUP3 DUP12 ADD PUSH2 0x738 JUMP JUMPDEST SWAP4 POP POP PUSH1 0xA0 PUSH2 0x924 DUP11 DUP3 DUP12 ADD PUSH2 0x738 JUMP JUMPDEST SWAP3 POP POP PUSH1 0xC0 PUSH2 0x935 DUP11 DUP3 DUP12 ADD PUSH2 0x738 JUMP JUMPDEST SWAP2 POP POP SWAP3 SWAP6 SWAP9 SWAP2 SWAP5 SWAP8 POP SWAP3 SWAP6 POP JUMP JUMPDEST PUSH0 DUP2 MLOAD SWAP1 POP SWAP2 SWAP1 POP JUMP JUMPDEST PUSH0 DUP3 DUP3 MSTORE PUSH1 0x20 DUP3 ADD SWAP1 POP SWAP3 SWAP2 POP POP JUMP JUMPDEST PUSH0 DUP2 SWAP1 POP PUSH1 0x20 DUP3 ADD SWAP1 POP SWAP2 SWAP1 POP JUMP JUMPDEST PUSH2 0x976 DUP2 PUSH2 0x719 JUMP JUMPDEST DUP3 MSTORE POP POP JUMP JUMPDEST PUSH1 0x60 DUP3 ADD PUSH0 DUP3 ADD MLOAD PUSH2 0x990 PUSH0 DUP6 ADD DUP3 PUSH2 0x96D JUMP JUMPDEST POP PUSH1 0x20 DUP3 ADD MLOAD PUSH2 0x9A3 PUSH1 0x20 DUP6 ADD DUP3 PUSH2 0x96D JUMP JUMPDEST POP PUSH1 0x40 DUP3 ADD MLOAD PUSH2 0x9B6 PUSH1 0x40 DUP6 ADD DUP3 PUSH2 0x96D JUMP JUMPDEST POP POP POP POP JUMP JUMPDEST PUSH0 PUSH2 0x9C7 DUP4 DUP4 PUSH2 0x97C JUMP JUMPDEST PUSH1 0x60 DUP4 ADD SWAP1 POP SWAP3 SWAP2 POP POP JUMP JUMPDEST PUSH0 PUSH1 0x20 DUP3 ADD SWAP1 POP SWAP2 SWAP1 POP JUMP JUMPDEST PUSH0 PUSH2 0x9E9 DUP3 PUSH2 0x944 JUMP JUMPDEST PUSH2 0x9F3 DUP2 DUP6 PUSH2 0x94E JUMP JUMPDEST SWAP4 POP PUSH2 0x9FE DUP4 PUSH2 0x95E JUMP JUMPDEST DUP1 PUSH0 JUMPDEST DUP4 DUP2 LT ISZERO PUSH2 0xA2E JUMPI DUP2 MLOAD PUSH2 0xA15 DUP9 DUP3 PUSH2 0x9BC JUMP JUMPDEST SWAP8 POP PUSH2 0xA20 DUP4 PUSH2 0x9D3 JUMP JUMPDEST SWAP3 POP POP PUSH1 0x1 DUP2 ADD SWAP1 POP PUSH2 0xA01 JUMP JUMPDEST POP DUP6 SWAP4 POP POP POP POP SWAP3 SWAP2 POP POP JUMP JUMPDEST PUSH0 PUSH1 0x20 DUP3 ADD SWAP1 POP DUP2 DUP2 SUB PUSH0 DUP4 ADD MSTORE PUSH2 0xA53 DUP2 DUP5 PUSH2 0x9DF JUMP JUMPDEST SWAP1 POP SWAP3 SWAP2 POP POP JUMP JUMPDEST PUSH32 0x4E487B7100000000000000000000000000000000000000000000000000000000 PUSH0 MSTORE PUSH1 0x41 PUSH1 0x4 MSTORE PUSH1 0x24 PUSH0 REVERT JUMPDEST PUSH32 0x4E487B7100000000000000000000000000000000000000000000000000000000 PUSH0 MSTORE PUSH1 0x11 PUSH1 0x4 MSTORE PUSH1 0x24 PUSH0 REVERT JUMPDEST PUSH0 PUSH2 0xABF DUP3 PUSH2 0x719 JUMP JUMPDEST SWAP2 POP PUSH2 0xACA DUP4 PUSH2 0x719 JUMP JUMPDEST SWAP3 POP DUP3 DUP3 ADD SWAP1 POP DUP1 DUP3 GT ISZERO PUSH2 0xAE2 JUMPI PUSH2 0xAE1 PUSH2 0xA88 JUMP JUMPDEST JUMPDEST SWAP3 SWAP2 POP POP JUMP JUMPDEST PUSH0 PUSH2 0xAF2 DUP3 PUSH2 0x719 JUMP JUMPDEST SWAP2 POP PUSH2 0xAFD DUP4 PUSH2 0x719 JUMP JUMPDEST SWAP3 POP DUP3 DUP3 SUB SWAP1 POP DUP2 DUP2 GT ISZERO PUSH2 0xB15 JUMPI PUSH2 0xB14 PUSH2 0xA88 JUMP JUMPDEST JUMPDEST SWAP3 SWAP2 POP POP JUMP JUMPDEST PUSH0 PUSH2 0xB25 DUP3 PUSH2 0x719 JUMP JUMPDEST SWAP2 POP PUSH2 0xB30 DUP4 PUSH2 0x719 JUMP JUMPDEST SWAP3 POP DUP3 DUP3 MUL PUSH2 0xB3E DUP2 PUSH2 0x719 JUMP JUMPDEST SWAP2 POP DUP3 DUP3 DIV DUP5 EQ DUP4 ISZERO OR PUSH2 0xB55 JUMPI PUSH2 0xB54 PUSH2 0xA88 JUMP JUMPDEST JUMPDEST POP SWAP3 SWAP2 POP POP JUMP JUMPDEST PUSH0 DUP2 PUSH1 0x1 SHR SWAP1 POP SWAP2 SWAP1 POP JUMP JUMPDEST PUSH0 DUP1 DUP3 SWAP2 POP DUP4 SWAP1 POP JUMPDEST PUSH1 0x1 DUP6 GT ISZERO PUSH2 0xBB1 JUMPI DUP1 DUP7 DIV DUP2 GT ISZERO PUSH2 0xB8D JUMPI PUSH2 0xB8C PUSH2 0xA88 JUMP JUMPDEST JUMPDEST PUSH1 0x1 DUP6 AND ISZERO PUSH2 0xB9C JUMPI DUP1 DUP3 MUL SWAP2 POP JUMPDEST DUP1 DUP2 MUL SWAP1 POP PUSH2 0xBAA DUP6 PUSH2 0xB5C JUMP JUMPDEST SWAP5 POP PUSH2 0xB71 JUMP JUMPDEST SWAP5 POP SWAP5 SWAP3 POP POP POP JUMP JUMPDEST PUSH0 DUP3 PUSH2 0xBC9 JUMPI PUSH1 0x1 SWAP1 POP PUSH2 0xC84 JUMP JUMPDEST DUP2 PUSH2 0xBD6 JUMPI PUSH0 SWAP1 POP PUSH2 0xC84 JUMP JUMPDEST DUP2 PUSH1 0x1 DUP2 EQ PUSH2 0xBEC JUMPI PUSH1 0x2 DUP2 EQ PUSH2 0xBF6 JUMPI PUSH2 0xC25 JUMP JUMPDEST PUSH1 0x1 SWAP2 POP POP PUSH2 0xC84 JUMP JUMPDEST PUSH1 0xFF DUP5 GT ISZERO PUSH2 0xC08 JUMPI PUSH2 0xC07 PUSH2 0xA88 JUMP JUMPDEST JUMPDEST DUP4 PUSH1 0x2 EXP SWAP2 POP DUP5 DUP3 GT ISZERO PUSH2 0xC1F JUMPI PUSH2 0xC1E PUSH2 0xA88 JUMP JUMPDEST JUMPDEST POP PUSH2 0xC84 JUMP JUMPDEST POP PUSH1 0x20 DUP4 LT PUSH2 0x133 DUP4 LT AND PUSH1 0x4E DUP5 LT PUSH1 0xB DUP5 LT AND OR ISZERO PUSH2 0xC5A JUMPI DUP3 DUP3 EXP SWAP1 POP DUP4 DUP2 GT ISZERO PUSH2 0xC55 JUMPI PUSH2 0xC54 PUSH2 0xA88 JUMP JUMPDEST JUMPDEST PUSH2 0xC84 JUMP JUMPDEST PUSH2 0xC67 DUP5 DUP5 DUP5 PUSH1 0x1 PUSH2 0xB68 JUMP JUMPDEST SWAP3 POP SWAP1 POP DUP2 DUP5 DIV DUP2 GT ISZERO PUSH2 0xC7E JUMPI PUSH2 0xC7D PUSH2 0xA88 JUMP JUMPDEST JUMPDEST DUP2 DUP2 MUL SWAP1 POP JUMPDEST SWAP4 SWAP3 POP POP POP JUMP JUMPDEST PUSH0 PUSH2 0xC95 DUP3 PUSH2 0x719 JUMP JUMPDEST SWAP2 POP PUSH2 0xCA0 DUP4 PUSH2 0x719 JUMP JUMPDEST SWAP3 POP PUSH2 0xCCD PUSH32 0xFFFFFFFFFFFFFFFFFFFFFFFFFFFFFFFFFFFFFFFFFFFFFFFFFFFFFFFFFFFFFFFF DUP5 DUP5 PUSH2 0xBBA JUMP JUMPDEST SWAP1 POP SWAP3 SWAP2 POP POP JUMP JUMPDEST PUSH32 0x4E487B7100000000000000000000000000000000000000000000000000000000 PUSH0 MSTORE PUSH1 0x32 PUSH1 0x4 MSTORE PUSH1 0x24 PUSH0 REVERT JUMPDEST PUSH0 DUP1 REVERT JUMPDEST PUSH2 0xD0F DUP3 PUSH2 0x7B9 JUMP JUMPDEST DUP2 ADD DUP2 DUP2 LT PUSH8 0xFFFFFFFFFFFFFFFF DUP3 GT OR ISZERO PUSH2 0xD2E JUMPI PUSH2 0xD2D PUSH2 0xA5B JUMP JUMPDEST JUMPDEST DUP1 PUSH1 0x40 MSTORE POP POP POP JUMP JUMPDEST PUSH0 PUSH2 0xD40 PUSH2 0x708 JUMP JUMPDEST SWAP1 POP PUSH2 0xD4C DUP3 DUP3 PUSH2 0xD06 JUMP JUMPDEST SWAP2 SWAP1 POP JUMP JUMPDEST PUSH0 DUP1 REVERT JUMPDEST PUSH0 DUP1 REVERT JUMPDEST PUSH0 DUP1 REVERT JUMPDEST PUSH0 PUSH8 0xFFFFFFFFFFFFFFFF DUP3 GT ISZERO PUSH2 0xD77 JUMPI PUSH2 0xD76 PUSH2 0xA5B JUMP JUMPDEST JUMPDEST PUSH2 0xD80 DUP3 PUSH2 0x7B9 JUMP JUMPDEST SWAP1 POP PUSH1 0x20 DUP2 ADD SWAP1 POP SWAP2 SWAP1 POP JUMP JUMPDEST PUSH0 PUSH2 0xD9F PUSH2 0xD9A DUP5 PUSH2 0xD5D JUMP JUMPDEST PUSH2 0xD37 JUMP JUMPDEST SWAP1 POP DUP3 DUP2 MSTORE PUSH1 0x20 DUP2 ADD DUP5 DUP5 DUP5 ADD GT ISZERO PUSH2 0xDBB JUMPI PUSH2 0xDBA PUSH2 0xD59 JUMP JUMPDEST JUMPDEST PUSH2 0xDC6 DUP5 DUP3 DUP6 PUSH2 0x791 JUMP JUMPDEST POP SWAP4 SWAP3 POP POP POP JUMP JUMPDEST PUSH0 DUP3 PUSH1 0x1F DUP4 ADD SLT PUSH2 0xDE2 JUMPI PUSH2 0xDE1 PUSH2 0xD55 JUMP JUMPDEST JUMPDEST DUP2 MLOAD PUSH2 0xDF2 DUP5 DUP3 PUSH1 0x20 DUP7 ADD PUSH2 0xD8D JUMP JUMPDEST SWAP2 POP POP SWAP3 SWAP2 POP POP JUMP JUMPDEST PUSH0 PUSH8 0xFFFFFFFFFFFFFFFF DUP3 GT ISZERO PUSH2 0xE15 JUMPI PUSH2 0xE14 PUSH2 0xA5B JUMP JUMPDEST JUMPDEST PUSH1 0x20 DUP3 MUL SWAP1 POP PUSH1 0x20 DUP2 ADD SWAP1 POP SWAP2 SWAP1 POP JUMP JUMPDEST PUSH0 DUP1 REVERT JUMPDEST PUSH0 PUSH2 0xE3C PUSH2 0xE37 DUP5 PUSH2 0xDFB JUMP JUMPDEST PUSH2 0xD37 JUMP JUMPDEST SWAP1 POP DUP1 DUP4 DUP3 MSTORE PUSH1 0x20 DUP3 ADD SWAP1 POP PUSH1 0x20 DUP5 MUL DUP4 ADD DUP6 DUP2 GT ISZERO PUSH2 0xE5F JUMPI PUSH2 0xE5E PUSH2 0xE26 JUMP JUMPDEST JUMPDEST DUP4 JUMPDEST DUP2 DUP2 LT ISZERO PUSH2 0xEA6 JUMPI DUP1 MLOAD PUSH8 0xFFFFFFFFFFFFFFFF DUP2 GT ISZERO PUSH2 0xE84 JUMPI PUSH2 0xE83 PUSH2 0xD55 JUMP JUMPDEST JUMPDEST DUP1 DUP7 ADD PUSH2 0xE91 DUP10 DUP3 PUSH2 0xDCE JUMP JUMPDEST DUP6 MSTORE PUSH1 0x20 DUP6 ADD SWAP5 POP POP POP PUSH1 0x20 DUP2 ADD SWAP1 POP PUSH2 0xE61 JUMP JUMPDEST POP POP POP SWAP4 SWAP3 POP POP POP JUMP JUMPDEST PUSH0 DUP3 PUSH1 0x1F DUP4 ADD SLT PUSH2 0xEC4 JUMPI PUSH2 0xEC3 PUSH2 0xD55 JUMP JUMPDEST JUMPDEST DUP2 MLOAD PUSH2 0xED4 DUP5 DUP3 PUSH1 0x20 DUP7 ADD PUSH2 0xE2A JUMP JUMPDEST SWAP2 POP POP SWAP3 SWAP2 POP POP JUMP JUMPDEST PUSH0 DUP2 MLOAD SWAP1 POP PUSH2 0xEEB DUP2 PUSH2 0x722 JUMP JUMPDEST SWAP3 SWAP2 POP POP JUMP JUMPDEST PUSH0 PUSH1 0x60 DUP3 DUP5 SUB SLT ISZERO PUSH2 0xF06 JUMPI PUSH2 0xF05 PUSH2 0xD02 JUMP JUMPDEST JUMPDEST PUSH2 0xF10 PUSH1 0x60 PUSH2 0xD37 JUMP JUMPDEST SWAP1 POP PUSH0 DUP3 ADD MLOAD PUSH8 0xFFFFFFFFFFFFFFFF DUP2 GT ISZERO PUSH2 0xF2F JUMPI PUSH2 0xF2E PUSH2 0xD51 JUMP JUMPDEST JUMPDEST PUSH2 0xF3B DUP5 DUP3 DUP6 ADD PUSH2 0xDCE JUMP JUMPDEST PUSH0 DUP4 ADD MSTORE POP PUSH1 0x20 DUP3 ADD MLOAD PUSH8 0xFFFFFFFFFFFFFFFF DUP2 GT ISZERO PUSH2 0xF5E JUMPI PUSH2 0xF5D PUSH2 0xD51 JUMP JUMPDEST JUMPDEST PUSH2 0xF6A DUP5 DUP3 DUP6 ADD PUSH2 0xEB0 JUMP JUMPDEST PUSH1 0x20 DUP4 ADD MSTORE POP PUSH1 0x40 PUSH2 0xF7E DUP5 DUP3 DUP6 ADD PUSH2 0xEDD JUMP JUMPDEST PUSH1 0x40 DUP4 ADD MSTORE POP SWAP3 SWAP2 POP POP JUMP JUMPDEST PUSH0 PUSH1 0x20 DUP3 DUP5 SUB SLT ISZERO PUSH2 0xF9F JUMPI PUSH2 0xF9E PUSH2 0x711 JUMP JUMPDEST JUMPDEST PUSH0 DUP3 ADD MLOAD PUSH8 0xFFFFFFFFFFFFFFFF DUP2 GT ISZERO PUSH2 0xFBC JUMPI PUSH2 0xFBB PUSH2 0x715 JUMP JUMPDEST JUMPDEST PUSH2 0xFC8 DUP5 DUP3 DUP6 ADD PUSH2 0xEF1 JUMP JUMPDEST SWAP2 POP POP SWAP3 SWAP2 POP POP JUMP JUMPDEST PUSH0 DUP2 SWAP1 POP SWAP3 SWAP2 POP POP JUMP JUMPDEST PUSH0 PUSH2 0xFE5 DUP3 PUSH2 0x777 JUMP JUMPDEST PUSH2 0xFEF DUP2 DUP6 PUSH2 0xFD1 JUMP JUMPDEST SWAP4 POP PUSH2 0xFFF DUP2 DUP6 PUSH1 0x20 DUP7 ADD PUSH2 0x791 JUMP JUMPDEST DUP1 DUP5 ADD SWAP2 POP POP SWAP3 SWAP2 POP POP JUMP JUMPDEST PUSH0 PUSH2 0x1016 DUP3 DUP5 PUSH2 0xFDB JUMP JUMPDEST SWAP2 POP DUP2 SWAP1 POP SWAP3 SWAP2 POP POP JUMP JUMPDEST PUSH0 DUP2 MLOAD SWAP1 POP PUSH2 0x102F DUP2 PUSH2 0x82A JUMP JUMPDEST SWAP3 SWAP2 POP POP JUMP JUMPDEST PUSH0 PUSH1 0x20 DUP3 DUP5 SUB SLT ISZERO PUSH2 0x104A JUMPI PUSH2 0x1049 PUSH2 0x711 JUMP JUMPDEST JUMPDEST PUSH0 PUSH2 0x1057 DUP5 DUP3 DUP6 ADD PUSH2 0x1021 JUMP JUMPDEST SWAP2 POP POP SWAP3 SWAP2 POP POP JUMP JUMPDEST PUSH32 0x4E487B7100000000000000000000000000000000000000000000000000000000 PUSH0 MSTORE PUSH1 0x12 PUSH1 0x4 MSTORE PUSH1 0x24 PUSH0 REVERT JUMPDEST PUSH0 PUSH2 0x1097 DUP3 PUSH2 0x719 JUMP JUMPDEST SWAP2 POP PUSH2 0x10A2 DUP4 PUSH2 0x719 JUMP JUMPDEST SWAP3 POP DUP3 PUSH2 0x10B2 JUMPI PUSH2 0x10B1 PUSH2 0x1060 JUMP JUMPDEST JUMPDEST DUP3 DUP3 MOD SWAP1 POP SWAP3 SWAP2 POP POP JUMP INVALID LOG2 PUSH5 0x6970667358 0x22 SLT KECCAK256 PUSH11 0xECDEB5F53D40A7A0A91E5A SWAP5 0xEB LOG0 SUB SIGNEXTEND 0xFC PC 0xCC CALL 0xE1 PUSH13 0xB50D1115CDFDB76B264736F6C PUSH4 0x43000816 STOP CALLER "
		},
		"gasEstimates": {
			"creation": {
				"codeDepositCost": "867800",
				"executionCost": "25167",
				"totalCost": "892967"
			},
			"external": {
				"bytesToUint(bytes32)": "infinite",
				"getBallots(uint256)": "infinite",
				"toBytes(uint256)": "infinite",
				"vote(uint256,uint256,uint256,uint256,uint256,uint256,uint256)": "infinite"
			}
		},
		"methodIdentifiers": {
			"bytesToUint(bytes32)": "cfc5a969",
			"getBallots(uint256)": "fb7344d0",
			"toBytes(uint256)": "775a8f5e",
			"vote(uint256,uint256,uint256,uint256,uint256,uint256,uint256)": "d94a9d1b"
		}
	},
	"abi": [
		{
			"inputs": [
				{
					"internalType": "bytes32",
					"name": "b",
					"type": "bytes32"
				}
			],
			"name": "bytesToUint",
			"outputs": [
				{
					"internalType": "uint256",
					"name": "",
					"type": "uint256"
				}
			],
			"stateMutability": "pure",
			"type": "function"
		},
		{
			"inputs": [
				{
					"internalType": "uint256",
					"name": "round",
					"type": "uint256"
				}
			],
			"name": "getBallots",
			"outputs": [
				{
					"components": [
						{
							"internalType": "uint256",
							"name": "c0",
							"type": "uint256"
						},
						{
							"internalType": "uint256",
							"name": "x",
							"type": "uint256"
						},
						{
							"internalType": "uint256",
							"name": "y",
							"type": "uint256"
						}
					],
					"internalType": "struct Utils.record[]",
					"name": "",
					"type": "tuple[]"
				}
			],
			"stateMutability": "view",
			"type": "function"
		},
		{
			"inputs": [
				{
					"internalType": "uint256",
					"name": "x",
					"type": "uint256"
				}
			],
			"name": "toBytes",
			"outputs": [
				{
					"internalType": "bytes",
					"name": "b",
					"type": "bytes"
				}
			],
			"stateMutability": "pure",
			"type": "function"
		},
		{
			"inputs": [
				{
					"internalType": "uint256",
					"name": "round",
					"type": "uint256"
				},
				{
					"internalType": "uint256",
					"name": "B",
					"type": "uint256"
				},
				{
					"internalType": "uint256",
					"name": "a",
					"type": "uint256"
				},
				{
					"internalType": "uint256",
					"name": "pk",
					"type": "uint256"
				},
				{
					"internalType": "uint256",
					"name": "c0",
					"type": "uint256"
				},
				{
					"internalType": "uint256",
					"name": "ballotx",
					"type": "uint256"
				},
				{
					"internalType": "uint256",
					"name": "balloty",
					"type": "uint256"
				}
			],
			"name": "vote",
			"outputs": [],
			"stateMutability": "nonpayable",
			"type": "function"
		}
	]
}