{
	"contracts/e-voting scheme/test.sol": {
		"a": {
			"abi": [
				{
					"inputs": [],
					"name": "getStringByIndex",
					"outputs": [],
					"stateMutability": "nonpayable",
					"type": "function"
				}
			],
			"devdoc": {
				"kind": "dev",
				"methods": {},
				"version": 1
			},
			"evm": {
				"assembly": "    /* \"contracts/e-voting scheme/test.sol\":61:230  contract a{... */\n  mstore(0x40, 0x80)\n  callvalue\n  dup1\n  iszero\n  tag_1\n  jumpi\n  0x00\n  dup1\n  revert\ntag_1:\n  pop\n  dataSize(sub_0)\n  dup1\n  dataOffset(sub_0)\n  0x00\n  codecopy\n  0x00\n  return\nstop\n\nsub_0: assembly {\n        /* \"contracts/e-voting scheme/test.sol\":61:230  contract a{... */\n      mstore(0x40, 0x80)\n      callvalue\n      dup1\n      iszero\n      tag_1\n      jumpi\n      0x00\n      dup1\n      revert\n    tag_1:\n      pop\n      jumpi(tag_2, lt(calldatasize, 0x04))\n      shr(0xe0, calldataload(0x00))\n      dup1\n      0xc64ceb9c\n      eq\n      tag_3\n      jumpi\n    tag_2:\n      0x00\n      dup1\n      revert\n        /* \"contracts/e-voting scheme/test.sol\":101:227  function getStringByIndex() public{... */\n    tag_3:\n      tag_4\n      tag_5\n      jump\t// in\n    tag_4:\n      stop\n    tag_5:\n        /* \"contracts/e-voting scheme/test.sol\":152:161  uint256 i */\n      0x00\n        /* \"contracts/e-voting scheme/test.sol\":148:220  for(uint256 i=0;i<100;i++){... */\n    tag_7:\n        /* \"contracts/e-voting scheme/test.sol\":166:169  100 */\n      0x64\n        /* \"contracts/e-voting scheme/test.sol\":164:165  i */\n      dup2\n        /* \"contracts/e-voting scheme/test.sol\":164:169  i<100 */\n      lt\n        /* \"contracts/e-voting scheme/test.sol\":148:220  for(uint256 i=0;i<100;i++){... */\n      iszero\n      tag_8\n      jumpi\n        /* \"contracts/e-voting scheme/test.sol\":189:193  list */\n      0x00\n        /* \"contracts/e-voting scheme/test.sol\":206:207  i */\n      dup2\n        /* \"contracts/e-voting scheme/test.sol\":201:205  1000 */\n      0x03e8\n        /* \"contracts/e-voting scheme/test.sol\":199:200  i */\n      dup4\n        /* \"contracts/e-voting scheme/test.sol\":199:205  i*1000 */\n      tag_10\n      swap2\n      swap1\n      tag_11\n      jump\t// in\n    tag_10:\n        /* \"contracts/e-voting scheme/test.sol\":199:207  i*1000*i */\n      tag_12\n      swap2\n      swap1\n      tag_11\n      jump\t// in\n    tag_12:\n        /* \"contracts/e-voting scheme/test.sol\":189:208  list.push(i*1000*i) */\n      swap1\n      dup1\n      0x01\n      dup2\n      sload\n      add\n      dup1\n      dup3\n      sstore\n      dup1\n      swap2\n      pop\n      pop\n      0x01\n      swap1\n      sub\n      swap1\n      0x00\n      mstore\n      keccak256(0x00, 0x20)\n      add\n      0x00\n      swap1\n      swap2\n      swap1\n      swap2\n      swap1\n      swap2\n      pop\n      sstore\n        /* \"contracts/e-voting scheme/test.sol\":170:173  i++ */\n      dup1\n      dup1\n      0x01\n      add\n      swap2\n      pop\n      pop\n        /* \"contracts/e-voting scheme/test.sol\":148:220  for(uint256 i=0;i<100;i++){... */\n      jump(tag_7)\n    tag_8:\n      pop\n        /* \"contracts/e-voting scheme/test.sol\":101:227  function getStringByIndex() public{... */\n      jump\t// out\n        /* \"#utility.yul\":7:84   */\n    tag_14:\n        /* \"#utility.yul\":44:51   */\n      0x00\n        /* \"#utility.yul\":73:78   */\n      dup2\n        /* \"#utility.yul\":62:78   */\n      swap1\n      pop\n        /* \"#utility.yul\":7:84   */\n      swap2\n      swap1\n      pop\n      jump\t// out\n        /* \"#utility.yul\":90:270   */\n    tag_15:\n        /* \"#utility.yul\":138:215   */\n      0x4e487b7100000000000000000000000000000000000000000000000000000000\n        /* \"#utility.yul\":135:136   */\n      0x00\n        /* \"#utility.yul\":128:216   */\n      mstore\n        /* \"#utility.yul\":235:239   */\n      0x11\n        /* \"#utility.yul\":232:233   */\n      0x04\n        /* \"#utility.yul\":225:240   */\n      mstore\n        /* \"#utility.yul\":259:263   */\n      0x24\n        /* \"#utility.yul\":256:257   */\n      0x00\n        /* \"#utility.yul\":249:264   */\n      revert\n        /* \"#utility.yul\":276:686   */\n    tag_11:\n        /* \"#utility.yul\":316:323   */\n      0x00\n        /* \"#utility.yul\":339:359   */\n      tag_20\n        /* \"#utility.yul\":357:358   */\n      dup3\n        /* \"#utility.yul\":339:359   */\n      tag_14\n      jump\t// in\n    tag_20:\n        /* \"#utility.yul\":334:359   */\n      swap2\n      pop\n        /* \"#utility.yul\":373:393   */\n      tag_21\n        /* \"#utility.yul\":391:392   */\n      dup4\n        /* \"#utility.yul\":373:393   */\n      tag_14\n      jump\t// in\n    tag_21:\n        /* \"#utility.yul\":368:393   */\n      swap3\n      pop\n        /* \"#utility.yul\":428:429   */\n      dup3\n        /* \"#utility.yul\":425:426   */\n      dup3\n        /* \"#utility.yul\":421:430   */\n      mul\n        /* \"#utility.yul\":450:480   */\n      tag_22\n        /* \"#utility.yul\":468:479   */\n      dup2\n        /* \"#utility.yul\":450:480   */\n      tag_14\n      jump\t// in\n    tag_22:\n        /* \"#utility.yul\":439:480   */\n      swap2\n      pop\n        /* \"#utility.yul\":629:630   */\n      dup3\n        /* \"#utility.yul\":620:627   */\n      dup3\n        /* \"#utility.yul\":616:631   */\n      div\n        /* \"#utility.yul\":613:614   */\n      dup5\n        /* \"#utility.yul\":610:632   */\n      eq\n        /* \"#utility.yul\":590:591   */\n      dup4\n        /* \"#utility.yul\":583:592   */\n      iszero\n        /* \"#utility.yul\":563:646   */\n      or\n        /* \"#utility.yul\":540:679   */\n      tag_23\n      jumpi\n        /* \"#utility.yul\":659:677   */\n      tag_24\n      tag_15\n      jump\t// in\n    tag_24:\n        /* \"#utility.yul\":540:679   */\n    tag_23:\n        /* \"#utility.yul\":324:686   */\n      pop\n        /* \"#utility.yul\":276:686   */\n      swap3\n      swap2\n      pop\n      pop\n      jump\t// out\n\n    auxdata: 0xa2646970667358221220f8014852f3dabf88cf0305fa2d74bf28d147342336432c141abf9daadb28ead964736f6c63430008160033\n}\n",
				"bytecode": {
					"linkReferences": {},
					"object": "608060405234801561000f575f80fd5b506101288061001d5f395ff3fe6080604052348015600e575f80fd5b50600436106026575f3560e01c8063c64ceb9c14602a575b5f80fd5b60306032565b005b5f5b60648110156081575f816103e883604a919060ba565b6052919060ba565b908060018154018082558091505060019003905f5260205f20015f909190919091505580806001019150506034565b50565b5f819050919050565b7f4e487b71000000000000000000000000000000000000000000000000000000005f52601160045260245ffd5b5f60c2826084565b915060cb836084565b925082820260d7816084565b9150828204841483151760eb5760ea608d565b5b509291505056fea2646970667358221220f8014852f3dabf88cf0305fa2d74bf28d147342336432c141abf9daadb28ead964736f6c63430008160033",
					"opcodes": "PUSH1 0x80 PUSH1 0x40 MSTORE CALLVALUE DUP1 ISZERO PUSH2 0xF JUMPI PUSH0 DUP1 REVERT JUMPDEST POP PUSH2 0x128 DUP1 PUSH2 0x1D PUSH0 CODECOPY PUSH0 RETURN INVALID PUSH1 0x80 PUSH1 0x40 MSTORE CALLVALUE DUP1 ISZERO PUSH1 0xE JUMPI PUSH0 DUP1 REVERT JUMPDEST POP PUSH1 0x4 CALLDATASIZE LT PUSH1 0x26 JUMPI PUSH0 CALLDATALOAD PUSH1 0xE0 SHR DUP1 PUSH4 0xC64CEB9C EQ PUSH1 0x2A JUMPI JUMPDEST PUSH0 DUP1 REVERT JUMPDEST PUSH1 0x30 PUSH1 0x32 JUMP JUMPDEST STOP JUMPDEST PUSH0 JUMPDEST PUSH1 0x64 DUP2 LT ISZERO PUSH1 0x81 JUMPI PUSH0 DUP2 PUSH2 0x3E8 DUP4 PUSH1 0x4A SWAP2 SWAP1 PUSH1 0xBA JUMP JUMPDEST PUSH1 0x52 SWAP2 SWAP1 PUSH1 0xBA JUMP JUMPDEST SWAP1 DUP1 PUSH1 0x1 DUP2 SLOAD ADD DUP1 DUP3 SSTORE DUP1 SWAP2 POP POP PUSH1 0x1 SWAP1 SUB SWAP1 PUSH0 MSTORE PUSH1 0x20 PUSH0 KECCAK256 ADD PUSH0 SWAP1 SWAP2 SWAP1 SWAP2 SWAP1 SWAP2 POP SSTORE DUP1 DUP1 PUSH1 0x1 ADD SWAP2 POP POP PUSH1 0x34 JUMP JUMPDEST POP JUMP JUMPDEST PUSH0 DUP2 SWAP1 POP SWAP2 SWAP1 POP JUMP JUMPDEST PUSH32 0x4E487B7100000000000000000000000000000000000000000000000000000000 PUSH0 MSTORE PUSH1 0x11 PUSH1 0x4 MSTORE PUSH1 0x24 PUSH0 REVERT JUMPDEST PUSH0 PUSH1 0xC2 DUP3 PUSH1 0x84 JUMP JUMPDEST SWAP2 POP PUSH1 0xCB DUP4 PUSH1 0x84 JUMP JUMPDEST SWAP3 POP DUP3 DUP3 MUL PUSH1 0xD7 DUP2 PUSH1 0x84 JUMP JUMPDEST SWAP2 POP DUP3 DUP3 DIV DUP5 EQ DUP4 ISZERO OR PUSH1 0xEB JUMPI PUSH1 0xEA PUSH1 0x8D JUMP JUMPDEST JUMPDEST POP SWAP3 SWAP2 POP POP JUMP INVALID LOG2 PUSH5 0x6970667358 0x22 SLT KECCAK256 0xF8 ADD BASEFEE MSTORE RETURN 0xDA 0xBF DUP9 0xCF SUB SDIV STATICCALL 0x2D PUSH21 0xBF28D147342336432C141ABF9DAADB28EAD964736F PUSH13 0x63430008160033000000000000 "
				},
				"gasEstimates": {
					"creation": {
						"codeDepositCost": "59200",
						"executionCost": "109",
						"totalCost": "59309"
					},
					"external": {
						"getStringByIndex()": "infinite"
					}
				},
				"methodIdentifiers": {
					"getStringByIndex()": "c64ceb9c"
				}
			},
			"storageLayout": {
				"storage": [
					{
						"astId": 4,
						"contract": "contracts/e-voting scheme/test.sol:a",
						"label": "list",
						"offset": 0,
						"slot": "0",
						"type": "t_array(t_uint256)dyn_storage"
					}
				],
				"types": {
					"t_array(t_uint256)dyn_storage": {
						"base": "t_uint256",
						"encoding": "dynamic_array",
						"label": "uint256[]",
						"numberOfBytes": "32"
					},
					"t_uint256": {
						"encoding": "inplace",
						"label": "uint256",
						"numberOfBytes": "32"
					}
				}
			},
			"userdoc": {
				"kind": "user",
				"methods": {},
				"version": 1
			}
		}
	}
}