{
	"contracts/e-voting scheme/Registration.sol": {
		"Registration": {
			"abi": [
				{
					"inputs": [
						{
							"internalType": "uint8",
							"name": "index",
							"type": "uint8"
						}
					],
					"name": "getMessage",
					"outputs": [
						{
							"components": [
								{
									"internalType": "uint256",
									"name": "x",
									"type": "uint256"
								},
								{
									"internalType": "uint256",
									"name": "y",
									"type": "uint256"
								}
							],
							"internalType": "struct BLS.E1Point",
							"name": "m",
							"type": "tuple"
						},
						{
							"internalType": "string",
							"name": "idInfo",
							"type": "string"
						}
					],
					"stateMutability": "view",
					"type": "function"
				},
				{
					"inputs": [
						{
							"internalType": "uint256",
							"name": "index",
							"type": "uint256"
						}
					],
					"name": "getSig",
					"outputs": [
						{
							"components": [
								{
									"internalType": "uint256",
									"name": "x",
									"type": "uint256"
								},
								{
									"internalType": "uint256",
									"name": "y",
									"type": "uint256"
								}
							],
							"internalType": "struct BLS.E1Point",
							"name": "",
							"type": "tuple"
						}
					],
					"stateMutability": "view",
					"type": "function"
				},
				{
					"inputs": [
						{
							"internalType": "bytes",
							"name": "",
							"type": "bytes"
						}
					],
					"name": "pkList",
					"outputs": [
						{
							"internalType": "bool",
							"name": "",
							"type": "bool"
						}
					],
					"stateMutability": "view",
					"type": "function"
				},
				{
					"inputs": [
						{
							"internalType": "string",
							"name": "pki",
							"type": "string"
						},
						{
							"internalType": "uint256",
							"name": "x",
							"type": "uint256"
						},
						{
							"internalType": "uint256",
							"name": "y",
							"type": "uint256"
						}
					],
					"name": "regist",
					"outputs": [
						{
							"internalType": "bool",
							"name": "",
							"type": "bool"
						}
					],
					"stateMutability": "nonpayable",
					"type": "function"
				},
				{
					"inputs": [
						{
							"internalType": "uint256",
							"name": "x",
							"type": "uint256"
						},
						{
							"internalType": "uint256",
							"name": "y",
							"type": "uint256"
						},
						{
							"internalType": "string",
							"name": "idInfo",
							"type": "string"
						}
					],
					"name": "requestSig",
					"outputs": [
						{
							"internalType": "uint256",
							"name": "",
							"type": "uint256"
						}
					],
					"stateMutability": "nonpayable",
					"type": "function"
				},
				{
					"inputs": [
						{
							"internalType": "uint256",
							"name": "",
							"type": "uint256"
						}
					],
					"name": "signList",
					"outputs": [
						{
							"components": [
								{
									"internalType": "uint256",
									"name": "x",
									"type": "uint256"
								},
								{
									"internalType": "uint256",
									"name": "y",
									"type": "uint256"
								}
							],
							"internalType": "struct BLS.E1Point",
							"name": "sig_CA",
							"type": "tuple"
						},
						{
							"components": [
								{
									"internalType": "uint256",
									"name": "x",
									"type": "uint256"
								},
								{
									"internalType": "uint256",
									"name": "y",
									"type": "uint256"
								}
							],
							"internalType": "struct BLS.E1Point",
							"name": "sig_O",
							"type": "tuple"
						},
						{
							"components": [
								{
									"internalType": "uint256",
									"name": "x",
									"type": "uint256"
								},
								{
									"internalType": "uint256",
									"name": "y",
									"type": "uint256"
								}
							],
							"internalType": "struct BLS.E1Point",
							"name": "sig_C",
							"type": "tuple"
						},
						{
							"internalType": "bool",
							"name": "CA",
							"type": "bool"
						},
						{
							"internalType": "bool",
							"name": "O",
							"type": "bool"
						},
						{
							"internalType": "bool",
							"name": "C",
							"type": "bool"
						}
					],
					"stateMutability": "view",
					"type": "function"
				},
				{
					"inputs": [
						{
							"internalType": "uint256",
							"name": "index",
							"type": "uint256"
						},
						{
							"internalType": "uint256",
							"name": "x",
							"type": "uint256"
						},
						{
							"internalType": "uint256",
							"name": "y",
							"type": "uint256"
						}
					],
					"name": "uploadSig",
					"outputs": [],
					"stateMutability": "nonpayable",
					"type": "function"
				}
			],
			"devdoc": {
				"kind": "dev",
				"methods": {},
				"version": 1
			},
			"evm": {
				"assembly": "    /* \"contracts/e-voting scheme/Registration.sol\":86:2704  contract Registration{... */\n  mstore(0x40, 0x80)\n    /* \"contracts/e-voting scheme/Registration.sol\":454:818  BLS.E2Point(... */\n  mload(0x40)\n  dup1\n  0x40\n  add\n  0x40\n  mstore\n  dup1\n  mload(0x40)\n  dup1\n  0x40\n  add\n  0x40\n  mstore\n  dup1\n    /* \"contracts/e-voting scheme/Registration.sol\":481:558  15516709285352539082439213720585739724329002971882390582209636960597958801449 */\n  0x224e256f32533cdb3d10e255f40c75b971ad71e1974332a145b523cd1fa53829\n    /* \"contracts/e-voting scheme/Registration.sol\":454:818  BLS.E2Point(... */\n  dup2\n  mstore\n  0x20\n  add\n    /* \"contracts/e-voting scheme/Registration.sol\":560:637  19324541677661060388134143597417835654030498723817274130329567224531700170734 */\n  0x2ab94d907ffd43b92d2d59cd2dc9f277b1dce25112266aa19db9c4af76a43fee\n    /* \"contracts/e-voting scheme/Registration.sol\":454:818  BLS.E2Point(... */\n  dup2\n  mstore\n  pop\n  dup2\n  mstore\n  0x20\n  add\n  mload(0x40)\n  dup1\n  0x40\n  add\n  0x40\n  mstore\n  dup1\n    /* \"contracts/e-voting scheme/Registration.sol\":654:731  16550775633156536193089672538964908973667410921848053632462693002610771214528 */\n  0x24976833c58227908501c809826de16eddc884a91369c74647201ad0b1e7c0c0\n    /* \"contracts/e-voting scheme/Registration.sol\":454:818  BLS.E2Point(... */\n  dup2\n  mstore\n  0x20\n  add\n    /* \"contracts/e-voting scheme/Registration.sol\":733:810  10154483139478025296468271477739414260393126999813603835827647034319242387010 */\n  0x16733bd92e16d83797dd6378b9cf1d0d6778d12671a8b50144808fceaad9de42\n    /* \"contracts/e-voting scheme/Registration.sol\":454:818  BLS.E2Point(... */\n  dup2\n  mstore\n  pop\n  dup2\n  mstore\n  pop\n    /* \"contracts/e-voting scheme/Registration.sol\":436:818  BLS.E2Point bpk = BLS.E2Point(... */\n  0x03\n  0x00\n  dup3\n  add\n  mload\n  dup2\n  0x00\n  add\n  swap1\n  0x02\n  tag_1\n  swap3\n  swap2\n  swap1\n  tag_2\n  jump\t// in\ntag_1:\n  pop\n  0x20\n  dup3\n  add\n  mload\n  dup2\n  0x02\n  add\n  swap1\n  0x02\n  tag_3\n  swap3\n  swap2\n  swap1\n  tag_2\n  jump\t// in\ntag_3:\n  pop\n  pop\n  pop\n    /* \"contracts/e-voting scheme/Registration.sol\":86:2704  contract Registration{... */\n  callvalue\n  dup1\n  iszero\n  tag_4\n  jumpi\n  0x00\n  dup1\n  revert\ntag_4:\n  pop\n  jump(tag_5)\ntag_2:\n  dup3\n  0x02\n  dup2\n  add\n  swap3\n  dup3\n  iszero\n  tag_6\n  jumpi\n  swap2\n  0x20\n  mul\n  dup3\n  add\ntag_7:\n  dup3\n  dup2\n  gt\n  iszero\n  tag_8\n  jumpi\n  dup3\n  mload\n  dup3\n  sstore\n  swap2\n  0x20\n  add\n  swap2\n  swap1\n  0x01\n  add\n  swap1\n  jump(tag_7)\ntag_8:\ntag_6:\n  pop\n  swap1\n  pop\n  tag_9\n  swap2\n  swap1\n  tag_10\n  jump\t// in\ntag_9:\n  pop\n  swap1\n  jump\t// out\ntag_10:\ntag_11:\n  dup1\n  dup3\n  gt\n  iszero\n  tag_12\n  jumpi\n  0x00\n  dup2\n  0x00\n  swap1\n  sstore\n  pop\n  0x01\n  add\n  jump(tag_11)\ntag_12:\n  pop\n  swap1\n  jump\t// out\ntag_5:\n  dataSize(sub_0)\n  dup1\n  dataOffset(sub_0)\n  0x00\n  codecopy\n  0x00\n  return\nstop\n\nsub_0: assembly {\n        /* \"contracts/e-voting scheme/Registration.sol\":86:2704  contract Registration{... */\n      mstore(0x40, 0x80)\n      callvalue\n      dup1\n      iszero\n      tag_1\n      jumpi\n      0x00\n      dup1\n      revert\n    tag_1:\n      pop\n      jumpi(tag_2, lt(calldatasize, 0x04))\n      shr(0xe0, calldataload(0x00))\n      dup1\n      0xac98cfe5\n      gt\n      tag_10\n      jumpi\n      dup1\n      0xac98cfe5\n      eq\n      tag_6\n      jumpi\n      dup1\n      0xbc24678c\n      eq\n      tag_7\n      jumpi\n      dup1\n      0xc7058171\n      eq\n      tag_8\n      jumpi\n      dup1\n      0xcbc431c8\n      eq\n      tag_9\n      jumpi\n      jump(tag_2)\n    tag_10:\n      dup1\n      0x23b819f5\n      eq\n      tag_3\n      jumpi\n      dup1\n      0x25b3e077\n      eq\n      tag_4\n      jumpi\n      dup1\n      0x4ea43115\n      eq\n      tag_5\n      jumpi\n    tag_2:\n      0x00\n      dup1\n      revert\n        /* \"contracts/e-voting scheme/Registration.sol\":170:207  mapping (bytes => bool) public pkList */\n    tag_3:\n      tag_11\n      0x04\n      dup1\n      calldatasize\n      sub\n      dup2\n      add\n      swap1\n      tag_12\n      swap2\n      swap1\n      tag_13\n      jump\t// in\n    tag_12:\n      tag_14\n      jump\t// in\n    tag_11:\n      mload(0x40)\n      tag_15\n      swap2\n      swap1\n      tag_16\n      jump\t// in\n    tag_15:\n      mload(0x40)\n      dup1\n      swap2\n      sub\n      swap1\n      return\n        /* \"contracts/e-voting scheme/Registration.sol\":996:1038  mapping (uint256 => signs) public signList */\n    tag_4:\n      tag_17\n      0x04\n      dup1\n      calldatasize\n      sub\n      dup2\n      add\n      swap1\n      tag_18\n      swap2\n      swap1\n      tag_19\n      jump\t// in\n    tag_18:\n      tag_20\n      jump\t// in\n    tag_17:\n      mload(0x40)\n      tag_21\n      swap7\n      swap6\n      swap5\n      swap4\n      swap3\n      swap2\n      swap1\n      tag_22\n      jump\t// in\n    tag_21:\n      mload(0x40)\n      dup1\n      swap2\n      sub\n      swap1\n      return\n        /* \"contracts/e-voting scheme/Registration.sol\":1288:1441  function getMessage(uint8 index) public view returns(BLS.E1Point memory m, string memory idInfo){... */\n    tag_5:\n      tag_23\n      0x04\n      dup1\n      calldatasize\n      sub\n      dup2\n      add\n      swap1\n      tag_24\n      swap2\n      swap1\n      tag_25\n      jump\t// in\n    tag_24:\n      tag_26\n      jump\t// in\n    tag_23:\n      mload(0x40)\n      tag_27\n      swap3\n      swap2\n      swap1\n      tag_28\n      jump\t// in\n    tag_27:\n      mload(0x40)\n      dup1\n      swap2\n      sub\n      swap1\n      return\n        /* \"contracts/e-voting scheme/Registration.sol\":1449:1938  function uploadSig(uint256 index, uint256 x,uint256 y) public{... */\n    tag_6:\n      tag_29\n      0x04\n      dup1\n      calldatasize\n      sub\n      dup2\n      add\n      swap1\n      tag_30\n      swap2\n      swap1\n      tag_31\n      jump\t// in\n    tag_30:\n      tag_32\n      jump\t// in\n    tag_29:\n      stop\n        /* \"contracts/e-voting scheme/Registration.sol\":2348:2701  function regist(string memory pki, uint256 x,uint256 y) public returns (bool){... */\n    tag_7:\n      tag_33\n      0x04\n      dup1\n      calldatasize\n      sub\n      dup2\n      add\n      swap1\n      tag_34\n      swap2\n      swap1\n      tag_35\n      jump\t// in\n    tag_34:\n      tag_36\n      jump\t// in\n    tag_33:\n      mload(0x40)\n      tag_37\n      swap2\n      swap1\n      tag_16\n      jump\t// in\n    tag_37:\n      mload(0x40)\n      dup1\n      swap2\n      sub\n      swap1\n      return\n        /* \"contracts/e-voting scheme/Registration.sol\":1946:2340  function getSig(uint256 index) public view returns (BLS.E1Point memory){... */\n    tag_8:\n      tag_38\n      0x04\n      dup1\n      calldatasize\n      sub\n      dup2\n      add\n      swap1\n      tag_39\n      swap2\n      swap1\n      tag_19\n      jump\t// in\n    tag_39:\n      tag_40\n      jump\t// in\n    tag_38:\n      mload(0x40)\n      tag_41\n      swap2\n      swap1\n      tag_42\n      jump\t// in\n    tag_41:\n      mload(0x40)\n      dup1\n      swap2\n      sub\n      swap1\n      return\n        /* \"contracts/e-voting scheme/Registration.sol\":1047:1280  function requestSig(uint256 x,uint256 y, string memory idInfo) public returns (uint256){... */\n    tag_9:\n      tag_43\n      0x04\n      dup1\n      calldatasize\n      sub\n      dup2\n      add\n      swap1\n      tag_44\n      swap2\n      swap1\n      tag_45\n      jump\t// in\n    tag_44:\n      tag_46\n      jump\t// in\n    tag_43:\n      mload(0x40)\n      tag_47\n      swap2\n      swap1\n      tag_48\n      jump\t// in\n    tag_47:\n      mload(0x40)\n      dup1\n      swap2\n      sub\n      swap1\n      return\n        /* \"contracts/e-voting scheme/Registration.sol\":170:207  mapping (bytes => bool) public pkList */\n    tag_14:\n      0x02\n      dup2\n      dup1\n      mload\n      0x20\n      dup2\n      add\n      dup3\n      add\n      dup1\n      mload\n      dup5\n      dup3\n      mstore\n      0x20\n      dup4\n      add\n      0x20\n      dup6\n      add\n      keccak256\n      dup2\n      dup4\n      mstore\n      dup1\n      swap6\n      pop\n      pop\n      pop\n      pop\n      pop\n      pop\n      0x00\n      swap2\n      pop\n      sload\n      swap1\n      0x0100\n      exp\n      swap1\n      div\n      0xff\n      and\n      dup2\n      jump\t// out\n        /* \"contracts/e-voting scheme/Registration.sol\":996:1038  mapping (uint256 => signs) public signList */\n    tag_20:\n      mstore(0x20, 0x07)\n      dup1\n      0x00\n      mstore\n      keccak256(0x00, 0x40)\n      0x00\n      swap2\n      pop\n      swap1\n      pop\n      dup1\n      0x00\n      add\n      mload(0x40)\n      dup1\n      0x40\n      add\n      0x40\n      mstore\n      swap1\n      dup2\n      0x00\n      dup3\n      add\n      sload\n      dup2\n      mstore\n      0x20\n      add\n      0x01\n      dup3\n      add\n      sload\n      dup2\n      mstore\n      pop\n      pop\n      swap1\n      dup1\n      0x02\n      add\n      mload(0x40)\n      dup1\n      0x40\n      add\n      0x40\n      mstore\n      swap1\n      dup2\n      0x00\n      dup3\n      add\n      sload\n      dup2\n      mstore\n      0x20\n      add\n      0x01\n      dup3\n      add\n      sload\n      dup2\n      mstore\n      pop\n      pop\n      swap1\n      dup1\n      0x04\n      add\n      mload(0x40)\n      dup1\n      0x40\n      add\n      0x40\n      mstore\n      swap1\n      dup2\n      0x00\n      dup3\n      add\n      sload\n      dup2\n      mstore\n      0x20\n      add\n      0x01\n      dup3\n      add\n      sload\n      dup2\n      mstore\n      pop\n      pop\n      swap1\n      dup1\n      0x06\n      add\n      0x00\n      swap1\n      sload\n      swap1\n      0x0100\n      exp\n      swap1\n      div\n      0xff\n      and\n      swap1\n      dup1\n      0x06\n      add\n      0x01\n      swap1\n      sload\n      swap1\n      0x0100\n      exp\n      swap1\n      div\n      0xff\n      and\n      swap1\n      dup1\n      0x06\n      add\n      0x02\n      swap1\n      sload\n      swap1\n      0x0100\n      exp\n      swap1\n      div\n      0xff\n      and\n      swap1\n      pop\n      dup7\n      jump\t// out\n        /* \"contracts/e-voting scheme/Registration.sol\":1288:1441  function getMessage(uint8 index) public view returns(BLS.E1Point memory m, string memory idInfo){... */\n    tag_26:\n        /* \"contracts/e-voting scheme/Registration.sol\":1341:1361  BLS.E1Point memory m */\n      tag_49\n      tag_50\n      jump\t// in\n    tag_49:\n        /* \"contracts/e-voting scheme/Registration.sol\":1363:1383  string memory idInfo */\n      0x60\n        /* \"contracts/e-voting scheme/Registration.sol\":1403:1408  mList */\n      0x00\n        /* \"contracts/e-voting scheme/Registration.sol\":1409:1414  index */\n      dup4\n        /* \"contracts/e-voting scheme/Registration.sol\":1403:1415  mList[index] */\n      0xff\n      and\n      dup2\n      sload\n      dup2\n      lt\n      tag_52\n      jumpi\n      tag_53\n      tag_54\n      jump\t// in\n    tag_53:\n    tag_52:\n      swap1\n      0x00\n      mstore\n      keccak256(0x00, 0x20)\n      swap1\n      0x02\n      mul\n      add\n        /* \"contracts/e-voting scheme/Registration.sol\":1417:1425  infoList */\n      0x01\n        /* \"contracts/e-voting scheme/Registration.sol\":1426:1431  index */\n      dup5\n        /* \"contracts/e-voting scheme/Registration.sol\":1417:1432  infoList[index] */\n      0xff\n      and\n      dup2\n      sload\n      dup2\n      lt\n      tag_56\n      jumpi\n      tag_57\n      tag_54\n      jump\t// in\n    tag_57:\n    tag_56:\n      swap1\n      0x00\n      mstore\n      keccak256(0x00, 0x20)\n      add\n        /* \"contracts/e-voting scheme/Registration.sol\":1395:1433  return (mList[index], infoList[index]) */\n      dup2\n      mload(0x40)\n      dup1\n      0x40\n      add\n      0x40\n      mstore\n      swap1\n      dup2\n      0x00\n      dup3\n      add\n      sload\n      dup2\n      mstore\n      0x20\n      add\n      0x01\n      dup3\n      add\n      sload\n      dup2\n      mstore\n      pop\n      pop\n      swap2\n      pop\n      dup1\n      dup1\n      sload\n      tag_59\n      swap1\n      tag_60\n      jump\t// in\n    tag_59:\n      dup1\n      0x1f\n      add\n      0x20\n      dup1\n      swap2\n      div\n      mul\n      0x20\n      add\n      mload(0x40)\n      swap1\n      dup2\n      add\n      0x40\n      mstore\n      dup1\n      swap3\n      swap2\n      swap1\n      dup2\n      dup2\n      mstore\n      0x20\n      add\n      dup3\n      dup1\n      sload\n      tag_61\n      swap1\n      tag_60\n      jump\t// in\n    tag_61:\n      dup1\n      iszero\n      tag_62\n      jumpi\n      dup1\n      0x1f\n      lt\n      tag_63\n      jumpi\n      0x0100\n      dup1\n      dup4\n      sload\n      div\n      mul\n      dup4\n      mstore\n      swap2\n      0x20\n      add\n      swap2\n      jump(tag_62)\n    tag_63:\n      dup3\n      add\n      swap2\n      swap1\n      0x00\n      mstore\n      keccak256(0x00, 0x20)\n      swap1\n    tag_64:\n      dup2\n      sload\n      dup2\n      mstore\n      swap1\n      0x01\n      add\n      swap1\n      0x20\n      add\n      dup1\n      dup4\n      gt\n      tag_64\n      jumpi\n      dup3\n      swap1\n      sub\n      0x1f\n      and\n      dup3\n      add\n      swap2\n    tag_62:\n      pop\n      pop\n      pop\n      pop\n      pop\n      swap1\n      pop\n      swap2\n      pop\n      swap2\n      pop\n        /* \"contracts/e-voting scheme/Registration.sol\":1288:1441  function getMessage(uint8 index) public view returns(BLS.E1Point memory m, string memory idInfo){... */\n      swap2\n      pop\n      swap2\n      jump\t// out\n        /* \"contracts/e-voting scheme/Registration.sol\":1449:1938  function uploadSig(uint256 index, uint256 x,uint256 y) public{... */\n    tag_32:\n        /* \"contracts/e-voting scheme/Registration.sol\":1521:1544  BLS.E1Point memory sign */\n      0x00\n        /* \"contracts/e-voting scheme/Registration.sol\":1547:1563  BLS.E1Point(x,y) */\n      mload(0x40)\n      dup1\n      0x40\n      add\n      0x40\n      mstore\n      dup1\n        /* \"contracts/e-voting scheme/Registration.sol\":1559:1560  x */\n      dup5\n        /* \"contracts/e-voting scheme/Registration.sol\":1547:1563  BLS.E1Point(x,y) */\n      dup2\n      mstore\n      0x20\n      add\n        /* \"contracts/e-voting scheme/Registration.sol\":1561:1562  y */\n      dup4\n        /* \"contracts/e-voting scheme/Registration.sol\":1547:1563  BLS.E1Point(x,y) */\n      dup2\n      mstore\n      pop\n        /* \"contracts/e-voting scheme/Registration.sol\":1521:1563  BLS.E1Point memory sign = BLS.E1Point(x,y) */\n      swap1\n      pop\n        /* \"contracts/e-voting scheme/Registration.sol\":243:285  0xAb8483F64d9C6d1EcF9b849Ae677dD3315835cb2 */\n      0xab8483f64d9c6d1ecf9b849ae677dd3315835cb2\n        /* \"contracts/e-voting scheme/Registration.sol\":1577:1591  msg.sender==CA */\n      0xffffffffffffffffffffffffffffffffffffffff\n      and\n        /* \"contracts/e-voting scheme/Registration.sol\":1577:1587  msg.sender */\n      caller\n        /* \"contracts/e-voting scheme/Registration.sol\":1577:1591  msg.sender==CA */\n      0xffffffffffffffffffffffffffffffffffffffff\n      and\n      sub\n        /* \"contracts/e-voting scheme/Registration.sol\":1574:1931  if(msg.sender==CA){... */\n      tag_66\n      jumpi\n        /* \"contracts/e-voting scheme/Registration.sol\":1630:1634  sign */\n      dup1\n        /* \"contracts/e-voting scheme/Registration.sol\":1607:1615  signList */\n      0x07\n        /* \"contracts/e-voting scheme/Registration.sol\":1607:1622  signList[index] */\n      0x00\n        /* \"contracts/e-voting scheme/Registration.sol\":1616:1621  index */\n      dup7\n        /* \"contracts/e-voting scheme/Registration.sol\":1607:1622  signList[index] */\n      dup2\n      mstore\n      0x20\n      add\n      swap1\n      dup2\n      mstore\n      0x20\n      add\n      0x00\n      keccak256\n        /* \"contracts/e-voting scheme/Registration.sol\":1607:1629  signList[index].sig_CA */\n      0x00\n      add\n        /* \"contracts/e-voting scheme/Registration.sol\":1607:1634  signList[index].sig_CA=sign */\n      0x00\n      dup3\n      add\n      mload\n      dup2\n      0x00\n      add\n      sstore\n      0x20\n      dup3\n      add\n      mload\n      dup2\n      0x01\n      add\n      sstore\n      swap1\n      pop\n      pop\n        /* \"contracts/e-voting scheme/Registration.sol\":1669:1673  true */\n      0x01\n        /* \"contracts/e-voting scheme/Registration.sol\":1649:1673  signList[index].CA==true */\n      iszero\n      iszero\n        /* \"contracts/e-voting scheme/Registration.sol\":1649:1657  signList */\n      0x07\n        /* \"contracts/e-voting scheme/Registration.sol\":1649:1664  signList[index] */\n      0x00\n        /* \"contracts/e-voting scheme/Registration.sol\":1658:1663  index */\n      dup7\n        /* \"contracts/e-voting scheme/Registration.sol\":1649:1664  signList[index] */\n      dup2\n      mstore\n      0x20\n      add\n      swap1\n      dup2\n      mstore\n      0x20\n      add\n      0x00\n      keccak256\n        /* \"contracts/e-voting scheme/Registration.sol\":1649:1667  signList[index].CA */\n      0x06\n      add\n      0x00\n      swap1\n      sload\n      swap1\n      0x0100\n      exp\n      swap1\n      pop\n      pop\n        /* \"contracts/e-voting scheme/Registration.sol\":1649:1673  signList[index].CA==true */\n      pop\n        /* \"contracts/e-voting scheme/Registration.sol\":1574:1931  if(msg.sender==CA){... */\n      jump(tag_67)\n    tag_66:\n        /* \"contracts/e-voting scheme/Registration.sol\":313:355  0x4B20993Bc481177ec7E8f571ceCaE8A9e22C02db */\n      0x4b20993bc481177ec7e8f571cecae8a9e22c02db\n        /* \"contracts/e-voting scheme/Registration.sol\":1703:1716  msg.sender==O */\n      0xffffffffffffffffffffffffffffffffffffffff\n      and\n        /* \"contracts/e-voting scheme/Registration.sol\":1703:1713  msg.sender */\n      caller\n        /* \"contracts/e-voting scheme/Registration.sol\":1703:1716  msg.sender==O */\n      0xffffffffffffffffffffffffffffffffffffffff\n      and\n      sub\n        /* \"contracts/e-voting scheme/Registration.sol\":1700:1931  if(msg.sender==O){... */\n      tag_68\n      jumpi\n        /* \"contracts/e-voting scheme/Registration.sol\":1754:1758  sign */\n      dup1\n        /* \"contracts/e-voting scheme/Registration.sol\":1732:1740  signList */\n      0x07\n        /* \"contracts/e-voting scheme/Registration.sol\":1732:1747  signList[index] */\n      0x00\n        /* \"contracts/e-voting scheme/Registration.sol\":1741:1746  index */\n      dup7\n        /* \"contracts/e-voting scheme/Registration.sol\":1732:1747  signList[index] */\n      dup2\n      mstore\n      0x20\n      add\n      swap1\n      dup2\n      mstore\n      0x20\n      add\n      0x00\n      keccak256\n        /* \"contracts/e-voting scheme/Registration.sol\":1732:1753  signList[index].sig_O */\n      0x02\n      add\n        /* \"contracts/e-voting scheme/Registration.sol\":1732:1758  signList[index].sig_O=sign */\n      0x00\n      dup3\n      add\n      mload\n      dup2\n      0x00\n      add\n      sstore\n      0x20\n      dup3\n      add\n      mload\n      dup2\n      0x01\n      add\n      sstore\n      swap1\n      pop\n      pop\n        /* \"contracts/e-voting scheme/Registration.sol\":1792:1796  true */\n      0x01\n        /* \"contracts/e-voting scheme/Registration.sol\":1773:1796  signList[index].O==true */\n      iszero\n      iszero\n        /* \"contracts/e-voting scheme/Registration.sol\":1773:1781  signList */\n      0x07\n        /* \"contracts/e-voting scheme/Registration.sol\":1773:1788  signList[index] */\n      0x00\n        /* \"contracts/e-voting scheme/Registration.sol\":1782:1787  index */\n      dup7\n        /* \"contracts/e-voting scheme/Registration.sol\":1773:1788  signList[index] */\n      dup2\n      mstore\n      0x20\n      add\n      swap1\n      dup2\n      mstore\n      0x20\n      add\n      0x00\n      keccak256\n        /* \"contracts/e-voting scheme/Registration.sol\":1773:1790  signList[index].O */\n      0x06\n      add\n      0x01\n      swap1\n      sload\n      swap1\n      0x0100\n      exp\n      swap1\n      pop\n      pop\n        /* \"contracts/e-voting scheme/Registration.sol\":1773:1796  signList[index].O==true */\n      pop\n        /* \"contracts/e-voting scheme/Registration.sol\":1700:1931  if(msg.sender==O){... */\n      jump(tag_69)\n    tag_68:\n        /* \"contracts/e-voting scheme/Registration.sol\":383:425  0x78731D3Ca6b7E34aC0F824c42a7cC18A495cabaB */\n      0x78731d3ca6b7e34ac0f824c42a7cc18a495cabab\n        /* \"contracts/e-voting scheme/Registration.sol\":1826:1839  msg.sender==C */\n      0xffffffffffffffffffffffffffffffffffffffff\n      and\n        /* \"contracts/e-voting scheme/Registration.sol\":1826:1836  msg.sender */\n      caller\n        /* \"contracts/e-voting scheme/Registration.sol\":1826:1839  msg.sender==C */\n      0xffffffffffffffffffffffffffffffffffffffff\n      and\n      sub\n        /* \"contracts/e-voting scheme/Registration.sol\":1823:1931  if(msg.sender==C){... */\n      tag_70\n      jumpi\n        /* \"contracts/e-voting scheme/Registration.sol\":1877:1881  sign */\n      dup1\n        /* \"contracts/e-voting scheme/Registration.sol\":1855:1863  signList */\n      0x07\n        /* \"contracts/e-voting scheme/Registration.sol\":1855:1870  signList[index] */\n      0x00\n        /* \"contracts/e-voting scheme/Registration.sol\":1864:1869  index */\n      dup7\n        /* \"contracts/e-voting scheme/Registration.sol\":1855:1870  signList[index] */\n      dup2\n      mstore\n      0x20\n      add\n      swap1\n      dup2\n      mstore\n      0x20\n      add\n      0x00\n      keccak256\n        /* \"contracts/e-voting scheme/Registration.sol\":1855:1876  signList[index].sig_C */\n      0x04\n      add\n        /* \"contracts/e-voting scheme/Registration.sol\":1855:1881  signList[index].sig_C=sign */\n      0x00\n      dup3\n      add\n      mload\n      dup2\n      0x00\n      add\n      sstore\n      0x20\n      dup3\n      add\n      mload\n      dup2\n      0x01\n      add\n      sstore\n      swap1\n      pop\n      pop\n        /* \"contracts/e-voting scheme/Registration.sol\":1915:1919  true */\n      0x01\n        /* \"contracts/e-voting scheme/Registration.sol\":1896:1919  signList[index].C==true */\n      iszero\n      iszero\n        /* \"contracts/e-voting scheme/Registration.sol\":1896:1904  signList */\n      0x07\n        /* \"contracts/e-voting scheme/Registration.sol\":1896:1911  signList[index] */\n      0x00\n        /* \"contracts/e-voting scheme/Registration.sol\":1905:1910  index */\n      dup7\n        /* \"contracts/e-voting scheme/Registration.sol\":1896:1911  signList[index] */\n      dup2\n      mstore\n      0x20\n      add\n      swap1\n      dup2\n      mstore\n      0x20\n      add\n      0x00\n      keccak256\n        /* \"contracts/e-voting scheme/Registration.sol\":1896:1913  signList[index].C */\n      0x06\n      add\n      0x02\n      swap1\n      sload\n      swap1\n      0x0100\n      exp\n      swap1\n      pop\n      pop\n        /* \"contracts/e-voting scheme/Registration.sol\":1896:1919  signList[index].C==true */\n      pop\n        /* \"contracts/e-voting scheme/Registration.sol\":1823:1931  if(msg.sender==C){... */\n    tag_70:\n        /* \"contracts/e-voting scheme/Registration.sol\":1700:1931  if(msg.sender==O){... */\n    tag_69:\n        /* \"contracts/e-voting scheme/Registration.sol\":1574:1931  if(msg.sender==CA){... */\n    tag_67:\n        /* \"contracts/e-voting scheme/Registration.sol\":1510:1938  {... */\n      pop\n        /* \"contracts/e-voting scheme/Registration.sol\":1449:1938  function uploadSig(uint256 index, uint256 x,uint256 y) public{... */\n      pop\n      pop\n      pop\n      jump\t// out\n        /* \"contracts/e-voting scheme/Registration.sol\":2348:2701  function regist(string memory pki, uint256 x,uint256 y) public returns (bool){... */\n    tag_36:\n        /* \"contracts/e-voting scheme/Registration.sol\":2420:2424  bool */\n      0x00\n        /* \"contracts/e-voting scheme/Registration.sol\":2436:2451  bytes memory pk */\n      dup1\n        /* \"contracts/e-voting scheme/Registration.sol\":2460:2463  pki */\n      dup5\n        /* \"contracts/e-voting scheme/Registration.sol\":2436:2464  bytes memory pk = bytes(pki) */\n      swap1\n      pop\n        /* \"contracts/e-voting scheme/Registration.sol\":2475:2497  BLS.E1Point memory sig */\n      0x00\n        /* \"contracts/e-voting scheme/Registration.sol\":2500:2516  BLS.E1Point(x,y) */\n      mload(0x40)\n      dup1\n      0x40\n      add\n      0x40\n      mstore\n      dup1\n        /* \"contracts/e-voting scheme/Registration.sol\":2512:2513  x */\n      dup7\n        /* \"contracts/e-voting scheme/Registration.sol\":2500:2516  BLS.E1Point(x,y) */\n      dup2\n      mstore\n      0x20\n      add\n        /* \"contracts/e-voting scheme/Registration.sol\":2514:2515  y */\n      dup6\n        /* \"contracts/e-voting scheme/Registration.sol\":2500:2516  BLS.E1Point(x,y) */\n      dup2\n      mstore\n      pop\n        /* \"contracts/e-voting scheme/Registration.sol\":2475:2516  BLS.E1Point memory sig = BLS.E1Point(x,y) */\n      swap1\n      pop\n        /* \"contracts/e-voting scheme/Registration.sol\":2527:2541  bool check_sig */\n      0x00\n        /* \"contracts/e-voting scheme/Registration.sol\":2544:2566  BLS.verify(bpk,pk,sig) */\n      tag_72\n        /* \"contracts/e-voting scheme/Registration.sol\":2555:2558  bpk */\n      0x03\n        /* \"contracts/e-voting scheme/Registration.sol\":2544:2566  BLS.verify(bpk,pk,sig) */\n      mload(0x40)\n      dup1\n      0x40\n      add\n      0x40\n      mstore\n      swap1\n      dup2\n      0x00\n      dup3\n      add\n      0x02\n      dup1\n      0x20\n      mul\n      mload(0x40)\n      swap1\n      dup2\n      add\n      0x40\n      mstore\n      dup1\n      swap3\n      swap2\n      swap1\n      dup3\n      0x02\n      dup1\n      iszero\n      tag_73\n      jumpi\n      0x20\n      mul\n      dup3\n      add\n      swap2\n    tag_74:\n      dup2\n      sload\n      dup2\n      mstore\n      0x20\n      add\n      swap1\n      0x01\n      add\n      swap1\n      dup1\n      dup4\n      gt\n      tag_74\n      jumpi\n    tag_73:\n      pop\n      pop\n      pop\n      pop\n      pop\n      dup2\n      mstore\n      0x20\n      add\n      0x02\n      dup3\n      add\n      0x02\n      dup1\n      0x20\n      mul\n      mload(0x40)\n      swap1\n      dup2\n      add\n      0x40\n      mstore\n      dup1\n      swap3\n      swap2\n      swap1\n      dup3\n      0x02\n      dup1\n      iszero\n      tag_75\n      jumpi\n      0x20\n      mul\n      dup3\n      add\n      swap2\n    tag_76:\n      dup2\n      sload\n      dup2\n      mstore\n      0x20\n      add\n      swap1\n      0x01\n      add\n      swap1\n      dup1\n      dup4\n      gt\n      tag_76\n      jumpi\n    tag_75:\n      pop\n      pop\n      pop\n      pop\n      pop\n      dup2\n      mstore\n      pop\n      pop\n        /* \"contracts/e-voting scheme/Registration.sol\":2559:2561  pk */\n      dup5\n        /* \"contracts/e-voting scheme/Registration.sol\":2562:2565  sig */\n      dup5\n        /* \"contracts/e-voting scheme/Registration.sol\":2544:2554  BLS.verify */\n      tag_77\n        /* \"contracts/e-voting scheme/Registration.sol\":2544:2566  BLS.verify(bpk,pk,sig) */\n      jump\t// in\n    tag_72:\n        /* \"contracts/e-voting scheme/Registration.sol\":2527:2566  bool check_sig = BLS.verify(bpk,pk,sig) */\n      swap1\n      pop\n        /* \"contracts/e-voting scheme/Registration.sol\":2580:2589  check_sig */\n      dup1\n        /* \"contracts/e-voting scheme/Registration.sol\":2580:2602  check_sig&&!pkList[pk] */\n      dup1\n      iszero\n      tag_78\n      jumpi\n      pop\n        /* \"contracts/e-voting scheme/Registration.sol\":2592:2598  pkList */\n      0x02\n        /* \"contracts/e-voting scheme/Registration.sol\":2599:2601  pk */\n      dup4\n        /* \"contracts/e-voting scheme/Registration.sol\":2592:2602  pkList[pk] */\n      mload(0x40)\n      tag_79\n      swap2\n      swap1\n      tag_80\n      jump\t// in\n    tag_79:\n      swap1\n      dup2\n      mstore\n      0x20\n      add\n      mload(0x40)\n      dup1\n      swap2\n      sub\n      swap1\n      keccak256\n      0x00\n      swap1\n      sload\n      swap1\n      0x0100\n      exp\n      swap1\n      div\n      0xff\n      and\n        /* \"contracts/e-voting scheme/Registration.sol\":2591:2602  !pkList[pk] */\n      iszero\n        /* \"contracts/e-voting scheme/Registration.sol\":2580:2602  check_sig&&!pkList[pk] */\n    tag_78:\n        /* \"contracts/e-voting scheme/Registration.sol\":2577:2671  if(check_sig&&!pkList[pk]){... */\n      iszero\n      tag_81\n      jumpi\n        /* \"contracts/e-voting scheme/Registration.sol\":2629:2633  true */\n      0x01\n        /* \"contracts/e-voting scheme/Registration.sol\":2618:2624  pkList */\n      0x02\n        /* \"contracts/e-voting scheme/Registration.sol\":2625:2627  pk */\n      dup5\n        /* \"contracts/e-voting scheme/Registration.sol\":2618:2628  pkList[pk] */\n      mload(0x40)\n      tag_82\n      swap2\n      swap1\n      tag_80\n      jump\t// in\n    tag_82:\n      swap1\n      dup2\n      mstore\n      0x20\n      add\n      mload(0x40)\n      dup1\n      swap2\n      sub\n      swap1\n      keccak256\n      0x00\n        /* \"contracts/e-voting scheme/Registration.sol\":2618:2633  pkList[pk]=true */\n      0x0100\n      exp\n      dup2\n      sload\n      dup2\n      0xff\n      mul\n      not\n      and\n      swap1\n      dup4\n      iszero\n      iszero\n      mul\n      or\n      swap1\n      sstore\n      pop\n        /* \"contracts/e-voting scheme/Registration.sol\":2655:2659  true */\n      0x01\n        /* \"contracts/e-voting scheme/Registration.sol\":2648:2659  return true */\n      swap4\n      pop\n      pop\n      pop\n      pop\n      jump(tag_71)\n        /* \"contracts/e-voting scheme/Registration.sol\":2577:2671  if(check_sig&&!pkList[pk]){... */\n    tag_81:\n        /* \"contracts/e-voting scheme/Registration.sol\":2688:2693  false */\n      0x00\n        /* \"contracts/e-voting scheme/Registration.sol\":2681:2693  return false */\n      swap4\n      pop\n      pop\n      pop\n      pop\n        /* \"contracts/e-voting scheme/Registration.sol\":2348:2701  function regist(string memory pki, uint256 x,uint256 y) public returns (bool){... */\n    tag_71:\n      swap4\n      swap3\n      pop\n      pop\n      pop\n      jump\t// out\n        /* \"contracts/e-voting scheme/Registration.sol\":1946:2340  function getSig(uint256 index) public view returns (BLS.E1Point memory){... */\n    tag_40:\n        /* \"contracts/e-voting scheme/Registration.sol\":1998:2016  BLS.E1Point memory */\n      tag_83\n      tag_50\n      jump\t// in\n    tag_83:\n        /* \"contracts/e-voting scheme/Registration.sol\":2051:2055  true */\n      0x01\n        /* \"contracts/e-voting scheme/Registration.sol\":2031:2055  signList[index].CA==true */\n      iszero\n      iszero\n        /* \"contracts/e-voting scheme/Registration.sol\":2031:2039  signList */\n      0x07\n        /* \"contracts/e-voting scheme/Registration.sol\":2031:2046  signList[index] */\n      0x00\n        /* \"contracts/e-voting scheme/Registration.sol\":2040:2045  index */\n      dup5\n        /* \"contracts/e-voting scheme/Registration.sol\":2031:2046  signList[index] */\n      dup2\n      mstore\n      0x20\n      add\n      swap1\n      dup2\n      mstore\n      0x20\n      add\n      0x00\n      keccak256\n        /* \"contracts/e-voting scheme/Registration.sol\":2031:2049  signList[index].CA */\n      0x06\n      add\n      0x00\n      swap1\n      sload\n      swap1\n      0x0100\n      exp\n      swap1\n      div\n      0xff\n      and\n        /* \"contracts/e-voting scheme/Registration.sol\":2031:2055  signList[index].CA==true */\n      iszero\n      iszero\n      eq\n        /* \"contracts/e-voting scheme/Registration.sol\":2031:2080  signList[index].CA==true&&signList[index].C==true */\n      dup1\n      iszero\n      tag_85\n      jumpi\n      pop\n        /* \"contracts/e-voting scheme/Registration.sol\":2076:2080  true */\n      0x01\n        /* \"contracts/e-voting scheme/Registration.sol\":2057:2080  signList[index].C==true */\n      iszero\n      iszero\n        /* \"contracts/e-voting scheme/Registration.sol\":2057:2065  signList */\n      0x07\n        /* \"contracts/e-voting scheme/Registration.sol\":2057:2072  signList[index] */\n      0x00\n        /* \"contracts/e-voting scheme/Registration.sol\":2066:2071  index */\n      dup5\n        /* \"contracts/e-voting scheme/Registration.sol\":2057:2072  signList[index] */\n      dup2\n      mstore\n      0x20\n      add\n      swap1\n      dup2\n      mstore\n      0x20\n      add\n      0x00\n      keccak256\n        /* \"contracts/e-voting scheme/Registration.sol\":2057:2074  signList[index].C */\n      0x06\n      add\n      0x02\n      swap1\n      sload\n      swap1\n      0x0100\n      exp\n      swap1\n      div\n      0xff\n      and\n        /* \"contracts/e-voting scheme/Registration.sol\":2057:2080  signList[index].C==true */\n      iszero\n      iszero\n      eq\n        /* \"contracts/e-voting scheme/Registration.sol\":2031:2080  signList[index].CA==true&&signList[index].C==true */\n    tag_85:\n        /* \"contracts/e-voting scheme/Registration.sol\":2031:2105  signList[index].CA==true&&signList[index].C==true&&signList[index].O==true */\n      dup1\n      iszero\n      tag_86\n      jumpi\n      pop\n        /* \"contracts/e-voting scheme/Registration.sol\":2101:2105  true */\n      0x01\n        /* \"contracts/e-voting scheme/Registration.sol\":2082:2105  signList[index].O==true */\n      iszero\n      iszero\n        /* \"contracts/e-voting scheme/Registration.sol\":2082:2090  signList */\n      0x07\n        /* \"contracts/e-voting scheme/Registration.sol\":2082:2097  signList[index] */\n      0x00\n        /* \"contracts/e-voting scheme/Registration.sol\":2091:2096  index */\n      dup5\n        /* \"contracts/e-voting scheme/Registration.sol\":2082:2097  signList[index] */\n      dup2\n      mstore\n      0x20\n      add\n      swap1\n      dup2\n      mstore\n      0x20\n      add\n      0x00\n      keccak256\n        /* \"contracts/e-voting scheme/Registration.sol\":2082:2099  signList[index].O */\n      0x06\n      add\n      0x01\n      swap1\n      sload\n      swap1\n      0x0100\n      exp\n      swap1\n      div\n      0xff\n      and\n        /* \"contracts/e-voting scheme/Registration.sol\":2082:2105  signList[index].O==true */\n      iszero\n      iszero\n      eq\n        /* \"contracts/e-voting scheme/Registration.sol\":2031:2105  signList[index].CA==true&&signList[index].C==true&&signList[index].O==true */\n    tag_86:\n        /* \"contracts/e-voting scheme/Registration.sol\":2028:2281  if(signList[index].CA==true&&signList[index].C==true&&signList[index].O==true){... */\n      iszero\n      tag_87\n      jumpi\n        /* \"contracts/e-voting scheme/Registration.sol\":2121:2143  BLS.E1Point memory tmp */\n      0x00\n        /* \"contracts/e-voting scheme/Registration.sol\":2146:2206  BLS.addCurveE1(signList[index].sig_CA,signList[index].sig_O) */\n      tag_88\n        /* \"contracts/e-voting scheme/Registration.sol\":2161:2169  signList */\n      0x07\n        /* \"contracts/e-voting scheme/Registration.sol\":2161:2176  signList[index] */\n      0x00\n        /* \"contracts/e-voting scheme/Registration.sol\":2170:2175  index */\n      dup6\n        /* \"contracts/e-voting scheme/Registration.sol\":2161:2176  signList[index] */\n      dup2\n      mstore\n      0x20\n      add\n      swap1\n      dup2\n      mstore\n      0x20\n      add\n      0x00\n      keccak256\n        /* \"contracts/e-voting scheme/Registration.sol\":2161:2183  signList[index].sig_CA */\n      0x00\n      add\n        /* \"contracts/e-voting scheme/Registration.sol\":2146:2206  BLS.addCurveE1(signList[index].sig_CA,signList[index].sig_O) */\n      mload(0x40)\n      dup1\n      0x40\n      add\n      0x40\n      mstore\n      swap1\n      dup2\n      0x00\n      dup3\n      add\n      sload\n      dup2\n      mstore\n      0x20\n      add\n      0x01\n      dup3\n      add\n      sload\n      dup2\n      mstore\n      pop\n      pop\n        /* \"contracts/e-voting scheme/Registration.sol\":2184:2192  signList */\n      0x07\n        /* \"contracts/e-voting scheme/Registration.sol\":2184:2199  signList[index] */\n      0x00\n        /* \"contracts/e-voting scheme/Registration.sol\":2193:2198  index */\n      dup7\n        /* \"contracts/e-voting scheme/Registration.sol\":2184:2199  signList[index] */\n      dup2\n      mstore\n      0x20\n      add\n      swap1\n      dup2\n      mstore\n      0x20\n      add\n      0x00\n      keccak256\n        /* \"contracts/e-voting scheme/Registration.sol\":2184:2205  signList[index].sig_O */\n      0x02\n      add\n        /* \"contracts/e-voting scheme/Registration.sol\":2146:2206  BLS.addCurveE1(signList[index].sig_CA,signList[index].sig_O) */\n      mload(0x40)\n      dup1\n      0x40\n      add\n      0x40\n      mstore\n      swap1\n      dup2\n      0x00\n      dup3\n      add\n      sload\n      dup2\n      mstore\n      0x20\n      add\n      0x01\n      dup3\n      add\n      sload\n      dup2\n      mstore\n      pop\n      pop\n        /* \"contracts/e-voting scheme/Registration.sol\":2146:2160  BLS.addCurveE1 */\n      tag_89\n        /* \"contracts/e-voting scheme/Registration.sol\":2146:2206  BLS.addCurveE1(signList[index].sig_CA,signList[index].sig_O) */\n      jump\t// in\n    tag_88:\n        /* \"contracts/e-voting scheme/Registration.sol\":2121:2206  BLS.E1Point memory tmp = BLS.addCurveE1(signList[index].sig_CA,signList[index].sig_O) */\n      swap1\n      pop\n        /* \"contracts/e-voting scheme/Registration.sol\":2228:2269  BLS.addCurveE1(tmp,signList[index].sig_C) */\n      tag_90\n        /* \"contracts/e-voting scheme/Registration.sol\":2243:2246  tmp */\n      dup2\n        /* \"contracts/e-voting scheme/Registration.sol\":2247:2255  signList */\n      0x07\n        /* \"contracts/e-voting scheme/Registration.sol\":2247:2262  signList[index] */\n      0x00\n        /* \"contracts/e-voting scheme/Registration.sol\":2256:2261  index */\n      dup7\n        /* \"contracts/e-voting scheme/Registration.sol\":2247:2262  signList[index] */\n      dup2\n      mstore\n      0x20\n      add\n      swap1\n      dup2\n      mstore\n      0x20\n      add\n      0x00\n      keccak256\n        /* \"contracts/e-voting scheme/Registration.sol\":2247:2268  signList[index].sig_C */\n      0x04\n      add\n        /* \"contracts/e-voting scheme/Registration.sol\":2228:2269  BLS.addCurveE1(tmp,signList[index].sig_C) */\n      mload(0x40)\n      dup1\n      0x40\n      add\n      0x40\n      mstore\n      swap1\n      dup2\n      0x00\n      dup3\n      add\n      sload\n      dup2\n      mstore\n      0x20\n      add\n      0x01\n      dup3\n      add\n      sload\n      dup2\n      mstore\n      pop\n      pop\n        /* \"contracts/e-voting scheme/Registration.sol\":2228:2242  BLS.addCurveE1 */\n      tag_89\n        /* \"contracts/e-voting scheme/Registration.sol\":2228:2269  BLS.addCurveE1(tmp,signList[index].sig_C) */\n      jump\t// in\n    tag_90:\n        /* \"contracts/e-voting scheme/Registration.sol\":2221:2269  return BLS.addCurveE1(tmp,signList[index].sig_C) */\n      swap2\n      pop\n      pop\n      jump(tag_84)\n        /* \"contracts/e-voting scheme/Registration.sol\":2028:2281  if(signList[index].CA==true&&signList[index].C==true&&signList[index].O==true){... */\n    tag_87:\n        /* \"contracts/e-voting scheme/Registration.sol\":2298:2332  BLS.E1Point(uint256(0),uint256(0)) */\n      mload(0x40)\n      dup1\n      0x40\n      add\n      0x40\n      mstore\n      dup1\n        /* \"contracts/e-voting scheme/Registration.sol\":2318:2319  0 */\n      0x00\n        /* \"contracts/e-voting scheme/Registration.sol\":2298:2332  BLS.E1Point(uint256(0),uint256(0)) */\n      dup2\n      mstore\n      0x20\n      add\n        /* \"contracts/e-voting scheme/Registration.sol\":2329:2330  0 */\n      0x00\n        /* \"contracts/e-voting scheme/Registration.sol\":2298:2332  BLS.E1Point(uint256(0),uint256(0)) */\n      dup2\n      mstore\n      pop\n        /* \"contracts/e-voting scheme/Registration.sol\":2291:2332  return BLS.E1Point(uint256(0),uint256(0)) */\n      swap1\n      pop\n        /* \"contracts/e-voting scheme/Registration.sol\":1946:2340  function getSig(uint256 index) public view returns (BLS.E1Point memory){... */\n    tag_84:\n      swap2\n      swap1\n      pop\n      jump\t// out\n        /* \"contracts/e-voting scheme/Registration.sol\":1047:1280  function requestSig(uint256 x,uint256 y, string memory idInfo) public returns (uint256){... */\n    tag_46:\n        /* \"contracts/e-voting scheme/Registration.sol\":1126:1133  uint256 */\n      0x00\n        /* \"contracts/e-voting scheme/Registration.sol\":1145:1165  BLS.E1Point memory m */\n      dup1\n        /* \"contracts/e-voting scheme/Registration.sol\":1168:1184  BLS.E1Point(x,y) */\n      mload(0x40)\n      dup1\n      0x40\n      add\n      0x40\n      mstore\n      dup1\n        /* \"contracts/e-voting scheme/Registration.sol\":1180:1181  x */\n      dup7\n        /* \"contracts/e-voting scheme/Registration.sol\":1168:1184  BLS.E1Point(x,y) */\n      dup2\n      mstore\n      0x20\n      add\n        /* \"contracts/e-voting scheme/Registration.sol\":1182:1183  y */\n      dup6\n        /* \"contracts/e-voting scheme/Registration.sol\":1168:1184  BLS.E1Point(x,y) */\n      dup2\n      mstore\n      pop\n        /* \"contracts/e-voting scheme/Registration.sol\":1145:1184  BLS.E1Point memory m = BLS.E1Point(x,y) */\n      swap1\n      pop\n        /* \"contracts/e-voting scheme/Registration.sol\":1195:1200  mList */\n      0x00\n        /* \"contracts/e-voting scheme/Registration.sol\":1206:1207  m */\n      dup2\n        /* \"contracts/e-voting scheme/Registration.sol\":1195:1208  mList.push(m) */\n      swap1\n      dup1\n      0x01\n      dup2\n      sload\n      add\n      dup1\n      dup3\n      sstore\n      dup1\n      swap2\n      pop\n      pop\n      0x01\n      swap1\n      sub\n      swap1\n      0x00\n      mstore\n      keccak256(0x00, 0x20)\n      swap1\n      0x02\n      mul\n      add\n      0x00\n      swap1\n      swap2\n      swap1\n      swap2\n      swap1\n      swap2\n      pop\n      0x00\n      dup3\n      add\n      mload\n      dup2\n      0x00\n      add\n      sstore\n      0x20\n      dup3\n      add\n      mload\n      dup2\n      0x01\n      add\n      sstore\n      pop\n      pop\n        /* \"contracts/e-voting scheme/Registration.sol\":1219:1227  infoList */\n      0x01\n        /* \"contracts/e-voting scheme/Registration.sol\":1233:1239  idInfo */\n      dup4\n        /* \"contracts/e-voting scheme/Registration.sol\":1219:1240  infoList.push(idInfo) */\n      swap1\n      dup1\n      0x01\n      dup2\n      sload\n      add\n      dup1\n      dup3\n      sstore\n      dup1\n      swap2\n      pop\n      pop\n      0x01\n      swap1\n      sub\n      swap1\n      0x00\n      mstore\n      keccak256(0x00, 0x20)\n      add\n      0x00\n      swap1\n      swap2\n      swap1\n      swap2\n      swap1\n      swap2\n      pop\n      swap1\n      dup2\n      tag_94\n      swap2\n      swap1\n      tag_95\n      jump\t// in\n    tag_94:\n      pop\n        /* \"contracts/e-voting scheme/Registration.sol\":1271:1272  1 */\n      0x01\n        /* \"contracts/e-voting scheme/Registration.sol\":1258:1263  mList */\n      0x00\n        /* \"contracts/e-voting scheme/Registration.sol\":1258:1270  mList.length */\n      dup1\n      sload\n      swap1\n      pop\n        /* \"contracts/e-voting scheme/Registration.sol\":1258:1272  mList.length-1 */\n      tag_96\n      swap2\n      swap1\n      tag_97\n      jump\t// in\n    tag_96:\n        /* \"contracts/e-voting scheme/Registration.sol\":1251:1272  return mList.length-1 */\n      swap2\n      pop\n      pop\n        /* \"contracts/e-voting scheme/Registration.sol\":1047:1280  function requestSig(uint256 x,uint256 y, string memory idInfo) public returns (uint256){... */\n      swap4\n      swap3\n      pop\n      pop\n      pop\n      jump\t// out\n        /* \"contracts/e-voting scheme/BLS.sol\":1045:1290  function verify(... */\n    tag_77:\n        /* \"contracts/e-voting scheme/BLS.sol\":1195:1199  bool */\n      0x00\n        /* \"contracts/e-voting scheme/BLS.sol\":1219:1282  verifyForPoint(_publicKey, hashToCurveE1(_message), _signature) */\n      tag_99\n        /* \"contracts/e-voting scheme/BLS.sol\":1234:1244  _publicKey */\n      dup5\n        /* \"contracts/e-voting scheme/BLS.sol\":1246:1269  hashToCurveE1(_message) */\n      tag_100\n        /* \"contracts/e-voting scheme/BLS.sol\":1260:1268  _message */\n      dup6\n        /* \"contracts/e-voting scheme/BLS.sol\":1246:1259  hashToCurveE1 */\n      tag_101\n        /* \"contracts/e-voting scheme/BLS.sol\":1246:1269  hashToCurveE1(_message) */\n      jump\t// in\n    tag_100:\n        /* \"contracts/e-voting scheme/BLS.sol\":1271:1281  _signature */\n      dup5\n        /* \"contracts/e-voting scheme/BLS.sol\":1219:1233  verifyForPoint */\n      tag_102\n        /* \"contracts/e-voting scheme/BLS.sol\":1219:1282  verifyForPoint(_publicKey, hashToCurveE1(_message), _signature) */\n      jump\t// in\n    tag_99:\n        /* \"contracts/e-voting scheme/BLS.sol\":1212:1282  return verifyForPoint(_publicKey, hashToCurveE1(_message), _signature) */\n      swap1\n      pop\n        /* \"contracts/e-voting scheme/BLS.sol\":1045:1290  function verify(... */\n      swap4\n      swap3\n      pop\n      pop\n      pop\n      jump\t// out\n        /* \"contracts/e-voting scheme/BLS.sol\":7061:7493  function addCurveE1(E1Point memory _p1, E1Point memory _p2) internal view returns (E1Point memory res) {... */\n    tag_89:\n        /* \"contracts/e-voting scheme/BLS.sol\":7144:7162  E1Point memory res */\n      tag_103\n      tag_50\n      jump\t// in\n    tag_103:\n        /* \"contracts/e-voting scheme/BLS.sol\":7175:7195  uint[4] memory input */\n      tag_105\n      tag_106\n      jump\t// in\n    tag_105:\n        /* \"contracts/e-voting scheme/BLS.sol\":7217:7220  _p1 */\n      dup4\n        /* \"contracts/e-voting scheme/BLS.sol\":7217:7222  _p1.x */\n      0x00\n      add\n      mload\n        /* \"contracts/e-voting scheme/BLS.sol\":7206:7211  input */\n      dup2\n        /* \"contracts/e-voting scheme/BLS.sol\":7212:7213  0 */\n      0x00\n        /* \"contracts/e-voting scheme/BLS.sol\":7206:7214  input[0] */\n      0x04\n      dup2\n      lt\n      tag_107\n      jumpi\n      tag_108\n      tag_54\n      jump\t// in\n    tag_108:\n    tag_107:\n      0x20\n      mul\n      add\n        /* \"contracts/e-voting scheme/BLS.sol\":7206:7222  input[0] = _p1.x */\n      dup2\n      dup2\n      mstore\n      pop\n      pop\n        /* \"contracts/e-voting scheme/BLS.sol\":7244:7247  _p1 */\n      dup4\n        /* \"contracts/e-voting scheme/BLS.sol\":7244:7249  _p1.y */\n      0x20\n      add\n      mload\n        /* \"contracts/e-voting scheme/BLS.sol\":7233:7238  input */\n      dup2\n        /* \"contracts/e-voting scheme/BLS.sol\":7239:7240  1 */\n      0x01\n        /* \"contracts/e-voting scheme/BLS.sol\":7233:7241  input[1] */\n      0x04\n      dup2\n      lt\n      tag_109\n      jumpi\n      tag_110\n      tag_54\n      jump\t// in\n    tag_110:\n    tag_109:\n      0x20\n      mul\n      add\n        /* \"contracts/e-voting scheme/BLS.sol\":7233:7249  input[1] = _p1.y */\n      dup2\n      dup2\n      mstore\n      pop\n      pop\n        /* \"contracts/e-voting scheme/BLS.sol\":7271:7274  _p2 */\n      dup3\n        /* \"contracts/e-voting scheme/BLS.sol\":7271:7276  _p2.x */\n      0x00\n      add\n      mload\n        /* \"contracts/e-voting scheme/BLS.sol\":7260:7265  input */\n      dup2\n        /* \"contracts/e-voting scheme/BLS.sol\":7266:7267  2 */\n      0x02\n        /* \"contracts/e-voting scheme/BLS.sol\":7260:7268  input[2] */\n      0x04\n      dup2\n      lt\n      tag_111\n      jumpi\n      tag_112\n      tag_54\n      jump\t// in\n    tag_112:\n    tag_111:\n      0x20\n      mul\n      add\n        /* \"contracts/e-voting scheme/BLS.sol\":7260:7276  input[2] = _p2.x */\n      dup2\n      dup2\n      mstore\n      pop\n      pop\n        /* \"contracts/e-voting scheme/BLS.sol\":7298:7301  _p2 */\n      dup3\n        /* \"contracts/e-voting scheme/BLS.sol\":7298:7303  _p2.y */\n      0x20\n      add\n      mload\n        /* \"contracts/e-voting scheme/BLS.sol\":7287:7292  input */\n      dup2\n        /* \"contracts/e-voting scheme/BLS.sol\":7293:7294  3 */\n      0x03\n        /* \"contracts/e-voting scheme/BLS.sol\":7287:7295  input[3] */\n      0x04\n      dup2\n      lt\n      tag_113\n      jumpi\n      tag_114\n      tag_54\n      jump\t// in\n    tag_114:\n    tag_113:\n      0x20\n      mul\n      add\n        /* \"contracts/e-voting scheme/BLS.sol\":7287:7303  input[3] = _p2.y */\n      dup2\n      dup2\n      mstore\n      pop\n      pop\n        /* \"contracts/e-voting scheme/BLS.sol\":7314:7326  bool success */\n      0x00\n        /* \"contracts/e-voting scheme/BLS.sol\":7422:7426  0x40 */\n      0x40\n        /* \"contracts/e-voting scheme/BLS.sol\":7417:7420  res */\n      dup4\n        /* \"contracts/e-voting scheme/BLS.sol\":7411:7415  0x80 */\n      0x80\n        /* \"contracts/e-voting scheme/BLS.sol\":7404:7409  input */\n      dup5\n        /* \"contracts/e-voting scheme/BLS.sol\":7401:7402  6 */\n      0x06\n        /* \"contracts/e-voting scheme/BLS.sol\":7394:7398  2000 */\n      0x07d0\n        /* \"contracts/e-voting scheme/BLS.sol\":7387:7392  gas() */\n      gas\n        /* \"contracts/e-voting scheme/BLS.sol\":7383:7399  sub(gas(), 2000) */\n      sub\n        /* \"contracts/e-voting scheme/BLS.sol\":7372:7427  staticcall(sub(gas(), 2000), 6, input, 0x80, res, 0x40) */\n      staticcall\n        /* \"contracts/e-voting scheme/BLS.sol\":7361:7427  success := staticcall(sub(gas(), 2000), 6, input, 0x80, res, 0x40) */\n      swap1\n      pop\n        /* \"contracts/e-voting scheme/BLS.sol\":7456:7463  success */\n      dup1\n        /* \"contracts/e-voting scheme/BLS.sol\":7448:7485  require(success, \"Add points failed\") */\n      tag_115\n      jumpi\n      mload(0x40)\n      0x08c379a000000000000000000000000000000000000000000000000000000000\n      dup2\n      mstore\n      0x04\n      add\n      tag_116\n      swap1\n      tag_117\n      jump\t// in\n    tag_116:\n      mload(0x40)\n      dup1\n      swap2\n      sub\n      swap1\n      revert\n    tag_115:\n        /* \"contracts/e-voting scheme/BLS.sol\":7164:7493  {... */\n      pop\n      pop\n        /* \"contracts/e-voting scheme/BLS.sol\":7061:7493  function addCurveE1(E1Point memory _p1, E1Point memory _p2) internal view returns (E1Point memory res) {... */\n      swap3\n      swap2\n      pop\n      pop\n      jump\t// out\n        /* \"contracts/e-voting scheme/BLS.sol\":6223:6571  function hashToCurveE1(bytes memory m) internal view returns(E1Point memory e1)... */\n    tag_101:\n        /* \"contracts/e-voting scheme/BLS.sol\":6284:6301  E1Point memory e1 */\n      tag_118\n      tag_50\n      jump\t// in\n    tag_118:\n        /* \"contracts/e-voting scheme/BLS.sol\":6319:6328  bytes32 h */\n      0x00\n        /* \"contracts/e-voting scheme/BLS.sol\":6331:6340  sha256(m) */\n      0x02\n        /* \"contracts/e-voting scheme/BLS.sol\":6338:6339  m */\n      dup4\n        /* \"contracts/e-voting scheme/BLS.sol\":6331:6340  sha256(m) */\n      mload(0x40)\n      tag_120\n      swap2\n      swap1\n      tag_80\n      jump\t// in\n    tag_120:\n      0x20\n      mload(0x40)\n      dup1\n      dup4\n      sub\n      dup2\n      dup6\n      gas\n      staticcall\n      iszero\n      dup1\n      iszero\n      tag_122\n      jumpi\n      returndatasize\n      0x00\n      dup1\n      returndatacopy\n      revert(0x00, returndatasize)\n    tag_122:\n      pop\n      pop\n      pop\n      mload(0x40)\n      returndatasize\n      not(0x1f)\n      0x1f\n      dup3\n      add\n      and\n      dup3\n      add\n      dup1\n      0x40\n      mstore\n      pop\n      dup2\n      add\n      swap1\n      tag_123\n      swap2\n      swap1\n      tag_124\n      jump\t// in\n    tag_123:\n        /* \"contracts/e-voting scheme/BLS.sol\":6319:6340  bytes32 h = sha256(m) */\n      swap1\n      pop\n        /* \"contracts/e-voting scheme/BLS.sol\":6351:6360  uint256 x */\n      0x00\n        /* \"contracts/e-voting scheme/BLS.sol\":607:684  21888242871839275222246405745257275088696311157297823662689037894645226208583 */\n      0x30644e72e131a029b85045b68181585d97816a916871ca8d3c208c16d87cfd47\n        /* \"contracts/e-voting scheme/BLS.sol\":6371:6372  h */\n      dup3\n        /* \"contracts/e-voting scheme/BLS.sol\":6363:6373  uint256(h) */\n      0x00\n      shr\n        /* \"contracts/e-voting scheme/BLS.sol\":6363:6377  uint256(h) % p */\n      tag_125\n      swap2\n      swap1\n      tag_126\n      jump\t// in\n    tag_125:\n        /* \"contracts/e-voting scheme/BLS.sol\":6351:6377  uint256 x = uint256(h) % p */\n      swap1\n      pop\n        /* \"contracts/e-voting scheme/BLS.sol\":6388:6397  uint256 y */\n      0x00\n        /* \"contracts/e-voting scheme/BLS.sol\":6410:6564  while (true) {... */\n    tag_127:\n        /* \"contracts/e-voting scheme/BLS.sol\":6417:6421  true */\n      0x01\n        /* \"contracts/e-voting scheme/BLS.sol\":6410:6564  while (true) {... */\n      iszero\n      tag_128\n      jumpi\n        /* \"contracts/e-voting scheme/BLS.sol\":6442:6451  YFromX(x) */\n      tag_129\n        /* \"contracts/e-voting scheme/BLS.sol\":6449:6450  x */\n      dup3\n        /* \"contracts/e-voting scheme/BLS.sol\":6442:6448  YFromX */\n      tag_130\n        /* \"contracts/e-voting scheme/BLS.sol\":6442:6451  YFromX(x) */\n      jump\t// in\n    tag_129:\n        /* \"contracts/e-voting scheme/BLS.sol\":6438:6451  y = YFromX(x) */\n      swap1\n      pop\n        /* \"contracts/e-voting scheme/BLS.sol\":6474:6475  0 */\n      0x00\n        /* \"contracts/e-voting scheme/BLS.sol\":6470:6471  y */\n      dup2\n        /* \"contracts/e-voting scheme/BLS.sol\":6470:6475  y > 0 */\n      gt\n        /* \"contracts/e-voting scheme/BLS.sol\":6466:6532  if (y > 0) {... */\n      iszero\n      tag_131\n      jumpi\n        /* \"contracts/e-voting scheme/BLS.sol\":6503:6516  E1Point(x, y) */\n      mload(0x40)\n      dup1\n      0x40\n      add\n      0x40\n      mstore\n      dup1\n        /* \"contracts/e-voting scheme/BLS.sol\":6511:6512  x */\n      dup4\n        /* \"contracts/e-voting scheme/BLS.sol\":6503:6516  E1Point(x, y) */\n      dup2\n      mstore\n      0x20\n      add\n        /* \"contracts/e-voting scheme/BLS.sol\":6514:6515  y */\n      dup3\n        /* \"contracts/e-voting scheme/BLS.sol\":6503:6516  E1Point(x, y) */\n      dup2\n      mstore\n      pop\n        /* \"contracts/e-voting scheme/BLS.sol\":6496:6516  return E1Point(x, y) */\n      swap4\n      pop\n      pop\n      pop\n      pop\n      jump(tag_119)\n        /* \"contracts/e-voting scheme/BLS.sol\":6466:6532  if (y > 0) {... */\n    tag_131:\n        /* \"contracts/e-voting scheme/BLS.sol\":6551:6552  1 */\n      0x01\n        /* \"contracts/e-voting scheme/BLS.sol\":6546:6552  x += 1 */\n      dup3\n      tag_132\n      swap2\n      swap1\n      tag_133\n      jump\t// in\n    tag_132:\n      swap2\n      pop\n        /* \"contracts/e-voting scheme/BLS.sol\":6410:6564  while (true) {... */\n      jump(tag_127)\n    tag_128:\n        /* \"contracts/e-voting scheme/BLS.sol\":6308:6571  {... */\n      pop\n      pop\n      pop\n        /* \"contracts/e-voting scheme/BLS.sol\":6223:6571  function hashToCurveE1(bytes memory m) internal view returns(E1Point memory e1)... */\n    tag_119:\n      swap2\n      swap1\n      pop\n      jump\t// out\n        /* \"contracts/e-voting scheme/BLS.sol\":1699:2168  function verifyForPoint(... */\n    tag_102:\n        /* \"contracts/e-voting scheme/BLS.sol\":1859:1863  bool */\n      0x00\n        /* \"contracts/e-voting scheme/BLS.sol\":1876:1901  E1Point[] memory e1points */\n      dup1\n        /* \"contracts/e-voting scheme/BLS.sol\":1918:1919  2 */\n      0x02\n        /* \"contracts/e-voting scheme/BLS.sol\":1904:1920  new E1Point[](2) */\n      0xffffffffffffffff\n      dup2\n      gt\n      iszero\n      tag_135\n      jumpi\n      tag_136\n      tag_137\n      jump\t// in\n    tag_136:\n    tag_135:\n      mload(0x40)\n      swap1\n      dup1\n      dup3\n      mstore\n      dup1\n      0x20\n      mul\n      0x20\n      add\n      dup3\n      add\n      0x40\n      mstore\n      dup1\n      iszero\n      tag_138\n      jumpi\n      dup2\n      0x20\n      add\n    tag_139:\n      tag_140\n      tag_50\n      jump\t// in\n    tag_140:\n      dup2\n      mstore\n      0x20\n      add\n      swap1\n      0x01\n      swap1\n      sub\n      swap1\n      dup2\n      tag_139\n      jumpi\n      swap1\n      pop\n    tag_138:\n      pop\n        /* \"contracts/e-voting scheme/BLS.sol\":1876:1920  E1Point[] memory e1points = new E1Point[](2) */\n      swap1\n      pop\n        /* \"contracts/e-voting scheme/BLS.sol\":1931:1956  E2Point[] memory e2points */\n      0x00\n        /* \"contracts/e-voting scheme/BLS.sol\":1973:1974  2 */\n      0x02\n        /* \"contracts/e-voting scheme/BLS.sol\":1959:1975  new E2Point[](2) */\n      0xffffffffffffffff\n      dup2\n      gt\n      iszero\n      tag_141\n      jumpi\n      tag_142\n      tag_137\n      jump\t// in\n    tag_142:\n    tag_141:\n      mload(0x40)\n      swap1\n      dup1\n      dup3\n      mstore\n      dup1\n      0x20\n      mul\n      0x20\n      add\n      dup3\n      add\n      0x40\n      mstore\n      dup1\n      iszero\n      tag_143\n      jumpi\n      dup2\n      0x20\n      add\n    tag_144:\n      tag_145\n      tag_146\n      jump\t// in\n    tag_145:\n      dup2\n      mstore\n      0x20\n      add\n      swap1\n      0x01\n      swap1\n      sub\n      swap1\n      dup2\n      tag_144\n      jumpi\n      swap1\n      pop\n    tag_143:\n      pop\n        /* \"contracts/e-voting scheme/BLS.sol\":1931:1975  E2Point[] memory e2points = new E2Point[](2) */\n      swap1\n      pop\n        /* \"contracts/e-voting scheme/BLS.sol\":2000:2018  negate(_signature) */\n      tag_147\n        /* \"contracts/e-voting scheme/BLS.sol\":2007:2017  _signature */\n      dup5\n        /* \"contracts/e-voting scheme/BLS.sol\":2000:2006  negate */\n      tag_148\n        /* \"contracts/e-voting scheme/BLS.sol\":2000:2018  negate(_signature) */\n      jump\t// in\n    tag_147:\n        /* \"contracts/e-voting scheme/BLS.sol\":1986:1994  e1points */\n      dup3\n        /* \"contracts/e-voting scheme/BLS.sol\":1995:1996  0 */\n      0x00\n        /* \"contracts/e-voting scheme/BLS.sol\":1986:1997  e1points[0] */\n      dup2\n      mload\n      dup2\n      lt\n      tag_149\n      jumpi\n      tag_150\n      tag_54\n      jump\t// in\n    tag_150:\n    tag_149:\n      0x20\n      mul\n      0x20\n      add\n      add\n        /* \"contracts/e-voting scheme/BLS.sol\":1986:2018  e1points[0] = negate(_signature) */\n      dup2\n      swap1\n      mstore\n      pop\n        /* \"contracts/e-voting scheme/BLS.sol\":2043:2051  _message */\n      dup5\n        /* \"contracts/e-voting scheme/BLS.sol\":2029:2037  e1points */\n      dup3\n        /* \"contracts/e-voting scheme/BLS.sol\":2038:2039  1 */\n      0x01\n        /* \"contracts/e-voting scheme/BLS.sol\":2029:2040  e1points[1] */\n      dup2\n      mload\n      dup2\n      lt\n      tag_151\n      jumpi\n      tag_152\n      tag_54\n      jump\t// in\n    tag_152:\n    tag_151:\n      0x20\n      mul\n      0x20\n      add\n      add\n        /* \"contracts/e-voting scheme/BLS.sol\":2029:2051  e1points[1] = _message */\n      dup2\n      swap1\n      mstore\n      pop\n        /* \"contracts/e-voting scheme/BLS.sol\":2076:2080  G2() */\n      tag_153\n        /* \"contracts/e-voting scheme/BLS.sol\":2076:2078  G2 */\n      tag_154\n        /* \"contracts/e-voting scheme/BLS.sol\":2076:2080  G2() */\n      jump\t// in\n    tag_153:\n        /* \"contracts/e-voting scheme/BLS.sol\":2062:2070  e2points */\n      dup2\n        /* \"contracts/e-voting scheme/BLS.sol\":2071:2072  0 */\n      0x00\n        /* \"contracts/e-voting scheme/BLS.sol\":2062:2073  e2points[0] */\n      dup2\n      mload\n      dup2\n      lt\n      tag_155\n      jumpi\n      tag_156\n      tag_54\n      jump\t// in\n    tag_156:\n    tag_155:\n      0x20\n      mul\n      0x20\n      add\n      add\n        /* \"contracts/e-voting scheme/BLS.sol\":2062:2080  e2points[0] = G2() */\n      dup2\n      swap1\n      mstore\n      pop\n        /* \"contracts/e-voting scheme/BLS.sol\":2105:2115  _publicKey */\n      dup6\n        /* \"contracts/e-voting scheme/BLS.sol\":2091:2099  e2points */\n      dup2\n        /* \"contracts/e-voting scheme/BLS.sol\":2100:2101  1 */\n      0x01\n        /* \"contracts/e-voting scheme/BLS.sol\":2091:2102  e2points[1] */\n      dup2\n      mload\n      dup2\n      lt\n      tag_157\n      jumpi\n      tag_158\n      tag_54\n      jump\t// in\n    tag_158:\n    tag_157:\n      0x20\n      mul\n      0x20\n      add\n      add\n        /* \"contracts/e-voting scheme/BLS.sol\":2091:2115  e2points[1] = _publicKey */\n      dup2\n      swap1\n      mstore\n      pop\n        /* \"contracts/e-voting scheme/BLS.sol\":2133:2160  pairing(e1points, e2points) */\n      tag_159\n        /* \"contracts/e-voting scheme/BLS.sol\":2141:2149  e1points */\n      dup3\n        /* \"contracts/e-voting scheme/BLS.sol\":2151:2159  e2points */\n      dup3\n        /* \"contracts/e-voting scheme/BLS.sol\":2133:2140  pairing */\n      tag_160\n        /* \"contracts/e-voting scheme/BLS.sol\":2133:2160  pairing(e1points, e2points) */\n      jump\t// in\n    tag_159:\n        /* \"contracts/e-voting scheme/BLS.sol\":2126:2160  return pairing(e1points, e2points) */\n      swap3\n      pop\n      pop\n      pop\n        /* \"contracts/e-voting scheme/BLS.sol\":1699:2168  function verifyForPoint(... */\n      swap4\n      swap3\n      pop\n      pop\n      pop\n      jump\t// out\n        /* \"contracts/e-voting scheme/BLS.sol\":6858:7002  function YFromX(uint256 x)... */\n    tag_130:\n        /* \"contracts/e-voting scheme/BLS.sol\":6925:6932  uint256 */\n      0x00\n        /* \"contracts/e-voting scheme/BLS.sol\":6957:6994  ((x.modExp(3, p) + 3) % p).modSqrt(p) */\n      tag_162\n        /* \"contracts/e-voting scheme/BLS.sol\":607:684  21888242871839275222246405745257275088696311157297823662689037894645226208583 */\n      0x30644e72e131a029b85045b68181585d97816a916871ca8d3c208c16d87cfd47\n      dup1\n        /* \"contracts/e-voting scheme/BLS.sol\":6976:6977  3 */\n      0x03\n        /* \"contracts/e-voting scheme/BLS.sol\":6959:6973  x.modExp(3, p) */\n      tag_163\n        /* \"contracts/e-voting scheme/BLS.sol\":6968:6969  3 */\n      0x03\n        /* \"contracts/e-voting scheme/BLS.sol\":607:684  21888242871839275222246405745257275088696311157297823662689037894645226208583 */\n      0x30644e72e131a029b85045b68181585d97816a916871ca8d3c208c16d87cfd47\n        /* \"contracts/e-voting scheme/BLS.sol\":6959:6960  x */\n      dup9\n        /* \"contracts/e-voting scheme/BLS.sol\":6959:6967  x.modExp */\n      tag_164\n      swap1\n        /* \"contracts/e-voting scheme/BLS.sol\":6959:6973  x.modExp(3, p) */\n      swap3\n      swap2\n      swap1\n      0xffffffff\n      and\n      jump\t// in\n    tag_163:\n        /* \"contracts/e-voting scheme/BLS.sol\":6959:6977  x.modExp(3, p) + 3 */\n      tag_165\n      swap2\n      swap1\n      tag_133\n      jump\t// in\n    tag_165:\n        /* \"contracts/e-voting scheme/BLS.sol\":6958:6982  (x.modExp(3, p) + 3) % p */\n      tag_166\n      swap2\n      swap1\n      tag_126\n      jump\t// in\n    tag_166:\n        /* \"contracts/e-voting scheme/BLS.sol\":6957:6991  ((x.modExp(3, p) + 3) % p).modSqrt */\n      tag_167\n      swap1\n        /* \"contracts/e-voting scheme/BLS.sol\":6957:6994  ((x.modExp(3, p) + 3) % p).modSqrt(p) */\n      swap2\n      swap1\n      0xffffffff\n      and\n      jump\t// in\n    tag_162:\n        /* \"contracts/e-voting scheme/BLS.sol\":6950:6994  return ((x.modExp(3, p) + 3) % p).modSqrt(p) */\n      swap1\n      pop\n        /* \"contracts/e-voting scheme/BLS.sol\":6858:7002  function YFromX(uint256 x)... */\n      swap2\n      swap1\n      pop\n      jump\t// out\n        /* \"contracts/e-voting scheme/BLS.sol\":3185:3408  function negate(E1Point memory _point) private pure returns (E1Point memory) {... */\n    tag_148:\n        /* \"contracts/e-voting scheme/BLS.sol\":3246:3260  E1Point memory */\n      tag_168\n      tag_50\n      jump\t// in\n    tag_168:\n        /* \"contracts/e-voting scheme/BLS.sol\":3277:3297  isAtInfinity(_point) */\n      tag_170\n        /* \"contracts/e-voting scheme/BLS.sol\":3290:3296  _point */\n      dup3\n        /* \"contracts/e-voting scheme/BLS.sol\":3277:3289  isAtInfinity */\n      tag_171\n        /* \"contracts/e-voting scheme/BLS.sol\":3277:3297  isAtInfinity(_point) */\n      jump\t// in\n    tag_170:\n        /* \"contracts/e-voting scheme/BLS.sol\":3273:3346  if (isAtInfinity(_point)) {... */\n      iszero\n      tag_172\n      jumpi\n        /* \"contracts/e-voting scheme/BLS.sol\":3321:3334  E1Point(0, 0) */\n      mload(0x40)\n      dup1\n      0x40\n      add\n      0x40\n      mstore\n      dup1\n        /* \"contracts/e-voting scheme/BLS.sol\":3329:3330  0 */\n      0x00\n        /* \"contracts/e-voting scheme/BLS.sol\":3321:3334  E1Point(0, 0) */\n      dup2\n      mstore\n      0x20\n      add\n        /* \"contracts/e-voting scheme/BLS.sol\":3332:3333  0 */\n      0x00\n        /* \"contracts/e-voting scheme/BLS.sol\":3321:3334  E1Point(0, 0) */\n      dup2\n      mstore\n      pop\n        /* \"contracts/e-voting scheme/BLS.sol\":3314:3334  return E1Point(0, 0) */\n      swap1\n      pop\n      jump(tag_169)\n        /* \"contracts/e-voting scheme/BLS.sol\":3273:3346  if (isAtInfinity(_point)) {... */\n    tag_172:\n        /* \"contracts/e-voting scheme/BLS.sol\":3363:3400  E1Point(_point.x, p - (_point.y % p)) */\n      mload(0x40)\n      dup1\n      0x40\n      add\n      0x40\n      mstore\n      dup1\n        /* \"contracts/e-voting scheme/BLS.sol\":3371:3377  _point */\n      dup4\n        /* \"contracts/e-voting scheme/BLS.sol\":3371:3379  _point.x */\n      0x00\n      add\n      mload\n        /* \"contracts/e-voting scheme/BLS.sol\":3363:3400  E1Point(_point.x, p - (_point.y % p)) */\n      dup2\n      mstore\n      0x20\n      add\n        /* \"contracts/e-voting scheme/BLS.sol\":607:684  21888242871839275222246405745257275088696311157297823662689037894645226208583 */\n      0x30644e72e131a029b85045b68181585d97816a916871ca8d3c208c16d87cfd47\n        /* \"contracts/e-voting scheme/BLS.sol\":3386:3392  _point */\n      dup5\n        /* \"contracts/e-voting scheme/BLS.sol\":3386:3394  _point.y */\n      0x20\n      add\n      mload\n        /* \"contracts/e-voting scheme/BLS.sol\":3386:3398  _point.y % p */\n      tag_173\n      swap2\n      swap1\n      tag_126\n      jump\t// in\n    tag_173:\n        /* \"contracts/e-voting scheme/BLS.sol\":607:684  21888242871839275222246405745257275088696311157297823662689037894645226208583 */\n      0x30644e72e131a029b85045b68181585d97816a916871ca8d3c208c16d87cfd47\n        /* \"contracts/e-voting scheme/BLS.sol\":3381:3399  p - (_point.y % p) */\n      tag_174\n      swap2\n      swap1\n      tag_97\n      jump\t// in\n    tag_174:\n        /* \"contracts/e-voting scheme/BLS.sol\":3363:3400  E1Point(_point.x, p - (_point.y % p)) */\n      dup2\n      mstore\n      pop\n        /* \"contracts/e-voting scheme/BLS.sol\":3356:3400  return E1Point(_point.x, p - (_point.y % p)) */\n      swap1\n      pop\n        /* \"contracts/e-voting scheme/BLS.sol\":3185:3408  function negate(E1Point memory _point) private pure returns (E1Point memory) {... */\n    tag_169:\n      swap2\n      swap1\n      pop\n      jump\t// out\n        /* \"contracts/e-voting scheme/BLS.sol\":2387:2937  function G2() private pure returns (E2Point memory) {... */\n    tag_154:\n        /* \"contracts/e-voting scheme/BLS.sol\":2423:2437  E2Point memory */\n      tag_175\n      tag_146\n      jump\t// in\n    tag_175:\n        /* \"contracts/e-voting scheme/BLS.sol\":2457:2929  E2Point({... */\n      mload(0x40)\n      dup1\n      0x40\n      add\n      0x40\n      mstore\n      dup1\n      mload(0x40)\n      dup1\n      0x40\n      add\n      0x40\n      mstore\n      dup1\n        /* \"contracts/e-voting scheme/BLS.sol\":2502:2579  11559732032986387107991004021392285783925812861821192530917403151452391805634 */\n      0x198e9393920d483a7260bfb731fb5d25f1aa493335a9e71297e485b7aef312c2\n        /* \"contracts/e-voting scheme/BLS.sol\":2457:2929  E2Point({... */\n      dup2\n      mstore\n      0x20\n      add\n        /* \"contracts/e-voting scheme/BLS.sol\":2598:2675  10857046999023057135944570762232829481370756359578518086990519993285655852781 */\n      0x1800deef121f1e76426a00665e5c4479674322d4f75edadd46debd5cd992f6ed\n        /* \"contracts/e-voting scheme/BLS.sol\":2457:2929  E2Point({... */\n      dup2\n      mstore\n      pop\n      dup2\n      mstore\n      0x20\n      add\n      mload(0x40)\n      dup1\n      0x40\n      add\n      0x40\n      mstore\n      dup1\n        /* \"contracts/e-voting scheme/BLS.sol\":2728:2804  4082367875863433681332203403145435568316851327593401208105741076214120093531 */\n      0x090689d0585ff075ec9e99ad690c3395bc4b313370b38ef355acdadcd122975b\n        /* \"contracts/e-voting scheme/BLS.sol\":2457:2929  E2Point({... */\n      dup2\n      mstore\n      0x20\n      add\n        /* \"contracts/e-voting scheme/BLS.sol\":2824:2900  8495653923123431417604973247489272438418190587263600148770280649306958101930 */\n      0x12c85ea5db8c6deb4aab71808dcb408fe3d1e7690c43d37b4ce6cc0166fa7daa\n        /* \"contracts/e-voting scheme/BLS.sol\":2457:2929  E2Point({... */\n      dup2\n      mstore\n      pop\n      dup2\n      mstore\n      pop\n        /* \"contracts/e-voting scheme/BLS.sol\":2450:2929  return E2Point({... */\n      swap1\n      pop\n        /* \"contracts/e-voting scheme/BLS.sol\":2387:2937  function G2() private pure returns (E2Point memory) {... */\n      swap1\n      jump\t// out\n        /* \"contracts/e-voting scheme/BLS.sol\":3666:4958  function pairing(E1Point[] memory _e1points, E2Point[] memory _e2points) private view returns (bool) {... */\n    tag_160:\n        /* \"contracts/e-voting scheme/BLS.sol\":3761:3765  bool */\n      0x00\n        /* \"contracts/e-voting scheme/BLS.sol\":3806:3815  _e2points */\n      dup2\n        /* \"contracts/e-voting scheme/BLS.sol\":3806:3822  _e2points.length */\n      mload\n        /* \"contracts/e-voting scheme/BLS.sol\":3786:3795  _e1points */\n      dup4\n        /* \"contracts/e-voting scheme/BLS.sol\":3786:3802  _e1points.length */\n      mload\n        /* \"contracts/e-voting scheme/BLS.sol\":3786:3822  _e1points.length == _e2points.length */\n      eq\n        /* \"contracts/e-voting scheme/BLS.sol\":3778:3848  require(_e1points.length == _e2points.length, \"Point count mismatch.\") */\n      tag_178\n      jumpi\n      mload(0x40)\n      0x08c379a000000000000000000000000000000000000000000000000000000000\n      dup2\n      mstore\n      0x04\n      add\n      tag_179\n      swap1\n      tag_180\n      jump\t// in\n    tag_179:\n      mload(0x40)\n      dup1\n      swap2\n      sub\n      swap1\n      revert\n    tag_178:\n        /* \"contracts/e-voting scheme/BLS.sol\":3861:3874  uint elements */\n      0x00\n        /* \"contracts/e-voting scheme/BLS.sol\":3877:3886  _e1points */\n      dup4\n        /* \"contracts/e-voting scheme/BLS.sol\":3877:3893  _e1points.length */\n      mload\n        /* \"contracts/e-voting scheme/BLS.sol\":3861:3893  uint elements = _e1points.length */\n      swap1\n      pop\n        /* \"contracts/e-voting scheme/BLS.sol\":3904:3918  uint inputSize */\n      0x00\n        /* \"contracts/e-voting scheme/BLS.sol\":3932:3933  6 */\n      0x06\n        /* \"contracts/e-voting scheme/BLS.sol\":3921:3929  elements */\n      dup3\n        /* \"contracts/e-voting scheme/BLS.sol\":3921:3933  elements * 6 */\n      tag_181\n      swap2\n      swap1\n      tag_182\n      jump\t// in\n    tag_181:\n        /* \"contracts/e-voting scheme/BLS.sol\":3904:3933  uint inputSize = elements * 6 */\n      swap1\n      pop\n        /* \"contracts/e-voting scheme/BLS.sol\":3944:3963  uint[] memory input */\n      0x00\n        /* \"contracts/e-voting scheme/BLS.sol\":3977:3986  inputSize */\n      dup2\n        /* \"contracts/e-voting scheme/BLS.sol\":3966:3987  new uint[](inputSize) */\n      0xffffffffffffffff\n      dup2\n      gt\n      iszero\n      tag_183\n      jumpi\n      tag_184\n      tag_137\n      jump\t// in\n    tag_184:\n    tag_183:\n      mload(0x40)\n      swap1\n      dup1\n      dup3\n      mstore\n      dup1\n      0x20\n      mul\n      0x20\n      add\n      dup3\n      add\n      0x40\n      mstore\n      dup1\n      iszero\n      tag_185\n      jumpi\n      dup2\n      0x20\n      add\n      0x20\n      dup3\n      mul\n      dup1\n      calldatasize\n      dup4\n      calldatacopy\n      dup1\n      dup3\n      add\n      swap2\n      pop\n      pop\n      swap1\n      pop\n    tag_185:\n      pop\n        /* \"contracts/e-voting scheme/BLS.sol\":3944:3987  uint[] memory input = new uint[](inputSize) */\n      swap1\n      pop\n        /* \"contracts/e-voting scheme/BLS.sol\":4005:4011  uint i */\n      0x00\n        /* \"contracts/e-voting scheme/BLS.sol\":4000:4348  for (uint i = 0; i < elements; i++) {... */\n    tag_186:\n        /* \"contracts/e-voting scheme/BLS.sol\":4021:4029  elements */\n      dup4\n        /* \"contracts/e-voting scheme/BLS.sol\":4017:4018  i */\n      dup2\n        /* \"contracts/e-voting scheme/BLS.sol\":4017:4029  i < elements */\n      lt\n        /* \"contracts/e-voting scheme/BLS.sol\":4000:4348  for (uint i = 0; i < elements; i++) {... */\n      iszero\n      tag_187\n      jumpi\n        /* \"contracts/e-voting scheme/BLS.sol\":4070:4079  _e1points */\n      dup7\n        /* \"contracts/e-voting scheme/BLS.sol\":4080:4081  i */\n      dup2\n        /* \"contracts/e-voting scheme/BLS.sol\":4070:4082  _e1points[i] */\n      dup2\n      mload\n      dup2\n      lt\n      tag_189\n      jumpi\n      tag_190\n      tag_54\n      jump\t// in\n    tag_190:\n    tag_189:\n      0x20\n      mul\n      0x20\n      add\n      add\n      mload\n        /* \"contracts/e-voting scheme/BLS.sol\":4070:4084  _e1points[i].x */\n      0x00\n      add\n      mload\n        /* \"contracts/e-voting scheme/BLS.sol\":4051:4056  input */\n      dup3\n        /* \"contracts/e-voting scheme/BLS.sol\":4065:4066  0 */\n      0x00\n        /* \"contracts/e-voting scheme/BLS.sol\":4061:4062  6 */\n      0x06\n        /* \"contracts/e-voting scheme/BLS.sol\":4057:4058  i */\n      dup5\n        /* \"contracts/e-voting scheme/BLS.sol\":4057:4062  i * 6 */\n      tag_191\n      swap2\n      swap1\n      tag_182\n      jump\t// in\n    tag_191:\n        /* \"contracts/e-voting scheme/BLS.sol\":4057:4066  i * 6 + 0 */\n      tag_192\n      swap2\n      swap1\n      tag_133\n      jump\t// in\n    tag_192:\n        /* \"contracts/e-voting scheme/BLS.sol\":4051:4067  input[i * 6 + 0] */\n      dup2\n      mload\n      dup2\n      lt\n      tag_193\n      jumpi\n      tag_194\n      tag_54\n      jump\t// in\n    tag_194:\n    tag_193:\n      0x20\n      mul\n      0x20\n      add\n      add\n        /* \"contracts/e-voting scheme/BLS.sol\":4051:4084  input[i * 6 + 0] = _e1points[i].x */\n      dup2\n      dup2\n      mstore\n      pop\n      pop\n        /* \"contracts/e-voting scheme/BLS.sol\":4118:4127  _e1points */\n      dup7\n        /* \"contracts/e-voting scheme/BLS.sol\":4128:4129  i */\n      dup2\n        /* \"contracts/e-voting scheme/BLS.sol\":4118:4130  _e1points[i] */\n      dup2\n      mload\n      dup2\n      lt\n      tag_195\n      jumpi\n      tag_196\n      tag_54\n      jump\t// in\n    tag_196:\n    tag_195:\n      0x20\n      mul\n      0x20\n      add\n      add\n      mload\n        /* \"contracts/e-voting scheme/BLS.sol\":4118:4132  _e1points[i].y */\n      0x20\n      add\n      mload\n        /* \"contracts/e-voting scheme/BLS.sol\":4099:4104  input */\n      dup3\n        /* \"contracts/e-voting scheme/BLS.sol\":4113:4114  1 */\n      0x01\n        /* \"contracts/e-voting scheme/BLS.sol\":4109:4110  6 */\n      0x06\n        /* \"contracts/e-voting scheme/BLS.sol\":4105:4106  i */\n      dup5\n        /* \"contracts/e-voting scheme/BLS.sol\":4105:4110  i * 6 */\n      tag_197\n      swap2\n      swap1\n      tag_182\n      jump\t// in\n    tag_197:\n        /* \"contracts/e-voting scheme/BLS.sol\":4105:4114  i * 6 + 1 */\n      tag_198\n      swap2\n      swap1\n      tag_133\n      jump\t// in\n    tag_198:\n        /* \"contracts/e-voting scheme/BLS.sol\":4099:4115  input[i * 6 + 1] */\n      dup2\n      mload\n      dup2\n      lt\n      tag_199\n      jumpi\n      tag_200\n      tag_54\n      jump\t// in\n    tag_200:\n    tag_199:\n      0x20\n      mul\n      0x20\n      add\n      add\n        /* \"contracts/e-voting scheme/BLS.sol\":4099:4132  input[i * 6 + 1] = _e1points[i].y */\n      dup2\n      dup2\n      mstore\n      pop\n      pop\n        /* \"contracts/e-voting scheme/BLS.sol\":4166:4175  _e2points */\n      dup6\n        /* \"contracts/e-voting scheme/BLS.sol\":4176:4177  i */\n      dup2\n        /* \"contracts/e-voting scheme/BLS.sol\":4166:4178  _e2points[i] */\n      dup2\n      mload\n      dup2\n      lt\n      tag_201\n      jumpi\n      tag_202\n      tag_54\n      jump\t// in\n    tag_202:\n    tag_201:\n      0x20\n      mul\n      0x20\n      add\n      add\n      mload\n        /* \"contracts/e-voting scheme/BLS.sol\":4166:4180  _e2points[i].x */\n      0x00\n      add\n      mload\n        /* \"contracts/e-voting scheme/BLS.sol\":4181:4182  0 */\n      0x00\n        /* \"contracts/e-voting scheme/BLS.sol\":4166:4183  _e2points[i].x[0] */\n      0x02\n      dup2\n      lt\n      tag_203\n      jumpi\n      tag_204\n      tag_54\n      jump\t// in\n    tag_204:\n    tag_203:\n      0x20\n      mul\n      add\n      mload\n        /* \"contracts/e-voting scheme/BLS.sol\":4147:4152  input */\n      dup3\n        /* \"contracts/e-voting scheme/BLS.sol\":4161:4162  2 */\n      0x02\n        /* \"contracts/e-voting scheme/BLS.sol\":4157:4158  6 */\n      0x06\n        /* \"contracts/e-voting scheme/BLS.sol\":4153:4154  i */\n      dup5\n        /* \"contracts/e-voting scheme/BLS.sol\":4153:4158  i * 6 */\n      tag_205\n      swap2\n      swap1\n      tag_182\n      jump\t// in\n    tag_205:\n        /* \"contracts/e-voting scheme/BLS.sol\":4153:4162  i * 6 + 2 */\n      tag_206\n      swap2\n      swap1\n      tag_133\n      jump\t// in\n    tag_206:\n        /* \"contracts/e-voting scheme/BLS.sol\":4147:4163  input[i * 6 + 2] */\n      dup2\n      mload\n      dup2\n      lt\n      tag_207\n      jumpi\n      tag_208\n      tag_54\n      jump\t// in\n    tag_208:\n    tag_207:\n      0x20\n      mul\n      0x20\n      add\n      add\n        /* \"contracts/e-voting scheme/BLS.sol\":4147:4183  input[i * 6 + 2] = _e2points[i].x[0] */\n      dup2\n      dup2\n      mstore\n      pop\n      pop\n        /* \"contracts/e-voting scheme/BLS.sol\":4217:4226  _e2points */\n      dup6\n        /* \"contracts/e-voting scheme/BLS.sol\":4227:4228  i */\n      dup2\n        /* \"contracts/e-voting scheme/BLS.sol\":4217:4229  _e2points[i] */\n      dup2\n      mload\n      dup2\n      lt\n      tag_209\n      jumpi\n      tag_210\n      tag_54\n      jump\t// in\n    tag_210:\n    tag_209:\n      0x20\n      mul\n      0x20\n      add\n      add\n      mload\n        /* \"contracts/e-voting scheme/BLS.sol\":4217:4231  _e2points[i].x */\n      0x00\n      add\n      mload\n        /* \"contracts/e-voting scheme/BLS.sol\":4232:4233  1 */\n      0x01\n        /* \"contracts/e-voting scheme/BLS.sol\":4217:4234  _e2points[i].x[1] */\n      0x02\n      dup2\n      lt\n      tag_211\n      jumpi\n      tag_212\n      tag_54\n      jump\t// in\n    tag_212:\n    tag_211:\n      0x20\n      mul\n      add\n      mload\n        /* \"contracts/e-voting scheme/BLS.sol\":4198:4203  input */\n      dup3\n        /* \"contracts/e-voting scheme/BLS.sol\":4212:4213  3 */\n      0x03\n        /* \"contracts/e-voting scheme/BLS.sol\":4208:4209  6 */\n      0x06\n        /* \"contracts/e-voting scheme/BLS.sol\":4204:4205  i */\n      dup5\n        /* \"contracts/e-voting scheme/BLS.sol\":4204:4209  i * 6 */\n      tag_213\n      swap2\n      swap1\n      tag_182\n      jump\t// in\n    tag_213:\n        /* \"contracts/e-voting scheme/BLS.sol\":4204:4213  i * 6 + 3 */\n      tag_214\n      swap2\n      swap1\n      tag_133\n      jump\t// in\n    tag_214:\n        /* \"contracts/e-voting scheme/BLS.sol\":4198:4214  input[i * 6 + 3] */\n      dup2\n      mload\n      dup2\n      lt\n      tag_215\n      jumpi\n      tag_216\n      tag_54\n      jump\t// in\n    tag_216:\n    tag_215:\n      0x20\n      mul\n      0x20\n      add\n      add\n        /* \"contracts/e-voting scheme/BLS.sol\":4198:4234  input[i * 6 + 3] = _e2points[i].x[1] */\n      dup2\n      dup2\n      mstore\n      pop\n      pop\n        /* \"contracts/e-voting scheme/BLS.sol\":4268:4277  _e2points */\n      dup6\n        /* \"contracts/e-voting scheme/BLS.sol\":4278:4279  i */\n      dup2\n        /* \"contracts/e-voting scheme/BLS.sol\":4268:4280  _e2points[i] */\n      dup2\n      mload\n      dup2\n      lt\n      tag_217\n      jumpi\n      tag_218\n      tag_54\n      jump\t// in\n    tag_218:\n    tag_217:\n      0x20\n      mul\n      0x20\n      add\n      add\n      mload\n        /* \"contracts/e-voting scheme/BLS.sol\":4268:4282  _e2points[i].y */\n      0x20\n      add\n      mload\n        /* \"contracts/e-voting scheme/BLS.sol\":4283:4284  0 */\n      0x00\n        /* \"contracts/e-voting scheme/BLS.sol\":4268:4285  _e2points[i].y[0] */\n      0x02\n      dup2\n      lt\n      tag_219\n      jumpi\n      tag_220\n      tag_54\n      jump\t// in\n    tag_220:\n    tag_219:\n      0x20\n      mul\n      add\n      mload\n        /* \"contracts/e-voting scheme/BLS.sol\":4249:4254  input */\n      dup3\n        /* \"contracts/e-voting scheme/BLS.sol\":4263:4264  4 */\n      0x04\n        /* \"contracts/e-voting scheme/BLS.sol\":4259:4260  6 */\n      0x06\n        /* \"contracts/e-voting scheme/BLS.sol\":4255:4256  i */\n      dup5\n        /* \"contracts/e-voting scheme/BLS.sol\":4255:4260  i * 6 */\n      tag_221\n      swap2\n      swap1\n      tag_182\n      jump\t// in\n    tag_221:\n        /* \"contracts/e-voting scheme/BLS.sol\":4255:4264  i * 6 + 4 */\n      tag_222\n      swap2\n      swap1\n      tag_133\n      jump\t// in\n    tag_222:\n        /* \"contracts/e-voting scheme/BLS.sol\":4249:4265  input[i * 6 + 4] */\n      dup2\n      mload\n      dup2\n      lt\n      tag_223\n      jumpi\n      tag_224\n      tag_54\n      jump\t// in\n    tag_224:\n    tag_223:\n      0x20\n      mul\n      0x20\n      add\n      add\n        /* \"contracts/e-voting scheme/BLS.sol\":4249:4285  input[i * 6 + 4] = _e2points[i].y[0] */\n      dup2\n      dup2\n      mstore\n      pop\n      pop\n        /* \"contracts/e-voting scheme/BLS.sol\":4319:4328  _e2points */\n      dup6\n        /* \"contracts/e-voting scheme/BLS.sol\":4329:4330  i */\n      dup2\n        /* \"contracts/e-voting scheme/BLS.sol\":4319:4331  _e2points[i] */\n      dup2\n      mload\n      dup2\n      lt\n      tag_225\n      jumpi\n      tag_226\n      tag_54\n      jump\t// in\n    tag_226:\n    tag_225:\n      0x20\n      mul\n      0x20\n      add\n      add\n      mload\n        /* \"contracts/e-voting scheme/BLS.sol\":4319:4333  _e2points[i].y */\n      0x20\n      add\n      mload\n        /* \"contracts/e-voting scheme/BLS.sol\":4334:4335  1 */\n      0x01\n        /* \"contracts/e-voting scheme/BLS.sol\":4319:4336  _e2points[i].y[1] */\n      0x02\n      dup2\n      lt\n      tag_227\n      jumpi\n      tag_228\n      tag_54\n      jump\t// in\n    tag_228:\n    tag_227:\n      0x20\n      mul\n      add\n      mload\n        /* \"contracts/e-voting scheme/BLS.sol\":4300:4305  input */\n      dup3\n        /* \"contracts/e-voting scheme/BLS.sol\":4314:4315  5 */\n      0x05\n        /* \"contracts/e-voting scheme/BLS.sol\":4310:4311  6 */\n      0x06\n        /* \"contracts/e-voting scheme/BLS.sol\":4306:4307  i */\n      dup5\n        /* \"contracts/e-voting scheme/BLS.sol\":4306:4311  i * 6 */\n      tag_229\n      swap2\n      swap1\n      tag_182\n      jump\t// in\n    tag_229:\n        /* \"contracts/e-voting scheme/BLS.sol\":4306:4315  i * 6 + 5 */\n      tag_230\n      swap2\n      swap1\n      tag_133\n      jump\t// in\n    tag_230:\n        /* \"contracts/e-voting scheme/BLS.sol\":4300:4316  input[i * 6 + 5] */\n      dup2\n      mload\n      dup2\n      lt\n      tag_231\n      jumpi\n      tag_232\n      tag_54\n      jump\t// in\n    tag_232:\n    tag_231:\n      0x20\n      mul\n      0x20\n      add\n      add\n        /* \"contracts/e-voting scheme/BLS.sol\":4300:4336  input[i * 6 + 5] = _e2points[i].y[1] */\n      dup2\n      dup2\n      mstore\n      pop\n      pop\n        /* \"contracts/e-voting scheme/BLS.sol\":4031:4034  i++ */\n      dup1\n      dup1\n      0x01\n      add\n      swap2\n      pop\n      pop\n        /* \"contracts/e-voting scheme/BLS.sol\":4000:4348  for (uint i = 0; i < elements; i++) {... */\n      jump(tag_186)\n    tag_187:\n      pop\n        /* \"contracts/e-voting scheme/BLS.sol\":4360:4378  uint[1] memory out */\n      tag_233\n      tag_234\n      jump\t// in\n    tag_233:\n        /* \"contracts/e-voting scheme/BLS.sol\":4389:4401  bool success */\n      0x00\n        /* \"contracts/e-voting scheme/BLS.sol\":4667:4671  0x20 */\n      0x20\n        /* \"contracts/e-voting scheme/BLS.sol\":4662:4665  out */\n      dup3\n        /* \"contracts/e-voting scheme/BLS.sol\":4655:4659  0x20 */\n      0x20\n        /* \"contracts/e-voting scheme/BLS.sol\":4644:4653  inputSize */\n      dup7\n        /* \"contracts/e-voting scheme/BLS.sol\":4640:4660  mul(inputSize, 0x20) */\n      mul\n        /* \"contracts/e-voting scheme/BLS.sol\":4633:4637  0x20 */\n      0x20\n        /* \"contracts/e-voting scheme/BLS.sol\":4626:4631  input */\n      dup7\n        /* \"contracts/e-voting scheme/BLS.sol\":4622:4638  add(input, 0x20) */\n      add\n        /* \"contracts/e-voting scheme/BLS.sol\":4619:4620  8 */\n      0x08\n        /* \"contracts/e-voting scheme/BLS.sol\":4612:4616  2000 */\n      0x07d0\n        /* \"contracts/e-voting scheme/BLS.sol\":4605:4610  gas() */\n      gas\n        /* \"contracts/e-voting scheme/BLS.sol\":4601:4617  sub(gas(), 2000) */\n      sub\n        /* \"contracts/e-voting scheme/BLS.sol\":4590:4672  staticcall(sub(gas(), 2000), 8, add(input, 0x20), mul(inputSize, 0x20), out, 0x20) */\n      staticcall\n        /* \"contracts/e-voting scheme/BLS.sol\":4579:4672  success := staticcall(sub(gas(), 2000), 8, add(input, 0x20), mul(inputSize, 0x20), out, 0x20) */\n      swap1\n      pop\n        /* \"contracts/e-voting scheme/BLS.sol\":4884:4891  success */\n      dup1\n        /* \"contracts/e-voting scheme/BLS.sol\":4876:4921  require(success, \"Pairing operation failed.\") */\n      tag_235\n      jumpi\n      mload(0x40)\n      0x08c379a000000000000000000000000000000000000000000000000000000000\n      dup2\n      mstore\n      0x04\n      add\n      tag_236\n      swap1\n      tag_237\n      jump\t// in\n    tag_236:\n      mload(0x40)\n      dup1\n      swap2\n      sub\n      swap1\n      revert\n    tag_235:\n        /* \"contracts/e-voting scheme/BLS.sol\":4949:4950  0 */\n      0x00\n        /* \"contracts/e-voting scheme/BLS.sol\":4939:4942  out */\n      dup3\n        /* \"contracts/e-voting scheme/BLS.sol\":4943:4944  0 */\n      0x00\n        /* \"contracts/e-voting scheme/BLS.sol\":4939:4945  out[0] */\n      0x01\n      dup2\n      lt\n      tag_238\n      jumpi\n      tag_239\n      tag_54\n      jump\t// in\n    tag_239:\n    tag_238:\n      0x20\n      mul\n      add\n      mload\n        /* \"contracts/e-voting scheme/BLS.sol\":4939:4950  out[0] != 0 */\n      eq\n      iszero\n        /* \"contracts/e-voting scheme/BLS.sol\":4932:4950  return out[0] != 0 */\n      swap6\n      pop\n      pop\n      pop\n      pop\n      pop\n      pop\n        /* \"contracts/e-voting scheme/BLS.sol\":3666:4958  function pairing(E1Point[] memory _e1points, E2Point[] memory _e2points) private view returns (bool) {... */\n      swap3\n      swap2\n      pop\n      pop\n      jump\t// out\n        /* \"contracts/e-voting scheme/ModUtils.sol\":227:1114  function modExp(uint256 base, uint256 exponent, uint256 p)... */\n    tag_164:\n        /* \"contracts/e-voting scheme/ModUtils.sol\":326:335  uint256 o */\n      0x00\n        /* \"contracts/e-voting scheme/ModUtils.sol\":582:586  0x40 */\n      0x40\n        /* \"contracts/e-voting scheme/ModUtils.sol\":576:587  mload(0x40) */\n      mload\n        /* \"contracts/e-voting scheme/ModUtils.sol\":625:629  0x20 */\n      0x20\n        /* \"contracts/e-voting scheme/ModUtils.sol\":617:623  output */\n      dup2\n        /* \"contracts/e-voting scheme/ModUtils.sol\":613:630  add(output, 0x20) */\n      add\n        /* \"contracts/e-voting scheme/ModUtils.sol\":657:661  0x20 */\n      0x20\n        /* \"contracts/e-voting scheme/ModUtils.sol\":651:655  args */\n      dup2\n        /* \"contracts/e-voting scheme/ModUtils.sol\":644:662  mstore(args, 0x20) */\n      mstore\n        /* \"contracts/e-voting scheme/ModUtils.sol\":700:704  0x20 */\n      0x20\n        /* \"contracts/e-voting scheme/ModUtils.sol\":693:697  0x20 */\n      dup1\n        /* \"contracts/e-voting scheme/ModUtils.sol\":687:691  args */\n      dup3\n        /* \"contracts/e-voting scheme/ModUtils.sol\":683:698  add(args, 0x20) */\n      add\n        /* \"contracts/e-voting scheme/ModUtils.sol\":676:705  mstore(add(args, 0x20), 0x20) */\n      mstore\n        /* \"contracts/e-voting scheme/ModUtils.sol\":743:747  0x20 */\n      0x20\n        /* \"contracts/e-voting scheme/ModUtils.sol\":736:740  0x40 */\n      0x40\n        /* \"contracts/e-voting scheme/ModUtils.sol\":730:734  args */\n      dup3\n        /* \"contracts/e-voting scheme/ModUtils.sol\":726:741  add(args, 0x40) */\n      add\n        /* \"contracts/e-voting scheme/ModUtils.sol\":719:748  mstore(add(args, 0x40), 0x20) */\n      mstore\n        /* \"contracts/e-voting scheme/ModUtils.sol\":786:790  base */\n      dup6\n        /* \"contracts/e-voting scheme/ModUtils.sol\":779:783  0x60 */\n      0x60\n        /* \"contracts/e-voting scheme/ModUtils.sol\":773:777  args */\n      dup3\n        /* \"contracts/e-voting scheme/ModUtils.sol\":769:784  add(args, 0x60) */\n      add\n        /* \"contracts/e-voting scheme/ModUtils.sol\":762:791  mstore(add(args, 0x60), base) */\n      mstore\n        /* \"contracts/e-voting scheme/ModUtils.sol\":829:837  exponent */\n      dup5\n        /* \"contracts/e-voting scheme/ModUtils.sol\":822:826  0x80 */\n      0x80\n        /* \"contracts/e-voting scheme/ModUtils.sol\":816:820  args */\n      dup3\n        /* \"contracts/e-voting scheme/ModUtils.sol\":812:827  add(args, 0x80) */\n      add\n        /* \"contracts/e-voting scheme/ModUtils.sol\":805:838  mstore(add(args, 0x80), exponent) */\n      mstore\n        /* \"contracts/e-voting scheme/ModUtils.sol\":876:877  p */\n      dup4\n        /* \"contracts/e-voting scheme/ModUtils.sol\":869:873  0xa0 */\n      0xa0\n        /* \"contracts/e-voting scheme/ModUtils.sol\":863:867  args */\n      dup3\n        /* \"contracts/e-voting scheme/ModUtils.sol\":859:874  add(args, 0xa0) */\n      add\n        /* \"contracts/e-voting scheme/ModUtils.sol\":852:878  mstore(add(args, 0xa0), p) */\n      mstore\n        /* \"contracts/e-voting scheme/ModUtils.sol\":1011:1015  0x20 */\n      0x20\n        /* \"contracts/e-voting scheme/ModUtils.sol\":1003:1009  output */\n      dup3\n        /* \"contracts/e-voting scheme/ModUtils.sol\":997:1001  0xc0 */\n      0xc0\n        /* \"contracts/e-voting scheme/ModUtils.sol\":991:995  args */\n      dup4\n        /* \"contracts/e-voting scheme/ModUtils.sol\":985:989  0x05 */\n      0x05\n        /* \"contracts/e-voting scheme/ModUtils.sol\":981:982  0 */\n      0x00\n        /* \"contracts/e-voting scheme/ModUtils.sol\":977:983  not(0) */\n      not\n        /* \"contracts/e-voting scheme/ModUtils.sol\":966:1016  staticcall(not(0), 0x05, args, 0xc0, output, 0x20) */\n      staticcall\n        /* \"contracts/e-voting scheme/ModUtils.sol\":956:1064  if iszero(staticcall(not(0), 0x05, args, 0xc0, output, 0x20)) {... */\n      tag_241\n      jumpi\n        /* \"contracts/e-voting scheme/ModUtils.sol\":1047:1048  0 */\n      0x00\n        /* \"contracts/e-voting scheme/ModUtils.sol\":1044:1045  0 */\n      dup1\n        /* \"contracts/e-voting scheme/ModUtils.sol\":1037:1049  revert(0, 0) */\n      revert\n        /* \"contracts/e-voting scheme/ModUtils.sol\":956:1064  if iszero(staticcall(not(0), 0x05, args, 0xc0, output, 0x20)) {... */\n    tag_241:\n        /* \"contracts/e-voting scheme/ModUtils.sol\":1089:1095  output */\n      dup2\n        /* \"contracts/e-voting scheme/ModUtils.sol\":1083:1096  mload(output) */\n      mload\n        /* \"contracts/e-voting scheme/ModUtils.sol\":1078:1096  o := mload(output) */\n      swap3\n      pop\n        /* \"contracts/e-voting scheme/ModUtils.sol\":402:1107  {... */\n      pop\n      pop\n        /* \"contracts/e-voting scheme/ModUtils.sol\":227:1114  function modExp(uint256 base, uint256 exponent, uint256 p)... */\n      swap4\n      swap3\n      pop\n      pop\n      pop\n      jump\t// out\n        /* \"contracts/e-voting scheme/ModUtils.sol\":1338:2703  function modSqrt(uint256 a, uint256 p) internal view returns(uint256 z)... */\n    tag_167:\n        /* \"contracts/e-voting scheme/ModUtils.sol\":1399:1408  uint256 z */\n      0x00\n        /* \"contracts/e-voting scheme/ModUtils.sol\":1450:1451  1 */\n      0x01\n        /* \"contracts/e-voting scheme/ModUtils.sol\":1432:1446  legendre(a, p) */\n      tag_243\n        /* \"contracts/e-voting scheme/ModUtils.sol\":1441:1442  a */\n      dup5\n        /* \"contracts/e-voting scheme/ModUtils.sol\":1444:1445  p */\n      dup5\n        /* \"contracts/e-voting scheme/ModUtils.sol\":1432:1440  legendre */\n      tag_244\n        /* \"contracts/e-voting scheme/ModUtils.sol\":1432:1446  legendre(a, p) */\n      jump\t// in\n    tag_243:\n        /* \"contracts/e-voting scheme/ModUtils.sol\":1432:1451  legendre(a, p) != 1 */\n      eq\n        /* \"contracts/e-voting scheme/ModUtils.sol\":1428:1488  if (legendre(a, p) != 1) {... */\n      tag_245\n      jumpi\n        /* \"contracts/e-voting scheme/ModUtils.sol\":1475:1476  0 */\n      0x00\n        /* \"contracts/e-voting scheme/ModUtils.sol\":1468:1476  return 0 */\n      swap1\n      pop\n      jump(tag_242)\n        /* \"contracts/e-voting scheme/ModUtils.sol\":1428:1488  if (legendre(a, p) != 1) {... */\n    tag_245:\n        /* \"contracts/e-voting scheme/ModUtils.sol\":1509:1510  0 */\n      0x00\n        /* \"contracts/e-voting scheme/ModUtils.sol\":1504:1505  a */\n      dup4\n        /* \"contracts/e-voting scheme/ModUtils.sol\":1504:1510  a == 0 */\n      sub\n        /* \"contracts/e-voting scheme/ModUtils.sol\":1500:1547  if (a == 0) {... */\n      tag_246\n      jumpi\n        /* \"contracts/e-voting scheme/ModUtils.sol\":1534:1535  0 */\n      0x00\n        /* \"contracts/e-voting scheme/ModUtils.sol\":1527:1535  return 0 */\n      swap1\n      pop\n      jump(tag_242)\n        /* \"contracts/e-voting scheme/ModUtils.sol\":1500:1547  if (a == 0) {... */\n    tag_246:\n        /* \"contracts/e-voting scheme/ModUtils.sol\":1572:1573  3 */\n      0x03\n        /* \"contracts/e-voting scheme/ModUtils.sol\":1567:1568  4 */\n      0x04\n        /* \"contracts/e-voting scheme/ModUtils.sol\":1563:1564  p */\n      dup4\n        /* \"contracts/e-voting scheme/ModUtils.sol\":1563:1568  p % 4 */\n      tag_247\n      swap2\n      swap1\n      tag_126\n      jump\t// in\n    tag_247:\n        /* \"contracts/e-voting scheme/ModUtils.sol\":1563:1573  p % 4 == 3 */\n      sub\n        /* \"contracts/e-voting scheme/ModUtils.sol\":1559:1634  if (p % 4 == 3) {... */\n      tag_248\n      jumpi\n        /* \"contracts/e-voting scheme/ModUtils.sol\":1597:1622  modExp(a, (p + 1) / 4, p) */\n      tag_249\n        /* \"contracts/e-voting scheme/ModUtils.sol\":1604:1605  a */\n      dup4\n        /* \"contracts/e-voting scheme/ModUtils.sol\":1617:1618  4 */\n      0x04\n        /* \"contracts/e-voting scheme/ModUtils.sol\":1612:1613  1 */\n      0x01\n        /* \"contracts/e-voting scheme/ModUtils.sol\":1608:1609  p */\n      dup6\n        /* \"contracts/e-voting scheme/ModUtils.sol\":1608:1613  p + 1 */\n      tag_250\n      swap2\n      swap1\n      tag_133\n      jump\t// in\n    tag_250:\n        /* \"contracts/e-voting scheme/ModUtils.sol\":1607:1618  (p + 1) / 4 */\n      tag_251\n      swap2\n      swap1\n      tag_252\n      jump\t// in\n    tag_251:\n        /* \"contracts/e-voting scheme/ModUtils.sol\":1620:1621  p */\n      dup5\n        /* \"contracts/e-voting scheme/ModUtils.sol\":1597:1603  modExp */\n      tag_164\n        /* \"contracts/e-voting scheme/ModUtils.sol\":1597:1622  modExp(a, (p + 1) / 4, p) */\n      jump\t// in\n    tag_249:\n        /* \"contracts/e-voting scheme/ModUtils.sol\":1590:1622  return modExp(a, (p + 1) / 4, p) */\n      swap1\n      pop\n      jump(tag_242)\n        /* \"contracts/e-voting scheme/ModUtils.sol\":1559:1634  if (p % 4 == 3) {... */\n    tag_248:\n        /* \"contracts/e-voting scheme/ModUtils.sol\":1646:1655  uint256 s */\n      0x00\n        /* \"contracts/e-voting scheme/ModUtils.sol\":1662:1663  1 */\n      0x01\n        /* \"contracts/e-voting scheme/ModUtils.sol\":1658:1659  p */\n      dup4\n        /* \"contracts/e-voting scheme/ModUtils.sol\":1658:1663  p - 1 */\n      tag_253\n      swap2\n      swap1\n      tag_97\n      jump\t// in\n    tag_253:\n        /* \"contracts/e-voting scheme/ModUtils.sol\":1646:1663  uint256 s = p - 1 */\n      swap1\n      pop\n        /* \"contracts/e-voting scheme/ModUtils.sol\":1674:1683  uint256 e */\n      0x00\n        /* \"contracts/e-voting scheme/ModUtils.sol\":1700:1779  while (s % 2 == 0) {... */\n    tag_254:\n        /* \"contracts/e-voting scheme/ModUtils.sol\":1716:1717  0 */\n      0x00\n        /* \"contracts/e-voting scheme/ModUtils.sol\":1711:1712  2 */\n      0x02\n        /* \"contracts/e-voting scheme/ModUtils.sol\":1707:1708  s */\n      dup4\n        /* \"contracts/e-voting scheme/ModUtils.sol\":1707:1712  s % 2 */\n      tag_256\n      swap2\n      swap1\n      tag_126\n      jump\t// in\n    tag_256:\n        /* \"contracts/e-voting scheme/ModUtils.sol\":1707:1717  s % 2 == 0 */\n      sub\n        /* \"contracts/e-voting scheme/ModUtils.sol\":1700:1779  while (s % 2 == 0) {... */\n      tag_255\n      jumpi\n        /* \"contracts/e-voting scheme/ModUtils.sol\":1742:1743  2 */\n      0x02\n        /* \"contracts/e-voting scheme/ModUtils.sol\":1738:1739  s */\n      dup3\n        /* \"contracts/e-voting scheme/ModUtils.sol\":1738:1743  s / 2 */\n      tag_257\n      swap2\n      swap1\n      tag_252\n      jump\t// in\n    tag_257:\n        /* \"contracts/e-voting scheme/ModUtils.sol\":1734:1743  s = s / 2 */\n      swap2\n      pop\n        /* \"contracts/e-voting scheme/ModUtils.sol\":1766:1767  1 */\n      0x01\n        /* \"contracts/e-voting scheme/ModUtils.sol\":1762:1763  e */\n      dup2\n        /* \"contracts/e-voting scheme/ModUtils.sol\":1762:1767  e + 1 */\n      tag_258\n      swap2\n      swap1\n      tag_133\n      jump\t// in\n    tag_258:\n        /* \"contracts/e-voting scheme/ModUtils.sol\":1758:1767  e = e + 1 */\n      swap1\n      pop\n        /* \"contracts/e-voting scheme/ModUtils.sol\":1700:1779  while (s % 2 == 0) {... */\n      jump(tag_254)\n    tag_255:\n        /* \"contracts/e-voting scheme/ModUtils.sol\":1890:1899  uint256 n */\n      0x00\n        /* \"contracts/e-voting scheme/ModUtils.sol\":1902:1903  2 */\n      0x02\n        /* \"contracts/e-voting scheme/ModUtils.sol\":1890:1903  uint256 n = 2 */\n      swap1\n      pop\n        /* \"contracts/e-voting scheme/ModUtils.sol\":1914:1979  while (legendre(n, p) != -1) {... */\n    tag_259:\n        /* \"contracts/e-voting scheme/ModUtils.sol\":1939:1941  -1 */\n      0xffffffffffffffffffffffffffffffffffffffffffffffffffffffffffffffff\n        /* \"contracts/e-voting scheme/ModUtils.sol\":1921:1935  legendre(n, p) */\n      tag_261\n        /* \"contracts/e-voting scheme/ModUtils.sol\":1930:1931  n */\n      dup3\n        /* \"contracts/e-voting scheme/ModUtils.sol\":1933:1934  p */\n      dup8\n        /* \"contracts/e-voting scheme/ModUtils.sol\":1921:1929  legendre */\n      tag_244\n        /* \"contracts/e-voting scheme/ModUtils.sol\":1921:1935  legendre(n, p) */\n      jump\t// in\n    tag_261:\n        /* \"contracts/e-voting scheme/ModUtils.sol\":1921:1941  legendre(n, p) != -1 */\n      eq\n        /* \"contracts/e-voting scheme/ModUtils.sol\":1914:1979  while (legendre(n, p) != -1) {... */\n      tag_260\n      jumpi\n        /* \"contracts/e-voting scheme/ModUtils.sol\":1966:1967  1 */\n      0x01\n        /* \"contracts/e-voting scheme/ModUtils.sol\":1962:1963  n */\n      dup2\n        /* \"contracts/e-voting scheme/ModUtils.sol\":1962:1967  n + 1 */\n      tag_262\n      swap2\n      swap1\n      tag_133\n      jump\t// in\n    tag_262:\n        /* \"contracts/e-voting scheme/ModUtils.sol\":1958:1967  n = n + 1 */\n      swap1\n      pop\n        /* \"contracts/e-voting scheme/ModUtils.sol\":1914:1979  while (legendre(n, p) != -1) {... */\n      jump(tag_259)\n    tag_260:\n        /* \"contracts/e-voting scheme/ModUtils.sol\":1991:2000  uint256 x */\n      0x00\n        /* \"contracts/e-voting scheme/ModUtils.sol\":2003:2028  modExp(a, (s + 1) / 2, p) */\n      tag_263\n        /* \"contracts/e-voting scheme/ModUtils.sol\":2010:2011  a */\n      dup8\n        /* \"contracts/e-voting scheme/ModUtils.sol\":2023:2024  2 */\n      0x02\n        /* \"contracts/e-voting scheme/ModUtils.sol\":2018:2019  1 */\n      0x01\n        /* \"contracts/e-voting scheme/ModUtils.sol\":2014:2015  s */\n      dup8\n        /* \"contracts/e-voting scheme/ModUtils.sol\":2014:2019  s + 1 */\n      tag_264\n      swap2\n      swap1\n      tag_133\n      jump\t// in\n    tag_264:\n        /* \"contracts/e-voting scheme/ModUtils.sol\":2013:2024  (s + 1) / 2 */\n      tag_265\n      swap2\n      swap1\n      tag_252\n      jump\t// in\n    tag_265:\n        /* \"contracts/e-voting scheme/ModUtils.sol\":2026:2027  p */\n      dup9\n        /* \"contracts/e-voting scheme/ModUtils.sol\":2003:2009  modExp */\n      tag_164\n        /* \"contracts/e-voting scheme/ModUtils.sol\":2003:2028  modExp(a, (s + 1) / 2, p) */\n      jump\t// in\n    tag_263:\n        /* \"contracts/e-voting scheme/ModUtils.sol\":1991:2028  uint256 x = modExp(a, (s + 1) / 2, p) */\n      swap1\n      pop\n        /* \"contracts/e-voting scheme/ModUtils.sol\":2039:2048  uint256 b */\n      0x00\n        /* \"contracts/e-voting scheme/ModUtils.sol\":2051:2066  modExp(a, s, p) */\n      tag_266\n        /* \"contracts/e-voting scheme/ModUtils.sol\":2058:2059  a */\n      dup9\n        /* \"contracts/e-voting scheme/ModUtils.sol\":2061:2062  s */\n      dup7\n        /* \"contracts/e-voting scheme/ModUtils.sol\":2064:2065  p */\n      dup10\n        /* \"contracts/e-voting scheme/ModUtils.sol\":2051:2057  modExp */\n      tag_164\n        /* \"contracts/e-voting scheme/ModUtils.sol\":2051:2066  modExp(a, s, p) */\n      jump\t// in\n    tag_266:\n        /* \"contracts/e-voting scheme/ModUtils.sol\":2039:2066  uint256 b = modExp(a, s, p) */\n      swap1\n      pop\n        /* \"contracts/e-voting scheme/ModUtils.sol\":2077:2086  uint256 g */\n      0x00\n        /* \"contracts/e-voting scheme/ModUtils.sol\":2089:2104  modExp(n, s, p) */\n      tag_267\n        /* \"contracts/e-voting scheme/ModUtils.sol\":2096:2097  n */\n      dup5\n        /* \"contracts/e-voting scheme/ModUtils.sol\":2099:2100  s */\n      dup8\n        /* \"contracts/e-voting scheme/ModUtils.sol\":2102:2103  p */\n      dup11\n        /* \"contracts/e-voting scheme/ModUtils.sol\":2089:2095  modExp */\n      tag_164\n        /* \"contracts/e-voting scheme/ModUtils.sol\":2089:2104  modExp(n, s, p) */\n      jump\t// in\n    tag_267:\n        /* \"contracts/e-voting scheme/ModUtils.sol\":2077:2104  uint256 g = modExp(n, s, p) */\n      swap1\n      pop\n        /* \"contracts/e-voting scheme/ModUtils.sol\":2115:2124  uint256 r */\n      0x00\n        /* \"contracts/e-voting scheme/ModUtils.sol\":2127:2128  e */\n      dup6\n        /* \"contracts/e-voting scheme/ModUtils.sol\":2115:2128  uint256 r = e */\n      swap1\n      pop\n        /* \"contracts/e-voting scheme/ModUtils.sol\":2139:2149  uint256 gs */\n      0x00\n        /* \"contracts/e-voting scheme/ModUtils.sol\":2164:2173  uint256 m */\n      dup1\n        /* \"contracts/e-voting scheme/ModUtils.sol\":2188:2197  uint256 t */\n      0x00\n        /* \"contracts/e-voting scheme/ModUtils.sol\":2200:2201  b */\n      dup6\n        /* \"contracts/e-voting scheme/ModUtils.sol\":2188:2201  uint256 t = b */\n      swap1\n      pop\n        /* \"contracts/e-voting scheme/ModUtils.sol\":2214:2696  while (true) {... */\n    tag_268:\n        /* \"contracts/e-voting scheme/ModUtils.sol\":2221:2225  true */\n      0x01\n        /* \"contracts/e-voting scheme/ModUtils.sol\":2214:2696  while (true) {... */\n      iszero\n      tag_269\n      jumpi\n        /* \"contracts/e-voting scheme/ModUtils.sol\":2246:2247  b */\n      dup6\n        /* \"contracts/e-voting scheme/ModUtils.sol\":2242:2247  t = b */\n      swap1\n      pop\n        /* \"contracts/e-voting scheme/ModUtils.sol\":2266:2267  0 */\n      0x00\n        /* \"contracts/e-voting scheme/ModUtils.sol\":2262:2267  m = 0 */\n      swap2\n      pop\n        /* \"contracts/e-voting scheme/ModUtils.sol\":2293:2294  0 */\n      0x00\n        /* \"contracts/e-voting scheme/ModUtils.sol\":2289:2294  m = 0 */\n      swap2\n      pop\n        /* \"contracts/e-voting scheme/ModUtils.sol\":2284:2440  for (m = 0; m < r; m++) {... */\n    tag_270:\n        /* \"contracts/e-voting scheme/ModUtils.sol\":2300:2301  r */\n      dup4\n        /* \"contracts/e-voting scheme/ModUtils.sol\":2296:2297  m */\n      dup3\n        /* \"contracts/e-voting scheme/ModUtils.sol\":2296:2301  m < r */\n      lt\n        /* \"contracts/e-voting scheme/ModUtils.sol\":2284:2440  for (m = 0; m < r; m++) {... */\n      iszero\n      tag_271\n      jumpi\n        /* \"contracts/e-voting scheme/ModUtils.sol\":2336:2337  1 */\n      0x01\n        /* \"contracts/e-voting scheme/ModUtils.sol\":2331:2332  t */\n      dup2\n        /* \"contracts/e-voting scheme/ModUtils.sol\":2331:2337  t == 1 */\n      sub\n        /* \"contracts/e-voting scheme/ModUtils.sol\":2327:2387  if (t == 1) {... */\n      iszero\n        /* \"contracts/e-voting scheme/ModUtils.sol\":2362:2367  break */\n      tag_271\n        /* \"contracts/e-voting scheme/ModUtils.sol\":2327:2387  if (t == 1) {... */\n      jumpi\n        /* \"contracts/e-voting scheme/ModUtils.sol\":2409:2424  modExp(t, 2, p) */\n      tag_274\n        /* \"contracts/e-voting scheme/ModUtils.sol\":2416:2417  t */\n      dup2\n        /* \"contracts/e-voting scheme/ModUtils.sol\":2419:2420  2 */\n      0x02\n        /* \"contracts/e-voting scheme/ModUtils.sol\":2422:2423  p */\n      dup15\n        /* \"contracts/e-voting scheme/ModUtils.sol\":2409:2415  modExp */\n      tag_164\n        /* \"contracts/e-voting scheme/ModUtils.sol\":2409:2424  modExp(t, 2, p) */\n      jump\t// in\n    tag_274:\n        /* \"contracts/e-voting scheme/ModUtils.sol\":2405:2424  t = modExp(t, 2, p) */\n      swap1\n      pop\n        /* \"contracts/e-voting scheme/ModUtils.sol\":2303:2306  m++ */\n      dup2\n      dup1\n      0x01\n      add\n      swap3\n      pop\n      pop\n        /* \"contracts/e-voting scheme/ModUtils.sol\":2284:2440  for (m = 0; m < r; m++) {... */\n      jump(tag_270)\n    tag_271:\n        /* \"contracts/e-voting scheme/ModUtils.sol\":2465:2466  0 */\n      0x00\n        /* \"contracts/e-voting scheme/ModUtils.sol\":2460:2461  m */\n      dup3\n        /* \"contracts/e-voting scheme/ModUtils.sol\":2460:2466  m == 0 */\n      sub\n        /* \"contracts/e-voting scheme/ModUtils.sol\":2456:2511  if (m == 0) {... */\n      tag_275\n      jumpi\n        /* \"contracts/e-voting scheme/ModUtils.sol\":2494:2495  x */\n      dup7\n        /* \"contracts/e-voting scheme/ModUtils.sol\":2487:2495  return x */\n      swap11\n      pop\n      pop\n      pop\n      pop\n      pop\n      pop\n      pop\n      pop\n      pop\n      pop\n      pop\n      jump(tag_242)\n        /* \"contracts/e-voting scheme/ModUtils.sol\":2456:2511  if (m == 0) {... */\n    tag_275:\n        /* \"contracts/e-voting scheme/ModUtils.sol\":2532:2571  modExp(g, uint256(2) ** (r - m - 1), p) */\n      tag_276\n        /* \"contracts/e-voting scheme/ModUtils.sol\":2539:2540  g */\n      dup6\n        /* \"contracts/e-voting scheme/ModUtils.sol\":2565:2566  1 */\n      0x01\n        /* \"contracts/e-voting scheme/ModUtils.sol\":2561:2562  m */\n      dup5\n        /* \"contracts/e-voting scheme/ModUtils.sol\":2557:2558  r */\n      dup8\n        /* \"contracts/e-voting scheme/ModUtils.sol\":2557:2562  r - m */\n      tag_277\n      swap2\n      swap1\n      tag_97\n      jump\t// in\n    tag_277:\n        /* \"contracts/e-voting scheme/ModUtils.sol\":2557:2566  r - m - 1 */\n      tag_278\n      swap2\n      swap1\n      tag_97\n      jump\t// in\n    tag_278:\n        /* \"contracts/e-voting scheme/ModUtils.sol\":2550:2551  2 */\n      0x02\n        /* \"contracts/e-voting scheme/ModUtils.sol\":2542:2567  uint256(2) ** (r - m - 1) */\n      tag_279\n      swap2\n      swap1\n      tag_280\n      jump\t// in\n    tag_279:\n        /* \"contracts/e-voting scheme/ModUtils.sol\":2569:2570  p */\n      dup15\n        /* \"contracts/e-voting scheme/ModUtils.sol\":2532:2538  modExp */\n      tag_164\n        /* \"contracts/e-voting scheme/ModUtils.sol\":2532:2571  modExp(g, uint256(2) ** (r - m - 1), p) */\n      jump\t// in\n    tag_276:\n        /* \"contracts/e-voting scheme/ModUtils.sol\":2527:2571  gs = modExp(g, uint256(2) ** (r - m - 1), p) */\n      swap3\n      pop\n        /* \"contracts/e-voting scheme/ModUtils.sol\":2602:2603  p */\n      dup12\n        /* \"contracts/e-voting scheme/ModUtils.sol\":2596:2598  gs */\n      dup4\n        /* \"contracts/e-voting scheme/ModUtils.sol\":2591:2593  gs */\n      dup5\n        /* \"contracts/e-voting scheme/ModUtils.sol\":2591:2598  gs * gs */\n      tag_281\n      swap2\n      swap1\n      tag_182\n      jump\t// in\n    tag_281:\n        /* \"contracts/e-voting scheme/ModUtils.sol\":2590:2603  (gs * gs) % p */\n      tag_282\n      swap2\n      swap1\n      tag_126\n      jump\t// in\n    tag_282:\n        /* \"contracts/e-voting scheme/ModUtils.sol\":2586:2603  g = (gs * gs) % p */\n      swap5\n      pop\n        /* \"contracts/e-voting scheme/ModUtils.sol\":2633:2634  p */\n      dup12\n        /* \"contracts/e-voting scheme/ModUtils.sol\":2627:2629  gs */\n      dup4\n        /* \"contracts/e-voting scheme/ModUtils.sol\":2623:2624  x */\n      dup9\n        /* \"contracts/e-voting scheme/ModUtils.sol\":2623:2629  x * gs */\n      tag_283\n      swap2\n      swap1\n      tag_182\n      jump\t// in\n    tag_283:\n        /* \"contracts/e-voting scheme/ModUtils.sol\":2622:2634  (x * gs) % p */\n      tag_284\n      swap2\n      swap1\n      tag_126\n      jump\t// in\n    tag_284:\n        /* \"contracts/e-voting scheme/ModUtils.sol\":2618:2634  x = (x * gs) % p */\n      swap7\n      pop\n        /* \"contracts/e-voting scheme/ModUtils.sol\":2663:2664  p */\n      dup12\n        /* \"contracts/e-voting scheme/ModUtils.sol\":2658:2659  g */\n      dup6\n        /* \"contracts/e-voting scheme/ModUtils.sol\":2654:2655  b */\n      dup8\n        /* \"contracts/e-voting scheme/ModUtils.sol\":2654:2659  b * g */\n      tag_285\n      swap2\n      swap1\n      tag_182\n      jump\t// in\n    tag_285:\n        /* \"contracts/e-voting scheme/ModUtils.sol\":2653:2664  (b * g) % p */\n      tag_286\n      swap2\n      swap1\n      tag_126\n      jump\t// in\n    tag_286:\n        /* \"contracts/e-voting scheme/ModUtils.sol\":2649:2664  b = (b * g) % p */\n      swap6\n      pop\n        /* \"contracts/e-voting scheme/ModUtils.sol\":2683:2684  m */\n      dup2\n        /* \"contracts/e-voting scheme/ModUtils.sol\":2679:2684  r = m */\n      swap4\n      pop\n        /* \"contracts/e-voting scheme/ModUtils.sol\":2214:2696  while (true) {... */\n      jump(tag_268)\n    tag_269:\n        /* \"contracts/e-voting scheme/ModUtils.sol\":1415:2703  {... */\n      pop\n      pop\n      pop\n      pop\n      pop\n      pop\n      pop\n      pop\n      pop\n      pop\n        /* \"contracts/e-voting scheme/ModUtils.sol\":1338:2703  function modSqrt(uint256 a, uint256 p) internal view returns(uint256 z)... */\n    tag_242:\n      swap3\n      swap2\n      pop\n      pop\n      jump\t// out\n        /* \"contracts/e-voting scheme/BLS.sol\":5823:5953  function isAtInfinity(E1Point memory _point) private pure returns (bool){... */\n    tag_171:\n        /* \"contracts/e-voting scheme/BLS.sol\":5890:5894  bool */\n      0x00\n        /* \"contracts/e-voting scheme/BLS.sol\":5926:5927  0 */\n      dup1\n        /* \"contracts/e-voting scheme/BLS.sol\":5914:5920  _point */\n      dup3\n        /* \"contracts/e-voting scheme/BLS.sol\":5914:5922  _point.x */\n      0x00\n      add\n      mload\n        /* \"contracts/e-voting scheme/BLS.sol\":5914:5927  _point.x == 0 */\n      eq\n        /* \"contracts/e-voting scheme/BLS.sol\":5914:5944  _point.x == 0 && _point.y == 0 */\n      dup1\n      iszero\n      tag_288\n      jumpi\n      pop\n        /* \"contracts/e-voting scheme/BLS.sol\":5943:5944  0 */\n      0x00\n        /* \"contracts/e-voting scheme/BLS.sol\":5931:5937  _point */\n      dup3\n        /* \"contracts/e-voting scheme/BLS.sol\":5931:5939  _point.y */\n      0x20\n      add\n      mload\n        /* \"contracts/e-voting scheme/BLS.sol\":5931:5944  _point.y == 0 */\n      eq\n        /* \"contracts/e-voting scheme/BLS.sol\":5914:5944  _point.x == 0 && _point.y == 0 */\n    tag_288:\n        /* \"contracts/e-voting scheme/BLS.sol\":5906:5945  return (_point.x == 0 && _point.y == 0) */\n      swap1\n      pop\n        /* \"contracts/e-voting scheme/BLS.sol\":5823:5953  function isAtInfinity(E1Point memory _point) private pure returns (bool){... */\n      swap2\n      swap1\n      pop\n      jump\t// out\n        /* \"contracts/e-voting scheme/ModUtils.sol\":2711:3073  function legendre(uint256 a, uint256 p)internal view returns(int256 x1)... */\n    tag_244:\n        /* \"contracts/e-voting scheme/ModUtils.sol\":2772:2781  int256 x1 */\n      0x00\n        /* \"contracts/e-voting scheme/ModUtils.sol\":2799:2813  uint256 raised */\n      dup1\n        /* \"contracts/e-voting scheme/ModUtils.sol\":2816:2850  modExp(a, (p - 1) / uint256(2), p) */\n      tag_290\n        /* \"contracts/e-voting scheme/ModUtils.sol\":2823:2824  a */\n      dup5\n        /* \"contracts/e-voting scheme/ModUtils.sol\":2844:2845  2 */\n      0x02\n        /* \"contracts/e-voting scheme/ModUtils.sol\":2831:2832  1 */\n      0x01\n        /* \"contracts/e-voting scheme/ModUtils.sol\":2827:2828  p */\n      dup7\n        /* \"contracts/e-voting scheme/ModUtils.sol\":2827:2832  p - 1 */\n      tag_291\n      swap2\n      swap1\n      tag_97\n      jump\t// in\n    tag_291:\n        /* \"contracts/e-voting scheme/ModUtils.sol\":2826:2846  (p - 1) / uint256(2) */\n      tag_292\n      swap2\n      swap1\n      tag_252\n      jump\t// in\n    tag_292:\n        /* \"contracts/e-voting scheme/ModUtils.sol\":2848:2849  p */\n      dup6\n        /* \"contracts/e-voting scheme/ModUtils.sol\":2816:2822  modExp */\n      tag_164\n        /* \"contracts/e-voting scheme/ModUtils.sol\":2816:2850  modExp(a, (p - 1) / uint256(2), p) */\n      jump\t// in\n    tag_290:\n        /* \"contracts/e-voting scheme/ModUtils.sol\":2799:2850  uint256 raised = modExp(a, (p - 1) / uint256(2), p) */\n      swap1\n      pop\n        /* \"contracts/e-voting scheme/ModUtils.sol\":2877:2878  0 */\n      0x00\n        /* \"contracts/e-voting scheme/ModUtils.sol\":2867:2873  raised */\n      dup2\n        /* \"contracts/e-voting scheme/ModUtils.sol\":2867:2878  raised == 0 */\n      eq\n        /* \"contracts/e-voting scheme/ModUtils.sol\":2867:2893  raised == 0 || raised == 1 */\n      dup1\n      tag_293\n      jumpi\n      pop\n        /* \"contracts/e-voting scheme/ModUtils.sol\":2892:2893  1 */\n      0x01\n        /* \"contracts/e-voting scheme/ModUtils.sol\":2882:2888  raised */\n      dup2\n        /* \"contracts/e-voting scheme/ModUtils.sol\":2882:2893  raised == 1 */\n      eq\n        /* \"contracts/e-voting scheme/ModUtils.sol\":2867:2893  raised == 0 || raised == 1 */\n    tag_293:\n        /* \"contracts/e-voting scheme/ModUtils.sol\":2863:3006  if (raised == 0 || raised == 1) {... */\n      iszero\n      tag_294\n      jumpi\n        /* \"contracts/e-voting scheme/ModUtils.sol\":2924:2930  raised */\n      dup1\n        /* \"contracts/e-voting scheme/ModUtils.sol\":2910:2931  return int256(raised) */\n      swap2\n      pop\n      pop\n      jump(tag_289)\n        /* \"contracts/e-voting scheme/ModUtils.sol\":2863:3006  if (raised == 0 || raised == 1) {... */\n    tag_294:\n        /* \"contracts/e-voting scheme/ModUtils.sol\":2967:2968  1 */\n      0x01\n        /* \"contracts/e-voting scheme/ModUtils.sol\":2963:2964  p */\n      dup4\n        /* \"contracts/e-voting scheme/ModUtils.sol\":2963:2968  p - 1 */\n      tag_296\n      swap2\n      swap1\n      tag_97\n      jump\t// in\n    tag_296:\n        /* \"contracts/e-voting scheme/ModUtils.sol\":2953:2959  raised */\n      dup2\n        /* \"contracts/e-voting scheme/ModUtils.sol\":2953:2968  raised == p - 1 */\n      sub\n        /* \"contracts/e-voting scheme/ModUtils.sol\":2949:3006  if (raised == p - 1) {... */\n      tag_297\n      jumpi\n        /* \"contracts/e-voting scheme/ModUtils.sol\":2992:2994  -1 */\n      0xffffffffffffffffffffffffffffffffffffffffffffffffffffffffffffffff\n        /* \"contracts/e-voting scheme/ModUtils.sol\":2985:2994  return -1 */\n      swap2\n      pop\n      pop\n      jump(tag_289)\n        /* \"contracts/e-voting scheme/ModUtils.sol\":2949:3006  if (raised == p - 1) {... */\n    tag_297:\n        /* \"contracts/e-voting scheme/ModUtils.sol\":3026:3031  false */\n      0x00\n        /* \"contracts/e-voting scheme/ModUtils.sol\":3018:3065  require(false, \"Failed to calculate legendre.\") */\n      tag_298\n      jumpi\n      mload(0x40)\n      0x08c379a000000000000000000000000000000000000000000000000000000000\n      dup2\n      mstore\n      0x04\n      add\n      tag_299\n      swap1\n      tag_300\n      jump\t// in\n    tag_299:\n      mload(0x40)\n      dup1\n      swap2\n      sub\n      swap1\n      revert\n    tag_298:\n        /* \"contracts/e-voting scheme/ModUtils.sol\":2788:3073  {... */\n      pop\n        /* \"contracts/e-voting scheme/ModUtils.sol\":2711:3073  function legendre(uint256 a, uint256 p)internal view returns(int256 x1)... */\n    tag_289:\n      swap3\n      swap2\n      pop\n      pop\n      jump\t// out\n    tag_50:\n      mload(0x40)\n      dup1\n      0x40\n      add\n      0x40\n      mstore\n      dup1\n      0x00\n      dup2\n      mstore\n      0x20\n      add\n      0x00\n      dup2\n      mstore\n      pop\n      swap1\n      jump\t// out\n    tag_106:\n      mload(0x40)\n      dup1\n      0x80\n      add\n      0x40\n      mstore\n      dup1\n      0x04\n      swap1\n      0x20\n      dup3\n      mul\n      dup1\n      calldatasize\n      dup4\n      calldatacopy\n      dup1\n      dup3\n      add\n      swap2\n      pop\n      pop\n      swap1\n      pop\n      pop\n      swap1\n      jump\t// out\n    tag_146:\n      mload(0x40)\n      dup1\n      0x40\n      add\n      0x40\n      mstore\n      dup1\n      tag_301\n      tag_302\n      jump\t// in\n    tag_301:\n      dup2\n      mstore\n      0x20\n      add\n      tag_303\n      tag_302\n      jump\t// in\n    tag_303:\n      dup2\n      mstore\n      pop\n      swap1\n      jump\t// out\n    tag_234:\n      mload(0x40)\n      dup1\n      0x20\n      add\n      0x40\n      mstore\n      dup1\n      0x01\n      swap1\n      0x20\n      dup3\n      mul\n      dup1\n      calldatasize\n      dup4\n      calldatacopy\n      dup1\n      dup3\n      add\n      swap2\n      pop\n      pop\n      swap1\n      pop\n      pop\n      swap1\n      jump\t// out\n    tag_302:\n      mload(0x40)\n      dup1\n      0x40\n      add\n      0x40\n      mstore\n      dup1\n      0x02\n      swap1\n      0x20\n      dup3\n      mul\n      dup1\n      calldatasize\n      dup4\n      calldatacopy\n      dup1\n      dup3\n      add\n      swap2\n      pop\n      pop\n      swap1\n      pop\n      pop\n      swap1\n      jump\t// out\n        /* \"#utility.yul\":7:82   */\n    tag_304:\n        /* \"#utility.yul\":40:46   */\n      0x00\n        /* \"#utility.yul\":73:75   */\n      0x40\n        /* \"#utility.yul\":67:76   */\n      mload\n        /* \"#utility.yul\":57:76   */\n      swap1\n      pop\n        /* \"#utility.yul\":7:82   */\n      swap1\n      jump\t// out\n        /* \"#utility.yul\":88:205   */\n    tag_305:\n        /* \"#utility.yul\":197:198   */\n      0x00\n        /* \"#utility.yul\":194:195   */\n      dup1\n        /* \"#utility.yul\":187:199   */\n      revert\n        /* \"#utility.yul\":211:328   */\n    tag_306:\n        /* \"#utility.yul\":320:321   */\n      0x00\n        /* \"#utility.yul\":317:318   */\n      dup1\n        /* \"#utility.yul\":310:322   */\n      revert\n        /* \"#utility.yul\":334:451   */\n    tag_307:\n        /* \"#utility.yul\":443:444   */\n      0x00\n        /* \"#utility.yul\":440:441   */\n      dup1\n        /* \"#utility.yul\":433:445   */\n      revert\n        /* \"#utility.yul\":457:574   */\n    tag_308:\n        /* \"#utility.yul\":566:567   */\n      0x00\n        /* \"#utility.yul\":563:564   */\n      dup1\n        /* \"#utility.yul\":556:568   */\n      revert\n        /* \"#utility.yul\":580:682   */\n    tag_309:\n        /* \"#utility.yul\":621:627   */\n      0x00\n        /* \"#utility.yul\":672:674   */\n      0x1f\n        /* \"#utility.yul\":668:675   */\n      not\n        /* \"#utility.yul\":663:665   */\n      0x1f\n        /* \"#utility.yul\":656:661   */\n      dup4\n        /* \"#utility.yul\":652:666   */\n      add\n        /* \"#utility.yul\":648:676   */\n      and\n        /* \"#utility.yul\":638:676   */\n      swap1\n      pop\n        /* \"#utility.yul\":580:682   */\n      swap2\n      swap1\n      pop\n      jump\t// out\n        /* \"#utility.yul\":688:868   */\n    tag_137:\n        /* \"#utility.yul\":736:813   */\n      0x4e487b7100000000000000000000000000000000000000000000000000000000\n        /* \"#utility.yul\":733:734   */\n      0x00\n        /* \"#utility.yul\":726:814   */\n      mstore\n        /* \"#utility.yul\":833:837   */\n      0x41\n        /* \"#utility.yul\":830:831   */\n      0x04\n        /* \"#utility.yul\":823:838   */\n      mstore\n        /* \"#utility.yul\":857:861   */\n      0x24\n        /* \"#utility.yul\":854:855   */\n      0x00\n        /* \"#utility.yul\":847:862   */\n      revert\n        /* \"#utility.yul\":874:1155   */\n    tag_310:\n        /* \"#utility.yul\":957:984   */\n      tag_378\n        /* \"#utility.yul\":979:983   */\n      dup3\n        /* \"#utility.yul\":957:984   */\n      tag_309\n      jump\t// in\n    tag_378:\n        /* \"#utility.yul\":949:955   */\n      dup2\n        /* \"#utility.yul\":945:985   */\n      add\n        /* \"#utility.yul\":1087:1093   */\n      dup2\n        /* \"#utility.yul\":1075:1085   */\n      dup2\n        /* \"#utility.yul\":1072:1094   */\n      lt\n        /* \"#utility.yul\":1051:1069   */\n      0xffffffffffffffff\n        /* \"#utility.yul\":1039:1049   */\n      dup3\n        /* \"#utility.yul\":1036:1070   */\n      gt\n        /* \"#utility.yul\":1033:1095   */\n      or\n        /* \"#utility.yul\":1030:1118   */\n      iszero\n      tag_379\n      jumpi\n        /* \"#utility.yul\":1098:1116   */\n      tag_380\n      tag_137\n      jump\t// in\n    tag_380:\n        /* \"#utility.yul\":1030:1118   */\n    tag_379:\n        /* \"#utility.yul\":1138:1148   */\n      dup1\n        /* \"#utility.yul\":1134:1136   */\n      0x40\n        /* \"#utility.yul\":1127:1149   */\n      mstore\n        /* \"#utility.yul\":917:1155   */\n      pop\n        /* \"#utility.yul\":874:1155   */\n      pop\n      pop\n      jump\t// out\n        /* \"#utility.yul\":1161:1290   */\n    tag_311:\n        /* \"#utility.yul\":1195:1201   */\n      0x00\n        /* \"#utility.yul\":1222:1242   */\n      tag_382\n      tag_304\n      jump\t// in\n    tag_382:\n        /* \"#utility.yul\":1212:1242   */\n      swap1\n      pop\n        /* \"#utility.yul\":1251:1284   */\n      tag_383\n        /* \"#utility.yul\":1279:1283   */\n      dup3\n        /* \"#utility.yul\":1271:1277   */\n      dup3\n        /* \"#utility.yul\":1251:1284   */\n      tag_310\n      jump\t// in\n    tag_383:\n        /* \"#utility.yul\":1161:1290   */\n      swap2\n      swap1\n      pop\n      jump\t// out\n        /* \"#utility.yul\":1296:1603   */\n    tag_312:\n        /* \"#utility.yul\":1357:1361   */\n      0x00\n        /* \"#utility.yul\":1447:1465   */\n      0xffffffffffffffff\n        /* \"#utility.yul\":1439:1445   */\n      dup3\n        /* \"#utility.yul\":1436:1466   */\n      gt\n        /* \"#utility.yul\":1433:1489   */\n      iszero\n      tag_385\n      jumpi\n        /* \"#utility.yul\":1469:1487   */\n      tag_386\n      tag_137\n      jump\t// in\n    tag_386:\n        /* \"#utility.yul\":1433:1489   */\n    tag_385:\n        /* \"#utility.yul\":1507:1536   */\n      tag_387\n        /* \"#utility.yul\":1529:1535   */\n      dup3\n        /* \"#utility.yul\":1507:1536   */\n      tag_309\n      jump\t// in\n    tag_387:\n        /* \"#utility.yul\":1499:1536   */\n      swap1\n      pop\n        /* \"#utility.yul\":1591:1595   */\n      0x20\n        /* \"#utility.yul\":1585:1589   */\n      dup2\n        /* \"#utility.yul\":1581:1596   */\n      add\n        /* \"#utility.yul\":1573:1596   */\n      swap1\n      pop\n        /* \"#utility.yul\":1296:1603   */\n      swap2\n      swap1\n      pop\n      jump\t// out\n        /* \"#utility.yul\":1609:1755   */\n    tag_313:\n        /* \"#utility.yul\":1706:1712   */\n      dup3\n        /* \"#utility.yul\":1701:1704   */\n      dup2\n        /* \"#utility.yul\":1696:1699   */\n      dup4\n        /* \"#utility.yul\":1683:1713   */\n      calldatacopy\n        /* \"#utility.yul\":1747:1748   */\n      0x00\n        /* \"#utility.yul\":1738:1744   */\n      dup4\n        /* \"#utility.yul\":1733:1736   */\n      dup4\n        /* \"#utility.yul\":1729:1745   */\n      add\n        /* \"#utility.yul\":1722:1749   */\n      mstore\n        /* \"#utility.yul\":1609:1755   */\n      pop\n      pop\n      pop\n      jump\t// out\n        /* \"#utility.yul\":1761:2184   */\n    tag_314:\n        /* \"#utility.yul\":1838:1843   */\n      0x00\n        /* \"#utility.yul\":1863:1928   */\n      tag_390\n        /* \"#utility.yul\":1879:1927   */\n      tag_391\n        /* \"#utility.yul\":1920:1926   */\n      dup5\n        /* \"#utility.yul\":1879:1927   */\n      tag_312\n      jump\t// in\n    tag_391:\n        /* \"#utility.yul\":1863:1928   */\n      tag_311\n      jump\t// in\n    tag_390:\n        /* \"#utility.yul\":1854:1928   */\n      swap1\n      pop\n        /* \"#utility.yul\":1951:1957   */\n      dup3\n        /* \"#utility.yul\":1944:1949   */\n      dup2\n        /* \"#utility.yul\":1937:1958   */\n      mstore\n        /* \"#utility.yul\":1989:1993   */\n      0x20\n        /* \"#utility.yul\":1982:1987   */\n      dup2\n        /* \"#utility.yul\":1978:1994   */\n      add\n        /* \"#utility.yul\":2027:2030   */\n      dup5\n        /* \"#utility.yul\":2018:2024   */\n      dup5\n        /* \"#utility.yul\":2013:2016   */\n      dup5\n        /* \"#utility.yul\":2009:2025   */\n      add\n        /* \"#utility.yul\":2006:2031   */\n      gt\n        /* \"#utility.yul\":2003:2115   */\n      iszero\n      tag_392\n      jumpi\n        /* \"#utility.yul\":2034:2113   */\n      tag_393\n      tag_308\n      jump\t// in\n    tag_393:\n        /* \"#utility.yul\":2003:2115   */\n    tag_392:\n        /* \"#utility.yul\":2124:2178   */\n      tag_394\n        /* \"#utility.yul\":2171:2177   */\n      dup5\n        /* \"#utility.yul\":2166:2169   */\n      dup3\n        /* \"#utility.yul\":2161:2164   */\n      dup6\n        /* \"#utility.yul\":2124:2178   */\n      tag_313\n      jump\t// in\n    tag_394:\n        /* \"#utility.yul\":1844:2184   */\n      pop\n        /* \"#utility.yul\":1761:2184   */\n      swap4\n      swap3\n      pop\n      pop\n      pop\n      jump\t// out\n        /* \"#utility.yul\":2203:2541   */\n    tag_315:\n        /* \"#utility.yul\":2258:2263   */\n      0x00\n        /* \"#utility.yul\":2307:2310   */\n      dup3\n        /* \"#utility.yul\":2300:2304   */\n      0x1f\n        /* \"#utility.yul\":2292:2298   */\n      dup4\n        /* \"#utility.yul\":2288:2305   */\n      add\n        /* \"#utility.yul\":2284:2311   */\n      slt\n        /* \"#utility.yul\":2274:2396   */\n      tag_396\n      jumpi\n        /* \"#utility.yul\":2315:2394   */\n      tag_397\n      tag_307\n      jump\t// in\n    tag_397:\n        /* \"#utility.yul\":2274:2396   */\n    tag_396:\n        /* \"#utility.yul\":2432:2438   */\n      dup2\n        /* \"#utility.yul\":2419:2439   */\n      calldataload\n        /* \"#utility.yul\":2457:2535   */\n      tag_398\n        /* \"#utility.yul\":2531:2534   */\n      dup5\n        /* \"#utility.yul\":2523:2529   */\n      dup3\n        /* \"#utility.yul\":2516:2520   */\n      0x20\n        /* \"#utility.yul\":2508:2514   */\n      dup7\n        /* \"#utility.yul\":2504:2521   */\n      add\n        /* \"#utility.yul\":2457:2535   */\n      tag_314\n      jump\t// in\n    tag_398:\n        /* \"#utility.yul\":2448:2535   */\n      swap2\n      pop\n        /* \"#utility.yul\":2264:2541   */\n      pop\n        /* \"#utility.yul\":2203:2541   */\n      swap3\n      swap2\n      pop\n      pop\n      jump\t// out\n        /* \"#utility.yul\":2547:3054   */\n    tag_13:\n        /* \"#utility.yul\":2615:2621   */\n      0x00\n        /* \"#utility.yul\":2664:2666   */\n      0x20\n        /* \"#utility.yul\":2652:2661   */\n      dup3\n        /* \"#utility.yul\":2643:2650   */\n      dup5\n        /* \"#utility.yul\":2639:2662   */\n      sub\n        /* \"#utility.yul\":2635:2667   */\n      slt\n        /* \"#utility.yul\":2632:2751   */\n      iszero\n      tag_400\n      jumpi\n        /* \"#utility.yul\":2670:2749   */\n      tag_401\n      tag_305\n      jump\t// in\n    tag_401:\n        /* \"#utility.yul\":2632:2751   */\n    tag_400:\n        /* \"#utility.yul\":2818:2819   */\n      0x00\n        /* \"#utility.yul\":2807:2816   */\n      dup3\n        /* \"#utility.yul\":2803:2820   */\n      add\n        /* \"#utility.yul\":2790:2821   */\n      calldataload\n        /* \"#utility.yul\":2848:2866   */\n      0xffffffffffffffff\n        /* \"#utility.yul\":2840:2846   */\n      dup2\n        /* \"#utility.yul\":2837:2867   */\n      gt\n        /* \"#utility.yul\":2834:2951   */\n      iszero\n      tag_402\n      jumpi\n        /* \"#utility.yul\":2870:2949   */\n      tag_403\n      tag_306\n      jump\t// in\n    tag_403:\n        /* \"#utility.yul\":2834:2951   */\n    tag_402:\n        /* \"#utility.yul\":2975:3037   */\n      tag_404\n        /* \"#utility.yul\":3029:3036   */\n      dup5\n        /* \"#utility.yul\":3020:3026   */\n      dup3\n        /* \"#utility.yul\":3009:3018   */\n      dup6\n        /* \"#utility.yul\":3005:3027   */\n      add\n        /* \"#utility.yul\":2975:3037   */\n      tag_315\n      jump\t// in\n    tag_404:\n        /* \"#utility.yul\":2965:3037   */\n      swap2\n      pop\n        /* \"#utility.yul\":2761:3047   */\n      pop\n        /* \"#utility.yul\":2547:3054   */\n      swap3\n      swap2\n      pop\n      pop\n      jump\t// out\n        /* \"#utility.yul\":3060:3150   */\n    tag_316:\n        /* \"#utility.yul\":3094:3101   */\n      0x00\n        /* \"#utility.yul\":3137:3142   */\n      dup2\n        /* \"#utility.yul\":3130:3143   */\n      iszero\n        /* \"#utility.yul\":3123:3144   */\n      iszero\n        /* \"#utility.yul\":3112:3144   */\n      swap1\n      pop\n        /* \"#utility.yul\":3060:3150   */\n      swap2\n      swap1\n      pop\n      jump\t// out\n        /* \"#utility.yul\":3156:3265   */\n    tag_317:\n        /* \"#utility.yul\":3237:3258   */\n      tag_407\n        /* \"#utility.yul\":3252:3257   */\n      dup2\n        /* \"#utility.yul\":3237:3258   */\n      tag_316\n      jump\t// in\n    tag_407:\n        /* \"#utility.yul\":3232:3235   */\n      dup3\n        /* \"#utility.yul\":3225:3259   */\n      mstore\n        /* \"#utility.yul\":3156:3265   */\n      pop\n      pop\n      jump\t// out\n        /* \"#utility.yul\":3271:3481   */\n    tag_16:\n        /* \"#utility.yul\":3358:3362   */\n      0x00\n        /* \"#utility.yul\":3396:3398   */\n      0x20\n        /* \"#utility.yul\":3385:3394   */\n      dup3\n        /* \"#utility.yul\":3381:3399   */\n      add\n        /* \"#utility.yul\":3373:3399   */\n      swap1\n      pop\n        /* \"#utility.yul\":3409:3474   */\n      tag_409\n        /* \"#utility.yul\":3471:3472   */\n      0x00\n        /* \"#utility.yul\":3460:3469   */\n      dup4\n        /* \"#utility.yul\":3456:3473   */\n      add\n        /* \"#utility.yul\":3447:3453   */\n      dup5\n        /* \"#utility.yul\":3409:3474   */\n      tag_317\n      jump\t// in\n    tag_409:\n        /* \"#utility.yul\":3271:3481   */\n      swap3\n      swap2\n      pop\n      pop\n      jump\t// out\n        /* \"#utility.yul\":3487:3564   */\n    tag_318:\n        /* \"#utility.yul\":3524:3531   */\n      0x00\n        /* \"#utility.yul\":3553:3558   */\n      dup2\n        /* \"#utility.yul\":3542:3558   */\n      swap1\n      pop\n        /* \"#utility.yul\":3487:3564   */\n      swap2\n      swap1\n      pop\n      jump\t// out\n        /* \"#utility.yul\":3570:3692   */\n    tag_319:\n        /* \"#utility.yul\":3643:3667   */\n      tag_412\n        /* \"#utility.yul\":3661:3666   */\n      dup2\n        /* \"#utility.yul\":3643:3667   */\n      tag_318\n      jump\t// in\n    tag_412:\n        /* \"#utility.yul\":3636:3641   */\n      dup2\n        /* \"#utility.yul\":3633:3668   */\n      eq\n        /* \"#utility.yul\":3623:3686   */\n      tag_413\n      jumpi\n        /* \"#utility.yul\":3682:3683   */\n      0x00\n        /* \"#utility.yul\":3679:3680   */\n      dup1\n        /* \"#utility.yul\":3672:3684   */\n      revert\n        /* \"#utility.yul\":3623:3686   */\n    tag_413:\n        /* \"#utility.yul\":3570:3692   */\n      pop\n      jump\t// out\n        /* \"#utility.yul\":3698:3837   */\n    tag_320:\n        /* \"#utility.yul\":3744:3749   */\n      0x00\n        /* \"#utility.yul\":3782:3788   */\n      dup2\n        /* \"#utility.yul\":3769:3789   */\n      calldataload\n        /* \"#utility.yul\":3760:3789   */\n      swap1\n      pop\n        /* \"#utility.yul\":3798:3831   */\n      tag_415\n        /* \"#utility.yul\":3825:3830   */\n      dup2\n        /* \"#utility.yul\":3798:3831   */\n      tag_319\n      jump\t// in\n    tag_415:\n        /* \"#utility.yul\":3698:3837   */\n      swap3\n      swap2\n      pop\n      pop\n      jump\t// out\n        /* \"#utility.yul\":3843:4172   */\n    tag_19:\n        /* \"#utility.yul\":3902:3908   */\n      0x00\n        /* \"#utility.yul\":3951:3953   */\n      0x20\n        /* \"#utility.yul\":3939:3948   */\n      dup3\n        /* \"#utility.yul\":3930:3937   */\n      dup5\n        /* \"#utility.yul\":3926:3949   */\n      sub\n        /* \"#utility.yul\":3922:3954   */\n      slt\n        /* \"#utility.yul\":3919:4038   */\n      iszero\n      tag_417\n      jumpi\n        /* \"#utility.yul\":3957:4036   */\n      tag_418\n      tag_305\n      jump\t// in\n    tag_418:\n        /* \"#utility.yul\":3919:4038   */\n    tag_417:\n        /* \"#utility.yul\":4077:4078   */\n      0x00\n        /* \"#utility.yul\":4102:4155   */\n      tag_419\n        /* \"#utility.yul\":4147:4154   */\n      dup5\n        /* \"#utility.yul\":4138:4144   */\n      dup3\n        /* \"#utility.yul\":4127:4136   */\n      dup6\n        /* \"#utility.yul\":4123:4145   */\n      add\n        /* \"#utility.yul\":4102:4155   */\n      tag_320\n      jump\t// in\n    tag_419:\n        /* \"#utility.yul\":4092:4155   */\n      swap2\n      pop\n        /* \"#utility.yul\":4048:4165   */\n      pop\n        /* \"#utility.yul\":3843:4172   */\n      swap3\n      swap2\n      pop\n      pop\n      jump\t// out\n        /* \"#utility.yul\":4178:4286   */\n    tag_321:\n        /* \"#utility.yul\":4255:4279   */\n      tag_421\n        /* \"#utility.yul\":4273:4278   */\n      dup2\n        /* \"#utility.yul\":4255:4279   */\n      tag_318\n      jump\t// in\n    tag_421:\n        /* \"#utility.yul\":4250:4253   */\n      dup3\n        /* \"#utility.yul\":4243:4280   */\n      mstore\n        /* \"#utility.yul\":4178:4286   */\n      pop\n      pop\n      jump\t// out\n        /* \"#utility.yul\":4340:4837   */\n    tag_322:\n        /* \"#utility.yul\":4483:4487   */\n      0x40\n        /* \"#utility.yul\":4478:4481   */\n      dup3\n        /* \"#utility.yul\":4474:4488   */\n      add\n        /* \"#utility.yul\":4567:4571   */\n      0x00\n        /* \"#utility.yul\":4560:4565   */\n      dup3\n        /* \"#utility.yul\":4556:4572   */\n      add\n        /* \"#utility.yul\":4550:4573   */\n      mload\n        /* \"#utility.yul\":4586:4649   */\n      tag_423\n        /* \"#utility.yul\":4643:4647   */\n      0x00\n        /* \"#utility.yul\":4638:4641   */\n      dup6\n        /* \"#utility.yul\":4634:4648   */\n      add\n        /* \"#utility.yul\":4620:4632   */\n      dup3\n        /* \"#utility.yul\":4586:4649   */\n      tag_321\n      jump\t// in\n    tag_423:\n        /* \"#utility.yul\":4498:4659   */\n      pop\n        /* \"#utility.yul\":4738:4742   */\n      0x20\n        /* \"#utility.yul\":4731:4736   */\n      dup3\n        /* \"#utility.yul\":4727:4743   */\n      add\n        /* \"#utility.yul\":4721:4744   */\n      mload\n        /* \"#utility.yul\":4757:4820   */\n      tag_424\n        /* \"#utility.yul\":4814:4818   */\n      0x20\n        /* \"#utility.yul\":4809:4812   */\n      dup6\n        /* \"#utility.yul\":4805:4819   */\n      add\n        /* \"#utility.yul\":4791:4803   */\n      dup3\n        /* \"#utility.yul\":4757:4820   */\n      tag_321\n      jump\t// in\n    tag_424:\n        /* \"#utility.yul\":4669:4830   */\n      pop\n        /* \"#utility.yul\":4452:4837   */\n      pop\n        /* \"#utility.yul\":4340:4837   */\n      pop\n      pop\n      jump\t// out\n        /* \"#utility.yul\":4843:5860   */\n    tag_22:\n        /* \"#utility.yul\":5196:5200   */\n      0x00\n        /* \"#utility.yul\":5234:5237   */\n      0x0120\n        /* \"#utility.yul\":5223:5232   */\n      dup3\n        /* \"#utility.yul\":5219:5238   */\n      add\n        /* \"#utility.yul\":5211:5238   */\n      swap1\n      pop\n        /* \"#utility.yul\":5248:5365   */\n      tag_426\n        /* \"#utility.yul\":5362:5363   */\n      0x00\n        /* \"#utility.yul\":5351:5360   */\n      dup4\n        /* \"#utility.yul\":5347:5364   */\n      add\n        /* \"#utility.yul\":5338:5344   */\n      dup10\n        /* \"#utility.yul\":5248:5365   */\n      tag_322\n      jump\t// in\n    tag_426:\n        /* \"#utility.yul\":5375:5493   */\n      tag_427\n        /* \"#utility.yul\":5489:5491   */\n      0x40\n        /* \"#utility.yul\":5478:5487   */\n      dup4\n        /* \"#utility.yul\":5474:5492   */\n      add\n        /* \"#utility.yul\":5465:5471   */\n      dup9\n        /* \"#utility.yul\":5375:5493   */\n      tag_322\n      jump\t// in\n    tag_427:\n        /* \"#utility.yul\":5503:5622   */\n      tag_428\n        /* \"#utility.yul\":5617:5620   */\n      0x80\n        /* \"#utility.yul\":5606:5615   */\n      dup4\n        /* \"#utility.yul\":5602:5621   */\n      add\n        /* \"#utility.yul\":5593:5599   */\n      dup8\n        /* \"#utility.yul\":5503:5622   */\n      tag_322\n      jump\t// in\n    tag_428:\n        /* \"#utility.yul\":5632:5699   */\n      tag_429\n        /* \"#utility.yul\":5694:5697   */\n      0xc0\n        /* \"#utility.yul\":5683:5692   */\n      dup4\n        /* \"#utility.yul\":5679:5698   */\n      add\n        /* \"#utility.yul\":5670:5676   */\n      dup7\n        /* \"#utility.yul\":5632:5699   */\n      tag_317\n      jump\t// in\n    tag_429:\n        /* \"#utility.yul\":5709:5776   */\n      tag_430\n        /* \"#utility.yul\":5771:5774   */\n      0xe0\n        /* \"#utility.yul\":5760:5769   */\n      dup4\n        /* \"#utility.yul\":5756:5775   */\n      add\n        /* \"#utility.yul\":5747:5753   */\n      dup6\n        /* \"#utility.yul\":5709:5776   */\n      tag_317\n      jump\t// in\n    tag_430:\n        /* \"#utility.yul\":5786:5853   */\n      tag_431\n        /* \"#utility.yul\":5848:5851   */\n      0x0100\n        /* \"#utility.yul\":5837:5846   */\n      dup4\n        /* \"#utility.yul\":5833:5852   */\n      add\n        /* \"#utility.yul\":5824:5830   */\n      dup5\n        /* \"#utility.yul\":5786:5853   */\n      tag_317\n      jump\t// in\n    tag_431:\n        /* \"#utility.yul\":4843:5860   */\n      swap8\n      swap7\n      pop\n      pop\n      pop\n      pop\n      pop\n      pop\n      pop\n      jump\t// out\n        /* \"#utility.yul\":5866:5952   */\n    tag_323:\n        /* \"#utility.yul\":5901:5908   */\n      0x00\n        /* \"#utility.yul\":5941:5945   */\n      0xff\n        /* \"#utility.yul\":5934:5939   */\n      dup3\n        /* \"#utility.yul\":5930:5946   */\n      and\n        /* \"#utility.yul\":5919:5946   */\n      swap1\n      pop\n        /* \"#utility.yul\":5866:5952   */\n      swap2\n      swap1\n      pop\n      jump\t// out\n        /* \"#utility.yul\":5958:6076   */\n    tag_324:\n        /* \"#utility.yul\":6029:6051   */\n      tag_434\n        /* \"#utility.yul\":6045:6050   */\n      dup2\n        /* \"#utility.yul\":6029:6051   */\n      tag_323\n      jump\t// in\n    tag_434:\n        /* \"#utility.yul\":6022:6027   */\n      dup2\n        /* \"#utility.yul\":6019:6052   */\n      eq\n        /* \"#utility.yul\":6009:6070   */\n      tag_435\n      jumpi\n        /* \"#utility.yul\":6066:6067   */\n      0x00\n        /* \"#utility.yul\":6063:6064   */\n      dup1\n        /* \"#utility.yul\":6056:6068   */\n      revert\n        /* \"#utility.yul\":6009:6070   */\n    tag_435:\n        /* \"#utility.yul\":5958:6076   */\n      pop\n      jump\t// out\n        /* \"#utility.yul\":6082:6217   */\n    tag_325:\n        /* \"#utility.yul\":6126:6131   */\n      0x00\n        /* \"#utility.yul\":6164:6170   */\n      dup2\n        /* \"#utility.yul\":6151:6171   */\n      calldataload\n        /* \"#utility.yul\":6142:6171   */\n      swap1\n      pop\n        /* \"#utility.yul\":6180:6211   */\n      tag_437\n        /* \"#utility.yul\":6205:6210   */\n      dup2\n        /* \"#utility.yul\":6180:6211   */\n      tag_324\n      jump\t// in\n    tag_437:\n        /* \"#utility.yul\":6082:6217   */\n      swap3\n      swap2\n      pop\n      pop\n      jump\t// out\n        /* \"#utility.yul\":6223:6548   */\n    tag_25:\n        /* \"#utility.yul\":6280:6286   */\n      0x00\n        /* \"#utility.yul\":6329:6331   */\n      0x20\n        /* \"#utility.yul\":6317:6326   */\n      dup3\n        /* \"#utility.yul\":6308:6315   */\n      dup5\n        /* \"#utility.yul\":6304:6327   */\n      sub\n        /* \"#utility.yul\":6300:6332   */\n      slt\n        /* \"#utility.yul\":6297:6416   */\n      iszero\n      tag_439\n      jumpi\n        /* \"#utility.yul\":6335:6414   */\n      tag_440\n      tag_305\n      jump\t// in\n    tag_440:\n        /* \"#utility.yul\":6297:6416   */\n    tag_439:\n        /* \"#utility.yul\":6455:6456   */\n      0x00\n        /* \"#utility.yul\":6480:6531   */\n      tag_441\n        /* \"#utility.yul\":6523:6530   */\n      dup5\n        /* \"#utility.yul\":6514:6520   */\n      dup3\n        /* \"#utility.yul\":6503:6512   */\n      dup6\n        /* \"#utility.yul\":6499:6521   */\n      add\n        /* \"#utility.yul\":6480:6531   */\n      tag_325\n      jump\t// in\n    tag_441:\n        /* \"#utility.yul\":6470:6531   */\n      swap2\n      pop\n        /* \"#utility.yul\":6426:6541   */\n      pop\n        /* \"#utility.yul\":6223:6548   */\n      swap3\n      swap2\n      pop\n      pop\n      jump\t// out\n        /* \"#utility.yul\":6554:6653   */\n    tag_326:\n        /* \"#utility.yul\":6606:6612   */\n      0x00\n        /* \"#utility.yul\":6640:6645   */\n      dup2\n        /* \"#utility.yul\":6634:6646   */\n      mload\n        /* \"#utility.yul\":6624:6646   */\n      swap1\n      pop\n        /* \"#utility.yul\":6554:6653   */\n      swap2\n      swap1\n      pop\n      jump\t// out\n        /* \"#utility.yul\":6659:6828   */\n    tag_327:\n        /* \"#utility.yul\":6743:6754   */\n      0x00\n        /* \"#utility.yul\":6777:6783   */\n      dup3\n        /* \"#utility.yul\":6772:6775   */\n      dup3\n        /* \"#utility.yul\":6765:6784   */\n      mstore\n        /* \"#utility.yul\":6817:6821   */\n      0x20\n        /* \"#utility.yul\":6812:6815   */\n      dup3\n        /* \"#utility.yul\":6808:6822   */\n      add\n        /* \"#utility.yul\":6793:6822   */\n      swap1\n      pop\n        /* \"#utility.yul\":6659:6828   */\n      swap3\n      swap2\n      pop\n      pop\n      jump\t// out\n        /* \"#utility.yul\":6834:7080   */\n    tag_328:\n        /* \"#utility.yul\":6915:6916   */\n      0x00\n        /* \"#utility.yul\":6925:7038   */\n    tag_445:\n        /* \"#utility.yul\":6939:6945   */\n      dup4\n        /* \"#utility.yul\":6936:6937   */\n      dup2\n        /* \"#utility.yul\":6933:6946   */\n      lt\n        /* \"#utility.yul\":6925:7038   */\n      iszero\n      tag_447\n      jumpi\n        /* \"#utility.yul\":7024:7025   */\n      dup1\n        /* \"#utility.yul\":7019:7022   */\n      dup3\n        /* \"#utility.yul\":7015:7026   */\n      add\n        /* \"#utility.yul\":7009:7027   */\n      mload\n        /* \"#utility.yul\":7005:7006   */\n      dup2\n        /* \"#utility.yul\":7000:7003   */\n      dup5\n        /* \"#utility.yul\":6996:7007   */\n      add\n        /* \"#utility.yul\":6989:7028   */\n      mstore\n        /* \"#utility.yul\":6961:6963   */\n      0x20\n        /* \"#utility.yul\":6958:6959   */\n      dup2\n        /* \"#utility.yul\":6954:6964   */\n      add\n        /* \"#utility.yul\":6949:6964   */\n      swap1\n      pop\n        /* \"#utility.yul\":6925:7038   */\n      jump(tag_445)\n    tag_447:\n        /* \"#utility.yul\":7072:7073   */\n      0x00\n        /* \"#utility.yul\":7063:7069   */\n      dup5\n        /* \"#utility.yul\":7058:7061   */\n      dup5\n        /* \"#utility.yul\":7054:7070   */\n      add\n        /* \"#utility.yul\":7047:7074   */\n      mstore\n        /* \"#utility.yul\":6896:7080   */\n      pop\n        /* \"#utility.yul\":6834:7080   */\n      pop\n      pop\n      pop\n      jump\t// out\n        /* \"#utility.yul\":7086:7463   */\n    tag_329:\n        /* \"#utility.yul\":7174:7177   */\n      0x00\n        /* \"#utility.yul\":7202:7241   */\n      tag_449\n        /* \"#utility.yul\":7235:7240   */\n      dup3\n        /* \"#utility.yul\":7202:7241   */\n      tag_326\n      jump\t// in\n    tag_449:\n        /* \"#utility.yul\":7257:7328   */\n      tag_450\n        /* \"#utility.yul\":7321:7327   */\n      dup2\n        /* \"#utility.yul\":7316:7319   */\n      dup6\n        /* \"#utility.yul\":7257:7328   */\n      tag_327\n      jump\t// in\n    tag_450:\n        /* \"#utility.yul\":7250:7328   */\n      swap4\n      pop\n        /* \"#utility.yul\":7337:7402   */\n      tag_451\n        /* \"#utility.yul\":7395:7401   */\n      dup2\n        /* \"#utility.yul\":7390:7393   */\n      dup6\n        /* \"#utility.yul\":7383:7387   */\n      0x20\n        /* \"#utility.yul\":7376:7381   */\n      dup7\n        /* \"#utility.yul\":7372:7388   */\n      add\n        /* \"#utility.yul\":7337:7402   */\n      tag_328\n      jump\t// in\n    tag_451:\n        /* \"#utility.yul\":7427:7456   */\n      tag_452\n        /* \"#utility.yul\":7449:7455   */\n      dup2\n        /* \"#utility.yul\":7427:7456   */\n      tag_309\n      jump\t// in\n    tag_452:\n        /* \"#utility.yul\":7422:7425   */\n      dup5\n        /* \"#utility.yul\":7418:7457   */\n      add\n        /* \"#utility.yul\":7411:7457   */\n      swap2\n      pop\n        /* \"#utility.yul\":7178:7463   */\n      pop\n        /* \"#utility.yul\":7086:7463   */\n      swap3\n      swap2\n      pop\n      pop\n      jump\t// out\n        /* \"#utility.yul\":7469:7984   */\n    tag_28:\n        /* \"#utility.yul\":7656:7660   */\n      0x00\n        /* \"#utility.yul\":7694:7696   */\n      0x60\n        /* \"#utility.yul\":7683:7692   */\n      dup3\n        /* \"#utility.yul\":7679:7697   */\n      add\n        /* \"#utility.yul\":7671:7697   */\n      swap1\n      pop\n        /* \"#utility.yul\":7707:7824   */\n      tag_454\n        /* \"#utility.yul\":7821:7822   */\n      0x00\n        /* \"#utility.yul\":7810:7819   */\n      dup4\n        /* \"#utility.yul\":7806:7823   */\n      add\n        /* \"#utility.yul\":7797:7803   */\n      dup6\n        /* \"#utility.yul\":7707:7824   */\n      tag_322\n      jump\t// in\n    tag_454:\n        /* \"#utility.yul\":7871:7880   */\n      dup2\n        /* \"#utility.yul\":7865:7869   */\n      dup2\n        /* \"#utility.yul\":7861:7881   */\n      sub\n        /* \"#utility.yul\":7856:7858   */\n      0x40\n        /* \"#utility.yul\":7845:7854   */\n      dup4\n        /* \"#utility.yul\":7841:7859   */\n      add\n        /* \"#utility.yul\":7834:7882   */\n      mstore\n        /* \"#utility.yul\":7899:7977   */\n      tag_455\n        /* \"#utility.yul\":7972:7976   */\n      dup2\n        /* \"#utility.yul\":7963:7969   */\n      dup5\n        /* \"#utility.yul\":7899:7977   */\n      tag_329\n      jump\t// in\n    tag_455:\n        /* \"#utility.yul\":7891:7977   */\n      swap1\n      pop\n        /* \"#utility.yul\":7469:7984   */\n      swap4\n      swap3\n      pop\n      pop\n      pop\n      jump\t// out\n        /* \"#utility.yul\":7990:8609   */\n    tag_31:\n        /* \"#utility.yul\":8067:8073   */\n      0x00\n        /* \"#utility.yul\":8075:8081   */\n      dup1\n        /* \"#utility.yul\":8083:8089   */\n      0x00\n        /* \"#utility.yul\":8132:8134   */\n      0x60\n        /* \"#utility.yul\":8120:8129   */\n      dup5\n        /* \"#utility.yul\":8111:8118   */\n      dup7\n        /* \"#utility.yul\":8107:8130   */\n      sub\n        /* \"#utility.yul\":8103:8135   */\n      slt\n        /* \"#utility.yul\":8100:8219   */\n      iszero\n      tag_457\n      jumpi\n        /* \"#utility.yul\":8138:8217   */\n      tag_458\n      tag_305\n      jump\t// in\n    tag_458:\n        /* \"#utility.yul\":8100:8219   */\n    tag_457:\n        /* \"#utility.yul\":8258:8259   */\n      0x00\n        /* \"#utility.yul\":8283:8336   */\n      tag_459\n        /* \"#utility.yul\":8328:8335   */\n      dup7\n        /* \"#utility.yul\":8319:8325   */\n      dup3\n        /* \"#utility.yul\":8308:8317   */\n      dup8\n        /* \"#utility.yul\":8304:8326   */\n      add\n        /* \"#utility.yul\":8283:8336   */\n      tag_320\n      jump\t// in\n    tag_459:\n        /* \"#utility.yul\":8273:8336   */\n      swap4\n      pop\n        /* \"#utility.yul\":8229:8346   */\n      pop\n        /* \"#utility.yul\":8385:8387   */\n      0x20\n        /* \"#utility.yul\":8411:8464   */\n      tag_460\n        /* \"#utility.yul\":8456:8463   */\n      dup7\n        /* \"#utility.yul\":8447:8453   */\n      dup3\n        /* \"#utility.yul\":8436:8445   */\n      dup8\n        /* \"#utility.yul\":8432:8454   */\n      add\n        /* \"#utility.yul\":8411:8464   */\n      tag_320\n      jump\t// in\n    tag_460:\n        /* \"#utility.yul\":8401:8464   */\n      swap3\n      pop\n        /* \"#utility.yul\":8356:8474   */\n      pop\n        /* \"#utility.yul\":8513:8515   */\n      0x40\n        /* \"#utility.yul\":8539:8592   */\n      tag_461\n        /* \"#utility.yul\":8584:8591   */\n      dup7\n        /* \"#utility.yul\":8575:8581   */\n      dup3\n        /* \"#utility.yul\":8564:8573   */\n      dup8\n        /* \"#utility.yul\":8560:8582   */\n      add\n        /* \"#utility.yul\":8539:8592   */\n      tag_320\n      jump\t// in\n    tag_461:\n        /* \"#utility.yul\":8529:8592   */\n      swap2\n      pop\n        /* \"#utility.yul\":8484:8602   */\n      pop\n        /* \"#utility.yul\":7990:8609   */\n      swap3\n      pop\n      swap3\n      pop\n      swap3\n      jump\t// out\n        /* \"#utility.yul\":8615:8923   */\n    tag_330:\n        /* \"#utility.yul\":8677:8681   */\n      0x00\n        /* \"#utility.yul\":8767:8785   */\n      0xffffffffffffffff\n        /* \"#utility.yul\":8759:8765   */\n      dup3\n        /* \"#utility.yul\":8756:8786   */\n      gt\n        /* \"#utility.yul\":8753:8809   */\n      iszero\n      tag_463\n      jumpi\n        /* \"#utility.yul\":8789:8807   */\n      tag_464\n      tag_137\n      jump\t// in\n    tag_464:\n        /* \"#utility.yul\":8753:8809   */\n    tag_463:\n        /* \"#utility.yul\":8827:8856   */\n      tag_465\n        /* \"#utility.yul\":8849:8855   */\n      dup3\n        /* \"#utility.yul\":8827:8856   */\n      tag_309\n      jump\t// in\n    tag_465:\n        /* \"#utility.yul\":8819:8856   */\n      swap1\n      pop\n        /* \"#utility.yul\":8911:8915   */\n      0x20\n        /* \"#utility.yul\":8905:8909   */\n      dup2\n        /* \"#utility.yul\":8901:8916   */\n      add\n        /* \"#utility.yul\":8893:8916   */\n      swap1\n      pop\n        /* \"#utility.yul\":8615:8923   */\n      swap2\n      swap1\n      pop\n      jump\t// out\n        /* \"#utility.yul\":8929:9354   */\n    tag_331:\n        /* \"#utility.yul\":9007:9012   */\n      0x00\n        /* \"#utility.yul\":9032:9098   */\n      tag_467\n        /* \"#utility.yul\":9048:9097   */\n      tag_468\n        /* \"#utility.yul\":9090:9096   */\n      dup5\n        /* \"#utility.yul\":9048:9097   */\n      tag_330\n      jump\t// in\n    tag_468:\n        /* \"#utility.yul\":9032:9098   */\n      tag_311\n      jump\t// in\n    tag_467:\n        /* \"#utility.yul\":9023:9098   */\n      swap1\n      pop\n        /* \"#utility.yul\":9121:9127   */\n      dup3\n        /* \"#utility.yul\":9114:9119   */\n      dup2\n        /* \"#utility.yul\":9107:9128   */\n      mstore\n        /* \"#utility.yul\":9159:9163   */\n      0x20\n        /* \"#utility.yul\":9152:9157   */\n      dup2\n        /* \"#utility.yul\":9148:9164   */\n      add\n        /* \"#utility.yul\":9197:9200   */\n      dup5\n        /* \"#utility.yul\":9188:9194   */\n      dup5\n        /* \"#utility.yul\":9183:9186   */\n      dup5\n        /* \"#utility.yul\":9179:9195   */\n      add\n        /* \"#utility.yul\":9176:9201   */\n      gt\n        /* \"#utility.yul\":9173:9285   */\n      iszero\n      tag_469\n      jumpi\n        /* \"#utility.yul\":9204:9283   */\n      tag_470\n      tag_308\n      jump\t// in\n    tag_470:\n        /* \"#utility.yul\":9173:9285   */\n    tag_469:\n        /* \"#utility.yul\":9294:9348   */\n      tag_471\n        /* \"#utility.yul\":9341:9347   */\n      dup5\n        /* \"#utility.yul\":9336:9339   */\n      dup3\n        /* \"#utility.yul\":9331:9334   */\n      dup6\n        /* \"#utility.yul\":9294:9348   */\n      tag_313\n      jump\t// in\n    tag_471:\n        /* \"#utility.yul\":9013:9354   */\n      pop\n        /* \"#utility.yul\":8929:9354   */\n      swap4\n      swap3\n      pop\n      pop\n      pop\n      jump\t// out\n        /* \"#utility.yul\":9374:9714   */\n    tag_332:\n        /* \"#utility.yul\":9430:9435   */\n      0x00\n        /* \"#utility.yul\":9479:9482   */\n      dup3\n        /* \"#utility.yul\":9472:9476   */\n      0x1f\n        /* \"#utility.yul\":9464:9470   */\n      dup4\n        /* \"#utility.yul\":9460:9477   */\n      add\n        /* \"#utility.yul\":9456:9483   */\n      slt\n        /* \"#utility.yul\":9446:9568   */\n      tag_473\n      jumpi\n        /* \"#utility.yul\":9487:9566   */\n      tag_474\n      tag_307\n      jump\t// in\n    tag_474:\n        /* \"#utility.yul\":9446:9568   */\n    tag_473:\n        /* \"#utility.yul\":9604:9610   */\n      dup2\n        /* \"#utility.yul\":9591:9611   */\n      calldataload\n        /* \"#utility.yul\":9629:9708   */\n      tag_475\n        /* \"#utility.yul\":9704:9707   */\n      dup5\n        /* \"#utility.yul\":9696:9702   */\n      dup3\n        /* \"#utility.yul\":9689:9693   */\n      0x20\n        /* \"#utility.yul\":9681:9687   */\n      dup7\n        /* \"#utility.yul\":9677:9694   */\n      add\n        /* \"#utility.yul\":9629:9708   */\n      tag_331\n      jump\t// in\n    tag_475:\n        /* \"#utility.yul\":9620:9708   */\n      swap2\n      pop\n        /* \"#utility.yul\":9436:9714   */\n      pop\n        /* \"#utility.yul\":9374:9714   */\n      swap3\n      swap2\n      pop\n      pop\n      jump\t// out\n        /* \"#utility.yul\":9720:10519   */\n    tag_35:\n        /* \"#utility.yul\":9807:9813   */\n      0x00\n        /* \"#utility.yul\":9815:9821   */\n      dup1\n        /* \"#utility.yul\":9823:9829   */\n      0x00\n        /* \"#utility.yul\":9872:9874   */\n      0x60\n        /* \"#utility.yul\":9860:9869   */\n      dup5\n        /* \"#utility.yul\":9851:9858   */\n      dup7\n        /* \"#utility.yul\":9847:9870   */\n      sub\n        /* \"#utility.yul\":9843:9875   */\n      slt\n        /* \"#utility.yul\":9840:9959   */\n      iszero\n      tag_477\n      jumpi\n        /* \"#utility.yul\":9878:9957   */\n      tag_478\n      tag_305\n      jump\t// in\n    tag_478:\n        /* \"#utility.yul\":9840:9959   */\n    tag_477:\n        /* \"#utility.yul\":10026:10027   */\n      0x00\n        /* \"#utility.yul\":10015:10024   */\n      dup5\n        /* \"#utility.yul\":10011:10028   */\n      add\n        /* \"#utility.yul\":9998:10029   */\n      calldataload\n        /* \"#utility.yul\":10056:10074   */\n      0xffffffffffffffff\n        /* \"#utility.yul\":10048:10054   */\n      dup2\n        /* \"#utility.yul\":10045:10075   */\n      gt\n        /* \"#utility.yul\":10042:10159   */\n      iszero\n      tag_479\n      jumpi\n        /* \"#utility.yul\":10078:10157   */\n      tag_480\n      tag_306\n      jump\t// in\n    tag_480:\n        /* \"#utility.yul\":10042:10159   */\n    tag_479:\n        /* \"#utility.yul\":10183:10246   */\n      tag_481\n        /* \"#utility.yul\":10238:10245   */\n      dup7\n        /* \"#utility.yul\":10229:10235   */\n      dup3\n        /* \"#utility.yul\":10218:10227   */\n      dup8\n        /* \"#utility.yul\":10214:10236   */\n      add\n        /* \"#utility.yul\":10183:10246   */\n      tag_332\n      jump\t// in\n    tag_481:\n        /* \"#utility.yul\":10173:10246   */\n      swap4\n      pop\n        /* \"#utility.yul\":9969:10256   */\n      pop\n        /* \"#utility.yul\":10295:10297   */\n      0x20\n        /* \"#utility.yul\":10321:10374   */\n      tag_482\n        /* \"#utility.yul\":10366:10373   */\n      dup7\n        /* \"#utility.yul\":10357:10363   */\n      dup3\n        /* \"#utility.yul\":10346:10355   */\n      dup8\n        /* \"#utility.yul\":10342:10364   */\n      add\n        /* \"#utility.yul\":10321:10374   */\n      tag_320\n      jump\t// in\n    tag_482:\n        /* \"#utility.yul\":10311:10374   */\n      swap3\n      pop\n        /* \"#utility.yul\":10266:10384   */\n      pop\n        /* \"#utility.yul\":10423:10425   */\n      0x40\n        /* \"#utility.yul\":10449:10502   */\n      tag_483\n        /* \"#utility.yul\":10494:10501   */\n      dup7\n        /* \"#utility.yul\":10485:10491   */\n      dup3\n        /* \"#utility.yul\":10474:10483   */\n      dup8\n        /* \"#utility.yul\":10470:10492   */\n      add\n        /* \"#utility.yul\":10449:10502   */\n      tag_320\n      jump\t// in\n    tag_483:\n        /* \"#utility.yul\":10439:10502   */\n      swap2\n      pop\n        /* \"#utility.yul\":10394:10512   */\n      pop\n        /* \"#utility.yul\":9720:10519   */\n      swap3\n      pop\n      swap3\n      pop\n      swap3\n      jump\t// out\n        /* \"#utility.yul\":10525:10839   */\n    tag_42:\n        /* \"#utility.yul\":10664:10668   */\n      0x00\n        /* \"#utility.yul\":10702:10704   */\n      0x40\n        /* \"#utility.yul\":10691:10700   */\n      dup3\n        /* \"#utility.yul\":10687:10705   */\n      add\n        /* \"#utility.yul\":10679:10705   */\n      swap1\n      pop\n        /* \"#utility.yul\":10715:10832   */\n      tag_485\n        /* \"#utility.yul\":10829:10830   */\n      0x00\n        /* \"#utility.yul\":10818:10827   */\n      dup4\n        /* \"#utility.yul\":10814:10831   */\n      add\n        /* \"#utility.yul\":10805:10811   */\n      dup5\n        /* \"#utility.yul\":10715:10832   */\n      tag_322\n      jump\t// in\n    tag_485:\n        /* \"#utility.yul\":10525:10839   */\n      swap3\n      swap2\n      pop\n      pop\n      jump\t// out\n        /* \"#utility.yul\":10845:11644   */\n    tag_45:\n        /* \"#utility.yul\":10932:10938   */\n      0x00\n        /* \"#utility.yul\":10940:10946   */\n      dup1\n        /* \"#utility.yul\":10948:10954   */\n      0x00\n        /* \"#utility.yul\":10997:10999   */\n      0x60\n        /* \"#utility.yul\":10985:10994   */\n      dup5\n        /* \"#utility.yul\":10976:10983   */\n      dup7\n        /* \"#utility.yul\":10972:10995   */\n      sub\n        /* \"#utility.yul\":10968:11000   */\n      slt\n        /* \"#utility.yul\":10965:11084   */\n      iszero\n      tag_487\n      jumpi\n        /* \"#utility.yul\":11003:11082   */\n      tag_488\n      tag_305\n      jump\t// in\n    tag_488:\n        /* \"#utility.yul\":10965:11084   */\n    tag_487:\n        /* \"#utility.yul\":11123:11124   */\n      0x00\n        /* \"#utility.yul\":11148:11201   */\n      tag_489\n        /* \"#utility.yul\":11193:11200   */\n      dup7\n        /* \"#utility.yul\":11184:11190   */\n      dup3\n        /* \"#utility.yul\":11173:11182   */\n      dup8\n        /* \"#utility.yul\":11169:11191   */\n      add\n        /* \"#utility.yul\":11148:11201   */\n      tag_320\n      jump\t// in\n    tag_489:\n        /* \"#utility.yul\":11138:11201   */\n      swap4\n      pop\n        /* \"#utility.yul\":11094:11211   */\n      pop\n        /* \"#utility.yul\":11250:11252   */\n      0x20\n        /* \"#utility.yul\":11276:11329   */\n      tag_490\n        /* \"#utility.yul\":11321:11328   */\n      dup7\n        /* \"#utility.yul\":11312:11318   */\n      dup3\n        /* \"#utility.yul\":11301:11310   */\n      dup8\n        /* \"#utility.yul\":11297:11319   */\n      add\n        /* \"#utility.yul\":11276:11329   */\n      tag_320\n      jump\t// in\n    tag_490:\n        /* \"#utility.yul\":11266:11329   */\n      swap3\n      pop\n        /* \"#utility.yul\":11221:11339   */\n      pop\n        /* \"#utility.yul\":11406:11408   */\n      0x40\n        /* \"#utility.yul\":11395:11404   */\n      dup5\n        /* \"#utility.yul\":11391:11409   */\n      add\n        /* \"#utility.yul\":11378:11410   */\n      calldataload\n        /* \"#utility.yul\":11437:11455   */\n      0xffffffffffffffff\n        /* \"#utility.yul\":11429:11435   */\n      dup2\n        /* \"#utility.yul\":11426:11456   */\n      gt\n        /* \"#utility.yul\":11423:11540   */\n      iszero\n      tag_491\n      jumpi\n        /* \"#utility.yul\":11459:11538   */\n      tag_492\n      tag_306\n      jump\t// in\n    tag_492:\n        /* \"#utility.yul\":11423:11540   */\n    tag_491:\n        /* \"#utility.yul\":11564:11627   */\n      tag_493\n        /* \"#utility.yul\":11619:11626   */\n      dup7\n        /* \"#utility.yul\":11610:11616   */\n      dup3\n        /* \"#utility.yul\":11599:11608   */\n      dup8\n        /* \"#utility.yul\":11595:11617   */\n      add\n        /* \"#utility.yul\":11564:11627   */\n      tag_332\n      jump\t// in\n    tag_493:\n        /* \"#utility.yul\":11554:11627   */\n      swap2\n      pop\n        /* \"#utility.yul\":11349:11637   */\n      pop\n        /* \"#utility.yul\":10845:11644   */\n      swap3\n      pop\n      swap3\n      pop\n      swap3\n      jump\t// out\n        /* \"#utility.yul\":11650:11768   */\n    tag_333:\n        /* \"#utility.yul\":11737:11761   */\n      tag_495\n        /* \"#utility.yul\":11755:11760   */\n      dup2\n        /* \"#utility.yul\":11737:11761   */\n      tag_318\n      jump\t// in\n    tag_495:\n        /* \"#utility.yul\":11732:11735   */\n      dup3\n        /* \"#utility.yul\":11725:11762   */\n      mstore\n        /* \"#utility.yul\":11650:11768   */\n      pop\n      pop\n      jump\t// out\n        /* \"#utility.yul\":11774:11996   */\n    tag_48:\n        /* \"#utility.yul\":11867:11871   */\n      0x00\n        /* \"#utility.yul\":11905:11907   */\n      0x20\n        /* \"#utility.yul\":11894:11903   */\n      dup3\n        /* \"#utility.yul\":11890:11908   */\n      add\n        /* \"#utility.yul\":11882:11908   */\n      swap1\n      pop\n        /* \"#utility.yul\":11918:11989   */\n      tag_497\n        /* \"#utility.yul\":11986:11987   */\n      0x00\n        /* \"#utility.yul\":11975:11984   */\n      dup4\n        /* \"#utility.yul\":11971:11988   */\n      add\n        /* \"#utility.yul\":11962:11968   */\n      dup5\n        /* \"#utility.yul\":11918:11989   */\n      tag_333\n      jump\t// in\n    tag_497:\n        /* \"#utility.yul\":11774:11996   */\n      swap3\n      swap2\n      pop\n      pop\n      jump\t// out\n        /* \"#utility.yul\":12002:12182   */\n    tag_54:\n        /* \"#utility.yul\":12050:12127   */\n      0x4e487b7100000000000000000000000000000000000000000000000000000000\n        /* \"#utility.yul\":12047:12048   */\n      0x00\n        /* \"#utility.yul\":12040:12128   */\n      mstore\n        /* \"#utility.yul\":12147:12151   */\n      0x32\n        /* \"#utility.yul\":12144:12145   */\n      0x04\n        /* \"#utility.yul\":12137:12152   */\n      mstore\n        /* \"#utility.yul\":12171:12175   */\n      0x24\n        /* \"#utility.yul\":12168:12169   */\n      0x00\n        /* \"#utility.yul\":12161:12176   */\n      revert\n        /* \"#utility.yul\":12188:12368   */\n    tag_334:\n        /* \"#utility.yul\":12236:12313   */\n      0x4e487b7100000000000000000000000000000000000000000000000000000000\n        /* \"#utility.yul\":12233:12234   */\n      0x00\n        /* \"#utility.yul\":12226:12314   */\n      mstore\n        /* \"#utility.yul\":12333:12337   */\n      0x22\n        /* \"#utility.yul\":12330:12331   */\n      0x04\n        /* \"#utility.yul\":12323:12338   */\n      mstore\n        /* \"#utility.yul\":12357:12361   */\n      0x24\n        /* \"#utility.yul\":12354:12355   */\n      0x00\n        /* \"#utility.yul\":12347:12362   */\n      revert\n        /* \"#utility.yul\":12374:12694   */\n    tag_60:\n        /* \"#utility.yul\":12418:12424   */\n      0x00\n        /* \"#utility.yul\":12455:12456   */\n      0x02\n        /* \"#utility.yul\":12449:12453   */\n      dup3\n        /* \"#utility.yul\":12445:12457   */\n      div\n        /* \"#utility.yul\":12435:12457   */\n      swap1\n      pop\n        /* \"#utility.yul\":12502:12503   */\n      0x01\n        /* \"#utility.yul\":12496:12500   */\n      dup3\n        /* \"#utility.yul\":12492:12504   */\n      and\n        /* \"#utility.yul\":12523:12541   */\n      dup1\n        /* \"#utility.yul\":12513:12594   */\n      tag_501\n      jumpi\n        /* \"#utility.yul\":12579:12583   */\n      0x7f\n        /* \"#utility.yul\":12571:12577   */\n      dup3\n        /* \"#utility.yul\":12567:12584   */\n      and\n        /* \"#utility.yul\":12557:12584   */\n      swap2\n      pop\n        /* \"#utility.yul\":12513:12594   */\n    tag_501:\n        /* \"#utility.yul\":12641:12643   */\n      0x20\n        /* \"#utility.yul\":12633:12639   */\n      dup3\n        /* \"#utility.yul\":12630:12644   */\n      lt\n        /* \"#utility.yul\":12610:12628   */\n      dup2\n        /* \"#utility.yul\":12607:12645   */\n      sub\n        /* \"#utility.yul\":12604:12688   */\n      tag_502\n      jumpi\n        /* \"#utility.yul\":12660:12678   */\n      tag_503\n      tag_334\n      jump\t// in\n    tag_503:\n        /* \"#utility.yul\":12604:12688   */\n    tag_502:\n        /* \"#utility.yul\":12425:12694   */\n      pop\n        /* \"#utility.yul\":12374:12694   */\n      swap2\n      swap1\n      pop\n      jump\t// out\n        /* \"#utility.yul\":12700:12798   */\n    tag_335:\n        /* \"#utility.yul\":12751:12757   */\n      0x00\n        /* \"#utility.yul\":12785:12790   */\n      dup2\n        /* \"#utility.yul\":12779:12791   */\n      mload\n        /* \"#utility.yul\":12769:12791   */\n      swap1\n      pop\n        /* \"#utility.yul\":12700:12798   */\n      swap2\n      swap1\n      pop\n      jump\t// out\n        /* \"#utility.yul\":12804:12951   */\n    tag_336:\n        /* \"#utility.yul\":12905:12916   */\n      0x00\n        /* \"#utility.yul\":12942:12945   */\n      dup2\n        /* \"#utility.yul\":12927:12945   */\n      swap1\n      pop\n        /* \"#utility.yul\":12804:12951   */\n      swap3\n      swap2\n      pop\n      pop\n      jump\t// out\n        /* \"#utility.yul\":12957:13343   */\n    tag_337:\n        /* \"#utility.yul\":13061:13064   */\n      0x00\n        /* \"#utility.yul\":13089:13127   */\n      tag_507\n        /* \"#utility.yul\":13121:13126   */\n      dup3\n        /* \"#utility.yul\":13089:13127   */\n      tag_335\n      jump\t// in\n    tag_507:\n        /* \"#utility.yul\":13143:13231   */\n      tag_508\n        /* \"#utility.yul\":13224:13230   */\n      dup2\n        /* \"#utility.yul\":13219:13222   */\n      dup6\n        /* \"#utility.yul\":13143:13231   */\n      tag_336\n      jump\t// in\n    tag_508:\n        /* \"#utility.yul\":13136:13231   */\n      swap4\n      pop\n        /* \"#utility.yul\":13240:13305   */\n      tag_509\n        /* \"#utility.yul\":13298:13304   */\n      dup2\n        /* \"#utility.yul\":13293:13296   */\n      dup6\n        /* \"#utility.yul\":13286:13290   */\n      0x20\n        /* \"#utility.yul\":13279:13284   */\n      dup7\n        /* \"#utility.yul\":13275:13291   */\n      add\n        /* \"#utility.yul\":13240:13305   */\n      tag_328\n      jump\t// in\n    tag_509:\n        /* \"#utility.yul\":13330:13336   */\n      dup1\n        /* \"#utility.yul\":13325:13328   */\n      dup5\n        /* \"#utility.yul\":13321:13337   */\n      add\n        /* \"#utility.yul\":13314:13337   */\n      swap2\n      pop\n        /* \"#utility.yul\":13065:13343   */\n      pop\n        /* \"#utility.yul\":12957:13343   */\n      swap3\n      swap2\n      pop\n      pop\n      jump\t// out\n        /* \"#utility.yul\":13349:13620   */\n    tag_80:\n        /* \"#utility.yul\":13479:13482   */\n      0x00\n        /* \"#utility.yul\":13501:13594   */\n      tag_511\n        /* \"#utility.yul\":13590:13593   */\n      dup3\n        /* \"#utility.yul\":13581:13587   */\n      dup5\n        /* \"#utility.yul\":13501:13594   */\n      tag_337\n      jump\t// in\n    tag_511:\n        /* \"#utility.yul\":13494:13594   */\n      swap2\n      pop\n        /* \"#utility.yul\":13611:13614   */\n      dup2\n        /* \"#utility.yul\":13604:13614   */\n      swap1\n      pop\n        /* \"#utility.yul\":13349:13620   */\n      swap3\n      swap2\n      pop\n      pop\n      jump\t// out\n        /* \"#utility.yul\":13626:13767   */\n    tag_338:\n        /* \"#utility.yul\":13675:13679   */\n      0x00\n        /* \"#utility.yul\":13698:13701   */\n      dup2\n        /* \"#utility.yul\":13690:13701   */\n      swap1\n      pop\n        /* \"#utility.yul\":13721:13724   */\n      dup2\n        /* \"#utility.yul\":13718:13719   */\n      0x00\n        /* \"#utility.yul\":13711:13725   */\n      mstore\n        /* \"#utility.yul\":13755:13759   */\n      0x20\n        /* \"#utility.yul\":13752:13753   */\n      0x00\n        /* \"#utility.yul\":13742:13760   */\n      keccak256\n        /* \"#utility.yul\":13734:13760   */\n      swap1\n      pop\n        /* \"#utility.yul\":13626:13767   */\n      swap2\n      swap1\n      pop\n      jump\t// out\n        /* \"#utility.yul\":13773:13866   */\n    tag_339:\n        /* \"#utility.yul\":13810:13816   */\n      0x00\n        /* \"#utility.yul\":13857:13859   */\n      0x20\n        /* \"#utility.yul\":13852:13854   */\n      0x1f\n        /* \"#utility.yul\":13845:13850   */\n      dup4\n        /* \"#utility.yul\":13841:13855   */\n      add\n        /* \"#utility.yul\":13837:13860   */\n      div\n        /* \"#utility.yul\":13827:13860   */\n      swap1\n      pop\n        /* \"#utility.yul\":13773:13866   */\n      swap2\n      swap1\n      pop\n      jump\t// out\n        /* \"#utility.yul\":13872:13979   */\n    tag_340:\n        /* \"#utility.yul\":13916:13924   */\n      0x00\n        /* \"#utility.yul\":13966:13971   */\n      dup3\n        /* \"#utility.yul\":13960:13964   */\n      dup3\n        /* \"#utility.yul\":13956:13972   */\n      shl\n        /* \"#utility.yul\":13935:13972   */\n      swap1\n      pop\n        /* \"#utility.yul\":13872:13979   */\n      swap3\n      swap2\n      pop\n      pop\n      jump\t// out\n        /* \"#utility.yul\":13985:14378   */\n    tag_341:\n        /* \"#utility.yul\":14054:14060   */\n      0x00\n        /* \"#utility.yul\":14104:14105   */\n      0x08\n        /* \"#utility.yul\":14092:14102   */\n      dup4\n        /* \"#utility.yul\":14088:14106   */\n      mul\n        /* \"#utility.yul\":14127:14224   */\n      tag_516\n        /* \"#utility.yul\":14157:14223   */\n      0xffffffffffffffffffffffffffffffffffffffffffffffffffffffffffffffff\n        /* \"#utility.yul\":14146:14155   */\n      dup3\n        /* \"#utility.yul\":14127:14224   */\n      tag_340\n      jump\t// in\n    tag_516:\n        /* \"#utility.yul\":14245:14284   */\n      tag_517\n        /* \"#utility.yul\":14275:14283   */\n      dup7\n        /* \"#utility.yul\":14264:14273   */\n      dup4\n        /* \"#utility.yul\":14245:14284   */\n      tag_340\n      jump\t// in\n    tag_517:\n        /* \"#utility.yul\":14233:14284   */\n      swap6\n      pop\n        /* \"#utility.yul\":14317:14321   */\n      dup1\n        /* \"#utility.yul\":14313:14322   */\n      not\n        /* \"#utility.yul\":14306:14311   */\n      dup5\n        /* \"#utility.yul\":14302:14323   */\n      and\n        /* \"#utility.yul\":14293:14323   */\n      swap4\n      pop\n        /* \"#utility.yul\":14366:14370   */\n      dup1\n        /* \"#utility.yul\":14356:14364   */\n      dup7\n        /* \"#utility.yul\":14352:14371   */\n      and\n        /* \"#utility.yul\":14345:14350   */\n      dup5\n        /* \"#utility.yul\":14342:14372   */\n      or\n        /* \"#utility.yul\":14332:14372   */\n      swap3\n      pop\n        /* \"#utility.yul\":14061:14378   */\n      pop\n      pop\n        /* \"#utility.yul\":13985:14378   */\n      swap4\n      swap3\n      pop\n      pop\n      pop\n      jump\t// out\n        /* \"#utility.yul\":14384:14444   */\n    tag_342:\n        /* \"#utility.yul\":14412:14415   */\n      0x00\n        /* \"#utility.yul\":14433:14438   */\n      dup2\n        /* \"#utility.yul\":14426:14438   */\n      swap1\n      pop\n        /* \"#utility.yul\":14384:14444   */\n      swap2\n      swap1\n      pop\n      jump\t// out\n        /* \"#utility.yul\":14450:14592   */\n    tag_343:\n        /* \"#utility.yul\":14500:14509   */\n      0x00\n        /* \"#utility.yul\":14533:14586   */\n      tag_520\n        /* \"#utility.yul\":14551:14585   */\n      tag_521\n        /* \"#utility.yul\":14560:14584   */\n      tag_522\n        /* \"#utility.yul\":14578:14583   */\n      dup5\n        /* \"#utility.yul\":14560:14584   */\n      tag_318\n      jump\t// in\n    tag_522:\n        /* \"#utility.yul\":14551:14585   */\n      tag_342\n      jump\t// in\n    tag_521:\n        /* \"#utility.yul\":14533:14586   */\n      tag_318\n      jump\t// in\n    tag_520:\n        /* \"#utility.yul\":14520:14586   */\n      swap1\n      pop\n        /* \"#utility.yul\":14450:14592   */\n      swap2\n      swap1\n      pop\n      jump\t// out\n        /* \"#utility.yul\":14598:14673   */\n    tag_344:\n        /* \"#utility.yul\":14641:14644   */\n      0x00\n        /* \"#utility.yul\":14662:14667   */\n      dup2\n        /* \"#utility.yul\":14655:14667   */\n      swap1\n      pop\n        /* \"#utility.yul\":14598:14673   */\n      swap2\n      swap1\n      pop\n      jump\t// out\n        /* \"#utility.yul\":14679:14948   */\n    tag_345:\n        /* \"#utility.yul\":14789:14828   */\n      tag_525\n        /* \"#utility.yul\":14820:14827   */\n      dup4\n        /* \"#utility.yul\":14789:14828   */\n      tag_343\n      jump\t// in\n    tag_525:\n        /* \"#utility.yul\":14850:14941   */\n      tag_526\n        /* \"#utility.yul\":14899:14940   */\n      tag_527\n        /* \"#utility.yul\":14923:14939   */\n      dup3\n        /* \"#utility.yul\":14899:14940   */\n      tag_344\n      jump\t// in\n    tag_527:\n        /* \"#utility.yul\":14891:14897   */\n      dup5\n        /* \"#utility.yul\":14884:14888   */\n      dup5\n        /* \"#utility.yul\":14878:14889   */\n      sload\n        /* \"#utility.yul\":14850:14941   */\n      tag_341\n      jump\t// in\n    tag_526:\n        /* \"#utility.yul\":14844:14848   */\n      dup3\n        /* \"#utility.yul\":14837:14942   */\n      sstore\n        /* \"#utility.yul\":14755:14948   */\n      pop\n        /* \"#utility.yul\":14679:14948   */\n      pop\n      pop\n      pop\n      jump\t// out\n        /* \"#utility.yul\":14954:15027   */\n    tag_346:\n        /* \"#utility.yul\":14999:15002   */\n      0x00\n        /* \"#utility.yul\":14954:15027   */\n      swap1\n      jump\t// out\n        /* \"#utility.yul\":15033:15222   */\n    tag_347:\n        /* \"#utility.yul\":15110:15142   */\n      tag_530\n      tag_346\n      jump\t// in\n    tag_530:\n        /* \"#utility.yul\":15151:15216   */\n      tag_531\n        /* \"#utility.yul\":15209:15215   */\n      dup2\n        /* \"#utility.yul\":15201:15207   */\n      dup5\n        /* \"#utility.yul\":15195:15199   */\n      dup5\n        /* \"#utility.yul\":15151:15216   */\n      tag_345\n      jump\t// in\n    tag_531:\n        /* \"#utility.yul\":15086:15222   */\n      pop\n        /* \"#utility.yul\":15033:15222   */\n      pop\n      pop\n      jump\t// out\n        /* \"#utility.yul\":15228:15414   */\n    tag_348:\n        /* \"#utility.yul\":15288:15408   */\n    tag_533:\n        /* \"#utility.yul\":15305:15308   */\n      dup2\n        /* \"#utility.yul\":15298:15303   */\n      dup2\n        /* \"#utility.yul\":15295:15309   */\n      lt\n        /* \"#utility.yul\":15288:15408   */\n      iszero\n      tag_535\n      jumpi\n        /* \"#utility.yul\":15359:15398   */\n      tag_536\n        /* \"#utility.yul\":15396:15397   */\n      0x00\n        /* \"#utility.yul\":15389:15394   */\n      dup3\n        /* \"#utility.yul\":15359:15398   */\n      tag_347\n      jump\t// in\n    tag_536:\n        /* \"#utility.yul\":15332:15333   */\n      0x01\n        /* \"#utility.yul\":15325:15330   */\n      dup2\n        /* \"#utility.yul\":15321:15334   */\n      add\n        /* \"#utility.yul\":15312:15334   */\n      swap1\n      pop\n        /* \"#utility.yul\":15288:15408   */\n      jump(tag_533)\n    tag_535:\n        /* \"#utility.yul\":15228:15414   */\n      pop\n      pop\n      jump\t// out\n        /* \"#utility.yul\":15420:15963   */\n    tag_349:\n        /* \"#utility.yul\":15521:15523   */\n      0x1f\n        /* \"#utility.yul\":15516:15519   */\n      dup3\n        /* \"#utility.yul\":15513:15524   */\n      gt\n        /* \"#utility.yul\":15510:15956   */\n      iszero\n      tag_538\n      jumpi\n        /* \"#utility.yul\":15555:15593   */\n      tag_539\n        /* \"#utility.yul\":15587:15592   */\n      dup2\n        /* \"#utility.yul\":15555:15593   */\n      tag_338\n      jump\t// in\n    tag_539:\n        /* \"#utility.yul\":15639:15668   */\n      tag_540\n        /* \"#utility.yul\":15657:15667   */\n      dup5\n        /* \"#utility.yul\":15639:15668   */\n      tag_339\n      jump\t// in\n    tag_540:\n        /* \"#utility.yul\":15629:15637   */\n      dup2\n        /* \"#utility.yul\":15625:15669   */\n      add\n        /* \"#utility.yul\":15822:15824   */\n      0x20\n        /* \"#utility.yul\":15810:15820   */\n      dup6\n        /* \"#utility.yul\":15807:15825   */\n      lt\n        /* \"#utility.yul\":15804:15853   */\n      iszero\n      tag_541\n      jumpi\n        /* \"#utility.yul\":15843:15851   */\n      dup2\n        /* \"#utility.yul\":15828:15851   */\n      swap1\n      pop\n        /* \"#utility.yul\":15804:15853   */\n    tag_541:\n        /* \"#utility.yul\":15866:15946   */\n      tag_542\n        /* \"#utility.yul\":15922:15944   */\n      tag_543\n        /* \"#utility.yul\":15940:15943   */\n      dup6\n        /* \"#utility.yul\":15922:15944   */\n      tag_339\n      jump\t// in\n    tag_543:\n        /* \"#utility.yul\":15912:15920   */\n      dup4\n        /* \"#utility.yul\":15908:15945   */\n      add\n        /* \"#utility.yul\":15895:15906   */\n      dup3\n        /* \"#utility.yul\":15866:15946   */\n      tag_348\n      jump\t// in\n    tag_542:\n        /* \"#utility.yul\":15525:15956   */\n      pop\n      pop\n        /* \"#utility.yul\":15510:15956   */\n    tag_538:\n        /* \"#utility.yul\":15420:15963   */\n      pop\n      pop\n      pop\n      jump\t// out\n        /* \"#utility.yul\":15969:16086   */\n    tag_350:\n        /* \"#utility.yul\":16023:16031   */\n      0x00\n        /* \"#utility.yul\":16073:16078   */\n      dup3\n        /* \"#utility.yul\":16067:16071   */\n      dup3\n        /* \"#utility.yul\":16063:16079   */\n      shr\n        /* \"#utility.yul\":16042:16079   */\n      swap1\n      pop\n        /* \"#utility.yul\":15969:16086   */\n      swap3\n      swap2\n      pop\n      pop\n      jump\t// out\n        /* \"#utility.yul\":16092:16261   */\n    tag_351:\n        /* \"#utility.yul\":16136:16142   */\n      0x00\n        /* \"#utility.yul\":16169:16220   */\n      tag_546\n        /* \"#utility.yul\":16217:16218   */\n      0x00\n        /* \"#utility.yul\":16213:16219   */\n      not\n        /* \"#utility.yul\":16205:16210   */\n      dup5\n        /* \"#utility.yul\":16202:16203   */\n      0x08\n        /* \"#utility.yul\":16198:16211   */\n      mul\n        /* \"#utility.yul\":16169:16220   */\n      tag_350\n      jump\t// in\n    tag_546:\n        /* \"#utility.yul\":16165:16221   */\n      not\n        /* \"#utility.yul\":16250:16254   */\n      dup1\n        /* \"#utility.yul\":16244:16248   */\n      dup4\n        /* \"#utility.yul\":16240:16255   */\n      and\n        /* \"#utility.yul\":16230:16255   */\n      swap2\n      pop\n        /* \"#utility.yul\":16143:16261   */\n      pop\n        /* \"#utility.yul\":16092:16261   */\n      swap3\n      swap2\n      pop\n      pop\n      jump\t// out\n        /* \"#utility.yul\":16266:16561   */\n    tag_352:\n        /* \"#utility.yul\":16342:16346   */\n      0x00\n        /* \"#utility.yul\":16488:16517   */\n      tag_548\n        /* \"#utility.yul\":16513:16516   */\n      dup4\n        /* \"#utility.yul\":16507:16511   */\n      dup4\n        /* \"#utility.yul\":16488:16517   */\n      tag_351\n      jump\t// in\n    tag_548:\n        /* \"#utility.yul\":16480:16517   */\n      swap2\n      pop\n        /* \"#utility.yul\":16550:16553   */\n      dup3\n        /* \"#utility.yul\":16547:16548   */\n      0x02\n        /* \"#utility.yul\":16543:16554   */\n      mul\n        /* \"#utility.yul\":16537:16541   */\n      dup3\n        /* \"#utility.yul\":16534:16555   */\n      or\n        /* \"#utility.yul\":16526:16555   */\n      swap1\n      pop\n        /* \"#utility.yul\":16266:16561   */\n      swap3\n      swap2\n      pop\n      pop\n      jump\t// out\n        /* \"#utility.yul\":16566:17961   */\n    tag_95:\n        /* \"#utility.yul\":16683:16720   */\n      tag_550\n        /* \"#utility.yul\":16716:16719   */\n      dup3\n        /* \"#utility.yul\":16683:16720   */\n      tag_326\n      jump\t// in\n    tag_550:\n        /* \"#utility.yul\":16785:16803   */\n      0xffffffffffffffff\n        /* \"#utility.yul\":16777:16783   */\n      dup2\n        /* \"#utility.yul\":16774:16804   */\n      gt\n        /* \"#utility.yul\":16771:16827   */\n      iszero\n      tag_551\n      jumpi\n        /* \"#utility.yul\":16807:16825   */\n      tag_552\n      tag_137\n      jump\t// in\n    tag_552:\n        /* \"#utility.yul\":16771:16827   */\n    tag_551:\n        /* \"#utility.yul\":16851:16889   */\n      tag_553\n        /* \"#utility.yul\":16883:16887   */\n      dup3\n        /* \"#utility.yul\":16877:16888   */\n      sload\n        /* \"#utility.yul\":16851:16889   */\n      tag_60\n      jump\t// in\n    tag_553:\n        /* \"#utility.yul\":16936:17003   */\n      tag_554\n        /* \"#utility.yul\":16996:17002   */\n      dup3\n        /* \"#utility.yul\":16988:16994   */\n      dup3\n        /* \"#utility.yul\":16982:16986   */\n      dup6\n        /* \"#utility.yul\":16936:17003   */\n      tag_349\n      jump\t// in\n    tag_554:\n        /* \"#utility.yul\":17030:17031   */\n      0x00\n        /* \"#utility.yul\":17054:17058   */\n      0x20\n        /* \"#utility.yul\":17041:17058   */\n      swap1\n      pop\n        /* \"#utility.yul\":17086:17088   */\n      0x1f\n        /* \"#utility.yul\":17078:17084   */\n      dup4\n        /* \"#utility.yul\":17075:17089   */\n      gt\n        /* \"#utility.yul\":17103:17104   */\n      0x01\n        /* \"#utility.yul\":17098:17716   */\n      dup2\n      eq\n      tag_556\n      jumpi\n        /* \"#utility.yul\":17760:17761   */\n      0x00\n        /* \"#utility.yul\":17777:17783   */\n      dup5\n        /* \"#utility.yul\":17774:17851   */\n      iszero\n      tag_557\n      jumpi\n        /* \"#utility.yul\":17826:17835   */\n      dup3\n        /* \"#utility.yul\":17821:17824   */\n      dup8\n        /* \"#utility.yul\":17817:17836   */\n      add\n        /* \"#utility.yul\":17811:17837   */\n      mload\n        /* \"#utility.yul\":17802:17837   */\n      swap1\n      pop\n        /* \"#utility.yul\":17774:17851   */\n    tag_557:\n        /* \"#utility.yul\":17877:17944   */\n      tag_558\n        /* \"#utility.yul\":17937:17943   */\n      dup6\n        /* \"#utility.yul\":17930:17935   */\n      dup3\n        /* \"#utility.yul\":17877:17944   */\n      tag_352\n      jump\t// in\n    tag_558:\n        /* \"#utility.yul\":17871:17875   */\n      dup7\n        /* \"#utility.yul\":17864:17945   */\n      sstore\n        /* \"#utility.yul\":17733:17955   */\n      pop\n        /* \"#utility.yul\":17068:17955   */\n      jump(tag_555)\n        /* \"#utility.yul\":17098:17716   */\n    tag_556:\n        /* \"#utility.yul\":17150:17154   */\n      0x1f\n        /* \"#utility.yul\":17146:17155   */\n      not\n        /* \"#utility.yul\":17138:17144   */\n      dup5\n        /* \"#utility.yul\":17134:17156   */\n      and\n        /* \"#utility.yul\":17184:17221   */\n      tag_559\n        /* \"#utility.yul\":17216:17220   */\n      dup7\n        /* \"#utility.yul\":17184:17221   */\n      tag_338\n      jump\t// in\n    tag_559:\n        /* \"#utility.yul\":17243:17244   */\n      0x00\n        /* \"#utility.yul\":17257:17465   */\n    tag_560:\n        /* \"#utility.yul\":17271:17278   */\n      dup3\n        /* \"#utility.yul\":17268:17269   */\n      dup2\n        /* \"#utility.yul\":17265:17279   */\n      lt\n        /* \"#utility.yul\":17257:17465   */\n      iszero\n      tag_562\n      jumpi\n        /* \"#utility.yul\":17350:17359   */\n      dup5\n        /* \"#utility.yul\":17345:17348   */\n      dup10\n        /* \"#utility.yul\":17341:17360   */\n      add\n        /* \"#utility.yul\":17335:17361   */\n      mload\n        /* \"#utility.yul\":17327:17333   */\n      dup3\n        /* \"#utility.yul\":17320:17362   */\n      sstore\n        /* \"#utility.yul\":17401:17402   */\n      0x01\n        /* \"#utility.yul\":17393:17399   */\n      dup3\n        /* \"#utility.yul\":17389:17403   */\n      add\n        /* \"#utility.yul\":17379:17403   */\n      swap2\n      pop\n        /* \"#utility.yul\":17448:17450   */\n      0x20\n        /* \"#utility.yul\":17437:17446   */\n      dup6\n        /* \"#utility.yul\":17433:17451   */\n      add\n        /* \"#utility.yul\":17420:17451   */\n      swap5\n      pop\n        /* \"#utility.yul\":17294:17298   */\n      0x20\n        /* \"#utility.yul\":17291:17292   */\n      dup2\n        /* \"#utility.yul\":17287:17299   */\n      add\n        /* \"#utility.yul\":17282:17299   */\n      swap1\n      pop\n        /* \"#utility.yul\":17257:17465   */\n      jump(tag_560)\n    tag_562:\n        /* \"#utility.yul\":17493:17499   */\n      dup7\n        /* \"#utility.yul\":17484:17491   */\n      dup4\n        /* \"#utility.yul\":17481:17500   */\n      lt\n        /* \"#utility.yul\":17478:17657   */\n      iszero\n      tag_563\n      jumpi\n        /* \"#utility.yul\":17551:17560   */\n      dup5\n        /* \"#utility.yul\":17546:17549   */\n      dup10\n        /* \"#utility.yul\":17542:17561   */\n      add\n        /* \"#utility.yul\":17536:17562   */\n      mload\n        /* \"#utility.yul\":17594:17642   */\n      tag_564\n        /* \"#utility.yul\":17636:17640   */\n      0x1f\n        /* \"#utility.yul\":17628:17634   */\n      dup10\n        /* \"#utility.yul\":17624:17641   */\n      and\n        /* \"#utility.yul\":17613:17622   */\n      dup3\n        /* \"#utility.yul\":17594:17642   */\n      tag_351\n      jump\t// in\n    tag_564:\n        /* \"#utility.yul\":17586:17592   */\n      dup4\n        /* \"#utility.yul\":17579:17643   */\n      sstore\n        /* \"#utility.yul\":17501:17657   */\n      pop\n        /* \"#utility.yul\":17478:17657   */\n    tag_563:\n        /* \"#utility.yul\":17703:17704   */\n      0x01\n        /* \"#utility.yul\":17699:17700   */\n      0x02\n        /* \"#utility.yul\":17691:17697   */\n      dup9\n        /* \"#utility.yul\":17687:17701   */\n      mul\n        /* \"#utility.yul\":17683:17705   */\n      add\n        /* \"#utility.yul\":17677:17681   */\n      dup9\n        /* \"#utility.yul\":17670:17706   */\n      sstore\n        /* \"#utility.yul\":17105:17716   */\n      pop\n      pop\n      pop\n        /* \"#utility.yul\":17068:17955   */\n    tag_555:\n      pop\n        /* \"#utility.yul\":16658:17961   */\n      pop\n      pop\n      pop\n        /* \"#utility.yul\":16566:17961   */\n      pop\n      pop\n      jump\t// out\n        /* \"#utility.yul\":17967:18147   */\n    tag_353:\n        /* \"#utility.yul\":18015:18092   */\n      0x4e487b7100000000000000000000000000000000000000000000000000000000\n        /* \"#utility.yul\":18012:18013   */\n      0x00\n        /* \"#utility.yul\":18005:18093   */\n      mstore\n        /* \"#utility.yul\":18112:18116   */\n      0x11\n        /* \"#utility.yul\":18109:18110   */\n      0x04\n        /* \"#utility.yul\":18102:18117   */\n      mstore\n        /* \"#utility.yul\":18136:18140   */\n      0x24\n        /* \"#utility.yul\":18133:18134   */\n      0x00\n        /* \"#utility.yul\":18126:18141   */\n      revert\n        /* \"#utility.yul\":18153:18347   */\n    tag_97:\n        /* \"#utility.yul\":18193:18197   */\n      0x00\n        /* \"#utility.yul\":18213:18233   */\n      tag_567\n        /* \"#utility.yul\":18231:18232   */\n      dup3\n        /* \"#utility.yul\":18213:18233   */\n      tag_318\n      jump\t// in\n    tag_567:\n        /* \"#utility.yul\":18208:18233   */\n      swap2\n      pop\n        /* \"#utility.yul\":18247:18267   */\n      tag_568\n        /* \"#utility.yul\":18265:18266   */\n      dup4\n        /* \"#utility.yul\":18247:18267   */\n      tag_318\n      jump\t// in\n    tag_568:\n        /* \"#utility.yul\":18242:18267   */\n      swap3\n      pop\n        /* \"#utility.yul\":18291:18292   */\n      dup3\n        /* \"#utility.yul\":18288:18289   */\n      dup3\n        /* \"#utility.yul\":18284:18293   */\n      sub\n        /* \"#utility.yul\":18276:18293   */\n      swap1\n      pop\n        /* \"#utility.yul\":18315:18316   */\n      dup2\n        /* \"#utility.yul\":18309:18313   */\n      dup2\n        /* \"#utility.yul\":18306:18317   */\n      gt\n        /* \"#utility.yul\":18303:18340   */\n      iszero\n      tag_569\n      jumpi\n        /* \"#utility.yul\":18320:18338   */\n      tag_570\n      tag_353\n      jump\t// in\n    tag_570:\n        /* \"#utility.yul\":18303:18340   */\n    tag_569:\n        /* \"#utility.yul\":18153:18347   */\n      swap3\n      swap2\n      pop\n      pop\n      jump\t// out\n        /* \"#utility.yul\":18353:18520   */\n    tag_354:\n        /* \"#utility.yul\":18493:18512   */\n      0x41646420706f696e7473206661696c6564000000000000000000000000000000\n        /* \"#utility.yul\":18489:18490   */\n      0x00\n        /* \"#utility.yul\":18481:18487   */\n      dup3\n        /* \"#utility.yul\":18477:18491   */\n      add\n        /* \"#utility.yul\":18470:18513   */\n      mstore\n        /* \"#utility.yul\":18353:18520   */\n      pop\n      jump\t// out\n        /* \"#utility.yul\":18526:18892   */\n    tag_355:\n        /* \"#utility.yul\":18668:18671   */\n      0x00\n        /* \"#utility.yul\":18689:18756   */\n      tag_573\n        /* \"#utility.yul\":18753:18755   */\n      0x11\n        /* \"#utility.yul\":18748:18751   */\n      dup4\n        /* \"#utility.yul\":18689:18756   */\n      tag_327\n      jump\t// in\n    tag_573:\n        /* \"#utility.yul\":18682:18756   */\n      swap2\n      pop\n        /* \"#utility.yul\":18765:18858   */\n      tag_574\n        /* \"#utility.yul\":18854:18857   */\n      dup3\n        /* \"#utility.yul\":18765:18858   */\n      tag_354\n      jump\t// in\n    tag_574:\n        /* \"#utility.yul\":18883:18885   */\n      0x20\n        /* \"#utility.yul\":18878:18881   */\n      dup3\n        /* \"#utility.yul\":18874:18886   */\n      add\n        /* \"#utility.yul\":18867:18886   */\n      swap1\n      pop\n        /* \"#utility.yul\":18526:18892   */\n      swap2\n      swap1\n      pop\n      jump\t// out\n        /* \"#utility.yul\":18898:19317   */\n    tag_117:\n        /* \"#utility.yul\":19064:19068   */\n      0x00\n        /* \"#utility.yul\":19102:19104   */\n      0x20\n        /* \"#utility.yul\":19091:19100   */\n      dup3\n        /* \"#utility.yul\":19087:19105   */\n      add\n        /* \"#utility.yul\":19079:19105   */\n      swap1\n      pop\n        /* \"#utility.yul\":19151:19160   */\n      dup2\n        /* \"#utility.yul\":19145:19149   */\n      dup2\n        /* \"#utility.yul\":19141:19161   */\n      sub\n        /* \"#utility.yul\":19137:19138   */\n      0x00\n        /* \"#utility.yul\":19126:19135   */\n      dup4\n        /* \"#utility.yul\":19122:19139   */\n      add\n        /* \"#utility.yul\":19115:19162   */\n      mstore\n        /* \"#utility.yul\":19179:19310   */\n      tag_576\n        /* \"#utility.yul\":19305:19309   */\n      dup2\n        /* \"#utility.yul\":19179:19310   */\n      tag_355\n      jump\t// in\n    tag_576:\n        /* \"#utility.yul\":19171:19310   */\n      swap1\n      pop\n        /* \"#utility.yul\":18898:19317   */\n      swap2\n      swap1\n      pop\n      jump\t// out\n        /* \"#utility.yul\":19323:19400   */\n    tag_356:\n        /* \"#utility.yul\":19360:19367   */\n      0x00\n        /* \"#utility.yul\":19389:19394   */\n      dup2\n        /* \"#utility.yul\":19378:19394   */\n      swap1\n      pop\n        /* \"#utility.yul\":19323:19400   */\n      swap2\n      swap1\n      pop\n      jump\t// out\n        /* \"#utility.yul\":19406:19528   */\n    tag_357:\n        /* \"#utility.yul\":19479:19503   */\n      tag_579\n        /* \"#utility.yul\":19497:19502   */\n      dup2\n        /* \"#utility.yul\":19479:19503   */\n      tag_356\n      jump\t// in\n    tag_579:\n        /* \"#utility.yul\":19472:19477   */\n      dup2\n        /* \"#utility.yul\":19469:19504   */\n      eq\n        /* \"#utility.yul\":19459:19522   */\n      tag_580\n      jumpi\n        /* \"#utility.yul\":19518:19519   */\n      0x00\n        /* \"#utility.yul\":19515:19516   */\n      dup1\n        /* \"#utility.yul\":19508:19520   */\n      revert\n        /* \"#utility.yul\":19459:19522   */\n    tag_580:\n        /* \"#utility.yul\":19406:19528   */\n      pop\n      jump\t// out\n        /* \"#utility.yul\":19534:19677   */\n    tag_358:\n        /* \"#utility.yul\":19591:19596   */\n      0x00\n        /* \"#utility.yul\":19622:19628   */\n      dup2\n        /* \"#utility.yul\":19616:19629   */\n      mload\n        /* \"#utility.yul\":19607:19629   */\n      swap1\n      pop\n        /* \"#utility.yul\":19638:19671   */\n      tag_582\n        /* \"#utility.yul\":19665:19670   */\n      dup2\n        /* \"#utility.yul\":19638:19671   */\n      tag_357\n      jump\t// in\n    tag_582:\n        /* \"#utility.yul\":19534:19677   */\n      swap3\n      swap2\n      pop\n      pop\n      jump\t// out\n        /* \"#utility.yul\":19683:20034   */\n    tag_124:\n        /* \"#utility.yul\":19753:19759   */\n      0x00\n        /* \"#utility.yul\":19802:19804   */\n      0x20\n        /* \"#utility.yul\":19790:19799   */\n      dup3\n        /* \"#utility.yul\":19781:19788   */\n      dup5\n        /* \"#utility.yul\":19777:19800   */\n      sub\n        /* \"#utility.yul\":19773:19805   */\n      slt\n        /* \"#utility.yul\":19770:19889   */\n      iszero\n      tag_584\n      jumpi\n        /* \"#utility.yul\":19808:19887   */\n      tag_585\n      tag_305\n      jump\t// in\n    tag_585:\n        /* \"#utility.yul\":19770:19889   */\n    tag_584:\n        /* \"#utility.yul\":19928:19929   */\n      0x00\n        /* \"#utility.yul\":19953:20017   */\n      tag_586\n        /* \"#utility.yul\":20009:20016   */\n      dup5\n        /* \"#utility.yul\":20000:20006   */\n      dup3\n        /* \"#utility.yul\":19989:19998   */\n      dup6\n        /* \"#utility.yul\":19985:20007   */\n      add\n        /* \"#utility.yul\":19953:20017   */\n      tag_358\n      jump\t// in\n    tag_586:\n        /* \"#utility.yul\":19943:20017   */\n      swap2\n      pop\n        /* \"#utility.yul\":19899:20027   */\n      pop\n        /* \"#utility.yul\":19683:20034   */\n      swap3\n      swap2\n      pop\n      pop\n      jump\t// out\n        /* \"#utility.yul\":20040:20220   */\n    tag_359:\n        /* \"#utility.yul\":20088:20165   */\n      0x4e487b7100000000000000000000000000000000000000000000000000000000\n        /* \"#utility.yul\":20085:20086   */\n      0x00\n        /* \"#utility.yul\":20078:20166   */\n      mstore\n        /* \"#utility.yul\":20185:20189   */\n      0x12\n        /* \"#utility.yul\":20182:20183   */\n      0x04\n        /* \"#utility.yul\":20175:20190   */\n      mstore\n        /* \"#utility.yul\":20209:20213   */\n      0x24\n        /* \"#utility.yul\":20206:20207   */\n      0x00\n        /* \"#utility.yul\":20199:20214   */\n      revert\n        /* \"#utility.yul\":20226:20402   */\n    tag_126:\n        /* \"#utility.yul\":20258:20259   */\n      0x00\n        /* \"#utility.yul\":20275:20295   */\n      tag_589\n        /* \"#utility.yul\":20293:20294   */\n      dup3\n        /* \"#utility.yul\":20275:20295   */\n      tag_318\n      jump\t// in\n    tag_589:\n        /* \"#utility.yul\":20270:20295   */\n      swap2\n      pop\n        /* \"#utility.yul\":20309:20329   */\n      tag_590\n        /* \"#utility.yul\":20327:20328   */\n      dup4\n        /* \"#utility.yul\":20309:20329   */\n      tag_318\n      jump\t// in\n    tag_590:\n        /* \"#utility.yul\":20304:20329   */\n      swap3\n      pop\n        /* \"#utility.yul\":20348:20349   */\n      dup3\n        /* \"#utility.yul\":20338:20373   */\n      tag_591\n      jumpi\n        /* \"#utility.yul\":20353:20371   */\n      tag_592\n      tag_359\n      jump\t// in\n    tag_592:\n        /* \"#utility.yul\":20338:20373   */\n    tag_591:\n        /* \"#utility.yul\":20394:20395   */\n      dup3\n        /* \"#utility.yul\":20391:20392   */\n      dup3\n        /* \"#utility.yul\":20387:20396   */\n      mod\n        /* \"#utility.yul\":20382:20396   */\n      swap1\n      pop\n        /* \"#utility.yul\":20226:20402   */\n      swap3\n      swap2\n      pop\n      pop\n      jump\t// out\n        /* \"#utility.yul\":20408:20599   */\n    tag_133:\n        /* \"#utility.yul\":20448:20451   */\n      0x00\n        /* \"#utility.yul\":20467:20487   */\n      tag_594\n        /* \"#utility.yul\":20485:20486   */\n      dup3\n        /* \"#utility.yul\":20467:20487   */\n      tag_318\n      jump\t// in\n    tag_594:\n        /* \"#utility.yul\":20462:20487   */\n      swap2\n      pop\n        /* \"#utility.yul\":20501:20521   */\n      tag_595\n        /* \"#utility.yul\":20519:20520   */\n      dup4\n        /* \"#utility.yul\":20501:20521   */\n      tag_318\n      jump\t// in\n    tag_595:\n        /* \"#utility.yul\":20496:20521   */\n      swap3\n      pop\n        /* \"#utility.yul\":20544:20545   */\n      dup3\n        /* \"#utility.yul\":20541:20542   */\n      dup3\n        /* \"#utility.yul\":20537:20546   */\n      add\n        /* \"#utility.yul\":20530:20546   */\n      swap1\n      pop\n        /* \"#utility.yul\":20565:20568   */\n      dup1\n        /* \"#utility.yul\":20562:20563   */\n      dup3\n        /* \"#utility.yul\":20559:20569   */\n      gt\n        /* \"#utility.yul\":20556:20592   */\n      iszero\n      tag_596\n      jumpi\n        /* \"#utility.yul\":20572:20590   */\n      tag_597\n      tag_353\n      jump\t// in\n    tag_597:\n        /* \"#utility.yul\":20556:20592   */\n    tag_596:\n        /* \"#utility.yul\":20408:20599   */\n      swap3\n      swap2\n      pop\n      pop\n      jump\t// out\n        /* \"#utility.yul\":20605:20776   */\n    tag_360:\n        /* \"#utility.yul\":20745:20768   */\n      0x506f696e7420636f756e74206d69736d617463682e0000000000000000000000\n        /* \"#utility.yul\":20741:20742   */\n      0x00\n        /* \"#utility.yul\":20733:20739   */\n      dup3\n        /* \"#utility.yul\":20729:20743   */\n      add\n        /* \"#utility.yul\":20722:20769   */\n      mstore\n        /* \"#utility.yul\":20605:20776   */\n      pop\n      jump\t// out\n        /* \"#utility.yul\":20782:21148   */\n    tag_361:\n        /* \"#utility.yul\":20924:20927   */\n      0x00\n        /* \"#utility.yul\":20945:21012   */\n      tag_600\n        /* \"#utility.yul\":21009:21011   */\n      0x15\n        /* \"#utility.yul\":21004:21007   */\n      dup4\n        /* \"#utility.yul\":20945:21012   */\n      tag_327\n      jump\t// in\n    tag_600:\n        /* \"#utility.yul\":20938:21012   */\n      swap2\n      pop\n        /* \"#utility.yul\":21021:21114   */\n      tag_601\n        /* \"#utility.yul\":21110:21113   */\n      dup3\n        /* \"#utility.yul\":21021:21114   */\n      tag_360\n      jump\t// in\n    tag_601:\n        /* \"#utility.yul\":21139:21141   */\n      0x20\n        /* \"#utility.yul\":21134:21137   */\n      dup3\n        /* \"#utility.yul\":21130:21142   */\n      add\n        /* \"#utility.yul\":21123:21142   */\n      swap1\n      pop\n        /* \"#utility.yul\":20782:21148   */\n      swap2\n      swap1\n      pop\n      jump\t// out\n        /* \"#utility.yul\":21154:21573   */\n    tag_180:\n        /* \"#utility.yul\":21320:21324   */\n      0x00\n        /* \"#utility.yul\":21358:21360   */\n      0x20\n        /* \"#utility.yul\":21347:21356   */\n      dup3\n        /* \"#utility.yul\":21343:21361   */\n      add\n        /* \"#utility.yul\":21335:21361   */\n      swap1\n      pop\n        /* \"#utility.yul\":21407:21416   */\n      dup2\n        /* \"#utility.yul\":21401:21405   */\n      dup2\n        /* \"#utility.yul\":21397:21417   */\n      sub\n        /* \"#utility.yul\":21393:21394   */\n      0x00\n        /* \"#utility.yul\":21382:21391   */\n      dup4\n        /* \"#utility.yul\":21378:21395   */\n      add\n        /* \"#utility.yul\":21371:21418   */\n      mstore\n        /* \"#utility.yul\":21435:21566   */\n      tag_603\n        /* \"#utility.yul\":21561:21565   */\n      dup2\n        /* \"#utility.yul\":21435:21566   */\n      tag_361\n      jump\t// in\n    tag_603:\n        /* \"#utility.yul\":21427:21566   */\n      swap1\n      pop\n        /* \"#utility.yul\":21154:21573   */\n      swap2\n      swap1\n      pop\n      jump\t// out\n        /* \"#utility.yul\":21579:21989   */\n    tag_182:\n        /* \"#utility.yul\":21619:21626   */\n      0x00\n        /* \"#utility.yul\":21642:21662   */\n      tag_605\n        /* \"#utility.yul\":21660:21661   */\n      dup3\n        /* \"#utility.yul\":21642:21662   */\n      tag_318\n      jump\t// in\n    tag_605:\n        /* \"#utility.yul\":21637:21662   */\n      swap2\n      pop\n        /* \"#utility.yul\":21676:21696   */\n      tag_606\n        /* \"#utility.yul\":21694:21695   */\n      dup4\n        /* \"#utility.yul\":21676:21696   */\n      tag_318\n      jump\t// in\n    tag_606:\n        /* \"#utility.yul\":21671:21696   */\n      swap3\n      pop\n        /* \"#utility.yul\":21731:21732   */\n      dup3\n        /* \"#utility.yul\":21728:21729   */\n      dup3\n        /* \"#utility.yul\":21724:21733   */\n      mul\n        /* \"#utility.yul\":21753:21783   */\n      tag_607\n        /* \"#utility.yul\":21771:21782   */\n      dup2\n        /* \"#utility.yul\":21753:21783   */\n      tag_318\n      jump\t// in\n    tag_607:\n        /* \"#utility.yul\":21742:21783   */\n      swap2\n      pop\n        /* \"#utility.yul\":21932:21933   */\n      dup3\n        /* \"#utility.yul\":21923:21930   */\n      dup3\n        /* \"#utility.yul\":21919:21934   */\n      div\n        /* \"#utility.yul\":21916:21917   */\n      dup5\n        /* \"#utility.yul\":21913:21935   */\n      eq\n        /* \"#utility.yul\":21893:21894   */\n      dup4\n        /* \"#utility.yul\":21886:21895   */\n      iszero\n        /* \"#utility.yul\":21866:21949   */\n      or\n        /* \"#utility.yul\":21843:21982   */\n      tag_608\n      jumpi\n        /* \"#utility.yul\":21962:21980   */\n      tag_609\n      tag_353\n      jump\t// in\n    tag_609:\n        /* \"#utility.yul\":21843:21982   */\n    tag_608:\n        /* \"#utility.yul\":21627:21989   */\n      pop\n        /* \"#utility.yul\":21579:21989   */\n      swap3\n      swap2\n      pop\n      pop\n      jump\t// out\n        /* \"#utility.yul\":21995:22170   */\n    tag_362:\n        /* \"#utility.yul\":22135:22162   */\n      0x50616972696e67206f7065726174696f6e206661696c65642e00000000000000\n        /* \"#utility.yul\":22131:22132   */\n      0x00\n        /* \"#utility.yul\":22123:22129   */\n      dup3\n        /* \"#utility.yul\":22119:22133   */\n      add\n        /* \"#utility.yul\":22112:22163   */\n      mstore\n        /* \"#utility.yul\":21995:22170   */\n      pop\n      jump\t// out\n        /* \"#utility.yul\":22176:22542   */\n    tag_363:\n        /* \"#utility.yul\":22318:22321   */\n      0x00\n        /* \"#utility.yul\":22339:22406   */\n      tag_612\n        /* \"#utility.yul\":22403:22405   */\n      0x19\n        /* \"#utility.yul\":22398:22401   */\n      dup4\n        /* \"#utility.yul\":22339:22406   */\n      tag_327\n      jump\t// in\n    tag_612:\n        /* \"#utility.yul\":22332:22406   */\n      swap2\n      pop\n        /* \"#utility.yul\":22415:22508   */\n      tag_613\n        /* \"#utility.yul\":22504:22507   */\n      dup3\n        /* \"#utility.yul\":22415:22508   */\n      tag_362\n      jump\t// in\n    tag_613:\n        /* \"#utility.yul\":22533:22535   */\n      0x20\n        /* \"#utility.yul\":22528:22531   */\n      dup3\n        /* \"#utility.yul\":22524:22536   */\n      add\n        /* \"#utility.yul\":22517:22536   */\n      swap1\n      pop\n        /* \"#utility.yul\":22176:22542   */\n      swap2\n      swap1\n      pop\n      jump\t// out\n        /* \"#utility.yul\":22548:22967   */\n    tag_237:\n        /* \"#utility.yul\":22714:22718   */\n      0x00\n        /* \"#utility.yul\":22752:22754   */\n      0x20\n        /* \"#utility.yul\":22741:22750   */\n      dup3\n        /* \"#utility.yul\":22737:22755   */\n      add\n        /* \"#utility.yul\":22729:22755   */\n      swap1\n      pop\n        /* \"#utility.yul\":22801:22810   */\n      dup2\n        /* \"#utility.yul\":22795:22799   */\n      dup2\n        /* \"#utility.yul\":22791:22811   */\n      sub\n        /* \"#utility.yul\":22787:22788   */\n      0x00\n        /* \"#utility.yul\":22776:22785   */\n      dup4\n        /* \"#utility.yul\":22772:22789   */\n      add\n        /* \"#utility.yul\":22765:22812   */\n      mstore\n        /* \"#utility.yul\":22829:22960   */\n      tag_615\n        /* \"#utility.yul\":22955:22959   */\n      dup2\n        /* \"#utility.yul\":22829:22960   */\n      tag_363\n      jump\t// in\n    tag_615:\n        /* \"#utility.yul\":22821:22960   */\n      swap1\n      pop\n        /* \"#utility.yul\":22548:22967   */\n      swap2\n      swap1\n      pop\n      jump\t// out\n        /* \"#utility.yul\":22973:23158   */\n    tag_252:\n        /* \"#utility.yul\":23013:23014   */\n      0x00\n        /* \"#utility.yul\":23030:23050   */\n      tag_617\n        /* \"#utility.yul\":23048:23049   */\n      dup3\n        /* \"#utility.yul\":23030:23050   */\n      tag_318\n      jump\t// in\n    tag_617:\n        /* \"#utility.yul\":23025:23050   */\n      swap2\n      pop\n        /* \"#utility.yul\":23064:23084   */\n      tag_618\n        /* \"#utility.yul\":23082:23083   */\n      dup4\n        /* \"#utility.yul\":23064:23084   */\n      tag_318\n      jump\t// in\n    tag_618:\n        /* \"#utility.yul\":23059:23084   */\n      swap3\n      pop\n        /* \"#utility.yul\":23103:23104   */\n      dup3\n        /* \"#utility.yul\":23093:23128   */\n      tag_619\n      jumpi\n        /* \"#utility.yul\":23108:23126   */\n      tag_620\n      tag_359\n      jump\t// in\n    tag_620:\n        /* \"#utility.yul\":23093:23128   */\n    tag_619:\n        /* \"#utility.yul\":23150:23151   */\n      dup3\n        /* \"#utility.yul\":23147:23148   */\n      dup3\n        /* \"#utility.yul\":23143:23152   */\n      div\n        /* \"#utility.yul\":23138:23152   */\n      swap1\n      pop\n        /* \"#utility.yul\":22973:23158   */\n      swap3\n      swap2\n      pop\n      pop\n      jump\t// out\n        /* \"#utility.yul\":23164:23266   */\n    tag_364:\n        /* \"#utility.yul\":23206:23214   */\n      0x00\n        /* \"#utility.yul\":23253:23258   */\n      dup2\n        /* \"#utility.yul\":23250:23251   */\n      0x01\n        /* \"#utility.yul\":23246:23259   */\n      shr\n        /* \"#utility.yul\":23225:23259   */\n      swap1\n      pop\n        /* \"#utility.yul\":23164:23266   */\n      swap2\n      swap1\n      pop\n      jump\t// out\n        /* \"#utility.yul\":23272:24120   */\n    tag_365:\n        /* \"#utility.yul\":23333:23338   */\n      0x00\n        /* \"#utility.yul\":23340:23344   */\n      dup1\n        /* \"#utility.yul\":23364:23370   */\n      dup3\n        /* \"#utility.yul\":23355:23370   */\n      swap2\n      pop\n        /* \"#utility.yul\":23388:23393   */\n      dup4\n        /* \"#utility.yul\":23379:23393   */\n      swap1\n      pop\n        /* \"#utility.yul\":23402:24114   */\n    tag_623:\n        /* \"#utility.yul\":23423:23424   */\n      0x01\n        /* \"#utility.yul\":23413:23421   */\n      dup6\n        /* \"#utility.yul\":23410:23425   */\n      gt\n        /* \"#utility.yul\":23402:24114   */\n      iszero\n      tag_625\n      jumpi\n        /* \"#utility.yul\":23518:23522   */\n      dup1\n        /* \"#utility.yul\":23513:23516   */\n      dup7\n        /* \"#utility.yul\":23509:23523   */\n      div\n        /* \"#utility.yul\":23503:23507   */\n      dup2\n        /* \"#utility.yul\":23500:23524   */\n      gt\n        /* \"#utility.yul\":23497:23547   */\n      iszero\n      tag_626\n      jumpi\n        /* \"#utility.yul\":23527:23545   */\n      tag_627\n      tag_353\n      jump\t// in\n    tag_627:\n        /* \"#utility.yul\":23497:23547   */\n    tag_626:\n        /* \"#utility.yul\":23577:23578   */\n      0x01\n        /* \"#utility.yul\":23567:23575   */\n      dup6\n        /* \"#utility.yul\":23563:23579   */\n      and\n        /* \"#utility.yul\":23560:24011   */\n      iszero\n      tag_628\n      jumpi\n        /* \"#utility.yul\":23992:23996   */\n      dup1\n        /* \"#utility.yul\":23985:23990   */\n      dup3\n        /* \"#utility.yul\":23981:23997   */\n      mul\n        /* \"#utility.yul\":23972:23997   */\n      swap2\n      pop\n        /* \"#utility.yul\":23560:24011   */\n    tag_628:\n        /* \"#utility.yul\":24042:24046   */\n      dup1\n        /* \"#utility.yul\":24036:24040   */\n      dup2\n        /* \"#utility.yul\":24032:24047   */\n      mul\n        /* \"#utility.yul\":24024:24047   */\n      swap1\n      pop\n        /* \"#utility.yul\":24072:24104   */\n      tag_629\n        /* \"#utility.yul\":24095:24103   */\n      dup6\n        /* \"#utility.yul\":24072:24104   */\n      tag_364\n      jump\t// in\n    tag_629:\n        /* \"#utility.yul\":24060:24104   */\n      swap5\n      pop\n        /* \"#utility.yul\":23402:24114   */\n      jump(tag_623)\n    tag_625:\n        /* \"#utility.yul\":23272:24120   */\n      swap5\n      pop\n      swap5\n      swap3\n      pop\n      pop\n      pop\n      jump\t// out\n        /* \"#utility.yul\":24126:25199   */\n    tag_366:\n        /* \"#utility.yul\":24180:24185   */\n      0x00\n        /* \"#utility.yul\":24371:24379   */\n      dup3\n        /* \"#utility.yul\":24361:24401   */\n      tag_631\n      jumpi\n        /* \"#utility.yul\":24392:24393   */\n      0x01\n        /* \"#utility.yul\":24383:24393   */\n      swap1\n      pop\n        /* \"#utility.yul\":24394:24399   */\n      jump(tag_630)\n        /* \"#utility.yul\":24361:24401   */\n    tag_631:\n        /* \"#utility.yul\":24420:24424   */\n      dup2\n        /* \"#utility.yul\":24410:24446   */\n      tag_632\n      jumpi\n        /* \"#utility.yul\":24437:24438   */\n      0x00\n        /* \"#utility.yul\":24428:24438   */\n      swap1\n      pop\n        /* \"#utility.yul\":24439:24444   */\n      jump(tag_630)\n        /* \"#utility.yul\":24410:24446   */\n    tag_632:\n        /* \"#utility.yul\":24506:24510   */\n      dup2\n        /* \"#utility.yul\":24554:24555   */\n      0x01\n        /* \"#utility.yul\":24549:24576   */\n      dup2\n      eq\n      tag_634\n      jumpi\n        /* \"#utility.yul\":24590:24591   */\n      0x02\n        /* \"#utility.yul\":24585:24776   */\n      dup2\n      eq\n      tag_635\n      jumpi\n        /* \"#utility.yul\":24499:24776   */\n      jump(tag_633)\n        /* \"#utility.yul\":24549:24576   */\n    tag_634:\n        /* \"#utility.yul\":24567:24568   */\n      0x01\n        /* \"#utility.yul\":24558:24568   */\n      swap2\n      pop\n        /* \"#utility.yul\":24569:24574   */\n      pop\n      jump(tag_630)\n        /* \"#utility.yul\":24585:24776   */\n    tag_635:\n        /* \"#utility.yul\":24630:24633   */\n      0xff\n        /* \"#utility.yul\":24620:24628   */\n      dup5\n        /* \"#utility.yul\":24617:24634   */\n      gt\n        /* \"#utility.yul\":24614:24657   */\n      iszero\n      tag_636\n      jumpi\n        /* \"#utility.yul\":24637:24655   */\n      tag_637\n      tag_353\n      jump\t// in\n    tag_637:\n        /* \"#utility.yul\":24614:24657   */\n    tag_636:\n        /* \"#utility.yul\":24686:24694   */\n      dup4\n        /* \"#utility.yul\":24683:24684   */\n      0x02\n        /* \"#utility.yul\":24679:24695   */\n      exp\n        /* \"#utility.yul\":24670:24695   */\n      swap2\n      pop\n        /* \"#utility.yul\":24721:24724   */\n      dup5\n        /* \"#utility.yul\":24714:24719   */\n      dup3\n        /* \"#utility.yul\":24711:24725   */\n      gt\n        /* \"#utility.yul\":24708:24748   */\n      iszero\n      tag_638\n      jumpi\n        /* \"#utility.yul\":24728:24746   */\n      tag_639\n      tag_353\n      jump\t// in\n    tag_639:\n        /* \"#utility.yul\":24708:24748   */\n    tag_638:\n        /* \"#utility.yul\":24761:24766   */\n      pop\n      jump(tag_630)\n        /* \"#utility.yul\":24499:24776   */\n    tag_633:\n      pop\n        /* \"#utility.yul\":24885:24887   */\n      0x20\n        /* \"#utility.yul\":24875:24883   */\n      dup4\n        /* \"#utility.yul\":24872:24888   */\n      lt\n        /* \"#utility.yul\":24866:24869   */\n      0x0133\n        /* \"#utility.yul\":24860:24864   */\n      dup4\n        /* \"#utility.yul\":24857:24870   */\n      lt\n        /* \"#utility.yul\":24853:24889   */\n      and\n        /* \"#utility.yul\":24835:24837   */\n      0x4e\n        /* \"#utility.yul\":24825:24833   */\n      dup5\n        /* \"#utility.yul\":24822:24838   */\n      lt\n        /* \"#utility.yul\":24817:24819   */\n      0x0b\n        /* \"#utility.yul\":24811:24815   */\n      dup5\n        /* \"#utility.yul\":24808:24820   */\n      lt\n        /* \"#utility.yul\":24804:24839   */\n      and\n        /* \"#utility.yul\":24788:24899   */\n      or\n        /* \"#utility.yul\":24785:25031   */\n      iszero\n      tag_640\n      jumpi\n        /* \"#utility.yul\":24941:24949   */\n      dup3\n        /* \"#utility.yul\":24935:24939   */\n      dup3\n        /* \"#utility.yul\":24931:24950   */\n      exp\n        /* \"#utility.yul\":24922:24950   */\n      swap1\n      pop\n        /* \"#utility.yul\":24976:24979   */\n      dup4\n        /* \"#utility.yul\":24969:24974   */\n      dup2\n        /* \"#utility.yul\":24966:24980   */\n      gt\n        /* \"#utility.yul\":24963:25003   */\n      iszero\n      tag_641\n      jumpi\n        /* \"#utility.yul\":24983:25001   */\n      tag_642\n      tag_353\n      jump\t// in\n    tag_642:\n        /* \"#utility.yul\":24963:25003   */\n    tag_641:\n        /* \"#utility.yul\":25016:25021   */\n      jump(tag_630)\n        /* \"#utility.yul\":24785:25031   */\n    tag_640:\n        /* \"#utility.yul\":25056:25098   */\n      tag_643\n        /* \"#utility.yul\":25094:25097   */\n      dup5\n        /* \"#utility.yul\":25084:25092   */\n      dup5\n        /* \"#utility.yul\":25078:25082   */\n      dup5\n        /* \"#utility.yul\":25075:25076   */\n      0x01\n        /* \"#utility.yul\":25056:25098   */\n      tag_365\n      jump\t// in\n    tag_643:\n        /* \"#utility.yul\":25041:25098   */\n      swap3\n      pop\n      swap1\n      pop\n        /* \"#utility.yul\":25130:25134   */\n      dup2\n        /* \"#utility.yul\":25125:25128   */\n      dup5\n        /* \"#utility.yul\":25121:25135   */\n      div\n        /* \"#utility.yul\":25114:25119   */\n      dup2\n        /* \"#utility.yul\":25111:25136   */\n      gt\n        /* \"#utility.yul\":25108:25159   */\n      iszero\n      tag_644\n      jumpi\n        /* \"#utility.yul\":25139:25157   */\n      tag_645\n      tag_353\n      jump\t// in\n    tag_645:\n        /* \"#utility.yul\":25108:25159   */\n    tag_644:\n        /* \"#utility.yul\":25188:25192   */\n      dup2\n        /* \"#utility.yul\":25181:25186   */\n      dup2\n        /* \"#utility.yul\":25177:25193   */\n      mul\n        /* \"#utility.yul\":25168:25193   */\n      swap1\n      pop\n        /* \"#utility.yul\":24126:25199   */\n    tag_630:\n      swap4\n      swap3\n      pop\n      pop\n      pop\n      jump\t// out\n        /* \"#utility.yul\":25205:25490   */\n    tag_280:\n        /* \"#utility.yul\":25265:25270   */\n      0x00\n        /* \"#utility.yul\":25289:25312   */\n      tag_647\n        /* \"#utility.yul\":25307:25311   */\n      dup3\n        /* \"#utility.yul\":25289:25312   */\n      tag_318\n      jump\t// in\n    tag_647:\n        /* \"#utility.yul\":25281:25312   */\n      swap2\n      pop\n        /* \"#utility.yul\":25333:25360   */\n      tag_648\n        /* \"#utility.yul\":25351:25359   */\n      dup4\n        /* \"#utility.yul\":25333:25360   */\n      tag_318\n      jump\t// in\n    tag_648:\n        /* \"#utility.yul\":25321:25360   */\n      swap3\n      pop\n        /* \"#utility.yul\":25379:25483   */\n      tag_649\n        /* \"#utility.yul\":25416:25482   */\n      0xffffffffffffffffffffffffffffffffffffffffffffffffffffffffffffffff\n        /* \"#utility.yul\":25406:25414   */\n      dup5\n        /* \"#utility.yul\":25400:25404   */\n      dup5\n        /* \"#utility.yul\":25379:25483   */\n      tag_366\n      jump\t// in\n    tag_649:\n        /* \"#utility.yul\":25370:25483   */\n      swap1\n      pop\n        /* \"#utility.yul\":25205:25490   */\n      swap3\n      swap2\n      pop\n      pop\n      jump\t// out\n        /* \"#utility.yul\":25496:25675   */\n    tag_367:\n        /* \"#utility.yul\":25636:25667   */\n      0x4661696c656420746f2063616c63756c617465206c6567656e6472652e000000\n        /* \"#utility.yul\":25632:25633   */\n      0x00\n        /* \"#utility.yul\":25624:25630   */\n      dup3\n        /* \"#utility.yul\":25620:25634   */\n      add\n        /* \"#utility.yul\":25613:25668   */\n      mstore\n        /* \"#utility.yul\":25496:25675   */\n      pop\n      jump\t// out\n        /* \"#utility.yul\":25681:26047   */\n    tag_368:\n        /* \"#utility.yul\":25823:25826   */\n      0x00\n        /* \"#utility.yul\":25844:25911   */\n      tag_652\n        /* \"#utility.yul\":25908:25910   */\n      0x1d\n        /* \"#utility.yul\":25903:25906   */\n      dup4\n        /* \"#utility.yul\":25844:25911   */\n      tag_327\n      jump\t// in\n    tag_652:\n        /* \"#utility.yul\":25837:25911   */\n      swap2\n      pop\n        /* \"#utility.yul\":25920:26013   */\n      tag_653\n        /* \"#utility.yul\":26009:26012   */\n      dup3\n        /* \"#utility.yul\":25920:26013   */\n      tag_367\n      jump\t// in\n    tag_653:\n        /* \"#utility.yul\":26038:26040   */\n      0x20\n        /* \"#utility.yul\":26033:26036   */\n      dup3\n        /* \"#utility.yul\":26029:26041   */\n      add\n        /* \"#utility.yul\":26022:26041   */\n      swap1\n      pop\n        /* \"#utility.yul\":25681:26047   */\n      swap2\n      swap1\n      pop\n      jump\t// out\n        /* \"#utility.yul\":26053:26472   */\n    tag_300:\n        /* \"#utility.yul\":26219:26223   */\n      0x00\n        /* \"#utility.yul\":26257:26259   */\n      0x20\n        /* \"#utility.yul\":26246:26255   */\n      dup3\n        /* \"#utility.yul\":26242:26260   */\n      add\n        /* \"#utility.yul\":26234:26260   */\n      swap1\n      pop\n        /* \"#utility.yul\":26306:26315   */\n      dup2\n        /* \"#utility.yul\":26300:26304   */\n      dup2\n        /* \"#utility.yul\":26296:26316   */\n      sub\n        /* \"#utility.yul\":26292:26293   */\n      0x00\n        /* \"#utility.yul\":26281:26290   */\n      dup4\n        /* \"#utility.yul\":26277:26294   */\n      add\n        /* \"#utility.yul\":26270:26317   */\n      mstore\n        /* \"#utility.yul\":26334:26465   */\n      tag_655\n        /* \"#utility.yul\":26460:26464   */\n      dup2\n        /* \"#utility.yul\":26334:26465   */\n      tag_368\n      jump\t// in\n    tag_655:\n        /* \"#utility.yul\":26326:26465   */\n      swap1\n      pop\n        /* \"#utility.yul\":26053:26472   */\n      swap2\n      swap1\n      pop\n      jump\t// out\n\n    auxdata: 0xa264697066735822122009ffa0e75ce790d77d7230f5d7684637e70029d7716bb92c74648d5e67f8b0dd64736f6c63430008160033\n}\n",
				"bytecode": {
					"linkReferences": {},
					"object": "6080604052604051806040016040528060405180604001604052807f224e256f32533cdb3d10e255f40c75b971ad71e1974332a145b523cd1fa5382981526020017f2ab94d907ffd43b92d2d59cd2dc9f277b1dce25112266aa19db9c4af76a43fee815250815260200160405180604001604052807f24976833c58227908501c809826de16eddc884a91369c74647201ad0b1e7c0c081526020017f16733bd92e16d83797dd6378b9cf1d0d6778d12671a8b50144808fceaad9de4281525081525060035f820151815f01906002620000da9291906200010a565b50602082015181600201906002620000f49291906200010a565b50505034801562000103575f80fd5b506200016c565b82600281019282156200013c579160200282015b828111156200013b5782518255916020019190600101906200011e565b5b5090506200014b91906200014f565b5090565b5b8082111562000168575f815f90555060010162000150565b5090565b6123f8806200017a5f395ff3fe608060405234801561000f575f80fd5b506004361061007b575f3560e01c8063ac98cfe511610059578063ac98cfe514610115578063bc24678c14610131578063c705817114610161578063cbc431c8146101915761007b565b806323b819f51461007f57806325b3e077146100af5780634ea43115146100e4575b5f80fd5b61009960048036038101906100949190611715565b6101c1565b6040516100a69190611776565b60405180910390f35b6100c960048036038101906100c491906117c2565b6101f6565b6040516100db96959493929190611829565b60405180910390f35b6100fe60048036038101906100f991906118c0565b6102ab565b60405161010c929190611965565b60405180910390f35b61012f600480360381019061012a9190611993565b6103aa565b005b61014b60048036038101906101469190611a81565b610595565b6040516101589190611776565b60405180910390f35b61017b600480360381019061017691906117c2565b6106df565b6040516101889190611aed565b60405180910390f35b6101ab60048036038101906101a69190611b06565b610844565b6040516101b89190611b81565b60405180910390f35b6002818051602081018201805184825260208301602085012081835280955050505050505f915054906101000a900460ff1681565b6007602052805f5260405f205f91509050805f016040518060400160405290815f820154815260200160018201548152505090806002016040518060400160405290815f820154815260200160018201548152505090806004016040518060400160405290815f820154815260200160018201548152505090806006015f9054906101000a900460ff16908060060160019054906101000a900460ff16908060060160029054906101000a900460ff16905086565b6102b3611524565b60605f8360ff16815481106102cb576102ca611b9a565b5b905f5260205f20906002020160018460ff16815481106102ee576102ed611b9a565b5b905f5260205f2001816040518060400160405290815f8201548152602001600182015481525050915080805461032390611bf4565b80601f016020809104026020016040519081016040528092919081815260200182805461034f90611bf4565b801561039a5780601f106103715761010080835404028352916020019161039a565b820191905f5260205f20905b81548152906001019060200180831161037d57829003601f168201915b5050505050905091509150915091565b5f604051806040016040528084815260200183815250905073ab8483f64d9c6d1ecf9b849ae677dd3315835cb273ffffffffffffffffffffffffffffffffffffffff163373ffffffffffffffffffffffffffffffffffffffff160361045b578060075f8681526020019081526020015f205f015f820151815f0155602082015181600101559050506001151560075f8681526020019081526020015f206006015f9054906101000a9050505061058f565b734b20993bc481177ec7e8f571cecae8a9e22c02db73ffffffffffffffffffffffffffffffffffffffff163373ffffffffffffffffffffffffffffffffffffffff16036104f6578060075f8681526020019081526020015f206002015f820151815f0155602082015181600101559050506001151560075f8681526020019081526020015f2060060160019054906101000a9050505061058e565b7378731d3ca6b7e34ac0f824c42a7cc18a495cabab73ffffffffffffffffffffffffffffffffffffffff163373ffffffffffffffffffffffffffffffffffffffff160361058d578060075f8681526020019081526020015f206004015f820151815f0155602082015181600101559050506001151560075f8681526020019081526020015f2060060160029054906101000a905050505b5b5b50505050565b5f808490505f60405180604001604052808681526020018581525090505f61065360036040518060400160405290815f82016002806020026040519081016040528092919082600280156105fe576020028201915b8154815260200190600101908083116105ea575b5050505050815260200160028201600280602002604051908101604052809291908260028015610643576020028201915b81548152602001906001019080831161062f575b50505050508152505084846108e6565b905080801561068a575060028360405161066d9190611c68565b90815260200160405180910390205f9054906101000a900460ff16155b156106d15760016002846040516106a19190611c68565b90815260200160405180910390205f6101000a81548160ff021916908315150217905550600193505050506106d8565b5f93505050505b9392505050565b6106e7611524565b6001151560075f8481526020019081526020015f206006015f9054906101000a900460ff16151514801561074057506001151560075f8481526020019081526020015f2060060160029054906101000a900460ff161515145b801561077157506001151560075f8481526020019081526020015f2060060160019054906101000a900460ff161515145b15610827575f6107e260075f8581526020019081526020015f205f016040518060400160405290815f820154815260200160018201548152505060075f8681526020019081526020015f206002016040518060400160405290815f8201548152602001600182015481525050610903565b905061081f8160075f8681526020019081526020015f206004016040518060400160405290815f8201548152602001600182015481525050610903565b91505061083f565b60405180604001604052805f81526020015f81525090505b919050565b5f8060405180604001604052808681526020018581525090505f81908060018154018082558091505060019003905f5260205f2090600202015f909190919091505f820151815f0155602082015181600101555050600183908060018154018082558091505060019003905f5260205f20015f9091909190915090816108ca9190611e1b565b5060015f805490506108dc9190611f17565b9150509392505050565b5f6108fa846108f4856109f1565b84610ad3565b90509392505050565b61090b611524565b61091361153c565b835f0151815f6004811061092a57610929611b9a565b5b60200201818152505083602001518160016004811061094c5761094b611b9a565b5b602002018181525050825f01518160026004811061096d5761096c611b9a565b5b60200201818152505082602001518160036004811061098f5761098e611b9a565b5b6020020181815250505f60408360808460066107d05a03fa9050806109e9576040517f08c379a00000000000000000000000000000000000000000000000000000000081526004016109e090611f94565b60405180910390fd5b505092915050565b6109f9611524565b5f600283604051610a0a9190611c68565b602060405180830381855afa158015610a25573d5f803e3d5ffd5b5050506040513d601f19601f82011682018060405250810190610a489190611fe5565b90505f7f30644e72e131a029b85045b68181585d97816a916871ca8d3c208c16d87cfd47825f1c610a79919061203d565b90505f5b600115610aca57610a8d82610c26565b90505f811115610ab6576040518060400160405280838152602001828152509350505050610ace565b600182610ac3919061206d565b9150610a7d565b5050505b919050565b5f80600267ffffffffffffffff811115610af057610aef6115f1565b5b604051908082528060200260200182016040528015610b2957816020015b610b16611524565b815260200190600190039081610b0e5790505b5090505f600267ffffffffffffffff811115610b4857610b476115f1565b5b604051908082528060200260200182016040528015610b8157816020015b610b6e61155e565b815260200190600190039081610b665790505b509050610b8d84610cad565b825f81518110610ba057610b9f611b9a565b5b60200260200101819052508482600181518110610bc057610bbf611b9a565b5b6020026020010181905250610bd3610d59565b815f81518110610be657610be5611b9a565b5b60200260200101819052508581600181518110610c0657610c05611b9a565b5b6020026020010181905250610c1b8282610e23565b925050509392505050565b5f610ca67f30644e72e131a029b85045b68181585d97816a916871ca8d3c208c16d87cfd47806003610c8460037f30644e72e131a029b85045b68181585d97816a916871ca8d3c208c16d87cfd47886111c59092919063ffffffff16565b610c8e919061206d565b610c98919061203d565b61121090919063ffffffff16565b9050919050565b610cb5611524565b610cbe82611440565b15610cdf5760405180604001604052805f81526020015f8152509050610d54565b6040518060400160405280835f015181526020017f30644e72e131a029b85045b68181585d97816a916871ca8d3c208c16d87cfd478460200151610d23919061203d565b7f30644e72e131a029b85045b68181585d97816a916871ca8d3c208c16d87cfd47610d4e9190611f17565b81525090505b919050565b610d6161155e565b604051806040016040528060405180604001604052807f198e9393920d483a7260bfb731fb5d25f1aa493335a9e71297e485b7aef312c281526020017f1800deef121f1e76426a00665e5c4479674322d4f75edadd46debd5cd992f6ed815250815260200160405180604001604052807f090689d0585ff075ec9e99ad690c3395bc4b313370b38ef355acdadcd122975b81526020017f12c85ea5db8c6deb4aab71808dcb408fe3d1e7690c43d37b4ce6cc0166fa7daa815250815250905090565b5f8151835114610e68576040517f08c379a0000000000000000000000000000000000000000000000000000000008152600401610e5f906120ea565b60405180910390fd5b5f835190505f600682610e7b9190612108565b90505f8167ffffffffffffffff811115610e9857610e976115f1565b5b604051908082528060200260200182016040528015610ec65781602001602082028036833780820191505090505b5090505f5b8381101561113e57868181518110610ee657610ee5611b9a565b5b60200260200101515f0151825f600684610f009190612108565b610f0a919061206d565b81518110610f1b57610f1a611b9a565b5b602002602001018181525050868181518110610f3a57610f39611b9a565b5b602002602001015160200151826001600684610f569190612108565b610f60919061206d565b81518110610f7157610f70611b9a565b5b602002602001018181525050858181518110610f9057610f8f611b9a565b5b60200260200101515f01515f60028110610fad57610fac611b9a565b5b6020020151826002600684610fc29190612108565b610fcc919061206d565b81518110610fdd57610fdc611b9a565b5b602002602001018181525050858181518110610ffc57610ffb611b9a565b5b60200260200101515f015160016002811061101a57611019611b9a565b5b602002015182600360068461102f9190612108565b611039919061206d565b8151811061104a57611049611b9a565b5b60200260200101818152505085818151811061106957611068611b9a565b5b6020026020010151602001515f6002811061108757611086611b9a565b5b602002015182600460068461109c9190612108565b6110a6919061206d565b815181106110b7576110b6611b9a565b5b6020026020010181815250508581815181106110d6576110d5611b9a565b5b6020026020010151602001516001600281106110f5576110f4611b9a565b5b602002015182600560068461110a9190612108565b611114919061206d565b8151811061112557611124611b9a565b5b6020026020010181815250508080600101915050610ecb565b50611147611584565b5f602082602086026020860160086107d05a03fa90508061119d576040517f08c379a000000000000000000000000000000000000000000000000000000000815260040161119490612193565b60405180910390fd5b5f825f600181106111b1576111b0611b9a565b5b602002015114159550505050505092915050565b5f6040516020810160208152602080820152602060408201528560608201528460808201528360a082015260208260c08360055f19fa611203575f80fd5b8151925050509392505050565b5f600161121d848461145d565b1461122a575f905061143a565b5f8303611239575f905061143a565b6003600483611248919061203d565b0361127757611270836004600185611260919061206d565b61126a91906121b1565b846111c5565b905061143a565b5f6001836112859190611f17565b90505f5b5f600283611297919061203d565b036112bf576002826112a991906121b1565b91506001816112b8919061206d565b9050611289565b5f600290505b7fffffffffffffffffffffffffffffffffffffffffffffffffffffffffffffffff6112f0828761145d565b1461130957600181611302919061206d565b90506112c5565b5f61132d87600260018761131d919061206d565b61132791906121b1565b886111c5565b90505f61133b8886896111c5565b90505f61134984878a6111c5565b90505f8590505f805f8590505b60011561142f578590505f91505f91505b83821015611393576001810315611393576113848160028e6111c5565b90508180600101925050611367565b5f82036113ac57869a505050505050505050505061143a565b6113da85600184876113be9190611f17565b6113c89190611f17565b60026113d49190612310565b8e6111c5565b92508b83846113e99190612108565b6113f3919061203d565b94508b83886114029190612108565b61140c919061203d565b96508b858761141b9190612108565b611425919061203d565b9550819350611356565b505050505050505050505b92915050565b5f80825f015114801561145657505f8260200151145b9050919050565b5f806114828460026001866114729190611f17565b61147c91906121b1565b856111c5565b90505f8114806114925750600181145b156114a0578091505061151e565b6001836114ad9190611f17565b81036114dc577fffffffffffffffffffffffffffffffffffffffffffffffffffffffffffffffff91505061151e565b5f61151c576040517f08c379a0000000000000000000000000000000000000000000000000000000008152600401611513906123a4565b60405180910390fd5b505b92915050565b60405180604001604052805f81526020015f81525090565b6040518060800160405280600490602082028036833780820191505090505090565b60405180604001604052806115716115a6565b815260200161157e6115a6565b81525090565b6040518060200160405280600190602082028036833780820191505090505090565b6040518060400160405280600290602082028036833780820191505090505090565b5f604051905090565b5f80fd5b5f80fd5b5f80fd5b5f80fd5b5f601f19601f8301169050919050565b7f4e487b71000000000000000000000000000000000000000000000000000000005f52604160045260245ffd5b611627826115e1565b810181811067ffffffffffffffff82111715611646576116456115f1565b5b80604052505050565b5f6116586115c8565b9050611664828261161e565b919050565b5f67ffffffffffffffff821115611683576116826115f1565b5b61168c826115e1565b9050602081019050919050565b828183375f83830152505050565b5f6116b96116b484611669565b61164f565b9050828152602081018484840111156116d5576116d46115dd565b5b6116e0848285611699565b509392505050565b5f82601f8301126116fc576116fb6115d9565b5b813561170c8482602086016116a7565b91505092915050565b5f6020828403121561172a576117296115d1565b5b5f82013567ffffffffffffffff811115611747576117466115d5565b5b611753848285016116e8565b91505092915050565b5f8115159050919050565b6117708161175c565b82525050565b5f6020820190506117895f830184611767565b92915050565b5f819050919050565b6117a18161178f565b81146117ab575f80fd5b50565b5f813590506117bc81611798565b92915050565b5f602082840312156117d7576117d66115d1565b5b5f6117e4848285016117ae565b91505092915050565b6117f68161178f565b82525050565b604082015f8201516118105f8501826117ed565b50602082015161182360208501826117ed565b50505050565b5f6101208201905061183d5f8301896117fc565b61184a60408301886117fc565b61185760808301876117fc565b61186460c0830186611767565b61187160e0830185611767565b61187f610100830184611767565b979650505050505050565b5f60ff82169050919050565b61189f8161188a565b81146118a9575f80fd5b50565b5f813590506118ba81611896565b92915050565b5f602082840312156118d5576118d46115d1565b5b5f6118e2848285016118ac565b91505092915050565b5f81519050919050565b5f82825260208201905092915050565b5f5b83811015611922578082015181840152602081019050611907565b5f8484015250505050565b5f611937826118eb565b61194181856118f5565b9350611951818560208601611905565b61195a816115e1565b840191505092915050565b5f6060820190506119785f8301856117fc565b818103604083015261198a818461192d565b90509392505050565b5f805f606084860312156119aa576119a96115d1565b5b5f6119b7868287016117ae565b93505060206119c8868287016117ae565b92505060406119d9868287016117ae565b9150509250925092565b5f67ffffffffffffffff8211156119fd576119fc6115f1565b5b611a06826115e1565b9050602081019050919050565b5f611a25611a20846119e3565b61164f565b905082815260208101848484011115611a4157611a406115dd565b5b611a4c848285611699565b509392505050565b5f82601f830112611a6857611a676115d9565b5b8135611a78848260208601611a13565b91505092915050565b5f805f60608486031215611a9857611a976115d1565b5b5f84013567ffffffffffffffff811115611ab557611ab46115d5565b5b611ac186828701611a54565b9350506020611ad2868287016117ae565b9250506040611ae3868287016117ae565b9150509250925092565b5f604082019050611b005f8301846117fc565b92915050565b5f805f60608486031215611b1d57611b1c6115d1565b5b5f611b2a868287016117ae565b9350506020611b3b868287016117ae565b925050604084013567ffffffffffffffff811115611b5c57611b5b6115d5565b5b611b6886828701611a54565b9150509250925092565b611b7b8161178f565b82525050565b5f602082019050611b945f830184611b72565b92915050565b7f4e487b71000000000000000000000000000000000000000000000000000000005f52603260045260245ffd5b7f4e487b71000000000000000000000000000000000000000000000000000000005f52602260045260245ffd5b5f6002820490506001821680611c0b57607f821691505b602082108103611c1e57611c1d611bc7565b5b50919050565b5f81519050919050565b5f81905092915050565b5f611c4282611c24565b611c4c8185611c2e565b9350611c5c818560208601611905565b80840191505092915050565b5f611c738284611c38565b915081905092915050565b5f819050815f5260205f209050919050565b5f6020601f8301049050919050565b5f82821b905092915050565b5f60088302611cda7fffffffffffffffffffffffffffffffffffffffffffffffffffffffffffffffff82611c9f565b611ce48683611c9f565b95508019841693508086168417925050509392505050565b5f819050919050565b5f611d1f611d1a611d158461178f565b611cfc565b61178f565b9050919050565b5f819050919050565b611d3883611d05565b611d4c611d4482611d26565b848454611cab565b825550505050565b5f90565b611d60611d54565b611d6b818484611d2f565b505050565b5b81811015611d8e57611d835f82611d58565b600181019050611d71565b5050565b601f821115611dd357611da481611c7e565b611dad84611c90565b81016020851015611dbc578190505b611dd0611dc885611c90565b830182611d70565b50505b505050565b5f82821c905092915050565b5f611df35f1984600802611dd8565b1980831691505092915050565b5f611e0b8383611de4565b9150826002028217905092915050565b611e24826118eb565b67ffffffffffffffff811115611e3d57611e3c6115f1565b5b611e478254611bf4565b611e52828285611d92565b5f60209050601f831160018114611e83575f8415611e71578287015190505b611e7b8582611e00565b865550611ee2565b601f198416611e9186611c7e565b5f5b82811015611eb857848901518255600182019150602085019450602081019050611e93565b86831015611ed55784890151611ed1601f891682611de4565b8355505b6001600288020188555050505b505050505050565b7f4e487b71000000000000000000000000000000000000000000000000000000005f52601160045260245ffd5b5f611f218261178f565b9150611f2c8361178f565b9250828203905081811115611f4457611f43611eea565b5b92915050565b7f41646420706f696e7473206661696c65640000000000000000000000000000005f82015250565b5f611f7e6011836118f5565b9150611f8982611f4a565b602082019050919050565b5f6020820190508181035f830152611fab81611f72565b9050919050565b5f819050919050565b611fc481611fb2565b8114611fce575f80fd5b50565b5f81519050611fdf81611fbb565b92915050565b5f60208284031215611ffa57611ff96115d1565b5b5f61200784828501611fd1565b91505092915050565b7f4e487b71000000000000000000000000000000000000000000000000000000005f52601260045260245ffd5b5f6120478261178f565b91506120528361178f565b92508261206257612061612010565b5b828206905092915050565b5f6120778261178f565b91506120828361178f565b925082820190508082111561209a57612099611eea565b5b92915050565b7f506f696e7420636f756e74206d69736d617463682e00000000000000000000005f82015250565b5f6120d46015836118f5565b91506120df826120a0565b602082019050919050565b5f6020820190508181035f830152612101816120c8565b9050919050565b5f6121128261178f565b915061211d8361178f565b925082820261212b8161178f565b9150828204841483151761214257612141611eea565b5b5092915050565b7f50616972696e67206f7065726174696f6e206661696c65642e000000000000005f82015250565b5f61217d6019836118f5565b915061218882612149565b602082019050919050565b5f6020820190508181035f8301526121aa81612171565b9050919050565b5f6121bb8261178f565b91506121c68361178f565b9250826121d6576121d5612010565b5b828204905092915050565b5f8160011c9050919050565b5f808291508390505b60018511156122365780860481111561221257612211611eea565b5b60018516156122215780820291505b808102905061222f856121e1565b94506121f6565b94509492505050565b5f8261224e5760019050612309565b8161225b575f9050612309565b8160018114612271576002811461227b576122aa565b6001915050612309565b60ff84111561228d5761228c611eea565b5b8360020a9150848211156122a4576122a3611eea565b5b50612309565b5060208310610133831016604e8410600b84101617156122df5782820a9050838111156122da576122d9611eea565b5b612309565b6122ec84848460016121ed565b9250905081840481111561230357612302611eea565b5b81810290505b9392505050565b5f61231a8261178f565b91506123258361178f565b92506123527fffffffffffffffffffffffffffffffffffffffffffffffffffffffffffffffff848461223f565b905092915050565b7f4661696c656420746f2063616c63756c617465206c6567656e6472652e0000005f82015250565b5f61238e601d836118f5565b91506123998261235a565b602082019050919050565b5f6020820190508181035f8301526123bb81612382565b905091905056fea264697066735822122009ffa0e75ce790d77d7230f5d7684637e70029d7716bb92c74648d5e67f8b0dd64736f6c63430008160033",
					"opcodes": "PUSH1 0x80 PUSH1 0x40 MSTORE PUSH1 0x40 MLOAD DUP1 PUSH1 0x40 ADD PUSH1 0x40 MSTORE DUP1 PUSH1 0x40 MLOAD DUP1 PUSH1 0x40 ADD PUSH1 0x40 MSTORE DUP1 PUSH32 0x224E256F32533CDB3D10E255F40C75B971AD71E1974332A145B523CD1FA53829 DUP2 MSTORE PUSH1 0x20 ADD PUSH32 0x2AB94D907FFD43B92D2D59CD2DC9F277B1DCE25112266AA19DB9C4AF76A43FEE DUP2 MSTORE POP DUP2 MSTORE PUSH1 0x20 ADD PUSH1 0x40 MLOAD DUP1 PUSH1 0x40 ADD PUSH1 0x40 MSTORE DUP1 PUSH32 0x24976833C58227908501C809826DE16EDDC884A91369C74647201AD0B1E7C0C0 DUP2 MSTORE PUSH1 0x20 ADD PUSH32 0x16733BD92E16D83797DD6378B9CF1D0D6778D12671A8B50144808FCEAAD9DE42 DUP2 MSTORE POP DUP2 MSTORE POP PUSH1 0x3 PUSH0 DUP3 ADD MLOAD DUP2 PUSH0 ADD SWAP1 PUSH1 0x2 PUSH3 0xDA SWAP3 SWAP2 SWAP1 PUSH3 0x10A JUMP JUMPDEST POP PUSH1 0x20 DUP3 ADD MLOAD DUP2 PUSH1 0x2 ADD SWAP1 PUSH1 0x2 PUSH3 0xF4 SWAP3 SWAP2 SWAP1 PUSH3 0x10A JUMP JUMPDEST POP POP POP CALLVALUE DUP1 ISZERO PUSH3 0x103 JUMPI PUSH0 DUP1 REVERT JUMPDEST POP PUSH3 0x16C JUMP JUMPDEST DUP3 PUSH1 0x2 DUP2 ADD SWAP3 DUP3 ISZERO PUSH3 0x13C JUMPI SWAP2 PUSH1 0x20 MUL DUP3 ADD JUMPDEST DUP3 DUP2 GT ISZERO PUSH3 0x13B JUMPI DUP3 MLOAD DUP3 SSTORE SWAP2 PUSH1 0x20 ADD SWAP2 SWAP1 PUSH1 0x1 ADD SWAP1 PUSH3 0x11E JUMP JUMPDEST JUMPDEST POP SWAP1 POP PUSH3 0x14B SWAP2 SWAP1 PUSH3 0x14F JUMP JUMPDEST POP SWAP1 JUMP JUMPDEST JUMPDEST DUP1 DUP3 GT ISZERO PUSH3 0x168 JUMPI PUSH0 DUP2 PUSH0 SWAP1 SSTORE POP PUSH1 0x1 ADD PUSH3 0x150 JUMP JUMPDEST POP SWAP1 JUMP JUMPDEST PUSH2 0x23F8 DUP1 PUSH3 0x17A PUSH0 CODECOPY PUSH0 RETURN INVALID PUSH1 0x80 PUSH1 0x40 MSTORE CALLVALUE DUP1 ISZERO PUSH2 0xF JUMPI PUSH0 DUP1 REVERT JUMPDEST POP PUSH1 0x4 CALLDATASIZE LT PUSH2 0x7B JUMPI PUSH0 CALLDATALOAD PUSH1 0xE0 SHR DUP1 PUSH4 0xAC98CFE5 GT PUSH2 0x59 JUMPI DUP1 PUSH4 0xAC98CFE5 EQ PUSH2 0x115 JUMPI DUP1 PUSH4 0xBC24678C EQ PUSH2 0x131 JUMPI DUP1 PUSH4 0xC7058171 EQ PUSH2 0x161 JUMPI DUP1 PUSH4 0xCBC431C8 EQ PUSH2 0x191 JUMPI PUSH2 0x7B JUMP JUMPDEST DUP1 PUSH4 0x23B819F5 EQ PUSH2 0x7F JUMPI DUP1 PUSH4 0x25B3E077 EQ PUSH2 0xAF JUMPI DUP1 PUSH4 0x4EA43115 EQ PUSH2 0xE4 JUMPI JUMPDEST PUSH0 DUP1 REVERT JUMPDEST PUSH2 0x99 PUSH1 0x4 DUP1 CALLDATASIZE SUB DUP2 ADD SWAP1 PUSH2 0x94 SWAP2 SWAP1 PUSH2 0x1715 JUMP JUMPDEST PUSH2 0x1C1 JUMP JUMPDEST PUSH1 0x40 MLOAD PUSH2 0xA6 SWAP2 SWAP1 PUSH2 0x1776 JUMP JUMPDEST PUSH1 0x40 MLOAD DUP1 SWAP2 SUB SWAP1 RETURN JUMPDEST PUSH2 0xC9 PUSH1 0x4 DUP1 CALLDATASIZE SUB DUP2 ADD SWAP1 PUSH2 0xC4 SWAP2 SWAP1 PUSH2 0x17C2 JUMP JUMPDEST PUSH2 0x1F6 JUMP JUMPDEST PUSH1 0x40 MLOAD PUSH2 0xDB SWAP7 SWAP6 SWAP5 SWAP4 SWAP3 SWAP2 SWAP1 PUSH2 0x1829 JUMP JUMPDEST PUSH1 0x40 MLOAD DUP1 SWAP2 SUB SWAP1 RETURN JUMPDEST PUSH2 0xFE PUSH1 0x4 DUP1 CALLDATASIZE SUB DUP2 ADD SWAP1 PUSH2 0xF9 SWAP2 SWAP1 PUSH2 0x18C0 JUMP JUMPDEST PUSH2 0x2AB JUMP JUMPDEST PUSH1 0x40 MLOAD PUSH2 0x10C SWAP3 SWAP2 SWAP1 PUSH2 0x1965 JUMP JUMPDEST PUSH1 0x40 MLOAD DUP1 SWAP2 SUB SWAP1 RETURN JUMPDEST PUSH2 0x12F PUSH1 0x4 DUP1 CALLDATASIZE SUB DUP2 ADD SWAP1 PUSH2 0x12A SWAP2 SWAP1 PUSH2 0x1993 JUMP JUMPDEST PUSH2 0x3AA JUMP JUMPDEST STOP JUMPDEST PUSH2 0x14B PUSH1 0x4 DUP1 CALLDATASIZE SUB DUP2 ADD SWAP1 PUSH2 0x146 SWAP2 SWAP1 PUSH2 0x1A81 JUMP JUMPDEST PUSH2 0x595 JUMP JUMPDEST PUSH1 0x40 MLOAD PUSH2 0x158 SWAP2 SWAP1 PUSH2 0x1776 JUMP JUMPDEST PUSH1 0x40 MLOAD DUP1 SWAP2 SUB SWAP1 RETURN JUMPDEST PUSH2 0x17B PUSH1 0x4 DUP1 CALLDATASIZE SUB DUP2 ADD SWAP1 PUSH2 0x176 SWAP2 SWAP1 PUSH2 0x17C2 JUMP JUMPDEST PUSH2 0x6DF JUMP JUMPDEST PUSH1 0x40 MLOAD PUSH2 0x188 SWAP2 SWAP1 PUSH2 0x1AED JUMP JUMPDEST PUSH1 0x40 MLOAD DUP1 SWAP2 SUB SWAP1 RETURN JUMPDEST PUSH2 0x1AB PUSH1 0x4 DUP1 CALLDATASIZE SUB DUP2 ADD SWAP1 PUSH2 0x1A6 SWAP2 SWAP1 PUSH2 0x1B06 JUMP JUMPDEST PUSH2 0x844 JUMP JUMPDEST PUSH1 0x40 MLOAD PUSH2 0x1B8 SWAP2 SWAP1 PUSH2 0x1B81 JUMP JUMPDEST PUSH1 0x40 MLOAD DUP1 SWAP2 SUB SWAP1 RETURN JUMPDEST PUSH1 0x2 DUP2 DUP1 MLOAD PUSH1 0x20 DUP2 ADD DUP3 ADD DUP1 MLOAD DUP5 DUP3 MSTORE PUSH1 0x20 DUP4 ADD PUSH1 0x20 DUP6 ADD KECCAK256 DUP2 DUP4 MSTORE DUP1 SWAP6 POP POP POP POP POP POP PUSH0 SWAP2 POP SLOAD SWAP1 PUSH2 0x100 EXP SWAP1 DIV PUSH1 0xFF AND DUP2 JUMP JUMPDEST PUSH1 0x7 PUSH1 0x20 MSTORE DUP1 PUSH0 MSTORE PUSH1 0x40 PUSH0 KECCAK256 PUSH0 SWAP2 POP SWAP1 POP DUP1 PUSH0 ADD PUSH1 0x40 MLOAD DUP1 PUSH1 0x40 ADD PUSH1 0x40 MSTORE SWAP1 DUP2 PUSH0 DUP3 ADD SLOAD DUP2 MSTORE PUSH1 0x20 ADD PUSH1 0x1 DUP3 ADD SLOAD DUP2 MSTORE POP POP SWAP1 DUP1 PUSH1 0x2 ADD PUSH1 0x40 MLOAD DUP1 PUSH1 0x40 ADD PUSH1 0x40 MSTORE SWAP1 DUP2 PUSH0 DUP3 ADD SLOAD DUP2 MSTORE PUSH1 0x20 ADD PUSH1 0x1 DUP3 ADD SLOAD DUP2 MSTORE POP POP SWAP1 DUP1 PUSH1 0x4 ADD PUSH1 0x40 MLOAD DUP1 PUSH1 0x40 ADD PUSH1 0x40 MSTORE SWAP1 DUP2 PUSH0 DUP3 ADD SLOAD DUP2 MSTORE PUSH1 0x20 ADD PUSH1 0x1 DUP3 ADD SLOAD DUP2 MSTORE POP POP SWAP1 DUP1 PUSH1 0x6 ADD PUSH0 SWAP1 SLOAD SWAP1 PUSH2 0x100 EXP SWAP1 DIV PUSH1 0xFF AND SWAP1 DUP1 PUSH1 0x6 ADD PUSH1 0x1 SWAP1 SLOAD SWAP1 PUSH2 0x100 EXP SWAP1 DIV PUSH1 0xFF AND SWAP1 DUP1 PUSH1 0x6 ADD PUSH1 0x2 SWAP1 SLOAD SWAP1 PUSH2 0x100 EXP SWAP1 DIV PUSH1 0xFF AND SWAP1 POP DUP7 JUMP JUMPDEST PUSH2 0x2B3 PUSH2 0x1524 JUMP JUMPDEST PUSH1 0x60 PUSH0 DUP4 PUSH1 0xFF AND DUP2 SLOAD DUP2 LT PUSH2 0x2CB JUMPI PUSH2 0x2CA PUSH2 0x1B9A JUMP JUMPDEST JUMPDEST SWAP1 PUSH0 MSTORE PUSH1 0x20 PUSH0 KECCAK256 SWAP1 PUSH1 0x2 MUL ADD PUSH1 0x1 DUP5 PUSH1 0xFF AND DUP2 SLOAD DUP2 LT PUSH2 0x2EE JUMPI PUSH2 0x2ED PUSH2 0x1B9A JUMP JUMPDEST JUMPDEST SWAP1 PUSH0 MSTORE PUSH1 0x20 PUSH0 KECCAK256 ADD DUP2 PUSH1 0x40 MLOAD DUP1 PUSH1 0x40 ADD PUSH1 0x40 MSTORE SWAP1 DUP2 PUSH0 DUP3 ADD SLOAD DUP2 MSTORE PUSH1 0x20 ADD PUSH1 0x1 DUP3 ADD SLOAD DUP2 MSTORE POP POP SWAP2 POP DUP1 DUP1 SLOAD PUSH2 0x323 SWAP1 PUSH2 0x1BF4 JUMP JUMPDEST DUP1 PUSH1 0x1F ADD PUSH1 0x20 DUP1 SWAP2 DIV MUL PUSH1 0x20 ADD PUSH1 0x40 MLOAD SWAP1 DUP2 ADD PUSH1 0x40 MSTORE DUP1 SWAP3 SWAP2 SWAP1 DUP2 DUP2 MSTORE PUSH1 0x20 ADD DUP3 DUP1 SLOAD PUSH2 0x34F SWAP1 PUSH2 0x1BF4 JUMP JUMPDEST DUP1 ISZERO PUSH2 0x39A JUMPI DUP1 PUSH1 0x1F LT PUSH2 0x371 JUMPI PUSH2 0x100 DUP1 DUP4 SLOAD DIV MUL DUP4 MSTORE SWAP2 PUSH1 0x20 ADD SWAP2 PUSH2 0x39A JUMP JUMPDEST DUP3 ADD SWAP2 SWAP1 PUSH0 MSTORE PUSH1 0x20 PUSH0 KECCAK256 SWAP1 JUMPDEST DUP2 SLOAD DUP2 MSTORE SWAP1 PUSH1 0x1 ADD SWAP1 PUSH1 0x20 ADD DUP1 DUP4 GT PUSH2 0x37D JUMPI DUP3 SWAP1 SUB PUSH1 0x1F AND DUP3 ADD SWAP2 JUMPDEST POP POP POP POP POP SWAP1 POP SWAP2 POP SWAP2 POP SWAP2 POP SWAP2 JUMP JUMPDEST PUSH0 PUSH1 0x40 MLOAD DUP1 PUSH1 0x40 ADD PUSH1 0x40 MSTORE DUP1 DUP5 DUP2 MSTORE PUSH1 0x20 ADD DUP4 DUP2 MSTORE POP SWAP1 POP PUSH20 0xAB8483F64D9C6D1ECF9B849AE677DD3315835CB2 PUSH20 0xFFFFFFFFFFFFFFFFFFFFFFFFFFFFFFFFFFFFFFFF AND CALLER PUSH20 0xFFFFFFFFFFFFFFFFFFFFFFFFFFFFFFFFFFFFFFFF AND SUB PUSH2 0x45B JUMPI DUP1 PUSH1 0x7 PUSH0 DUP7 DUP2 MSTORE PUSH1 0x20 ADD SWAP1 DUP2 MSTORE PUSH1 0x20 ADD PUSH0 KECCAK256 PUSH0 ADD PUSH0 DUP3 ADD MLOAD DUP2 PUSH0 ADD SSTORE PUSH1 0x20 DUP3 ADD MLOAD DUP2 PUSH1 0x1 ADD SSTORE SWAP1 POP POP PUSH1 0x1 ISZERO ISZERO PUSH1 0x7 PUSH0 DUP7 DUP2 MSTORE PUSH1 0x20 ADD SWAP1 DUP2 MSTORE PUSH1 0x20 ADD PUSH0 KECCAK256 PUSH1 0x6 ADD PUSH0 SWAP1 SLOAD SWAP1 PUSH2 0x100 EXP SWAP1 POP POP POP PUSH2 0x58F JUMP JUMPDEST PUSH20 0x4B20993BC481177EC7E8F571CECAE8A9E22C02DB PUSH20 0xFFFFFFFFFFFFFFFFFFFFFFFFFFFFFFFFFFFFFFFF AND CALLER PUSH20 0xFFFFFFFFFFFFFFFFFFFFFFFFFFFFFFFFFFFFFFFF AND SUB PUSH2 0x4F6 JUMPI DUP1 PUSH1 0x7 PUSH0 DUP7 DUP2 MSTORE PUSH1 0x20 ADD SWAP1 DUP2 MSTORE PUSH1 0x20 ADD PUSH0 KECCAK256 PUSH1 0x2 ADD PUSH0 DUP3 ADD MLOAD DUP2 PUSH0 ADD SSTORE PUSH1 0x20 DUP3 ADD MLOAD DUP2 PUSH1 0x1 ADD SSTORE SWAP1 POP POP PUSH1 0x1 ISZERO ISZERO PUSH1 0x7 PUSH0 DUP7 DUP2 MSTORE PUSH1 0x20 ADD SWAP1 DUP2 MSTORE PUSH1 0x20 ADD PUSH0 KECCAK256 PUSH1 0x6 ADD PUSH1 0x1 SWAP1 SLOAD SWAP1 PUSH2 0x100 EXP SWAP1 POP POP POP PUSH2 0x58E JUMP JUMPDEST PUSH20 0x78731D3CA6B7E34AC0F824C42A7CC18A495CABAB PUSH20 0xFFFFFFFFFFFFFFFFFFFFFFFFFFFFFFFFFFFFFFFF AND CALLER PUSH20 0xFFFFFFFFFFFFFFFFFFFFFFFFFFFFFFFFFFFFFFFF AND SUB PUSH2 0x58D JUMPI DUP1 PUSH1 0x7 PUSH0 DUP7 DUP2 MSTORE PUSH1 0x20 ADD SWAP1 DUP2 MSTORE PUSH1 0x20 ADD PUSH0 KECCAK256 PUSH1 0x4 ADD PUSH0 DUP3 ADD MLOAD DUP2 PUSH0 ADD SSTORE PUSH1 0x20 DUP3 ADD MLOAD DUP2 PUSH1 0x1 ADD SSTORE SWAP1 POP POP PUSH1 0x1 ISZERO ISZERO PUSH1 0x7 PUSH0 DUP7 DUP2 MSTORE PUSH1 0x20 ADD SWAP1 DUP2 MSTORE PUSH1 0x20 ADD PUSH0 KECCAK256 PUSH1 0x6 ADD PUSH1 0x2 SWAP1 SLOAD SWAP1 PUSH2 0x100 EXP SWAP1 POP POP POP JUMPDEST JUMPDEST JUMPDEST POP POP POP POP JUMP JUMPDEST PUSH0 DUP1 DUP5 SWAP1 POP PUSH0 PUSH1 0x40 MLOAD DUP1 PUSH1 0x40 ADD PUSH1 0x40 MSTORE DUP1 DUP7 DUP2 MSTORE PUSH1 0x20 ADD DUP6 DUP2 MSTORE POP SWAP1 POP PUSH0 PUSH2 0x653 PUSH1 0x3 PUSH1 0x40 MLOAD DUP1 PUSH1 0x40 ADD PUSH1 0x40 MSTORE SWAP1 DUP2 PUSH0 DUP3 ADD PUSH1 0x2 DUP1 PUSH1 0x20 MUL PUSH1 0x40 MLOAD SWAP1 DUP2 ADD PUSH1 0x40 MSTORE DUP1 SWAP3 SWAP2 SWAP1 DUP3 PUSH1 0x2 DUP1 ISZERO PUSH2 0x5FE JUMPI PUSH1 0x20 MUL DUP3 ADD SWAP2 JUMPDEST DUP2 SLOAD DUP2 MSTORE PUSH1 0x20 ADD SWAP1 PUSH1 0x1 ADD SWAP1 DUP1 DUP4 GT PUSH2 0x5EA JUMPI JUMPDEST POP POP POP POP POP DUP2 MSTORE PUSH1 0x20 ADD PUSH1 0x2 DUP3 ADD PUSH1 0x2 DUP1 PUSH1 0x20 MUL PUSH1 0x40 MLOAD SWAP1 DUP2 ADD PUSH1 0x40 MSTORE DUP1 SWAP3 SWAP2 SWAP1 DUP3 PUSH1 0x2 DUP1 ISZERO PUSH2 0x643 JUMPI PUSH1 0x20 MUL DUP3 ADD SWAP2 JUMPDEST DUP2 SLOAD DUP2 MSTORE PUSH1 0x20 ADD SWAP1 PUSH1 0x1 ADD SWAP1 DUP1 DUP4 GT PUSH2 0x62F JUMPI JUMPDEST POP POP POP POP POP DUP2 MSTORE POP POP DUP5 DUP5 PUSH2 0x8E6 JUMP JUMPDEST SWAP1 POP DUP1 DUP1 ISZERO PUSH2 0x68A JUMPI POP PUSH1 0x2 DUP4 PUSH1 0x40 MLOAD PUSH2 0x66D SWAP2 SWAP1 PUSH2 0x1C68 JUMP JUMPDEST SWAP1 DUP2 MSTORE PUSH1 0x20 ADD PUSH1 0x40 MLOAD DUP1 SWAP2 SUB SWAP1 KECCAK256 PUSH0 SWAP1 SLOAD SWAP1 PUSH2 0x100 EXP SWAP1 DIV PUSH1 0xFF AND ISZERO JUMPDEST ISZERO PUSH2 0x6D1 JUMPI PUSH1 0x1 PUSH1 0x2 DUP5 PUSH1 0x40 MLOAD PUSH2 0x6A1 SWAP2 SWAP1 PUSH2 0x1C68 JUMP JUMPDEST SWAP1 DUP2 MSTORE PUSH1 0x20 ADD PUSH1 0x40 MLOAD DUP1 SWAP2 SUB SWAP1 KECCAK256 PUSH0 PUSH2 0x100 EXP DUP2 SLOAD DUP2 PUSH1 0xFF MUL NOT AND SWAP1 DUP4 ISZERO ISZERO MUL OR SWAP1 SSTORE POP PUSH1 0x1 SWAP4 POP POP POP POP PUSH2 0x6D8 JUMP JUMPDEST PUSH0 SWAP4 POP POP POP POP JUMPDEST SWAP4 SWAP3 POP POP POP JUMP JUMPDEST PUSH2 0x6E7 PUSH2 0x1524 JUMP JUMPDEST PUSH1 0x1 ISZERO ISZERO PUSH1 0x7 PUSH0 DUP5 DUP2 MSTORE PUSH1 0x20 ADD SWAP1 DUP2 MSTORE PUSH1 0x20 ADD PUSH0 KECCAK256 PUSH1 0x6 ADD PUSH0 SWAP1 SLOAD SWAP1 PUSH2 0x100 EXP SWAP1 DIV PUSH1 0xFF AND ISZERO ISZERO EQ DUP1 ISZERO PUSH2 0x740 JUMPI POP PUSH1 0x1 ISZERO ISZERO PUSH1 0x7 PUSH0 DUP5 DUP2 MSTORE PUSH1 0x20 ADD SWAP1 DUP2 MSTORE PUSH1 0x20 ADD PUSH0 KECCAK256 PUSH1 0x6 ADD PUSH1 0x2 SWAP1 SLOAD SWAP1 PUSH2 0x100 EXP SWAP1 DIV PUSH1 0xFF AND ISZERO ISZERO EQ JUMPDEST DUP1 ISZERO PUSH2 0x771 JUMPI POP PUSH1 0x1 ISZERO ISZERO PUSH1 0x7 PUSH0 DUP5 DUP2 MSTORE PUSH1 0x20 ADD SWAP1 DUP2 MSTORE PUSH1 0x20 ADD PUSH0 KECCAK256 PUSH1 0x6 ADD PUSH1 0x1 SWAP1 SLOAD SWAP1 PUSH2 0x100 EXP SWAP1 DIV PUSH1 0xFF AND ISZERO ISZERO EQ JUMPDEST ISZERO PUSH2 0x827 JUMPI PUSH0 PUSH2 0x7E2 PUSH1 0x7 PUSH0 DUP6 DUP2 MSTORE PUSH1 0x20 ADD SWAP1 DUP2 MSTORE PUSH1 0x20 ADD PUSH0 KECCAK256 PUSH0 ADD PUSH1 0x40 MLOAD DUP1 PUSH1 0x40 ADD PUSH1 0x40 MSTORE SWAP1 DUP2 PUSH0 DUP3 ADD SLOAD DUP2 MSTORE PUSH1 0x20 ADD PUSH1 0x1 DUP3 ADD SLOAD DUP2 MSTORE POP POP PUSH1 0x7 PUSH0 DUP7 DUP2 MSTORE PUSH1 0x20 ADD SWAP1 DUP2 MSTORE PUSH1 0x20 ADD PUSH0 KECCAK256 PUSH1 0x2 ADD PUSH1 0x40 MLOAD DUP1 PUSH1 0x40 ADD PUSH1 0x40 MSTORE SWAP1 DUP2 PUSH0 DUP3 ADD SLOAD DUP2 MSTORE PUSH1 0x20 ADD PUSH1 0x1 DUP3 ADD SLOAD DUP2 MSTORE POP POP PUSH2 0x903 JUMP JUMPDEST SWAP1 POP PUSH2 0x81F DUP2 PUSH1 0x7 PUSH0 DUP7 DUP2 MSTORE PUSH1 0x20 ADD SWAP1 DUP2 MSTORE PUSH1 0x20 ADD PUSH0 KECCAK256 PUSH1 0x4 ADD PUSH1 0x40 MLOAD DUP1 PUSH1 0x40 ADD PUSH1 0x40 MSTORE SWAP1 DUP2 PUSH0 DUP3 ADD SLOAD DUP2 MSTORE PUSH1 0x20 ADD PUSH1 0x1 DUP3 ADD SLOAD DUP2 MSTORE POP POP PUSH2 0x903 JUMP JUMPDEST SWAP2 POP POP PUSH2 0x83F JUMP JUMPDEST PUSH1 0x40 MLOAD DUP1 PUSH1 0x40 ADD PUSH1 0x40 MSTORE DUP1 PUSH0 DUP2 MSTORE PUSH1 0x20 ADD PUSH0 DUP2 MSTORE POP SWAP1 POP JUMPDEST SWAP2 SWAP1 POP JUMP JUMPDEST PUSH0 DUP1 PUSH1 0x40 MLOAD DUP1 PUSH1 0x40 ADD PUSH1 0x40 MSTORE DUP1 DUP7 DUP2 MSTORE PUSH1 0x20 ADD DUP6 DUP2 MSTORE POP SWAP1 POP PUSH0 DUP2 SWAP1 DUP1 PUSH1 0x1 DUP2 SLOAD ADD DUP1 DUP3 SSTORE DUP1 SWAP2 POP POP PUSH1 0x1 SWAP1 SUB SWAP1 PUSH0 MSTORE PUSH1 0x20 PUSH0 KECCAK256 SWAP1 PUSH1 0x2 MUL ADD PUSH0 SWAP1 SWAP2 SWAP1 SWAP2 SWAP1 SWAP2 POP PUSH0 DUP3 ADD MLOAD DUP2 PUSH0 ADD SSTORE PUSH1 0x20 DUP3 ADD MLOAD DUP2 PUSH1 0x1 ADD SSTORE POP POP PUSH1 0x1 DUP4 SWAP1 DUP1 PUSH1 0x1 DUP2 SLOAD ADD DUP1 DUP3 SSTORE DUP1 SWAP2 POP POP PUSH1 0x1 SWAP1 SUB SWAP1 PUSH0 MSTORE PUSH1 0x20 PUSH0 KECCAK256 ADD PUSH0 SWAP1 SWAP2 SWAP1 SWAP2 SWAP1 SWAP2 POP SWAP1 DUP2 PUSH2 0x8CA SWAP2 SWAP1 PUSH2 0x1E1B JUMP JUMPDEST POP PUSH1 0x1 PUSH0 DUP1 SLOAD SWAP1 POP PUSH2 0x8DC SWAP2 SWAP1 PUSH2 0x1F17 JUMP JUMPDEST SWAP2 POP POP SWAP4 SWAP3 POP POP POP JUMP JUMPDEST PUSH0 PUSH2 0x8FA DUP5 PUSH2 0x8F4 DUP6 PUSH2 0x9F1 JUMP JUMPDEST DUP5 PUSH2 0xAD3 JUMP JUMPDEST SWAP1 POP SWAP4 SWAP3 POP POP POP JUMP JUMPDEST PUSH2 0x90B PUSH2 0x1524 JUMP JUMPDEST PUSH2 0x913 PUSH2 0x153C JUMP JUMPDEST DUP4 PUSH0 ADD MLOAD DUP2 PUSH0 PUSH1 0x4 DUP2 LT PUSH2 0x92A JUMPI PUSH2 0x929 PUSH2 0x1B9A JUMP JUMPDEST JUMPDEST PUSH1 0x20 MUL ADD DUP2 DUP2 MSTORE POP POP DUP4 PUSH1 0x20 ADD MLOAD DUP2 PUSH1 0x1 PUSH1 0x4 DUP2 LT PUSH2 0x94C JUMPI PUSH2 0x94B PUSH2 0x1B9A JUMP JUMPDEST JUMPDEST PUSH1 0x20 MUL ADD DUP2 DUP2 MSTORE POP POP DUP3 PUSH0 ADD MLOAD DUP2 PUSH1 0x2 PUSH1 0x4 DUP2 LT PUSH2 0x96D JUMPI PUSH2 0x96C PUSH2 0x1B9A JUMP JUMPDEST JUMPDEST PUSH1 0x20 MUL ADD DUP2 DUP2 MSTORE POP POP DUP3 PUSH1 0x20 ADD MLOAD DUP2 PUSH1 0x3 PUSH1 0x4 DUP2 LT PUSH2 0x98F JUMPI PUSH2 0x98E PUSH2 0x1B9A JUMP JUMPDEST JUMPDEST PUSH1 0x20 MUL ADD DUP2 DUP2 MSTORE POP POP PUSH0 PUSH1 0x40 DUP4 PUSH1 0x80 DUP5 PUSH1 0x6 PUSH2 0x7D0 GAS SUB STATICCALL SWAP1 POP DUP1 PUSH2 0x9E9 JUMPI PUSH1 0x40 MLOAD PUSH32 0x8C379A000000000000000000000000000000000000000000000000000000000 DUP2 MSTORE PUSH1 0x4 ADD PUSH2 0x9E0 SWAP1 PUSH2 0x1F94 JUMP JUMPDEST PUSH1 0x40 MLOAD DUP1 SWAP2 SUB SWAP1 REVERT JUMPDEST POP POP SWAP3 SWAP2 POP POP JUMP JUMPDEST PUSH2 0x9F9 PUSH2 0x1524 JUMP JUMPDEST PUSH0 PUSH1 0x2 DUP4 PUSH1 0x40 MLOAD PUSH2 0xA0A SWAP2 SWAP1 PUSH2 0x1C68 JUMP JUMPDEST PUSH1 0x20 PUSH1 0x40 MLOAD DUP1 DUP4 SUB DUP2 DUP6 GAS STATICCALL ISZERO DUP1 ISZERO PUSH2 0xA25 JUMPI RETURNDATASIZE PUSH0 DUP1 RETURNDATACOPY RETURNDATASIZE PUSH0 REVERT JUMPDEST POP POP POP PUSH1 0x40 MLOAD RETURNDATASIZE PUSH1 0x1F NOT PUSH1 0x1F DUP3 ADD AND DUP3 ADD DUP1 PUSH1 0x40 MSTORE POP DUP2 ADD SWAP1 PUSH2 0xA48 SWAP2 SWAP1 PUSH2 0x1FE5 JUMP JUMPDEST SWAP1 POP PUSH0 PUSH32 0x30644E72E131A029B85045B68181585D97816A916871CA8D3C208C16D87CFD47 DUP3 PUSH0 SHR PUSH2 0xA79 SWAP2 SWAP1 PUSH2 0x203D JUMP JUMPDEST SWAP1 POP PUSH0 JUMPDEST PUSH1 0x1 ISZERO PUSH2 0xACA JUMPI PUSH2 0xA8D DUP3 PUSH2 0xC26 JUMP JUMPDEST SWAP1 POP PUSH0 DUP2 GT ISZERO PUSH2 0xAB6 JUMPI PUSH1 0x40 MLOAD DUP1 PUSH1 0x40 ADD PUSH1 0x40 MSTORE DUP1 DUP4 DUP2 MSTORE PUSH1 0x20 ADD DUP3 DUP2 MSTORE POP SWAP4 POP POP POP POP PUSH2 0xACE JUMP JUMPDEST PUSH1 0x1 DUP3 PUSH2 0xAC3 SWAP2 SWAP1 PUSH2 0x206D JUMP JUMPDEST SWAP2 POP PUSH2 0xA7D JUMP JUMPDEST POP POP POP JUMPDEST SWAP2 SWAP1 POP JUMP JUMPDEST PUSH0 DUP1 PUSH1 0x2 PUSH8 0xFFFFFFFFFFFFFFFF DUP2 GT ISZERO PUSH2 0xAF0 JUMPI PUSH2 0xAEF PUSH2 0x15F1 JUMP JUMPDEST JUMPDEST PUSH1 0x40 MLOAD SWAP1 DUP1 DUP3 MSTORE DUP1 PUSH1 0x20 MUL PUSH1 0x20 ADD DUP3 ADD PUSH1 0x40 MSTORE DUP1 ISZERO PUSH2 0xB29 JUMPI DUP2 PUSH1 0x20 ADD JUMPDEST PUSH2 0xB16 PUSH2 0x1524 JUMP JUMPDEST DUP2 MSTORE PUSH1 0x20 ADD SWAP1 PUSH1 0x1 SWAP1 SUB SWAP1 DUP2 PUSH2 0xB0E JUMPI SWAP1 POP JUMPDEST POP SWAP1 POP PUSH0 PUSH1 0x2 PUSH8 0xFFFFFFFFFFFFFFFF DUP2 GT ISZERO PUSH2 0xB48 JUMPI PUSH2 0xB47 PUSH2 0x15F1 JUMP JUMPDEST JUMPDEST PUSH1 0x40 MLOAD SWAP1 DUP1 DUP3 MSTORE DUP1 PUSH1 0x20 MUL PUSH1 0x20 ADD DUP3 ADD PUSH1 0x40 MSTORE DUP1 ISZERO PUSH2 0xB81 JUMPI DUP2 PUSH1 0x20 ADD JUMPDEST PUSH2 0xB6E PUSH2 0x155E JUMP JUMPDEST DUP2 MSTORE PUSH1 0x20 ADD SWAP1 PUSH1 0x1 SWAP1 SUB SWAP1 DUP2 PUSH2 0xB66 JUMPI SWAP1 POP JUMPDEST POP SWAP1 POP PUSH2 0xB8D DUP5 PUSH2 0xCAD JUMP JUMPDEST DUP3 PUSH0 DUP2 MLOAD DUP2 LT PUSH2 0xBA0 JUMPI PUSH2 0xB9F PUSH2 0x1B9A JUMP JUMPDEST JUMPDEST PUSH1 0x20 MUL PUSH1 0x20 ADD ADD DUP2 SWAP1 MSTORE POP DUP5 DUP3 PUSH1 0x1 DUP2 MLOAD DUP2 LT PUSH2 0xBC0 JUMPI PUSH2 0xBBF PUSH2 0x1B9A JUMP JUMPDEST JUMPDEST PUSH1 0x20 MUL PUSH1 0x20 ADD ADD DUP2 SWAP1 MSTORE POP PUSH2 0xBD3 PUSH2 0xD59 JUMP JUMPDEST DUP2 PUSH0 DUP2 MLOAD DUP2 LT PUSH2 0xBE6 JUMPI PUSH2 0xBE5 PUSH2 0x1B9A JUMP JUMPDEST JUMPDEST PUSH1 0x20 MUL PUSH1 0x20 ADD ADD DUP2 SWAP1 MSTORE POP DUP6 DUP2 PUSH1 0x1 DUP2 MLOAD DUP2 LT PUSH2 0xC06 JUMPI PUSH2 0xC05 PUSH2 0x1B9A JUMP JUMPDEST JUMPDEST PUSH1 0x20 MUL PUSH1 0x20 ADD ADD DUP2 SWAP1 MSTORE POP PUSH2 0xC1B DUP3 DUP3 PUSH2 0xE23 JUMP JUMPDEST SWAP3 POP POP POP SWAP4 SWAP3 POP POP POP JUMP JUMPDEST PUSH0 PUSH2 0xCA6 PUSH32 0x30644E72E131A029B85045B68181585D97816A916871CA8D3C208C16D87CFD47 DUP1 PUSH1 0x3 PUSH2 0xC84 PUSH1 0x3 PUSH32 0x30644E72E131A029B85045B68181585D97816A916871CA8D3C208C16D87CFD47 DUP9 PUSH2 0x11C5 SWAP1 SWAP3 SWAP2 SWAP1 PUSH4 0xFFFFFFFF AND JUMP JUMPDEST PUSH2 0xC8E SWAP2 SWAP1 PUSH2 0x206D JUMP JUMPDEST PUSH2 0xC98 SWAP2 SWAP1 PUSH2 0x203D JUMP JUMPDEST PUSH2 0x1210 SWAP1 SWAP2 SWAP1 PUSH4 0xFFFFFFFF AND JUMP JUMPDEST SWAP1 POP SWAP2 SWAP1 POP JUMP JUMPDEST PUSH2 0xCB5 PUSH2 0x1524 JUMP JUMPDEST PUSH2 0xCBE DUP3 PUSH2 0x1440 JUMP JUMPDEST ISZERO PUSH2 0xCDF JUMPI PUSH1 0x40 MLOAD DUP1 PUSH1 0x40 ADD PUSH1 0x40 MSTORE DUP1 PUSH0 DUP2 MSTORE PUSH1 0x20 ADD PUSH0 DUP2 MSTORE POP SWAP1 POP PUSH2 0xD54 JUMP JUMPDEST PUSH1 0x40 MLOAD DUP1 PUSH1 0x40 ADD PUSH1 0x40 MSTORE DUP1 DUP4 PUSH0 ADD MLOAD DUP2 MSTORE PUSH1 0x20 ADD PUSH32 0x30644E72E131A029B85045B68181585D97816A916871CA8D3C208C16D87CFD47 DUP5 PUSH1 0x20 ADD MLOAD PUSH2 0xD23 SWAP2 SWAP1 PUSH2 0x203D JUMP JUMPDEST PUSH32 0x30644E72E131A029B85045B68181585D97816A916871CA8D3C208C16D87CFD47 PUSH2 0xD4E SWAP2 SWAP1 PUSH2 0x1F17 JUMP JUMPDEST DUP2 MSTORE POP SWAP1 POP JUMPDEST SWAP2 SWAP1 POP JUMP JUMPDEST PUSH2 0xD61 PUSH2 0x155E JUMP JUMPDEST PUSH1 0x40 MLOAD DUP1 PUSH1 0x40 ADD PUSH1 0x40 MSTORE DUP1 PUSH1 0x40 MLOAD DUP1 PUSH1 0x40 ADD PUSH1 0x40 MSTORE DUP1 PUSH32 0x198E9393920D483A7260BFB731FB5D25F1AA493335A9E71297E485B7AEF312C2 DUP2 MSTORE PUSH1 0x20 ADD PUSH32 0x1800DEEF121F1E76426A00665E5C4479674322D4F75EDADD46DEBD5CD992F6ED DUP2 MSTORE POP DUP2 MSTORE PUSH1 0x20 ADD PUSH1 0x40 MLOAD DUP1 PUSH1 0x40 ADD PUSH1 0x40 MSTORE DUP1 PUSH32 0x90689D0585FF075EC9E99AD690C3395BC4B313370B38EF355ACDADCD122975B DUP2 MSTORE PUSH1 0x20 ADD PUSH32 0x12C85EA5DB8C6DEB4AAB71808DCB408FE3D1E7690C43D37B4CE6CC0166FA7DAA DUP2 MSTORE POP DUP2 MSTORE POP SWAP1 POP SWAP1 JUMP JUMPDEST PUSH0 DUP2 MLOAD DUP4 MLOAD EQ PUSH2 0xE68 JUMPI PUSH1 0x40 MLOAD PUSH32 0x8C379A000000000000000000000000000000000000000000000000000000000 DUP2 MSTORE PUSH1 0x4 ADD PUSH2 0xE5F SWAP1 PUSH2 0x20EA JUMP JUMPDEST PUSH1 0x40 MLOAD DUP1 SWAP2 SUB SWAP1 REVERT JUMPDEST PUSH0 DUP4 MLOAD SWAP1 POP PUSH0 PUSH1 0x6 DUP3 PUSH2 0xE7B SWAP2 SWAP1 PUSH2 0x2108 JUMP JUMPDEST SWAP1 POP PUSH0 DUP2 PUSH8 0xFFFFFFFFFFFFFFFF DUP2 GT ISZERO PUSH2 0xE98 JUMPI PUSH2 0xE97 PUSH2 0x15F1 JUMP JUMPDEST JUMPDEST PUSH1 0x40 MLOAD SWAP1 DUP1 DUP3 MSTORE DUP1 PUSH1 0x20 MUL PUSH1 0x20 ADD DUP3 ADD PUSH1 0x40 MSTORE DUP1 ISZERO PUSH2 0xEC6 JUMPI DUP2 PUSH1 0x20 ADD PUSH1 0x20 DUP3 MUL DUP1 CALLDATASIZE DUP4 CALLDATACOPY DUP1 DUP3 ADD SWAP2 POP POP SWAP1 POP JUMPDEST POP SWAP1 POP PUSH0 JUMPDEST DUP4 DUP2 LT ISZERO PUSH2 0x113E JUMPI DUP7 DUP2 DUP2 MLOAD DUP2 LT PUSH2 0xEE6 JUMPI PUSH2 0xEE5 PUSH2 0x1B9A JUMP JUMPDEST JUMPDEST PUSH1 0x20 MUL PUSH1 0x20 ADD ADD MLOAD PUSH0 ADD MLOAD DUP3 PUSH0 PUSH1 0x6 DUP5 PUSH2 0xF00 SWAP2 SWAP1 PUSH2 0x2108 JUMP JUMPDEST PUSH2 0xF0A SWAP2 SWAP1 PUSH2 0x206D JUMP JUMPDEST DUP2 MLOAD DUP2 LT PUSH2 0xF1B JUMPI PUSH2 0xF1A PUSH2 0x1B9A JUMP JUMPDEST JUMPDEST PUSH1 0x20 MUL PUSH1 0x20 ADD ADD DUP2 DUP2 MSTORE POP POP DUP7 DUP2 DUP2 MLOAD DUP2 LT PUSH2 0xF3A JUMPI PUSH2 0xF39 PUSH2 0x1B9A JUMP JUMPDEST JUMPDEST PUSH1 0x20 MUL PUSH1 0x20 ADD ADD MLOAD PUSH1 0x20 ADD MLOAD DUP3 PUSH1 0x1 PUSH1 0x6 DUP5 PUSH2 0xF56 SWAP2 SWAP1 PUSH2 0x2108 JUMP JUMPDEST PUSH2 0xF60 SWAP2 SWAP1 PUSH2 0x206D JUMP JUMPDEST DUP2 MLOAD DUP2 LT PUSH2 0xF71 JUMPI PUSH2 0xF70 PUSH2 0x1B9A JUMP JUMPDEST JUMPDEST PUSH1 0x20 MUL PUSH1 0x20 ADD ADD DUP2 DUP2 MSTORE POP POP DUP6 DUP2 DUP2 MLOAD DUP2 LT PUSH2 0xF90 JUMPI PUSH2 0xF8F PUSH2 0x1B9A JUMP JUMPDEST JUMPDEST PUSH1 0x20 MUL PUSH1 0x20 ADD ADD MLOAD PUSH0 ADD MLOAD PUSH0 PUSH1 0x2 DUP2 LT PUSH2 0xFAD JUMPI PUSH2 0xFAC PUSH2 0x1B9A JUMP JUMPDEST JUMPDEST PUSH1 0x20 MUL ADD MLOAD DUP3 PUSH1 0x2 PUSH1 0x6 DUP5 PUSH2 0xFC2 SWAP2 SWAP1 PUSH2 0x2108 JUMP JUMPDEST PUSH2 0xFCC SWAP2 SWAP1 PUSH2 0x206D JUMP JUMPDEST DUP2 MLOAD DUP2 LT PUSH2 0xFDD JUMPI PUSH2 0xFDC PUSH2 0x1B9A JUMP JUMPDEST JUMPDEST PUSH1 0x20 MUL PUSH1 0x20 ADD ADD DUP2 DUP2 MSTORE POP POP DUP6 DUP2 DUP2 MLOAD DUP2 LT PUSH2 0xFFC JUMPI PUSH2 0xFFB PUSH2 0x1B9A JUMP JUMPDEST JUMPDEST PUSH1 0x20 MUL PUSH1 0x20 ADD ADD MLOAD PUSH0 ADD MLOAD PUSH1 0x1 PUSH1 0x2 DUP2 LT PUSH2 0x101A JUMPI PUSH2 0x1019 PUSH2 0x1B9A JUMP JUMPDEST JUMPDEST PUSH1 0x20 MUL ADD MLOAD DUP3 PUSH1 0x3 PUSH1 0x6 DUP5 PUSH2 0x102F SWAP2 SWAP1 PUSH2 0x2108 JUMP JUMPDEST PUSH2 0x1039 SWAP2 SWAP1 PUSH2 0x206D JUMP JUMPDEST DUP2 MLOAD DUP2 LT PUSH2 0x104A JUMPI PUSH2 0x1049 PUSH2 0x1B9A JUMP JUMPDEST JUMPDEST PUSH1 0x20 MUL PUSH1 0x20 ADD ADD DUP2 DUP2 MSTORE POP POP DUP6 DUP2 DUP2 MLOAD DUP2 LT PUSH2 0x1069 JUMPI PUSH2 0x1068 PUSH2 0x1B9A JUMP JUMPDEST JUMPDEST PUSH1 0x20 MUL PUSH1 0x20 ADD ADD MLOAD PUSH1 0x20 ADD MLOAD PUSH0 PUSH1 0x2 DUP2 LT PUSH2 0x1087 JUMPI PUSH2 0x1086 PUSH2 0x1B9A JUMP JUMPDEST JUMPDEST PUSH1 0x20 MUL ADD MLOAD DUP3 PUSH1 0x4 PUSH1 0x6 DUP5 PUSH2 0x109C SWAP2 SWAP1 PUSH2 0x2108 JUMP JUMPDEST PUSH2 0x10A6 SWAP2 SWAP1 PUSH2 0x206D JUMP JUMPDEST DUP2 MLOAD DUP2 LT PUSH2 0x10B7 JUMPI PUSH2 0x10B6 PUSH2 0x1B9A JUMP JUMPDEST JUMPDEST PUSH1 0x20 MUL PUSH1 0x20 ADD ADD DUP2 DUP2 MSTORE POP POP DUP6 DUP2 DUP2 MLOAD DUP2 LT PUSH2 0x10D6 JUMPI PUSH2 0x10D5 PUSH2 0x1B9A JUMP JUMPDEST JUMPDEST PUSH1 0x20 MUL PUSH1 0x20 ADD ADD MLOAD PUSH1 0x20 ADD MLOAD PUSH1 0x1 PUSH1 0x2 DUP2 LT PUSH2 0x10F5 JUMPI PUSH2 0x10F4 PUSH2 0x1B9A JUMP JUMPDEST JUMPDEST PUSH1 0x20 MUL ADD MLOAD DUP3 PUSH1 0x5 PUSH1 0x6 DUP5 PUSH2 0x110A SWAP2 SWAP1 PUSH2 0x2108 JUMP JUMPDEST PUSH2 0x1114 SWAP2 SWAP1 PUSH2 0x206D JUMP JUMPDEST DUP2 MLOAD DUP2 LT PUSH2 0x1125 JUMPI PUSH2 0x1124 PUSH2 0x1B9A JUMP JUMPDEST JUMPDEST PUSH1 0x20 MUL PUSH1 0x20 ADD ADD DUP2 DUP2 MSTORE POP POP DUP1 DUP1 PUSH1 0x1 ADD SWAP2 POP POP PUSH2 0xECB JUMP JUMPDEST POP PUSH2 0x1147 PUSH2 0x1584 JUMP JUMPDEST PUSH0 PUSH1 0x20 DUP3 PUSH1 0x20 DUP7 MUL PUSH1 0x20 DUP7 ADD PUSH1 0x8 PUSH2 0x7D0 GAS SUB STATICCALL SWAP1 POP DUP1 PUSH2 0x119D JUMPI PUSH1 0x40 MLOAD PUSH32 0x8C379A000000000000000000000000000000000000000000000000000000000 DUP2 MSTORE PUSH1 0x4 ADD PUSH2 0x1194 SWAP1 PUSH2 0x2193 JUMP JUMPDEST PUSH1 0x40 MLOAD DUP1 SWAP2 SUB SWAP1 REVERT JUMPDEST PUSH0 DUP3 PUSH0 PUSH1 0x1 DUP2 LT PUSH2 0x11B1 JUMPI PUSH2 0x11B0 PUSH2 0x1B9A JUMP JUMPDEST JUMPDEST PUSH1 0x20 MUL ADD MLOAD EQ ISZERO SWAP6 POP POP POP POP POP POP SWAP3 SWAP2 POP POP JUMP JUMPDEST PUSH0 PUSH1 0x40 MLOAD PUSH1 0x20 DUP2 ADD PUSH1 0x20 DUP2 MSTORE PUSH1 0x20 DUP1 DUP3 ADD MSTORE PUSH1 0x20 PUSH1 0x40 DUP3 ADD MSTORE DUP6 PUSH1 0x60 DUP3 ADD MSTORE DUP5 PUSH1 0x80 DUP3 ADD MSTORE DUP4 PUSH1 0xA0 DUP3 ADD MSTORE PUSH1 0x20 DUP3 PUSH1 0xC0 DUP4 PUSH1 0x5 PUSH0 NOT STATICCALL PUSH2 0x1203 JUMPI PUSH0 DUP1 REVERT JUMPDEST DUP2 MLOAD SWAP3 POP POP POP SWAP4 SWAP3 POP POP POP JUMP JUMPDEST PUSH0 PUSH1 0x1 PUSH2 0x121D DUP5 DUP5 PUSH2 0x145D JUMP JUMPDEST EQ PUSH2 0x122A JUMPI PUSH0 SWAP1 POP PUSH2 0x143A JUMP JUMPDEST PUSH0 DUP4 SUB PUSH2 0x1239 JUMPI PUSH0 SWAP1 POP PUSH2 0x143A JUMP JUMPDEST PUSH1 0x3 PUSH1 0x4 DUP4 PUSH2 0x1248 SWAP2 SWAP1 PUSH2 0x203D JUMP JUMPDEST SUB PUSH2 0x1277 JUMPI PUSH2 0x1270 DUP4 PUSH1 0x4 PUSH1 0x1 DUP6 PUSH2 0x1260 SWAP2 SWAP1 PUSH2 0x206D JUMP JUMPDEST PUSH2 0x126A SWAP2 SWAP1 PUSH2 0x21B1 JUMP JUMPDEST DUP5 PUSH2 0x11C5 JUMP JUMPDEST SWAP1 POP PUSH2 0x143A JUMP JUMPDEST PUSH0 PUSH1 0x1 DUP4 PUSH2 0x1285 SWAP2 SWAP1 PUSH2 0x1F17 JUMP JUMPDEST SWAP1 POP PUSH0 JUMPDEST PUSH0 PUSH1 0x2 DUP4 PUSH2 0x1297 SWAP2 SWAP1 PUSH2 0x203D JUMP JUMPDEST SUB PUSH2 0x12BF JUMPI PUSH1 0x2 DUP3 PUSH2 0x12A9 SWAP2 SWAP1 PUSH2 0x21B1 JUMP JUMPDEST SWAP2 POP PUSH1 0x1 DUP2 PUSH2 0x12B8 SWAP2 SWAP1 PUSH2 0x206D JUMP JUMPDEST SWAP1 POP PUSH2 0x1289 JUMP JUMPDEST PUSH0 PUSH1 0x2 SWAP1 POP JUMPDEST PUSH32 0xFFFFFFFFFFFFFFFFFFFFFFFFFFFFFFFFFFFFFFFFFFFFFFFFFFFFFFFFFFFFFFFF PUSH2 0x12F0 DUP3 DUP8 PUSH2 0x145D JUMP JUMPDEST EQ PUSH2 0x1309 JUMPI PUSH1 0x1 DUP2 PUSH2 0x1302 SWAP2 SWAP1 PUSH2 0x206D JUMP JUMPDEST SWAP1 POP PUSH2 0x12C5 JUMP JUMPDEST PUSH0 PUSH2 0x132D DUP8 PUSH1 0x2 PUSH1 0x1 DUP8 PUSH2 0x131D SWAP2 SWAP1 PUSH2 0x206D JUMP JUMPDEST PUSH2 0x1327 SWAP2 SWAP1 PUSH2 0x21B1 JUMP JUMPDEST DUP9 PUSH2 0x11C5 JUMP JUMPDEST SWAP1 POP PUSH0 PUSH2 0x133B DUP9 DUP7 DUP10 PUSH2 0x11C5 JUMP JUMPDEST SWAP1 POP PUSH0 PUSH2 0x1349 DUP5 DUP8 DUP11 PUSH2 0x11C5 JUMP JUMPDEST SWAP1 POP PUSH0 DUP6 SWAP1 POP PUSH0 DUP1 PUSH0 DUP6 SWAP1 POP JUMPDEST PUSH1 0x1 ISZERO PUSH2 0x142F JUMPI DUP6 SWAP1 POP PUSH0 SWAP2 POP PUSH0 SWAP2 POP JUMPDEST DUP4 DUP3 LT ISZERO PUSH2 0x1393 JUMPI PUSH1 0x1 DUP2 SUB ISZERO PUSH2 0x1393 JUMPI PUSH2 0x1384 DUP2 PUSH1 0x2 DUP15 PUSH2 0x11C5 JUMP JUMPDEST SWAP1 POP DUP2 DUP1 PUSH1 0x1 ADD SWAP3 POP POP PUSH2 0x1367 JUMP JUMPDEST PUSH0 DUP3 SUB PUSH2 0x13AC JUMPI DUP7 SWAP11 POP POP POP POP POP POP POP POP POP POP POP PUSH2 0x143A JUMP JUMPDEST PUSH2 0x13DA DUP6 PUSH1 0x1 DUP5 DUP8 PUSH2 0x13BE SWAP2 SWAP1 PUSH2 0x1F17 JUMP JUMPDEST PUSH2 0x13C8 SWAP2 SWAP1 PUSH2 0x1F17 JUMP JUMPDEST PUSH1 0x2 PUSH2 0x13D4 SWAP2 SWAP1 PUSH2 0x2310 JUMP JUMPDEST DUP15 PUSH2 0x11C5 JUMP JUMPDEST SWAP3 POP DUP12 DUP4 DUP5 PUSH2 0x13E9 SWAP2 SWAP1 PUSH2 0x2108 JUMP JUMPDEST PUSH2 0x13F3 SWAP2 SWAP1 PUSH2 0x203D JUMP JUMPDEST SWAP5 POP DUP12 DUP4 DUP9 PUSH2 0x1402 SWAP2 SWAP1 PUSH2 0x2108 JUMP JUMPDEST PUSH2 0x140C SWAP2 SWAP1 PUSH2 0x203D JUMP JUMPDEST SWAP7 POP DUP12 DUP6 DUP8 PUSH2 0x141B SWAP2 SWAP1 PUSH2 0x2108 JUMP JUMPDEST PUSH2 0x1425 SWAP2 SWAP1 PUSH2 0x203D JUMP JUMPDEST SWAP6 POP DUP2 SWAP4 POP PUSH2 0x1356 JUMP JUMPDEST POP POP POP POP POP POP POP POP POP POP JUMPDEST SWAP3 SWAP2 POP POP JUMP JUMPDEST PUSH0 DUP1 DUP3 PUSH0 ADD MLOAD EQ DUP1 ISZERO PUSH2 0x1456 JUMPI POP PUSH0 DUP3 PUSH1 0x20 ADD MLOAD EQ JUMPDEST SWAP1 POP SWAP2 SWAP1 POP JUMP JUMPDEST PUSH0 DUP1 PUSH2 0x1482 DUP5 PUSH1 0x2 PUSH1 0x1 DUP7 PUSH2 0x1472 SWAP2 SWAP1 PUSH2 0x1F17 JUMP JUMPDEST PUSH2 0x147C SWAP2 SWAP1 PUSH2 0x21B1 JUMP JUMPDEST DUP6 PUSH2 0x11C5 JUMP JUMPDEST SWAP1 POP PUSH0 DUP2 EQ DUP1 PUSH2 0x1492 JUMPI POP PUSH1 0x1 DUP2 EQ JUMPDEST ISZERO PUSH2 0x14A0 JUMPI DUP1 SWAP2 POP POP PUSH2 0x151E JUMP JUMPDEST PUSH1 0x1 DUP4 PUSH2 0x14AD SWAP2 SWAP1 PUSH2 0x1F17 JUMP JUMPDEST DUP2 SUB PUSH2 0x14DC JUMPI PUSH32 0xFFFFFFFFFFFFFFFFFFFFFFFFFFFFFFFFFFFFFFFFFFFFFFFFFFFFFFFFFFFFFFFF SWAP2 POP POP PUSH2 0x151E JUMP JUMPDEST PUSH0 PUSH2 0x151C JUMPI PUSH1 0x40 MLOAD PUSH32 0x8C379A000000000000000000000000000000000000000000000000000000000 DUP2 MSTORE PUSH1 0x4 ADD PUSH2 0x1513 SWAP1 PUSH2 0x23A4 JUMP JUMPDEST PUSH1 0x40 MLOAD DUP1 SWAP2 SUB SWAP1 REVERT JUMPDEST POP JUMPDEST SWAP3 SWAP2 POP POP JUMP JUMPDEST PUSH1 0x40 MLOAD DUP1 PUSH1 0x40 ADD PUSH1 0x40 MSTORE DUP1 PUSH0 DUP2 MSTORE PUSH1 0x20 ADD PUSH0 DUP2 MSTORE POP SWAP1 JUMP JUMPDEST PUSH1 0x40 MLOAD DUP1 PUSH1 0x80 ADD PUSH1 0x40 MSTORE DUP1 PUSH1 0x4 SWAP1 PUSH1 0x20 DUP3 MUL DUP1 CALLDATASIZE DUP4 CALLDATACOPY DUP1 DUP3 ADD SWAP2 POP POP SWAP1 POP POP SWAP1 JUMP JUMPDEST PUSH1 0x40 MLOAD DUP1 PUSH1 0x40 ADD PUSH1 0x40 MSTORE DUP1 PUSH2 0x1571 PUSH2 0x15A6 JUMP JUMPDEST DUP2 MSTORE PUSH1 0x20 ADD PUSH2 0x157E PUSH2 0x15A6 JUMP JUMPDEST DUP2 MSTORE POP SWAP1 JUMP JUMPDEST PUSH1 0x40 MLOAD DUP1 PUSH1 0x20 ADD PUSH1 0x40 MSTORE DUP1 PUSH1 0x1 SWAP1 PUSH1 0x20 DUP3 MUL DUP1 CALLDATASIZE DUP4 CALLDATACOPY DUP1 DUP3 ADD SWAP2 POP POP SWAP1 POP POP SWAP1 JUMP JUMPDEST PUSH1 0x40 MLOAD DUP1 PUSH1 0x40 ADD PUSH1 0x40 MSTORE DUP1 PUSH1 0x2 SWAP1 PUSH1 0x20 DUP3 MUL DUP1 CALLDATASIZE DUP4 CALLDATACOPY DUP1 DUP3 ADD SWAP2 POP POP SWAP1 POP POP SWAP1 JUMP JUMPDEST PUSH0 PUSH1 0x40 MLOAD SWAP1 POP SWAP1 JUMP JUMPDEST PUSH0 DUP1 REVERT JUMPDEST PUSH0 DUP1 REVERT JUMPDEST PUSH0 DUP1 REVERT JUMPDEST PUSH0 DUP1 REVERT JUMPDEST PUSH0 PUSH1 0x1F NOT PUSH1 0x1F DUP4 ADD AND SWAP1 POP SWAP2 SWAP1 POP JUMP JUMPDEST PUSH32 0x4E487B7100000000000000000000000000000000000000000000000000000000 PUSH0 MSTORE PUSH1 0x41 PUSH1 0x4 MSTORE PUSH1 0x24 PUSH0 REVERT JUMPDEST PUSH2 0x1627 DUP3 PUSH2 0x15E1 JUMP JUMPDEST DUP2 ADD DUP2 DUP2 LT PUSH8 0xFFFFFFFFFFFFFFFF DUP3 GT OR ISZERO PUSH2 0x1646 JUMPI PUSH2 0x1645 PUSH2 0x15F1 JUMP JUMPDEST JUMPDEST DUP1 PUSH1 0x40 MSTORE POP POP POP JUMP JUMPDEST PUSH0 PUSH2 0x1658 PUSH2 0x15C8 JUMP JUMPDEST SWAP1 POP PUSH2 0x1664 DUP3 DUP3 PUSH2 0x161E JUMP JUMPDEST SWAP2 SWAP1 POP JUMP JUMPDEST PUSH0 PUSH8 0xFFFFFFFFFFFFFFFF DUP3 GT ISZERO PUSH2 0x1683 JUMPI PUSH2 0x1682 PUSH2 0x15F1 JUMP JUMPDEST JUMPDEST PUSH2 0x168C DUP3 PUSH2 0x15E1 JUMP JUMPDEST SWAP1 POP PUSH1 0x20 DUP2 ADD SWAP1 POP SWAP2 SWAP1 POP JUMP JUMPDEST DUP3 DUP2 DUP4 CALLDATACOPY PUSH0 DUP4 DUP4 ADD MSTORE POP POP POP JUMP JUMPDEST PUSH0 PUSH2 0x16B9 PUSH2 0x16B4 DUP5 PUSH2 0x1669 JUMP JUMPDEST PUSH2 0x164F JUMP JUMPDEST SWAP1 POP DUP3 DUP2 MSTORE PUSH1 0x20 DUP2 ADD DUP5 DUP5 DUP5 ADD GT ISZERO PUSH2 0x16D5 JUMPI PUSH2 0x16D4 PUSH2 0x15DD JUMP JUMPDEST JUMPDEST PUSH2 0x16E0 DUP5 DUP3 DUP6 PUSH2 0x1699 JUMP JUMPDEST POP SWAP4 SWAP3 POP POP POP JUMP JUMPDEST PUSH0 DUP3 PUSH1 0x1F DUP4 ADD SLT PUSH2 0x16FC JUMPI PUSH2 0x16FB PUSH2 0x15D9 JUMP JUMPDEST JUMPDEST DUP2 CALLDATALOAD PUSH2 0x170C DUP5 DUP3 PUSH1 0x20 DUP7 ADD PUSH2 0x16A7 JUMP JUMPDEST SWAP2 POP POP SWAP3 SWAP2 POP POP JUMP JUMPDEST PUSH0 PUSH1 0x20 DUP3 DUP5 SUB SLT ISZERO PUSH2 0x172A JUMPI PUSH2 0x1729 PUSH2 0x15D1 JUMP JUMPDEST JUMPDEST PUSH0 DUP3 ADD CALLDATALOAD PUSH8 0xFFFFFFFFFFFFFFFF DUP2 GT ISZERO PUSH2 0x1747 JUMPI PUSH2 0x1746 PUSH2 0x15D5 JUMP JUMPDEST JUMPDEST PUSH2 0x1753 DUP5 DUP3 DUP6 ADD PUSH2 0x16E8 JUMP JUMPDEST SWAP2 POP POP SWAP3 SWAP2 POP POP JUMP JUMPDEST PUSH0 DUP2 ISZERO ISZERO SWAP1 POP SWAP2 SWAP1 POP JUMP JUMPDEST PUSH2 0x1770 DUP2 PUSH2 0x175C JUMP JUMPDEST DUP3 MSTORE POP POP JUMP JUMPDEST PUSH0 PUSH1 0x20 DUP3 ADD SWAP1 POP PUSH2 0x1789 PUSH0 DUP4 ADD DUP5 PUSH2 0x1767 JUMP JUMPDEST SWAP3 SWAP2 POP POP JUMP JUMPDEST PUSH0 DUP2 SWAP1 POP SWAP2 SWAP1 POP JUMP JUMPDEST PUSH2 0x17A1 DUP2 PUSH2 0x178F JUMP JUMPDEST DUP2 EQ PUSH2 0x17AB JUMPI PUSH0 DUP1 REVERT JUMPDEST POP JUMP JUMPDEST PUSH0 DUP2 CALLDATALOAD SWAP1 POP PUSH2 0x17BC DUP2 PUSH2 0x1798 JUMP JUMPDEST SWAP3 SWAP2 POP POP JUMP JUMPDEST PUSH0 PUSH1 0x20 DUP3 DUP5 SUB SLT ISZERO PUSH2 0x17D7 JUMPI PUSH2 0x17D6 PUSH2 0x15D1 JUMP JUMPDEST JUMPDEST PUSH0 PUSH2 0x17E4 DUP5 DUP3 DUP6 ADD PUSH2 0x17AE JUMP JUMPDEST SWAP2 POP POP SWAP3 SWAP2 POP POP JUMP JUMPDEST PUSH2 0x17F6 DUP2 PUSH2 0x178F JUMP JUMPDEST DUP3 MSTORE POP POP JUMP JUMPDEST PUSH1 0x40 DUP3 ADD PUSH0 DUP3 ADD MLOAD PUSH2 0x1810 PUSH0 DUP6 ADD DUP3 PUSH2 0x17ED JUMP JUMPDEST POP PUSH1 0x20 DUP3 ADD MLOAD PUSH2 0x1823 PUSH1 0x20 DUP6 ADD DUP3 PUSH2 0x17ED JUMP JUMPDEST POP POP POP POP JUMP JUMPDEST PUSH0 PUSH2 0x120 DUP3 ADD SWAP1 POP PUSH2 0x183D PUSH0 DUP4 ADD DUP10 PUSH2 0x17FC JUMP JUMPDEST PUSH2 0x184A PUSH1 0x40 DUP4 ADD DUP9 PUSH2 0x17FC JUMP JUMPDEST PUSH2 0x1857 PUSH1 0x80 DUP4 ADD DUP8 PUSH2 0x17FC JUMP JUMPDEST PUSH2 0x1864 PUSH1 0xC0 DUP4 ADD DUP7 PUSH2 0x1767 JUMP JUMPDEST PUSH2 0x1871 PUSH1 0xE0 DUP4 ADD DUP6 PUSH2 0x1767 JUMP JUMPDEST PUSH2 0x187F PUSH2 0x100 DUP4 ADD DUP5 PUSH2 0x1767 JUMP JUMPDEST SWAP8 SWAP7 POP POP POP POP POP POP POP JUMP JUMPDEST PUSH0 PUSH1 0xFF DUP3 AND SWAP1 POP SWAP2 SWAP1 POP JUMP JUMPDEST PUSH2 0x189F DUP2 PUSH2 0x188A JUMP JUMPDEST DUP2 EQ PUSH2 0x18A9 JUMPI PUSH0 DUP1 REVERT JUMPDEST POP JUMP JUMPDEST PUSH0 DUP2 CALLDATALOAD SWAP1 POP PUSH2 0x18BA DUP2 PUSH2 0x1896 JUMP JUMPDEST SWAP3 SWAP2 POP POP JUMP JUMPDEST PUSH0 PUSH1 0x20 DUP3 DUP5 SUB SLT ISZERO PUSH2 0x18D5 JUMPI PUSH2 0x18D4 PUSH2 0x15D1 JUMP JUMPDEST JUMPDEST PUSH0 PUSH2 0x18E2 DUP5 DUP3 DUP6 ADD PUSH2 0x18AC JUMP JUMPDEST SWAP2 POP POP SWAP3 SWAP2 POP POP JUMP JUMPDEST PUSH0 DUP2 MLOAD SWAP1 POP SWAP2 SWAP1 POP JUMP JUMPDEST PUSH0 DUP3 DUP3 MSTORE PUSH1 0x20 DUP3 ADD SWAP1 POP SWAP3 SWAP2 POP POP JUMP JUMPDEST PUSH0 JUMPDEST DUP4 DUP2 LT ISZERO PUSH2 0x1922 JUMPI DUP1 DUP3 ADD MLOAD DUP2 DUP5 ADD MSTORE PUSH1 0x20 DUP2 ADD SWAP1 POP PUSH2 0x1907 JUMP JUMPDEST PUSH0 DUP5 DUP5 ADD MSTORE POP POP POP POP JUMP JUMPDEST PUSH0 PUSH2 0x1937 DUP3 PUSH2 0x18EB JUMP JUMPDEST PUSH2 0x1941 DUP2 DUP6 PUSH2 0x18F5 JUMP JUMPDEST SWAP4 POP PUSH2 0x1951 DUP2 DUP6 PUSH1 0x20 DUP7 ADD PUSH2 0x1905 JUMP JUMPDEST PUSH2 0x195A DUP2 PUSH2 0x15E1 JUMP JUMPDEST DUP5 ADD SWAP2 POP POP SWAP3 SWAP2 POP POP JUMP JUMPDEST PUSH0 PUSH1 0x60 DUP3 ADD SWAP1 POP PUSH2 0x1978 PUSH0 DUP4 ADD DUP6 PUSH2 0x17FC JUMP JUMPDEST DUP2 DUP2 SUB PUSH1 0x40 DUP4 ADD MSTORE PUSH2 0x198A DUP2 DUP5 PUSH2 0x192D JUMP JUMPDEST SWAP1 POP SWAP4 SWAP3 POP POP POP JUMP JUMPDEST PUSH0 DUP1 PUSH0 PUSH1 0x60 DUP5 DUP7 SUB SLT ISZERO PUSH2 0x19AA JUMPI PUSH2 0x19A9 PUSH2 0x15D1 JUMP JUMPDEST JUMPDEST PUSH0 PUSH2 0x19B7 DUP7 DUP3 DUP8 ADD PUSH2 0x17AE JUMP JUMPDEST SWAP4 POP POP PUSH1 0x20 PUSH2 0x19C8 DUP7 DUP3 DUP8 ADD PUSH2 0x17AE JUMP JUMPDEST SWAP3 POP POP PUSH1 0x40 PUSH2 0x19D9 DUP7 DUP3 DUP8 ADD PUSH2 0x17AE JUMP JUMPDEST SWAP2 POP POP SWAP3 POP SWAP3 POP SWAP3 JUMP JUMPDEST PUSH0 PUSH8 0xFFFFFFFFFFFFFFFF DUP3 GT ISZERO PUSH2 0x19FD JUMPI PUSH2 0x19FC PUSH2 0x15F1 JUMP JUMPDEST JUMPDEST PUSH2 0x1A06 DUP3 PUSH2 0x15E1 JUMP JUMPDEST SWAP1 POP PUSH1 0x20 DUP2 ADD SWAP1 POP SWAP2 SWAP1 POP JUMP JUMPDEST PUSH0 PUSH2 0x1A25 PUSH2 0x1A20 DUP5 PUSH2 0x19E3 JUMP JUMPDEST PUSH2 0x164F JUMP JUMPDEST SWAP1 POP DUP3 DUP2 MSTORE PUSH1 0x20 DUP2 ADD DUP5 DUP5 DUP5 ADD GT ISZERO PUSH2 0x1A41 JUMPI PUSH2 0x1A40 PUSH2 0x15DD JUMP JUMPDEST JUMPDEST PUSH2 0x1A4C DUP5 DUP3 DUP6 PUSH2 0x1699 JUMP JUMPDEST POP SWAP4 SWAP3 POP POP POP JUMP JUMPDEST PUSH0 DUP3 PUSH1 0x1F DUP4 ADD SLT PUSH2 0x1A68 JUMPI PUSH2 0x1A67 PUSH2 0x15D9 JUMP JUMPDEST JUMPDEST DUP2 CALLDATALOAD PUSH2 0x1A78 DUP5 DUP3 PUSH1 0x20 DUP7 ADD PUSH2 0x1A13 JUMP JUMPDEST SWAP2 POP POP SWAP3 SWAP2 POP POP JUMP JUMPDEST PUSH0 DUP1 PUSH0 PUSH1 0x60 DUP5 DUP7 SUB SLT ISZERO PUSH2 0x1A98 JUMPI PUSH2 0x1A97 PUSH2 0x15D1 JUMP JUMPDEST JUMPDEST PUSH0 DUP5 ADD CALLDATALOAD PUSH8 0xFFFFFFFFFFFFFFFF DUP2 GT ISZERO PUSH2 0x1AB5 JUMPI PUSH2 0x1AB4 PUSH2 0x15D5 JUMP JUMPDEST JUMPDEST PUSH2 0x1AC1 DUP7 DUP3 DUP8 ADD PUSH2 0x1A54 JUMP JUMPDEST SWAP4 POP POP PUSH1 0x20 PUSH2 0x1AD2 DUP7 DUP3 DUP8 ADD PUSH2 0x17AE JUMP JUMPDEST SWAP3 POP POP PUSH1 0x40 PUSH2 0x1AE3 DUP7 DUP3 DUP8 ADD PUSH2 0x17AE JUMP JUMPDEST SWAP2 POP POP SWAP3 POP SWAP3 POP SWAP3 JUMP JUMPDEST PUSH0 PUSH1 0x40 DUP3 ADD SWAP1 POP PUSH2 0x1B00 PUSH0 DUP4 ADD DUP5 PUSH2 0x17FC JUMP JUMPDEST SWAP3 SWAP2 POP POP JUMP JUMPDEST PUSH0 DUP1 PUSH0 PUSH1 0x60 DUP5 DUP7 SUB SLT ISZERO PUSH2 0x1B1D JUMPI PUSH2 0x1B1C PUSH2 0x15D1 JUMP JUMPDEST JUMPDEST PUSH0 PUSH2 0x1B2A DUP7 DUP3 DUP8 ADD PUSH2 0x17AE JUMP JUMPDEST SWAP4 POP POP PUSH1 0x20 PUSH2 0x1B3B DUP7 DUP3 DUP8 ADD PUSH2 0x17AE JUMP JUMPDEST SWAP3 POP POP PUSH1 0x40 DUP5 ADD CALLDATALOAD PUSH8 0xFFFFFFFFFFFFFFFF DUP2 GT ISZERO PUSH2 0x1B5C JUMPI PUSH2 0x1B5B PUSH2 0x15D5 JUMP JUMPDEST JUMPDEST PUSH2 0x1B68 DUP7 DUP3 DUP8 ADD PUSH2 0x1A54 JUMP JUMPDEST SWAP2 POP POP SWAP3 POP SWAP3 POP SWAP3 JUMP JUMPDEST PUSH2 0x1B7B DUP2 PUSH2 0x178F JUMP JUMPDEST DUP3 MSTORE POP POP JUMP JUMPDEST PUSH0 PUSH1 0x20 DUP3 ADD SWAP1 POP PUSH2 0x1B94 PUSH0 DUP4 ADD DUP5 PUSH2 0x1B72 JUMP JUMPDEST SWAP3 SWAP2 POP POP JUMP JUMPDEST PUSH32 0x4E487B7100000000000000000000000000000000000000000000000000000000 PUSH0 MSTORE PUSH1 0x32 PUSH1 0x4 MSTORE PUSH1 0x24 PUSH0 REVERT JUMPDEST PUSH32 0x4E487B7100000000000000000000000000000000000000000000000000000000 PUSH0 MSTORE PUSH1 0x22 PUSH1 0x4 MSTORE PUSH1 0x24 PUSH0 REVERT JUMPDEST PUSH0 PUSH1 0x2 DUP3 DIV SWAP1 POP PUSH1 0x1 DUP3 AND DUP1 PUSH2 0x1C0B JUMPI PUSH1 0x7F DUP3 AND SWAP2 POP JUMPDEST PUSH1 0x20 DUP3 LT DUP2 SUB PUSH2 0x1C1E JUMPI PUSH2 0x1C1D PUSH2 0x1BC7 JUMP JUMPDEST JUMPDEST POP SWAP2 SWAP1 POP JUMP JUMPDEST PUSH0 DUP2 MLOAD SWAP1 POP SWAP2 SWAP1 POP JUMP JUMPDEST PUSH0 DUP2 SWAP1 POP SWAP3 SWAP2 POP POP JUMP JUMPDEST PUSH0 PUSH2 0x1C42 DUP3 PUSH2 0x1C24 JUMP JUMPDEST PUSH2 0x1C4C DUP2 DUP6 PUSH2 0x1C2E JUMP JUMPDEST SWAP4 POP PUSH2 0x1C5C DUP2 DUP6 PUSH1 0x20 DUP7 ADD PUSH2 0x1905 JUMP JUMPDEST DUP1 DUP5 ADD SWAP2 POP POP SWAP3 SWAP2 POP POP JUMP JUMPDEST PUSH0 PUSH2 0x1C73 DUP3 DUP5 PUSH2 0x1C38 JUMP JUMPDEST SWAP2 POP DUP2 SWAP1 POP SWAP3 SWAP2 POP POP JUMP JUMPDEST PUSH0 DUP2 SWAP1 POP DUP2 PUSH0 MSTORE PUSH1 0x20 PUSH0 KECCAK256 SWAP1 POP SWAP2 SWAP1 POP JUMP JUMPDEST PUSH0 PUSH1 0x20 PUSH1 0x1F DUP4 ADD DIV SWAP1 POP SWAP2 SWAP1 POP JUMP JUMPDEST PUSH0 DUP3 DUP3 SHL SWAP1 POP SWAP3 SWAP2 POP POP JUMP JUMPDEST PUSH0 PUSH1 0x8 DUP4 MUL PUSH2 0x1CDA PUSH32 0xFFFFFFFFFFFFFFFFFFFFFFFFFFFFFFFFFFFFFFFFFFFFFFFFFFFFFFFFFFFFFFFF DUP3 PUSH2 0x1C9F JUMP JUMPDEST PUSH2 0x1CE4 DUP7 DUP4 PUSH2 0x1C9F JUMP JUMPDEST SWAP6 POP DUP1 NOT DUP5 AND SWAP4 POP DUP1 DUP7 AND DUP5 OR SWAP3 POP POP POP SWAP4 SWAP3 POP POP POP JUMP JUMPDEST PUSH0 DUP2 SWAP1 POP SWAP2 SWAP1 POP JUMP JUMPDEST PUSH0 PUSH2 0x1D1F PUSH2 0x1D1A PUSH2 0x1D15 DUP5 PUSH2 0x178F JUMP JUMPDEST PUSH2 0x1CFC JUMP JUMPDEST PUSH2 0x178F JUMP JUMPDEST SWAP1 POP SWAP2 SWAP1 POP JUMP JUMPDEST PUSH0 DUP2 SWAP1 POP SWAP2 SWAP1 POP JUMP JUMPDEST PUSH2 0x1D38 DUP4 PUSH2 0x1D05 JUMP JUMPDEST PUSH2 0x1D4C PUSH2 0x1D44 DUP3 PUSH2 0x1D26 JUMP JUMPDEST DUP5 DUP5 SLOAD PUSH2 0x1CAB JUMP JUMPDEST DUP3 SSTORE POP POP POP POP JUMP JUMPDEST PUSH0 SWAP1 JUMP JUMPDEST PUSH2 0x1D60 PUSH2 0x1D54 JUMP JUMPDEST PUSH2 0x1D6B DUP2 DUP5 DUP5 PUSH2 0x1D2F JUMP JUMPDEST POP POP POP JUMP JUMPDEST JUMPDEST DUP2 DUP2 LT ISZERO PUSH2 0x1D8E JUMPI PUSH2 0x1D83 PUSH0 DUP3 PUSH2 0x1D58 JUMP JUMPDEST PUSH1 0x1 DUP2 ADD SWAP1 POP PUSH2 0x1D71 JUMP JUMPDEST POP POP JUMP JUMPDEST PUSH1 0x1F DUP3 GT ISZERO PUSH2 0x1DD3 JUMPI PUSH2 0x1DA4 DUP2 PUSH2 0x1C7E JUMP JUMPDEST PUSH2 0x1DAD DUP5 PUSH2 0x1C90 JUMP JUMPDEST DUP2 ADD PUSH1 0x20 DUP6 LT ISZERO PUSH2 0x1DBC JUMPI DUP2 SWAP1 POP JUMPDEST PUSH2 0x1DD0 PUSH2 0x1DC8 DUP6 PUSH2 0x1C90 JUMP JUMPDEST DUP4 ADD DUP3 PUSH2 0x1D70 JUMP JUMPDEST POP POP JUMPDEST POP POP POP JUMP JUMPDEST PUSH0 DUP3 DUP3 SHR SWAP1 POP SWAP3 SWAP2 POP POP JUMP JUMPDEST PUSH0 PUSH2 0x1DF3 PUSH0 NOT DUP5 PUSH1 0x8 MUL PUSH2 0x1DD8 JUMP JUMPDEST NOT DUP1 DUP4 AND SWAP2 POP POP SWAP3 SWAP2 POP POP JUMP JUMPDEST PUSH0 PUSH2 0x1E0B DUP4 DUP4 PUSH2 0x1DE4 JUMP JUMPDEST SWAP2 POP DUP3 PUSH1 0x2 MUL DUP3 OR SWAP1 POP SWAP3 SWAP2 POP POP JUMP JUMPDEST PUSH2 0x1E24 DUP3 PUSH2 0x18EB JUMP JUMPDEST PUSH8 0xFFFFFFFFFFFFFFFF DUP2 GT ISZERO PUSH2 0x1E3D JUMPI PUSH2 0x1E3C PUSH2 0x15F1 JUMP JUMPDEST JUMPDEST PUSH2 0x1E47 DUP3 SLOAD PUSH2 0x1BF4 JUMP JUMPDEST PUSH2 0x1E52 DUP3 DUP3 DUP6 PUSH2 0x1D92 JUMP JUMPDEST PUSH0 PUSH1 0x20 SWAP1 POP PUSH1 0x1F DUP4 GT PUSH1 0x1 DUP2 EQ PUSH2 0x1E83 JUMPI PUSH0 DUP5 ISZERO PUSH2 0x1E71 JUMPI DUP3 DUP8 ADD MLOAD SWAP1 POP JUMPDEST PUSH2 0x1E7B DUP6 DUP3 PUSH2 0x1E00 JUMP JUMPDEST DUP7 SSTORE POP PUSH2 0x1EE2 JUMP JUMPDEST PUSH1 0x1F NOT DUP5 AND PUSH2 0x1E91 DUP7 PUSH2 0x1C7E JUMP JUMPDEST PUSH0 JUMPDEST DUP3 DUP2 LT ISZERO PUSH2 0x1EB8 JUMPI DUP5 DUP10 ADD MLOAD DUP3 SSTORE PUSH1 0x1 DUP3 ADD SWAP2 POP PUSH1 0x20 DUP6 ADD SWAP5 POP PUSH1 0x20 DUP2 ADD SWAP1 POP PUSH2 0x1E93 JUMP JUMPDEST DUP7 DUP4 LT ISZERO PUSH2 0x1ED5 JUMPI DUP5 DUP10 ADD MLOAD PUSH2 0x1ED1 PUSH1 0x1F DUP10 AND DUP3 PUSH2 0x1DE4 JUMP JUMPDEST DUP4 SSTORE POP JUMPDEST PUSH1 0x1 PUSH1 0x2 DUP9 MUL ADD DUP9 SSTORE POP POP POP JUMPDEST POP POP POP POP POP POP JUMP JUMPDEST PUSH32 0x4E487B7100000000000000000000000000000000000000000000000000000000 PUSH0 MSTORE PUSH1 0x11 PUSH1 0x4 MSTORE PUSH1 0x24 PUSH0 REVERT JUMPDEST PUSH0 PUSH2 0x1F21 DUP3 PUSH2 0x178F JUMP JUMPDEST SWAP2 POP PUSH2 0x1F2C DUP4 PUSH2 0x178F JUMP JUMPDEST SWAP3 POP DUP3 DUP3 SUB SWAP1 POP DUP2 DUP2 GT ISZERO PUSH2 0x1F44 JUMPI PUSH2 0x1F43 PUSH2 0x1EEA JUMP JUMPDEST JUMPDEST SWAP3 SWAP2 POP POP JUMP JUMPDEST PUSH32 0x41646420706F696E7473206661696C6564000000000000000000000000000000 PUSH0 DUP3 ADD MSTORE POP JUMP JUMPDEST PUSH0 PUSH2 0x1F7E PUSH1 0x11 DUP4 PUSH2 0x18F5 JUMP JUMPDEST SWAP2 POP PUSH2 0x1F89 DUP3 PUSH2 0x1F4A JUMP JUMPDEST PUSH1 0x20 DUP3 ADD SWAP1 POP SWAP2 SWAP1 POP JUMP JUMPDEST PUSH0 PUSH1 0x20 DUP3 ADD SWAP1 POP DUP2 DUP2 SUB PUSH0 DUP4 ADD MSTORE PUSH2 0x1FAB DUP2 PUSH2 0x1F72 JUMP JUMPDEST SWAP1 POP SWAP2 SWAP1 POP JUMP JUMPDEST PUSH0 DUP2 SWAP1 POP SWAP2 SWAP1 POP JUMP JUMPDEST PUSH2 0x1FC4 DUP2 PUSH2 0x1FB2 JUMP JUMPDEST DUP2 EQ PUSH2 0x1FCE JUMPI PUSH0 DUP1 REVERT JUMPDEST POP JUMP JUMPDEST PUSH0 DUP2 MLOAD SWAP1 POP PUSH2 0x1FDF DUP2 PUSH2 0x1FBB JUMP JUMPDEST SWAP3 SWAP2 POP POP JUMP JUMPDEST PUSH0 PUSH1 0x20 DUP3 DUP5 SUB SLT ISZERO PUSH2 0x1FFA JUMPI PUSH2 0x1FF9 PUSH2 0x15D1 JUMP JUMPDEST JUMPDEST PUSH0 PUSH2 0x2007 DUP5 DUP3 DUP6 ADD PUSH2 0x1FD1 JUMP JUMPDEST SWAP2 POP POP SWAP3 SWAP2 POP POP JUMP JUMPDEST PUSH32 0x4E487B7100000000000000000000000000000000000000000000000000000000 PUSH0 MSTORE PUSH1 0x12 PUSH1 0x4 MSTORE PUSH1 0x24 PUSH0 REVERT JUMPDEST PUSH0 PUSH2 0x2047 DUP3 PUSH2 0x178F JUMP JUMPDEST SWAP2 POP PUSH2 0x2052 DUP4 PUSH2 0x178F JUMP JUMPDEST SWAP3 POP DUP3 PUSH2 0x2062 JUMPI PUSH2 0x2061 PUSH2 0x2010 JUMP JUMPDEST JUMPDEST DUP3 DUP3 MOD SWAP1 POP SWAP3 SWAP2 POP POP JUMP JUMPDEST PUSH0 PUSH2 0x2077 DUP3 PUSH2 0x178F JUMP JUMPDEST SWAP2 POP PUSH2 0x2082 DUP4 PUSH2 0x178F JUMP JUMPDEST SWAP3 POP DUP3 DUP3 ADD SWAP1 POP DUP1 DUP3 GT ISZERO PUSH2 0x209A JUMPI PUSH2 0x2099 PUSH2 0x1EEA JUMP JUMPDEST JUMPDEST SWAP3 SWAP2 POP POP JUMP JUMPDEST PUSH32 0x506F696E7420636F756E74206D69736D617463682E0000000000000000000000 PUSH0 DUP3 ADD MSTORE POP JUMP JUMPDEST PUSH0 PUSH2 0x20D4 PUSH1 0x15 DUP4 PUSH2 0x18F5 JUMP JUMPDEST SWAP2 POP PUSH2 0x20DF DUP3 PUSH2 0x20A0 JUMP JUMPDEST PUSH1 0x20 DUP3 ADD SWAP1 POP SWAP2 SWAP1 POP JUMP JUMPDEST PUSH0 PUSH1 0x20 DUP3 ADD SWAP1 POP DUP2 DUP2 SUB PUSH0 DUP4 ADD MSTORE PUSH2 0x2101 DUP2 PUSH2 0x20C8 JUMP JUMPDEST SWAP1 POP SWAP2 SWAP1 POP JUMP JUMPDEST PUSH0 PUSH2 0x2112 DUP3 PUSH2 0x178F JUMP JUMPDEST SWAP2 POP PUSH2 0x211D DUP4 PUSH2 0x178F JUMP JUMPDEST SWAP3 POP DUP3 DUP3 MUL PUSH2 0x212B DUP2 PUSH2 0x178F JUMP JUMPDEST SWAP2 POP DUP3 DUP3 DIV DUP5 EQ DUP4 ISZERO OR PUSH2 0x2142 JUMPI PUSH2 0x2141 PUSH2 0x1EEA JUMP JUMPDEST JUMPDEST POP SWAP3 SWAP2 POP POP JUMP JUMPDEST PUSH32 0x50616972696E67206F7065726174696F6E206661696C65642E00000000000000 PUSH0 DUP3 ADD MSTORE POP JUMP JUMPDEST PUSH0 PUSH2 0x217D PUSH1 0x19 DUP4 PUSH2 0x18F5 JUMP JUMPDEST SWAP2 POP PUSH2 0x2188 DUP3 PUSH2 0x2149 JUMP JUMPDEST PUSH1 0x20 DUP3 ADD SWAP1 POP SWAP2 SWAP1 POP JUMP JUMPDEST PUSH0 PUSH1 0x20 DUP3 ADD SWAP1 POP DUP2 DUP2 SUB PUSH0 DUP4 ADD MSTORE PUSH2 0x21AA DUP2 PUSH2 0x2171 JUMP JUMPDEST SWAP1 POP SWAP2 SWAP1 POP JUMP JUMPDEST PUSH0 PUSH2 0x21BB DUP3 PUSH2 0x178F JUMP JUMPDEST SWAP2 POP PUSH2 0x21C6 DUP4 PUSH2 0x178F JUMP JUMPDEST SWAP3 POP DUP3 PUSH2 0x21D6 JUMPI PUSH2 0x21D5 PUSH2 0x2010 JUMP JUMPDEST JUMPDEST DUP3 DUP3 DIV SWAP1 POP SWAP3 SWAP2 POP POP JUMP JUMPDEST PUSH0 DUP2 PUSH1 0x1 SHR SWAP1 POP SWAP2 SWAP1 POP JUMP JUMPDEST PUSH0 DUP1 DUP3 SWAP2 POP DUP4 SWAP1 POP JUMPDEST PUSH1 0x1 DUP6 GT ISZERO PUSH2 0x2236 JUMPI DUP1 DUP7 DIV DUP2 GT ISZERO PUSH2 0x2212 JUMPI PUSH2 0x2211 PUSH2 0x1EEA JUMP JUMPDEST JUMPDEST PUSH1 0x1 DUP6 AND ISZERO PUSH2 0x2221 JUMPI DUP1 DUP3 MUL SWAP2 POP JUMPDEST DUP1 DUP2 MUL SWAP1 POP PUSH2 0x222F DUP6 PUSH2 0x21E1 JUMP JUMPDEST SWAP5 POP PUSH2 0x21F6 JUMP JUMPDEST SWAP5 POP SWAP5 SWAP3 POP POP POP JUMP JUMPDEST PUSH0 DUP3 PUSH2 0x224E JUMPI PUSH1 0x1 SWAP1 POP PUSH2 0x2309 JUMP JUMPDEST DUP2 PUSH2 0x225B JUMPI PUSH0 SWAP1 POP PUSH2 0x2309 JUMP JUMPDEST DUP2 PUSH1 0x1 DUP2 EQ PUSH2 0x2271 JUMPI PUSH1 0x2 DUP2 EQ PUSH2 0x227B JUMPI PUSH2 0x22AA JUMP JUMPDEST PUSH1 0x1 SWAP2 POP POP PUSH2 0x2309 JUMP JUMPDEST PUSH1 0xFF DUP5 GT ISZERO PUSH2 0x228D JUMPI PUSH2 0x228C PUSH2 0x1EEA JUMP JUMPDEST JUMPDEST DUP4 PUSH1 0x2 EXP SWAP2 POP DUP5 DUP3 GT ISZERO PUSH2 0x22A4 JUMPI PUSH2 0x22A3 PUSH2 0x1EEA JUMP JUMPDEST JUMPDEST POP PUSH2 0x2309 JUMP JUMPDEST POP PUSH1 0x20 DUP4 LT PUSH2 0x133 DUP4 LT AND PUSH1 0x4E DUP5 LT PUSH1 0xB DUP5 LT AND OR ISZERO PUSH2 0x22DF JUMPI DUP3 DUP3 EXP SWAP1 POP DUP4 DUP2 GT ISZERO PUSH2 0x22DA JUMPI PUSH2 0x22D9 PUSH2 0x1EEA JUMP JUMPDEST JUMPDEST PUSH2 0x2309 JUMP JUMPDEST PUSH2 0x22EC DUP5 DUP5 DUP5 PUSH1 0x1 PUSH2 0x21ED JUMP JUMPDEST SWAP3 POP SWAP1 POP DUP2 DUP5 DIV DUP2 GT ISZERO PUSH2 0x2303 JUMPI PUSH2 0x2302 PUSH2 0x1EEA JUMP JUMPDEST JUMPDEST DUP2 DUP2 MUL SWAP1 POP JUMPDEST SWAP4 SWAP3 POP POP POP JUMP JUMPDEST PUSH0 PUSH2 0x231A DUP3 PUSH2 0x178F JUMP JUMPDEST SWAP2 POP PUSH2 0x2325 DUP4 PUSH2 0x178F JUMP JUMPDEST SWAP3 POP PUSH2 0x2352 PUSH32 0xFFFFFFFFFFFFFFFFFFFFFFFFFFFFFFFFFFFFFFFFFFFFFFFFFFFFFFFFFFFFFFFF DUP5 DUP5 PUSH2 0x223F JUMP JUMPDEST SWAP1 POP SWAP3 SWAP2 POP POP JUMP JUMPDEST PUSH32 0x4661696C656420746F2063616C63756C617465206C6567656E6472652E000000 PUSH0 DUP3 ADD MSTORE POP JUMP JUMPDEST PUSH0 PUSH2 0x238E PUSH1 0x1D DUP4 PUSH2 0x18F5 JUMP JUMPDEST SWAP2 POP PUSH2 0x2399 DUP3 PUSH2 0x235A JUMP JUMPDEST PUSH1 0x20 DUP3 ADD SWAP1 POP SWAP2 SWAP1 POP JUMP JUMPDEST PUSH0 PUSH1 0x20 DUP3 ADD SWAP1 POP DUP2 DUP2 SUB PUSH0 DUP4 ADD MSTORE PUSH2 0x23BB DUP2 PUSH2 0x2382 JUMP JUMPDEST SWAP1 POP SWAP2 SWAP1 POP JUMP INVALID LOG2 PUSH5 0x6970667358 0x22 SLT KECCAK256 MULMOD SELFDESTRUCT LOG0 0xE7 0x5C 0xE7 SWAP1 0xD7 PUSH30 0x7230F5D7684637E70029D7716BB92C74648D5E67F8B0DD64736F6C634300 ADDMOD AND STOP CALLER "
				},
				"gasEstimates": {
					"creation": {
						"codeDepositCost": "1841600",
						"executionCost": "infinite",
						"totalCost": "infinite"
					},
					"external": {
						"getMessage(uint8)": "infinite",
						"getSig(uint256)": "infinite",
						"pkList(bytes)": "infinite",
						"regist(string,uint256,uint256)": "infinite",
						"requestSig(uint256,uint256,string)": "infinite",
						"signList(uint256)": "infinite",
						"uploadSig(uint256,uint256,uint256)": "infinite"
					}
				},
				"methodIdentifiers": {
					"getMessage(uint8)": "4ea43115",
					"getSig(uint256)": "c7058171",
					"pkList(bytes)": "23b819f5",
					"regist(string,uint256,uint256)": "bc24678c",
					"requestSig(uint256,uint256,string)": "cbc431c8",
					"signList(uint256)": "25b3e077",
					"uploadSig(uint256,uint256,uint256)": "ac98cfe5"
				}
			},
			"storageLayout": {
				"storage": [
					{
						"astId": 905,
						"contract": "contracts/e-voting scheme/Registration.sol:Registration",
						"label": "mList",
						"offset": 0,
						"slot": "0",
						"type": "t_array(t_struct(E1Point)10_storage)dyn_storage"
					},
					{
						"astId": 908,
						"contract": "contracts/e-voting scheme/Registration.sol:Registration",
						"label": "infoList",
						"offset": 0,
						"slot": "1",
						"type": "t_array(t_string_storage)dyn_storage"
					},
					{
						"astId": 912,
						"contract": "contracts/e-voting scheme/Registration.sol:Registration",
						"label": "pkList",
						"offset": 0,
						"slot": "2",
						"type": "t_mapping(t_bytes_memory_ptr,t_bool)"
					},
					{
						"astId": 933,
						"contract": "contracts/e-voting scheme/Registration.sol:Registration",
						"label": "bpk",
						"offset": 0,
						"slot": "3",
						"type": "t_struct(E2Point)19_storage"
					},
					{
						"astId": 954,
						"contract": "contracts/e-voting scheme/Registration.sol:Registration",
						"label": "signList",
						"offset": 0,
						"slot": "7",
						"type": "t_mapping(t_uint256,t_struct(signs)949_storage)"
					}
				],
				"types": {
					"t_array(t_string_storage)dyn_storage": {
						"base": "t_string_storage",
						"encoding": "dynamic_array",
						"label": "string[]",
						"numberOfBytes": "32"
					},
					"t_array(t_struct(E1Point)10_storage)dyn_storage": {
						"base": "t_struct(E1Point)10_storage",
						"encoding": "dynamic_array",
						"label": "struct BLS.E1Point[]",
						"numberOfBytes": "32"
					},
					"t_array(t_uint256)2_storage": {
						"base": "t_uint256",
						"encoding": "inplace",
						"label": "uint256[2]",
						"numberOfBytes": "64"
					},
					"t_bool": {
						"encoding": "inplace",
						"label": "bool",
						"numberOfBytes": "1"
					},
					"t_bytes_memory_ptr": {
						"encoding": "bytes",
						"label": "bytes",
						"numberOfBytes": "32"
					},
					"t_mapping(t_bytes_memory_ptr,t_bool)": {
						"encoding": "mapping",
						"key": "t_bytes_memory_ptr",
						"label": "mapping(bytes => bool)",
						"numberOfBytes": "32",
						"value": "t_bool"
					},
					"t_mapping(t_uint256,t_struct(signs)949_storage)": {
						"encoding": "mapping",
						"key": "t_uint256",
						"label": "mapping(uint256 => struct Registration.signs)",
						"numberOfBytes": "32",
						"value": "t_struct(signs)949_storage"
					},
					"t_string_storage": {
						"encoding": "bytes",
						"label": "string",
						"numberOfBytes": "32"
					},
					"t_struct(E1Point)10_storage": {
						"encoding": "inplace",
						"label": "struct BLS.E1Point",
						"members": [
							{
								"astId": 7,
								"contract": "contracts/e-voting scheme/Registration.sol:Registration",
								"label": "x",
								"offset": 0,
								"slot": "0",
								"type": "t_uint256"
							},
							{
								"astId": 9,
								"contract": "contracts/e-voting scheme/Registration.sol:Registration",
								"label": "y",
								"offset": 0,
								"slot": "1",
								"type": "t_uint256"
							}
						],
						"numberOfBytes": "64"
					},
					"t_struct(E2Point)19_storage": {
						"encoding": "inplace",
						"label": "struct BLS.E2Point",
						"members": [
							{
								"astId": 14,
								"contract": "contracts/e-voting scheme/Registration.sol:Registration",
								"label": "x",
								"offset": 0,
								"slot": "0",
								"type": "t_array(t_uint256)2_storage"
							},
							{
								"astId": 18,
								"contract": "contracts/e-voting scheme/Registration.sol:Registration",
								"label": "y",
								"offset": 0,
								"slot": "2",
								"type": "t_array(t_uint256)2_storage"
							}
						],
						"numberOfBytes": "128"
					},
					"t_struct(signs)949_storage": {
						"encoding": "inplace",
						"label": "struct Registration.signs",
						"members": [
							{
								"astId": 936,
								"contract": "contracts/e-voting scheme/Registration.sol:Registration",
								"label": "sig_CA",
								"offset": 0,
								"slot": "0",
								"type": "t_struct(E1Point)10_storage"
							},
							{
								"astId": 939,
								"contract": "contracts/e-voting scheme/Registration.sol:Registration",
								"label": "sig_O",
								"offset": 0,
								"slot": "2",
								"type": "t_struct(E1Point)10_storage"
							},
							{
								"astId": 942,
								"contract": "contracts/e-voting scheme/Registration.sol:Registration",
								"label": "sig_C",
								"offset": 0,
								"slot": "4",
								"type": "t_struct(E1Point)10_storage"
							},
							{
								"astId": 944,
								"contract": "contracts/e-voting scheme/Registration.sol:Registration",
								"label": "CA",
								"offset": 0,
								"slot": "6",
								"type": "t_bool"
							},
							{
								"astId": 946,
								"contract": "contracts/e-voting scheme/Registration.sol:Registration",
								"label": "O",
								"offset": 1,
								"slot": "6",
								"type": "t_bool"
							},
							{
								"astId": 948,
								"contract": "contracts/e-voting scheme/Registration.sol:Registration",
								"label": "C",
								"offset": 2,
								"slot": "6",
								"type": "t_bool"
							}
						],
						"numberOfBytes": "224"
					},
					"t_uint256": {
						"encoding": "inplace",
						"label": "uint256",
						"numberOfBytes": "32"
					}
				}
			},
			"userdoc": {
				"kind": "user",
				"methods": {},
				"version": 1
			}
		}
	}
}