{
	"contracts/e-voting scheme/Initiate.sol": {
		"Initiate": {
			"abi": [
				{
					"inputs": [
						{
							"internalType": "uint256",
							"name": "index",
							"type": "uint256"
						}
					],
					"name": "getVoting",
					"outputs": [
						{
							"components": [
								{
									"internalType": "string",
									"name": "title",
									"type": "string"
								},
								{
									"internalType": "string[]",
									"name": "options",
									"type": "string[]"
								},
								{
									"internalType": "uint256",
									"name": "deadline",
									"type": "uint256"
								}
							],
							"internalType": "struct Utils.voting",
							"name": "",
							"type": "tuple"
						}
					],
					"stateMutability": "view",
					"type": "function"
				},
				{
					"inputs": [
						{
							"internalType": "string",
							"name": "title",
							"type": "string"
						},
						{
							"internalType": "string[]",
							"name": "options",
							"type": "string[]"
						},
						{
							"internalType": "uint256",
							"name": "deadline",
							"type": "uint256"
						}
					],
					"name": "initiateVoting",
					"outputs": [
						{
							"internalType": "uint256",
							"name": "index",
							"type": "uint256"
						}
					],
					"stateMutability": "nonpayable",
					"type": "function"
				}
			],
			"devdoc": {
				"kind": "dev",
				"methods": {},
				"version": 1
			},
			"evm": {
				"assembly": "    /* \"contracts/e-voting scheme/Initiate.sol\":95:812  contract Initiate{... */\n  mstore(0x40, 0x80)\n  callvalue\n  dup1\n  iszero\n  tag_1\n  jumpi\n  0x00\n  dup1\n  revert\ntag_1:\n  pop\n  dataSize(sub_0)\n  dup1\n  dataOffset(sub_0)\n  0x00\n  codecopy\n  0x00\n  return\nstop\n\nsub_0: assembly {\n        /* \"contracts/e-voting scheme/Initiate.sol\":95:812  contract Initiate{... */\n      mstore(0x40, 0x80)\n      callvalue\n      dup1\n      iszero\n      tag_1\n      jumpi\n      0x00\n      dup1\n      revert\n    tag_1:\n      pop\n      jumpi(tag_2, lt(calldatasize, 0x04))\n      shr(0xe0, calldataload(0x00))\n      dup1\n      0x08f1d3b7\n      eq\n      tag_3\n      jumpi\n      dup1\n      0x3afc7282\n      eq\n      tag_4\n      jumpi\n    tag_2:\n      0x00\n      dup1\n      revert\n        /* \"contracts/e-voting scheme/Initiate.sol\":232:554  function initiateVoting(string memory title,string [] memory options,uint deadline) public returns(uint index){... */\n    tag_3:\n      tag_5\n      0x04\n      dup1\n      calldatasize\n      sub\n      dup2\n      add\n      swap1\n      tag_6\n      swap2\n      swap1\n      tag_7\n      jump\t// in\n    tag_6:\n      tag_8\n      jump\t// in\n    tag_5:\n      mload(0x40)\n      tag_9\n      swap2\n      swap1\n      tag_10\n      jump\t// in\n    tag_9:\n      mload(0x40)\n      dup1\n      swap2\n      sub\n      swap1\n      return\n        /* \"contracts/e-voting scheme/Initiate.sol\":562:807  function getVoting(uint index) public view returns(Utils.voting memory){... */\n    tag_4:\n      tag_11\n      0x04\n      dup1\n      calldatasize\n      sub\n      dup2\n      add\n      swap1\n      tag_12\n      swap2\n      swap1\n      tag_13\n      jump\t// in\n    tag_12:\n      tag_14\n      jump\t// in\n    tag_11:\n      mload(0x40)\n      tag_15\n      swap2\n      swap1\n      tag_16\n      jump\t// in\n    tag_15:\n      mload(0x40)\n      dup1\n      swap2\n      sub\n      swap1\n      return\n        /* \"contracts/e-voting scheme/Initiate.sol\":232:554  function initiateVoting(string memory title,string [] memory options,uint deadline) public returns(uint index){... */\n    tag_8:\n        /* \"contracts/e-voting scheme/Initiate.sol\":331:341  uint index */\n      0x00\n        /* \"contracts/e-voting scheme/Initiate.sol\":353:374  Utils.voting memory v */\n      dup1\n        /* \"contracts/e-voting scheme/Initiate.sol\":377:413  Utils.voting(title,options,deadline) */\n      mload(0x40)\n      dup1\n      0x60\n      add\n      0x40\n      mstore\n      dup1\n        /* \"contracts/e-voting scheme/Initiate.sol\":390:395  title */\n      dup7\n        /* \"contracts/e-voting scheme/Initiate.sol\":377:413  Utils.voting(title,options,deadline) */\n      dup2\n      mstore\n      0x20\n      add\n        /* \"contracts/e-voting scheme/Initiate.sol\":396:403  options */\n      dup6\n        /* \"contracts/e-voting scheme/Initiate.sol\":377:413  Utils.voting(title,options,deadline) */\n      dup2\n      mstore\n      0x20\n      add\n        /* \"contracts/e-voting scheme/Initiate.sol\":404:412  deadline */\n      dup5\n        /* \"contracts/e-voting scheme/Initiate.sol\":377:413  Utils.voting(title,options,deadline) */\n      dup2\n      mstore\n      pop\n        /* \"contracts/e-voting scheme/Initiate.sol\":353:413  Utils.voting memory v = Utils.voting(title,options,deadline) */\n      swap1\n      pop\n        /* \"contracts/e-voting scheme/Initiate.sol\":181:223  0x78731D3Ca6b7E34aC0F824c42a7cC18A495cabaB */\n      0x78731d3ca6b7e34ac0f824c42a7cc18a495cabab\n        /* \"contracts/e-voting scheme/Initiate.sol\":427:440  msg.sender!=C */\n      0xffffffffffffffffffffffffffffffffffffffff\n      and\n        /* \"contracts/e-voting scheme/Initiate.sol\":427:437  msg.sender */\n      caller\n        /* \"contracts/e-voting scheme/Initiate.sol\":427:440  msg.sender!=C */\n      0xffffffffffffffffffffffffffffffffffffffff\n      and\n      eq\n        /* \"contracts/e-voting scheme/Initiate.sol\":424:481  if(msg.sender!=C){... */\n      tag_18\n      jumpi\n        /* \"contracts/e-voting scheme/Initiate.sol\":463:469  100000 */\n      0x0186a0\n        /* \"contracts/e-voting scheme/Initiate.sol\":456:469  return 100000 */\n      swap2\n      pop\n      pop\n      jump(tag_17)\n        /* \"contracts/e-voting scheme/Initiate.sol\":424:481  if(msg.sender!=C){... */\n    tag_18:\n        /* \"contracts/e-voting scheme/Initiate.sol\":491:501  votingList */\n      0x00\n        /* \"contracts/e-voting scheme/Initiate.sol\":507:508  v */\n      dup2\n        /* \"contracts/e-voting scheme/Initiate.sol\":491:509  votingList.push(v) */\n      swap1\n      dup1\n      0x01\n      dup2\n      sload\n      add\n      dup1\n      dup3\n      sstore\n      dup1\n      swap2\n      pop\n      pop\n      0x01\n      swap1\n      sub\n      swap1\n      0x00\n      mstore\n      keccak256(0x00, 0x20)\n      swap1\n      0x03\n      mul\n      add\n      0x00\n      swap1\n      swap2\n      swap1\n      swap2\n      swap1\n      swap2\n      pop\n      0x00\n      dup3\n      add\n      mload\n      dup2\n      0x00\n      add\n      swap1\n      dup2\n      tag_20\n      swap2\n      swap1\n      tag_21\n      jump\t// in\n    tag_20:\n      pop\n      0x20\n      dup3\n      add\n      mload\n      dup2\n      0x01\n      add\n      swap1\n      dup1\n      mload\n      swap1\n      0x20\n      add\n      swap1\n      tag_22\n      swap3\n      swap2\n      swap1\n      tag_23\n      jump\t// in\n    tag_22:\n      pop\n      0x40\n      dup3\n      add\n      mload\n      dup2\n      0x02\n      add\n      sstore\n      pop\n      pop\n        /* \"contracts/e-voting scheme/Initiate.sol\":545:546  1 */\n      0x01\n        /* \"contracts/e-voting scheme/Initiate.sol\":527:537  votingList */\n      0x00\n        /* \"contracts/e-voting scheme/Initiate.sol\":527:544  votingList.length */\n      dup1\n      sload\n      swap1\n      pop\n        /* \"contracts/e-voting scheme/Initiate.sol\":527:546  votingList.length-1 */\n      tag_24\n      swap2\n      swap1\n      tag_25\n      jump\t// in\n    tag_24:\n        /* \"contracts/e-voting scheme/Initiate.sol\":520:546  return votingList.length-1 */\n      swap2\n      pop\n      pop\n        /* \"contracts/e-voting scheme/Initiate.sol\":232:554  function initiateVoting(string memory title,string [] memory options,uint deadline) public returns(uint index){... */\n    tag_17:\n      swap4\n      swap3\n      pop\n      pop\n      pop\n      jump\t// out\n        /* \"contracts/e-voting scheme/Initiate.sol\":562:807  function getVoting(uint index) public view returns(Utils.voting memory){... */\n    tag_14:\n        /* \"contracts/e-voting scheme/Initiate.sol\":613:632  Utils.voting memory */\n      tag_26\n      tag_27\n      jump\t// in\n    tag_26:\n        /* \"contracts/e-voting scheme/Initiate.sol\":654:655  0 */\n      0x00\n        /* \"contracts/e-voting scheme/Initiate.sol\":647:652  index */\n      dup3\n        /* \"contracts/e-voting scheme/Initiate.sol\":647:655  index>=0 */\n      lt\n      iszero\n        /* \"contracts/e-voting scheme/Initiate.sol\":647:680  index>=0&&index<votingList.length */\n      dup1\n      iszero\n      tag_29\n      jumpi\n      pop\n        /* \"contracts/e-voting scheme/Initiate.sol\":663:673  votingList */\n      0x00\n        /* \"contracts/e-voting scheme/Initiate.sol\":663:680  votingList.length */\n      dup1\n      sload\n      swap1\n      pop\n        /* \"contracts/e-voting scheme/Initiate.sol\":657:662  index */\n      dup3\n        /* \"contracts/e-voting scheme/Initiate.sol\":657:680  index<votingList.length */\n      lt\n        /* \"contracts/e-voting scheme/Initiate.sol\":647:680  index>=0&&index<votingList.length */\n    tag_29:\n        /* \"contracts/e-voting scheme/Initiate.sol\":644:732  if(index>=0&&index<votingList.length){... */\n      iszero\n      tag_30\n      jumpi\n        /* \"contracts/e-voting scheme/Initiate.sol\":703:713  votingList */\n      0x00\n        /* \"contracts/e-voting scheme/Initiate.sol\":714:719  index */\n      dup3\n        /* \"contracts/e-voting scheme/Initiate.sol\":703:720  votingList[index] */\n      dup2\n      sload\n      dup2\n      lt\n      tag_31\n      jumpi\n      tag_32\n      tag_33\n      jump\t// in\n    tag_32:\n    tag_31:\n      swap1\n      0x00\n      mstore\n      keccak256(0x00, 0x20)\n      swap1\n      0x03\n      mul\n      add\n        /* \"contracts/e-voting scheme/Initiate.sol\":696:720  return votingList[index] */\n      mload(0x40)\n      dup1\n      0x60\n      add\n      0x40\n      mstore\n      swap1\n      dup2\n      0x00\n      dup3\n      add\n      dup1\n      sload\n      tag_35\n      swap1\n      tag_36\n      jump\t// in\n    tag_35:\n      dup1\n      0x1f\n      add\n      0x20\n      dup1\n      swap2\n      div\n      mul\n      0x20\n      add\n      mload(0x40)\n      swap1\n      dup2\n      add\n      0x40\n      mstore\n      dup1\n      swap3\n      swap2\n      swap1\n      dup2\n      dup2\n      mstore\n      0x20\n      add\n      dup3\n      dup1\n      sload\n      tag_37\n      swap1\n      tag_36\n      jump\t// in\n    tag_37:\n      dup1\n      iszero\n      tag_38\n      jumpi\n      dup1\n      0x1f\n      lt\n      tag_39\n      jumpi\n      0x0100\n      dup1\n      dup4\n      sload\n      div\n      mul\n      dup4\n      mstore\n      swap2\n      0x20\n      add\n      swap2\n      jump(tag_38)\n    tag_39:\n      dup3\n      add\n      swap2\n      swap1\n      0x00\n      mstore\n      keccak256(0x00, 0x20)\n      swap1\n    tag_40:\n      dup2\n      sload\n      dup2\n      mstore\n      swap1\n      0x01\n      add\n      swap1\n      0x20\n      add\n      dup1\n      dup4\n      gt\n      tag_40\n      jumpi\n      dup3\n      swap1\n      sub\n      0x1f\n      and\n      dup3\n      add\n      swap2\n    tag_38:\n      pop\n      pop\n      pop\n      pop\n      pop\n      dup2\n      mstore\n      0x20\n      add\n      0x01\n      dup3\n      add\n      dup1\n      sload\n      dup1\n      0x20\n      mul\n      0x20\n      add\n      mload(0x40)\n      swap1\n      dup2\n      add\n      0x40\n      mstore\n      dup1\n      swap3\n      swap2\n      swap1\n      dup2\n      dup2\n      mstore\n      0x20\n      add\n      0x00\n      swap1\n    tag_41:\n      dup3\n      dup3\n      lt\n      iszero\n      tag_42\n      jumpi\n      dup4\n      dup3\n      swap1\n      0x00\n      mstore\n      keccak256(0x00, 0x20)\n      add\n      dup1\n      sload\n      tag_44\n      swap1\n      tag_36\n      jump\t// in\n    tag_44:\n      dup1\n      0x1f\n      add\n      0x20\n      dup1\n      swap2\n      div\n      mul\n      0x20\n      add\n      mload(0x40)\n      swap1\n      dup2\n      add\n      0x40\n      mstore\n      dup1\n      swap3\n      swap2\n      swap1\n      dup2\n      dup2\n      mstore\n      0x20\n      add\n      dup3\n      dup1\n      sload\n      tag_45\n      swap1\n      tag_36\n      jump\t// in\n    tag_45:\n      dup1\n      iszero\n      tag_46\n      jumpi\n      dup1\n      0x1f\n      lt\n      tag_47\n      jumpi\n      0x0100\n      dup1\n      dup4\n      sload\n      div\n      mul\n      dup4\n      mstore\n      swap2\n      0x20\n      add\n      swap2\n      jump(tag_46)\n    tag_47:\n      dup3\n      add\n      swap2\n      swap1\n      0x00\n      mstore\n      keccak256(0x00, 0x20)\n      swap1\n    tag_48:\n      dup2\n      sload\n      dup2\n      mstore\n      swap1\n      0x01\n      add\n      swap1\n      0x20\n      add\n      dup1\n      dup4\n      gt\n      tag_48\n      jumpi\n      dup3\n      swap1\n      sub\n      0x1f\n      and\n      dup3\n      add\n      swap2\n    tag_46:\n      pop\n      pop\n      pop\n      pop\n      pop\n      dup2\n      mstore\n      0x20\n      add\n      swap1\n      0x01\n      add\n      swap1\n      jump(tag_41)\n    tag_42:\n      pop\n      pop\n      pop\n      pop\n      dup2\n      mstore\n      0x20\n      add\n      0x02\n      dup3\n      add\n      sload\n      dup2\n      mstore\n      pop\n      pop\n      swap1\n      pop\n      jump(tag_28)\n        /* \"contracts/e-voting scheme/Initiate.sol\":644:732  if(index>=0&&index<votingList.length){... */\n    tag_30:\n        /* \"contracts/e-voting scheme/Initiate.sol\":742:761  string []  memory a */\n      0x60\n        /* \"contracts/e-voting scheme/Initiate.sol\":779:799  Utils.voting(\"\",a,0) */\n      mload(0x40)\n      dup1\n      0x60\n      add\n      0x40\n      mstore\n      dup1\n      mload(0x40)\n      dup1\n      0x20\n      add\n      0x40\n      mstore\n      dup1\n      0x00\n      dup2\n      mstore\n      pop\n      dup2\n      mstore\n      0x20\n      add\n        /* \"contracts/e-voting scheme/Initiate.sol\":795:796  a */\n      dup3\n        /* \"contracts/e-voting scheme/Initiate.sol\":779:799  Utils.voting(\"\",a,0) */\n      dup2\n      mstore\n      0x20\n      add\n        /* \"contracts/e-voting scheme/Initiate.sol\":797:798  0 */\n      0x00\n        /* \"contracts/e-voting scheme/Initiate.sol\":779:799  Utils.voting(\"\",a,0) */\n      dup2\n      mstore\n      pop\n        /* \"contracts/e-voting scheme/Initiate.sol\":772:799  return Utils.voting(\"\",a,0) */\n      swap2\n      pop\n      pop\n        /* \"contracts/e-voting scheme/Initiate.sol\":562:807  function getVoting(uint index) public view returns(Utils.voting memory){... */\n    tag_28:\n      swap2\n      swap1\n      pop\n      jump\t// out\n    tag_23:\n      dup3\n      dup1\n      sload\n      dup3\n      dup3\n      sstore\n      swap1\n      0x00\n      mstore\n      keccak256(0x00, 0x20)\n      swap1\n      dup2\n      add\n      swap3\n      dup3\n      iszero\n      tag_49\n      jumpi\n      swap2\n      0x20\n      mul\n      dup3\n      add\n    tag_50:\n      dup3\n      dup2\n      gt\n      iszero\n      tag_51\n      jumpi\n      dup3\n      mload\n      dup3\n      swap1\n      dup2\n      tag_52\n      swap2\n      swap1\n      tag_21\n      jump\t// in\n    tag_52:\n      pop\n      swap2\n      0x20\n      add\n      swap2\n      swap1\n      0x01\n      add\n      swap1\n      jump(tag_50)\n    tag_51:\n    tag_49:\n      pop\n      swap1\n      pop\n      tag_53\n      swap2\n      swap1\n      tag_54\n      jump\t// in\n    tag_53:\n      pop\n      swap1\n      jump\t// out\n    tag_27:\n      mload(0x40)\n      dup1\n      0x60\n      add\n      0x40\n      mstore\n      dup1\n      0x60\n      dup2\n      mstore\n      0x20\n      add\n      0x60\n      dup2\n      mstore\n      0x20\n      add\n      0x00\n      dup2\n      mstore\n      pop\n      swap1\n      jump\t// out\n    tag_54:\n    tag_55:\n      dup1\n      dup3\n      gt\n      iszero\n      tag_56\n      jumpi\n      0x00\n      dup2\n      dup2\n      tag_57\n      swap2\n      swap1\n      tag_58\n      jump\t// in\n    tag_57:\n      pop\n      0x01\n      add\n      jump(tag_55)\n    tag_56:\n      pop\n      swap1\n      jump\t// out\n    tag_58:\n      pop\n      dup1\n      sload\n      tag_59\n      swap1\n      tag_36\n      jump\t// in\n    tag_59:\n      0x00\n      dup3\n      sstore\n      dup1\n      0x1f\n      lt\n      tag_61\n      jumpi\n      pop\n      jump(tag_60)\n    tag_61:\n      0x1f\n      add\n      0x20\n      swap1\n      div\n      swap1\n      0x00\n      mstore\n      keccak256(0x00, 0x20)\n      swap1\n      dup2\n      add\n      swap1\n      tag_62\n      swap2\n      swap1\n      tag_63\n      jump\t// in\n    tag_62:\n    tag_60:\n      pop\n      jump\t// out\n    tag_63:\n    tag_64:\n      dup1\n      dup3\n      gt\n      iszero\n      tag_65\n      jumpi\n      0x00\n      dup2\n      0x00\n      swap1\n      sstore\n      pop\n      0x01\n      add\n      jump(tag_64)\n    tag_65:\n      pop\n      swap1\n      jump\t// out\n        /* \"#utility.yul\":7:82   */\n    tag_66:\n        /* \"#utility.yul\":40:46   */\n      0x00\n        /* \"#utility.yul\":73:75   */\n      0x40\n        /* \"#utility.yul\":67:76   */\n      mload\n        /* \"#utility.yul\":57:76   */\n      swap1\n      pop\n        /* \"#utility.yul\":7:82   */\n      swap1\n      jump\t// out\n        /* \"#utility.yul\":88:205   */\n    tag_67:\n        /* \"#utility.yul\":197:198   */\n      0x00\n        /* \"#utility.yul\":194:195   */\n      dup1\n        /* \"#utility.yul\":187:199   */\n      revert\n        /* \"#utility.yul\":211:328   */\n    tag_68:\n        /* \"#utility.yul\":320:321   */\n      0x00\n        /* \"#utility.yul\":317:318   */\n      dup1\n        /* \"#utility.yul\":310:322   */\n      revert\n        /* \"#utility.yul\":334:451   */\n    tag_69:\n        /* \"#utility.yul\":443:444   */\n      0x00\n        /* \"#utility.yul\":440:441   */\n      dup1\n        /* \"#utility.yul\":433:445   */\n      revert\n        /* \"#utility.yul\":457:574   */\n    tag_70:\n        /* \"#utility.yul\":566:567   */\n      0x00\n        /* \"#utility.yul\":563:564   */\n      dup1\n        /* \"#utility.yul\":556:568   */\n      revert\n        /* \"#utility.yul\":580:682   */\n    tag_71:\n        /* \"#utility.yul\":621:627   */\n      0x00\n        /* \"#utility.yul\":672:674   */\n      0x1f\n        /* \"#utility.yul\":668:675   */\n      not\n        /* \"#utility.yul\":663:665   */\n      0x1f\n        /* \"#utility.yul\":656:661   */\n      dup4\n        /* \"#utility.yul\":652:666   */\n      add\n        /* \"#utility.yul\":648:676   */\n      and\n        /* \"#utility.yul\":638:676   */\n      swap1\n      pop\n        /* \"#utility.yul\":580:682   */\n      swap2\n      swap1\n      pop\n      jump\t// out\n        /* \"#utility.yul\":688:868   */\n    tag_72:\n        /* \"#utility.yul\":736:813   */\n      0x4e487b7100000000000000000000000000000000000000000000000000000000\n        /* \"#utility.yul\":733:734   */\n      0x00\n        /* \"#utility.yul\":726:814   */\n      mstore\n        /* \"#utility.yul\":833:837   */\n      0x41\n        /* \"#utility.yul\":830:831   */\n      0x04\n        /* \"#utility.yul\":823:838   */\n      mstore\n        /* \"#utility.yul\":857:861   */\n      0x24\n        /* \"#utility.yul\":854:855   */\n      0x00\n        /* \"#utility.yul\":847:862   */\n      revert\n        /* \"#utility.yul\":874:1155   */\n    tag_73:\n        /* \"#utility.yul\":957:984   */\n      tag_125\n        /* \"#utility.yul\":979:983   */\n      dup3\n        /* \"#utility.yul\":957:984   */\n      tag_71\n      jump\t// in\n    tag_125:\n        /* \"#utility.yul\":949:955   */\n      dup2\n        /* \"#utility.yul\":945:985   */\n      add\n        /* \"#utility.yul\":1087:1093   */\n      dup2\n        /* \"#utility.yul\":1075:1085   */\n      dup2\n        /* \"#utility.yul\":1072:1094   */\n      lt\n        /* \"#utility.yul\":1051:1069   */\n      0xffffffffffffffff\n        /* \"#utility.yul\":1039:1049   */\n      dup3\n        /* \"#utility.yul\":1036:1070   */\n      gt\n        /* \"#utility.yul\":1033:1095   */\n      or\n        /* \"#utility.yul\":1030:1118   */\n      iszero\n      tag_126\n      jumpi\n        /* \"#utility.yul\":1098:1116   */\n      tag_127\n      tag_72\n      jump\t// in\n    tag_127:\n        /* \"#utility.yul\":1030:1118   */\n    tag_126:\n        /* \"#utility.yul\":1138:1148   */\n      dup1\n        /* \"#utility.yul\":1134:1136   */\n      0x40\n        /* \"#utility.yul\":1127:1149   */\n      mstore\n        /* \"#utility.yul\":917:1155   */\n      pop\n        /* \"#utility.yul\":874:1155   */\n      pop\n      pop\n      jump\t// out\n        /* \"#utility.yul\":1161:1290   */\n    tag_74:\n        /* \"#utility.yul\":1195:1201   */\n      0x00\n        /* \"#utility.yul\":1222:1242   */\n      tag_129\n      tag_66\n      jump\t// in\n    tag_129:\n        /* \"#utility.yul\":1212:1242   */\n      swap1\n      pop\n        /* \"#utility.yul\":1251:1284   */\n      tag_130\n        /* \"#utility.yul\":1279:1283   */\n      dup3\n        /* \"#utility.yul\":1271:1277   */\n      dup3\n        /* \"#utility.yul\":1251:1284   */\n      tag_73\n      jump\t// in\n    tag_130:\n        /* \"#utility.yul\":1161:1290   */\n      swap2\n      swap1\n      pop\n      jump\t// out\n        /* \"#utility.yul\":1296:1604   */\n    tag_75:\n        /* \"#utility.yul\":1358:1362   */\n      0x00\n        /* \"#utility.yul\":1448:1466   */\n      0xffffffffffffffff\n        /* \"#utility.yul\":1440:1446   */\n      dup3\n        /* \"#utility.yul\":1437:1467   */\n      gt\n        /* \"#utility.yul\":1434:1490   */\n      iszero\n      tag_132\n      jumpi\n        /* \"#utility.yul\":1470:1488   */\n      tag_133\n      tag_72\n      jump\t// in\n    tag_133:\n        /* \"#utility.yul\":1434:1490   */\n    tag_132:\n        /* \"#utility.yul\":1508:1537   */\n      tag_134\n        /* \"#utility.yul\":1530:1536   */\n      dup3\n        /* \"#utility.yul\":1508:1537   */\n      tag_71\n      jump\t// in\n    tag_134:\n        /* \"#utility.yul\":1500:1537   */\n      swap1\n      pop\n        /* \"#utility.yul\":1592:1596   */\n      0x20\n        /* \"#utility.yul\":1586:1590   */\n      dup2\n        /* \"#utility.yul\":1582:1597   */\n      add\n        /* \"#utility.yul\":1574:1597   */\n      swap1\n      pop\n        /* \"#utility.yul\":1296:1604   */\n      swap2\n      swap1\n      pop\n      jump\t// out\n        /* \"#utility.yul\":1610:1756   */\n    tag_76:\n        /* \"#utility.yul\":1707:1713   */\n      dup3\n        /* \"#utility.yul\":1702:1705   */\n      dup2\n        /* \"#utility.yul\":1697:1700   */\n      dup4\n        /* \"#utility.yul\":1684:1714   */\n      calldatacopy\n        /* \"#utility.yul\":1748:1749   */\n      0x00\n        /* \"#utility.yul\":1739:1745   */\n      dup4\n        /* \"#utility.yul\":1734:1737   */\n      dup4\n        /* \"#utility.yul\":1730:1746   */\n      add\n        /* \"#utility.yul\":1723:1750   */\n      mstore\n        /* \"#utility.yul\":1610:1756   */\n      pop\n      pop\n      pop\n      jump\t// out\n        /* \"#utility.yul\":1762:2187   */\n    tag_77:\n        /* \"#utility.yul\":1840:1845   */\n      0x00\n        /* \"#utility.yul\":1865:1931   */\n      tag_137\n        /* \"#utility.yul\":1881:1930   */\n      tag_138\n        /* \"#utility.yul\":1923:1929   */\n      dup5\n        /* \"#utility.yul\":1881:1930   */\n      tag_75\n      jump\t// in\n    tag_138:\n        /* \"#utility.yul\":1865:1931   */\n      tag_74\n      jump\t// in\n    tag_137:\n        /* \"#utility.yul\":1856:1931   */\n      swap1\n      pop\n        /* \"#utility.yul\":1954:1960   */\n      dup3\n        /* \"#utility.yul\":1947:1952   */\n      dup2\n        /* \"#utility.yul\":1940:1961   */\n      mstore\n        /* \"#utility.yul\":1992:1996   */\n      0x20\n        /* \"#utility.yul\":1985:1990   */\n      dup2\n        /* \"#utility.yul\":1981:1997   */\n      add\n        /* \"#utility.yul\":2030:2033   */\n      dup5\n        /* \"#utility.yul\":2021:2027   */\n      dup5\n        /* \"#utility.yul\":2016:2019   */\n      dup5\n        /* \"#utility.yul\":2012:2028   */\n      add\n        /* \"#utility.yul\":2009:2034   */\n      gt\n        /* \"#utility.yul\":2006:2118   */\n      iszero\n      tag_139\n      jumpi\n        /* \"#utility.yul\":2037:2116   */\n      tag_140\n      tag_70\n      jump\t// in\n    tag_140:\n        /* \"#utility.yul\":2006:2118   */\n    tag_139:\n        /* \"#utility.yul\":2127:2181   */\n      tag_141\n        /* \"#utility.yul\":2174:2180   */\n      dup5\n        /* \"#utility.yul\":2169:2172   */\n      dup3\n        /* \"#utility.yul\":2164:2167   */\n      dup6\n        /* \"#utility.yul\":2127:2181   */\n      tag_76\n      jump\t// in\n    tag_141:\n        /* \"#utility.yul\":1846:2187   */\n      pop\n        /* \"#utility.yul\":1762:2187   */\n      swap4\n      swap3\n      pop\n      pop\n      pop\n      jump\t// out\n        /* \"#utility.yul\":2207:2547   */\n    tag_78:\n        /* \"#utility.yul\":2263:2268   */\n      0x00\n        /* \"#utility.yul\":2312:2315   */\n      dup3\n        /* \"#utility.yul\":2305:2309   */\n      0x1f\n        /* \"#utility.yul\":2297:2303   */\n      dup4\n        /* \"#utility.yul\":2293:2310   */\n      add\n        /* \"#utility.yul\":2289:2316   */\n      slt\n        /* \"#utility.yul\":2279:2401   */\n      tag_143\n      jumpi\n        /* \"#utility.yul\":2320:2399   */\n      tag_144\n      tag_69\n      jump\t// in\n    tag_144:\n        /* \"#utility.yul\":2279:2401   */\n    tag_143:\n        /* \"#utility.yul\":2437:2443   */\n      dup2\n        /* \"#utility.yul\":2424:2444   */\n      calldataload\n        /* \"#utility.yul\":2462:2541   */\n      tag_145\n        /* \"#utility.yul\":2537:2540   */\n      dup5\n        /* \"#utility.yul\":2529:2535   */\n      dup3\n        /* \"#utility.yul\":2522:2526   */\n      0x20\n        /* \"#utility.yul\":2514:2520   */\n      dup7\n        /* \"#utility.yul\":2510:2527   */\n      add\n        /* \"#utility.yul\":2462:2541   */\n      tag_77\n      jump\t// in\n    tag_145:\n        /* \"#utility.yul\":2453:2541   */\n      swap2\n      pop\n        /* \"#utility.yul\":2269:2547   */\n      pop\n        /* \"#utility.yul\":2207:2547   */\n      swap3\n      swap2\n      pop\n      pop\n      jump\t// out\n        /* \"#utility.yul\":2553:2874   */\n    tag_79:\n        /* \"#utility.yul\":2640:2644   */\n      0x00\n        /* \"#utility.yul\":2730:2748   */\n      0xffffffffffffffff\n        /* \"#utility.yul\":2722:2728   */\n      dup3\n        /* \"#utility.yul\":2719:2749   */\n      gt\n        /* \"#utility.yul\":2716:2772   */\n      iszero\n      tag_147\n      jumpi\n        /* \"#utility.yul\":2752:2770   */\n      tag_148\n      tag_72\n      jump\t// in\n    tag_148:\n        /* \"#utility.yul\":2716:2772   */\n    tag_147:\n        /* \"#utility.yul\":2802:2806   */\n      0x20\n        /* \"#utility.yul\":2794:2800   */\n      dup3\n        /* \"#utility.yul\":2790:2807   */\n      mul\n        /* \"#utility.yul\":2782:2807   */\n      swap1\n      pop\n        /* \"#utility.yul\":2862:2866   */\n      0x20\n        /* \"#utility.yul\":2856:2860   */\n      dup2\n        /* \"#utility.yul\":2852:2867   */\n      add\n        /* \"#utility.yul\":2844:2867   */\n      swap1\n      pop\n        /* \"#utility.yul\":2553:2874   */\n      swap2\n      swap1\n      pop\n      jump\t// out\n        /* \"#utility.yul\":2880:2997   */\n    tag_80:\n        /* \"#utility.yul\":2989:2990   */\n      0x00\n        /* \"#utility.yul\":2986:2987   */\n      dup1\n        /* \"#utility.yul\":2979:2991   */\n      revert\n        /* \"#utility.yul\":3019:3964   */\n    tag_81:\n        /* \"#utility.yul\":3125:3130   */\n      0x00\n        /* \"#utility.yul\":3150:3241   */\n      tag_151\n        /* \"#utility.yul\":3166:3240   */\n      tag_152\n        /* \"#utility.yul\":3233:3239   */\n      dup5\n        /* \"#utility.yul\":3166:3240   */\n      tag_79\n      jump\t// in\n    tag_152:\n        /* \"#utility.yul\":3150:3241   */\n      tag_74\n      jump\t// in\n    tag_151:\n        /* \"#utility.yul\":3141:3241   */\n      swap1\n      pop\n        /* \"#utility.yul\":3261:3266   */\n      dup1\n        /* \"#utility.yul\":3290:3296   */\n      dup4\n        /* \"#utility.yul\":3283:3288   */\n      dup3\n        /* \"#utility.yul\":3276:3297   */\n      mstore\n        /* \"#utility.yul\":3324:3328   */\n      0x20\n        /* \"#utility.yul\":3317:3322   */\n      dup3\n        /* \"#utility.yul\":3313:3329   */\n      add\n        /* \"#utility.yul\":3306:3329   */\n      swap1\n      pop\n        /* \"#utility.yul\":3377:3381   */\n      0x20\n        /* \"#utility.yul\":3369:3375   */\n      dup5\n        /* \"#utility.yul\":3365:3382   */\n      mul\n        /* \"#utility.yul\":3357:3363   */\n      dup4\n        /* \"#utility.yul\":3353:3383   */\n      add\n        /* \"#utility.yul\":3406:3409   */\n      dup6\n        /* \"#utility.yul\":3398:3404   */\n      dup2\n        /* \"#utility.yul\":3395:3410   */\n      gt\n        /* \"#utility.yul\":3392:3514   */\n      iszero\n      tag_153\n      jumpi\n        /* \"#utility.yul\":3425:3504   */\n      tag_154\n      tag_80\n      jump\t// in\n    tag_154:\n        /* \"#utility.yul\":3392:3514   */\n    tag_153:\n        /* \"#utility.yul\":3540:3546   */\n      dup4\n        /* \"#utility.yul\":3523:3958   */\n    tag_155:\n        /* \"#utility.yul\":3557:3563   */\n      dup2\n        /* \"#utility.yul\":3552:3555   */\n      dup2\n        /* \"#utility.yul\":3549:3564   */\n      lt\n        /* \"#utility.yul\":3523:3958   */\n      iszero\n      tag_157\n      jumpi\n        /* \"#utility.yul\":3646:3649   */\n      dup1\n        /* \"#utility.yul\":3633:3650   */\n      calldataload\n        /* \"#utility.yul\":3682:3700   */\n      0xffffffffffffffff\n        /* \"#utility.yul\":3669:3680   */\n      dup2\n        /* \"#utility.yul\":3666:3701   */\n      gt\n        /* \"#utility.yul\":3663:3785   */\n      iszero\n      tag_158\n      jumpi\n        /* \"#utility.yul\":3704:3783   */\n      tag_159\n      tag_69\n      jump\t// in\n    tag_159:\n        /* \"#utility.yul\":3663:3785   */\n    tag_158:\n        /* \"#utility.yul\":3828:3839   */\n      dup1\n        /* \"#utility.yul\":3820:3826   */\n      dup7\n        /* \"#utility.yul\":3816:3840   */\n      add\n        /* \"#utility.yul\":3866:3913   */\n      tag_160\n        /* \"#utility.yul\":3909:3912   */\n      dup10\n        /* \"#utility.yul\":3897:3907   */\n      dup3\n        /* \"#utility.yul\":3866:3913   */\n      tag_78\n      jump\t// in\n    tag_160:\n        /* \"#utility.yul\":3861:3864   */\n      dup6\n        /* \"#utility.yul\":3854:3914   */\n      mstore\n        /* \"#utility.yul\":3943:3947   */\n      0x20\n        /* \"#utility.yul\":3938:3941   */\n      dup6\n        /* \"#utility.yul\":3934:3948   */\n      add\n        /* \"#utility.yul\":3927:3948   */\n      swap5\n      pop\n        /* \"#utility.yul\":3599:3958   */\n      pop\n      pop\n        /* \"#utility.yul\":3583:3587   */\n      0x20\n        /* \"#utility.yul\":3578:3581   */\n      dup2\n        /* \"#utility.yul\":3574:3588   */\n      add\n        /* \"#utility.yul\":3567:3588   */\n      swap1\n      pop\n        /* \"#utility.yul\":3523:3958   */\n      jump(tag_155)\n    tag_157:\n        /* \"#utility.yul\":3527:3548   */\n      pop\n        /* \"#utility.yul\":3131:3964   */\n      pop\n      pop\n        /* \"#utility.yul\":3019:3964   */\n      swap4\n      swap3\n      pop\n      pop\n      pop\n      jump\t// out\n        /* \"#utility.yul\":3986:4376   */\n    tag_82:\n        /* \"#utility.yul\":4067:4072   */\n      0x00\n        /* \"#utility.yul\":4116:4119   */\n      dup3\n        /* \"#utility.yul\":4109:4113   */\n      0x1f\n        /* \"#utility.yul\":4101:4107   */\n      dup4\n        /* \"#utility.yul\":4097:4114   */\n      add\n        /* \"#utility.yul\":4093:4120   */\n      slt\n        /* \"#utility.yul\":4083:4205   */\n      tag_162\n      jumpi\n        /* \"#utility.yul\":4124:4203   */\n      tag_163\n      tag_69\n      jump\t// in\n    tag_163:\n        /* \"#utility.yul\":4083:4205   */\n    tag_162:\n        /* \"#utility.yul\":4241:4247   */\n      dup2\n        /* \"#utility.yul\":4228:4248   */\n      calldataload\n        /* \"#utility.yul\":4266:4370   */\n      tag_164\n        /* \"#utility.yul\":4366:4369   */\n      dup5\n        /* \"#utility.yul\":4358:4364   */\n      dup3\n        /* \"#utility.yul\":4351:4355   */\n      0x20\n        /* \"#utility.yul\":4343:4349   */\n      dup7\n        /* \"#utility.yul\":4339:4356   */\n      add\n        /* \"#utility.yul\":4266:4370   */\n      tag_81\n      jump\t// in\n    tag_164:\n        /* \"#utility.yul\":4257:4370   */\n      swap2\n      pop\n        /* \"#utility.yul\":4073:4376   */\n      pop\n        /* \"#utility.yul\":3986:4376   */\n      swap3\n      swap2\n      pop\n      pop\n      jump\t// out\n        /* \"#utility.yul\":4382:4459   */\n    tag_83:\n        /* \"#utility.yul\":4419:4426   */\n      0x00\n        /* \"#utility.yul\":4448:4453   */\n      dup2\n        /* \"#utility.yul\":4437:4453   */\n      swap1\n      pop\n        /* \"#utility.yul\":4382:4459   */\n      swap2\n      swap1\n      pop\n      jump\t// out\n        /* \"#utility.yul\":4465:4587   */\n    tag_84:\n        /* \"#utility.yul\":4538:4562   */\n      tag_167\n        /* \"#utility.yul\":4556:4561   */\n      dup2\n        /* \"#utility.yul\":4538:4562   */\n      tag_83\n      jump\t// in\n    tag_167:\n        /* \"#utility.yul\":4531:4536   */\n      dup2\n        /* \"#utility.yul\":4528:4563   */\n      eq\n        /* \"#utility.yul\":4518:4581   */\n      tag_168\n      jumpi\n        /* \"#utility.yul\":4577:4578   */\n      0x00\n        /* \"#utility.yul\":4574:4575   */\n      dup1\n        /* \"#utility.yul\":4567:4579   */\n      revert\n        /* \"#utility.yul\":4518:4581   */\n    tag_168:\n        /* \"#utility.yul\":4465:4587   */\n      pop\n      jump\t// out\n        /* \"#utility.yul\":4593:4732   */\n    tag_85:\n        /* \"#utility.yul\":4639:4644   */\n      0x00\n        /* \"#utility.yul\":4677:4683   */\n      dup2\n        /* \"#utility.yul\":4664:4684   */\n      calldataload\n        /* \"#utility.yul\":4655:4684   */\n      swap1\n      pop\n        /* \"#utility.yul\":4693:4726   */\n      tag_170\n        /* \"#utility.yul\":4720:4725   */\n      dup2\n        /* \"#utility.yul\":4693:4726   */\n      tag_84\n      jump\t// in\n    tag_170:\n        /* \"#utility.yul\":4593:4732   */\n      swap3\n      swap2\n      pop\n      pop\n      jump\t// out\n        /* \"#utility.yul\":4738:5767   */\n    tag_7:\n        /* \"#utility.yul\":4860:4866   */\n      0x00\n        /* \"#utility.yul\":4868:4874   */\n      dup1\n        /* \"#utility.yul\":4876:4882   */\n      0x00\n        /* \"#utility.yul\":4925:4927   */\n      0x60\n        /* \"#utility.yul\":4913:4922   */\n      dup5\n        /* \"#utility.yul\":4904:4911   */\n      dup7\n        /* \"#utility.yul\":4900:4923   */\n      sub\n        /* \"#utility.yul\":4896:4928   */\n      slt\n        /* \"#utility.yul\":4893:5012   */\n      iszero\n      tag_172\n      jumpi\n        /* \"#utility.yul\":4931:5010   */\n      tag_173\n      tag_67\n      jump\t// in\n    tag_173:\n        /* \"#utility.yul\":4893:5012   */\n    tag_172:\n        /* \"#utility.yul\":5079:5080   */\n      0x00\n        /* \"#utility.yul\":5068:5077   */\n      dup5\n        /* \"#utility.yul\":5064:5081   */\n      add\n        /* \"#utility.yul\":5051:5082   */\n      calldataload\n        /* \"#utility.yul\":5109:5127   */\n      0xffffffffffffffff\n        /* \"#utility.yul\":5101:5107   */\n      dup2\n        /* \"#utility.yul\":5098:5128   */\n      gt\n        /* \"#utility.yul\":5095:5212   */\n      iszero\n      tag_174\n      jumpi\n        /* \"#utility.yul\":5131:5210   */\n      tag_175\n      tag_68\n      jump\t// in\n    tag_175:\n        /* \"#utility.yul\":5095:5212   */\n    tag_174:\n        /* \"#utility.yul\":5236:5299   */\n      tag_176\n        /* \"#utility.yul\":5291:5298   */\n      dup7\n        /* \"#utility.yul\":5282:5288   */\n      dup3\n        /* \"#utility.yul\":5271:5280   */\n      dup8\n        /* \"#utility.yul\":5267:5289   */\n      add\n        /* \"#utility.yul\":5236:5299   */\n      tag_78\n      jump\t// in\n    tag_176:\n        /* \"#utility.yul\":5226:5299   */\n      swap4\n      pop\n        /* \"#utility.yul\":5022:5309   */\n      pop\n        /* \"#utility.yul\":5376:5378   */\n      0x20\n        /* \"#utility.yul\":5365:5374   */\n      dup5\n        /* \"#utility.yul\":5361:5379   */\n      add\n        /* \"#utility.yul\":5348:5380   */\n      calldataload\n        /* \"#utility.yul\":5407:5425   */\n      0xffffffffffffffff\n        /* \"#utility.yul\":5399:5405   */\n      dup2\n        /* \"#utility.yul\":5396:5426   */\n      gt\n        /* \"#utility.yul\":5393:5510   */\n      iszero\n      tag_177\n      jumpi\n        /* \"#utility.yul\":5429:5508   */\n      tag_178\n      tag_68\n      jump\t// in\n    tag_178:\n        /* \"#utility.yul\":5393:5510   */\n    tag_177:\n        /* \"#utility.yul\":5534:5622   */\n      tag_179\n        /* \"#utility.yul\":5614:5621   */\n      dup7\n        /* \"#utility.yul\":5605:5611   */\n      dup3\n        /* \"#utility.yul\":5594:5603   */\n      dup8\n        /* \"#utility.yul\":5590:5612   */\n      add\n        /* \"#utility.yul\":5534:5622   */\n      tag_82\n      jump\t// in\n    tag_179:\n        /* \"#utility.yul\":5524:5622   */\n      swap3\n      pop\n        /* \"#utility.yul\":5319:5632   */\n      pop\n        /* \"#utility.yul\":5671:5673   */\n      0x40\n        /* \"#utility.yul\":5697:5750   */\n      tag_180\n        /* \"#utility.yul\":5742:5749   */\n      dup7\n        /* \"#utility.yul\":5733:5739   */\n      dup3\n        /* \"#utility.yul\":5722:5731   */\n      dup8\n        /* \"#utility.yul\":5718:5740   */\n      add\n        /* \"#utility.yul\":5697:5750   */\n      tag_85\n      jump\t// in\n    tag_180:\n        /* \"#utility.yul\":5687:5750   */\n      swap2\n      pop\n        /* \"#utility.yul\":5642:5760   */\n      pop\n        /* \"#utility.yul\":4738:5767   */\n      swap3\n      pop\n      swap3\n      pop\n      swap3\n      jump\t// out\n        /* \"#utility.yul\":5773:5891   */\n    tag_86:\n        /* \"#utility.yul\":5860:5884   */\n      tag_182\n        /* \"#utility.yul\":5878:5883   */\n      dup2\n        /* \"#utility.yul\":5860:5884   */\n      tag_83\n      jump\t// in\n    tag_182:\n        /* \"#utility.yul\":5855:5858   */\n      dup3\n        /* \"#utility.yul\":5848:5885   */\n      mstore\n        /* \"#utility.yul\":5773:5891   */\n      pop\n      pop\n      jump\t// out\n        /* \"#utility.yul\":5897:6119   */\n    tag_10:\n        /* \"#utility.yul\":5990:5994   */\n      0x00\n        /* \"#utility.yul\":6028:6030   */\n      0x20\n        /* \"#utility.yul\":6017:6026   */\n      dup3\n        /* \"#utility.yul\":6013:6031   */\n      add\n        /* \"#utility.yul\":6005:6031   */\n      swap1\n      pop\n        /* \"#utility.yul\":6041:6112   */\n      tag_184\n        /* \"#utility.yul\":6109:6110   */\n      0x00\n        /* \"#utility.yul\":6098:6107   */\n      dup4\n        /* \"#utility.yul\":6094:6111   */\n      add\n        /* \"#utility.yul\":6085:6091   */\n      dup5\n        /* \"#utility.yul\":6041:6112   */\n      tag_86\n      jump\t// in\n    tag_184:\n        /* \"#utility.yul\":5897:6119   */\n      swap3\n      swap2\n      pop\n      pop\n      jump\t// out\n        /* \"#utility.yul\":6125:6454   */\n    tag_13:\n        /* \"#utility.yul\":6184:6190   */\n      0x00\n        /* \"#utility.yul\":6233:6235   */\n      0x20\n        /* \"#utility.yul\":6221:6230   */\n      dup3\n        /* \"#utility.yul\":6212:6219   */\n      dup5\n        /* \"#utility.yul\":6208:6231   */\n      sub\n        /* \"#utility.yul\":6204:6236   */\n      slt\n        /* \"#utility.yul\":6201:6320   */\n      iszero\n      tag_186\n      jumpi\n        /* \"#utility.yul\":6239:6318   */\n      tag_187\n      tag_67\n      jump\t// in\n    tag_187:\n        /* \"#utility.yul\":6201:6320   */\n    tag_186:\n        /* \"#utility.yul\":6359:6360   */\n      0x00\n        /* \"#utility.yul\":6384:6437   */\n      tag_188\n        /* \"#utility.yul\":6429:6436   */\n      dup5\n        /* \"#utility.yul\":6420:6426   */\n      dup3\n        /* \"#utility.yul\":6409:6418   */\n      dup6\n        /* \"#utility.yul\":6405:6427   */\n      add\n        /* \"#utility.yul\":6384:6437   */\n      tag_85\n      jump\t// in\n    tag_188:\n        /* \"#utility.yul\":6374:6437   */\n      swap2\n      pop\n        /* \"#utility.yul\":6330:6447   */\n      pop\n        /* \"#utility.yul\":6125:6454   */\n      swap3\n      swap2\n      pop\n      pop\n      jump\t// out\n        /* \"#utility.yul\":6460:6559   */\n    tag_87:\n        /* \"#utility.yul\":6512:6518   */\n      0x00\n        /* \"#utility.yul\":6546:6551   */\n      dup2\n        /* \"#utility.yul\":6540:6552   */\n      mload\n        /* \"#utility.yul\":6530:6552   */\n      swap1\n      pop\n        /* \"#utility.yul\":6460:6559   */\n      swap2\n      swap1\n      pop\n      jump\t// out\n        /* \"#utility.yul\":6565:6724   */\n    tag_88:\n        /* \"#utility.yul\":6639:6650   */\n      0x00\n        /* \"#utility.yul\":6673:6679   */\n      dup3\n        /* \"#utility.yul\":6668:6671   */\n      dup3\n        /* \"#utility.yul\":6661:6680   */\n      mstore\n        /* \"#utility.yul\":6713:6717   */\n      0x20\n        /* \"#utility.yul\":6708:6711   */\n      dup3\n        /* \"#utility.yul\":6704:6718   */\n      add\n        /* \"#utility.yul\":6689:6718   */\n      swap1\n      pop\n        /* \"#utility.yul\":6565:6724   */\n      swap3\n      swap2\n      pop\n      pop\n      jump\t// out\n        /* \"#utility.yul\":6730:6976   */\n    tag_89:\n        /* \"#utility.yul\":6811:6812   */\n      0x00\n        /* \"#utility.yul\":6821:6934   */\n    tag_192:\n        /* \"#utility.yul\":6835:6841   */\n      dup4\n        /* \"#utility.yul\":6832:6833   */\n      dup2\n        /* \"#utility.yul\":6829:6842   */\n      lt\n        /* \"#utility.yul\":6821:6934   */\n      iszero\n      tag_194\n      jumpi\n        /* \"#utility.yul\":6920:6921   */\n      dup1\n        /* \"#utility.yul\":6915:6918   */\n      dup3\n        /* \"#utility.yul\":6911:6922   */\n      add\n        /* \"#utility.yul\":6905:6923   */\n      mload\n        /* \"#utility.yul\":6901:6902   */\n      dup2\n        /* \"#utility.yul\":6896:6899   */\n      dup5\n        /* \"#utility.yul\":6892:6903   */\n      add\n        /* \"#utility.yul\":6885:6924   */\n      mstore\n        /* \"#utility.yul\":6857:6859   */\n      0x20\n        /* \"#utility.yul\":6854:6855   */\n      dup2\n        /* \"#utility.yul\":6850:6860   */\n      add\n        /* \"#utility.yul\":6845:6860   */\n      swap1\n      pop\n        /* \"#utility.yul\":6821:6934   */\n      jump(tag_192)\n    tag_194:\n        /* \"#utility.yul\":6968:6969   */\n      0x00\n        /* \"#utility.yul\":6959:6965   */\n      dup5\n        /* \"#utility.yul\":6954:6957   */\n      dup5\n        /* \"#utility.yul\":6950:6966   */\n      add\n        /* \"#utility.yul\":6943:6970   */\n      mstore\n        /* \"#utility.yul\":6792:6976   */\n      pop\n        /* \"#utility.yul\":6730:6976   */\n      pop\n      pop\n      pop\n      jump\t// out\n        /* \"#utility.yul\":6982:7339   */\n    tag_90:\n        /* \"#utility.yul\":7060:7063   */\n      0x00\n        /* \"#utility.yul\":7088:7127   */\n      tag_196\n        /* \"#utility.yul\":7121:7126   */\n      dup3\n        /* \"#utility.yul\":7088:7127   */\n      tag_87\n      jump\t// in\n    tag_196:\n        /* \"#utility.yul\":7143:7204   */\n      tag_197\n        /* \"#utility.yul\":7197:7203   */\n      dup2\n        /* \"#utility.yul\":7192:7195   */\n      dup6\n        /* \"#utility.yul\":7143:7204   */\n      tag_88\n      jump\t// in\n    tag_197:\n        /* \"#utility.yul\":7136:7204   */\n      swap4\n      pop\n        /* \"#utility.yul\":7213:7278   */\n      tag_198\n        /* \"#utility.yul\":7271:7277   */\n      dup2\n        /* \"#utility.yul\":7266:7269   */\n      dup6\n        /* \"#utility.yul\":7259:7263   */\n      0x20\n        /* \"#utility.yul\":7252:7257   */\n      dup7\n        /* \"#utility.yul\":7248:7264   */\n      add\n        /* \"#utility.yul\":7213:7278   */\n      tag_89\n      jump\t// in\n    tag_198:\n        /* \"#utility.yul\":7303:7332   */\n      tag_199\n        /* \"#utility.yul\":7325:7331   */\n      dup2\n        /* \"#utility.yul\":7303:7332   */\n      tag_71\n      jump\t// in\n    tag_199:\n        /* \"#utility.yul\":7298:7301   */\n      dup5\n        /* \"#utility.yul\":7294:7333   */\n      add\n        /* \"#utility.yul\":7287:7333   */\n      swap2\n      pop\n        /* \"#utility.yul\":7064:7339   */\n      pop\n        /* \"#utility.yul\":6982:7339   */\n      swap3\n      swap2\n      pop\n      pop\n      jump\t// out\n        /* \"#utility.yul\":7345:7469   */\n    tag_91:\n        /* \"#utility.yul\":7422:7428   */\n      0x00\n        /* \"#utility.yul\":7456:7461   */\n      dup2\n        /* \"#utility.yul\":7450:7462   */\n      mload\n        /* \"#utility.yul\":7440:7462   */\n      swap1\n      pop\n        /* \"#utility.yul\":7345:7469   */\n      swap2\n      swap1\n      pop\n      jump\t// out\n        /* \"#utility.yul\":7475:7659   */\n    tag_92:\n        /* \"#utility.yul\":7574:7585   */\n      0x00\n        /* \"#utility.yul\":7608:7614   */\n      dup3\n        /* \"#utility.yul\":7603:7606   */\n      dup3\n        /* \"#utility.yul\":7596:7615   */\n      mstore\n        /* \"#utility.yul\":7648:7652   */\n      0x20\n        /* \"#utility.yul\":7643:7646   */\n      dup3\n        /* \"#utility.yul\":7639:7653   */\n      add\n        /* \"#utility.yul\":7624:7653   */\n      swap1\n      pop\n        /* \"#utility.yul\":7475:7659   */\n      swap3\n      swap2\n      pop\n      pop\n      jump\t// out\n        /* \"#utility.yul\":7665:7807   */\n    tag_93:\n        /* \"#utility.yul\":7742:7746   */\n      0x00\n        /* \"#utility.yul\":7765:7768   */\n      dup2\n        /* \"#utility.yul\":7757:7768   */\n      swap1\n      pop\n        /* \"#utility.yul\":7795:7799   */\n      0x20\n        /* \"#utility.yul\":7790:7793   */\n      dup3\n        /* \"#utility.yul\":7786:7800   */\n      add\n        /* \"#utility.yul\":7778:7800   */\n      swap1\n      pop\n        /* \"#utility.yul\":7665:7807   */\n      swap2\n      swap1\n      pop\n      jump\t// out\n        /* \"#utility.yul\":7813:8009   */\n    tag_94:\n        /* \"#utility.yul\":7902:7912   */\n      0x00\n        /* \"#utility.yul\":7937:8003   */\n      tag_204\n        /* \"#utility.yul\":7999:8002   */\n      dup4\n        /* \"#utility.yul\":7991:7997   */\n      dup4\n        /* \"#utility.yul\":7937:8003   */\n      tag_90\n      jump\t// in\n    tag_204:\n        /* \"#utility.yul\":7923:8003   */\n      swap1\n      pop\n        /* \"#utility.yul\":7813:8009   */\n      swap3\n      swap2\n      pop\n      pop\n      jump\t// out\n        /* \"#utility.yul\":8015:8138   */\n    tag_95:\n        /* \"#utility.yul\":8095:8099   */\n      0x00\n        /* \"#utility.yul\":8127:8131   */\n      0x20\n        /* \"#utility.yul\":8122:8125   */\n      dup3\n        /* \"#utility.yul\":8118:8132   */\n      add\n        /* \"#utility.yul\":8110:8132   */\n      swap1\n      pop\n        /* \"#utility.yul\":8015:8138   */\n      swap2\n      swap1\n      pop\n      jump\t// out\n        /* \"#utility.yul\":8172:9143   */\n    tag_96:\n        /* \"#utility.yul\":8301:8304   */\n      0x00\n        /* \"#utility.yul\":8330:8394   */\n      tag_207\n        /* \"#utility.yul\":8388:8393   */\n      dup3\n        /* \"#utility.yul\":8330:8394   */\n      tag_91\n      jump\t// in\n    tag_207:\n        /* \"#utility.yul\":8410:8496   */\n      tag_208\n        /* \"#utility.yul\":8489:8495   */\n      dup2\n        /* \"#utility.yul\":8484:8487   */\n      dup6\n        /* \"#utility.yul\":8410:8496   */\n      tag_92\n      jump\t// in\n    tag_208:\n        /* \"#utility.yul\":8403:8496   */\n      swap4\n      pop\n        /* \"#utility.yul\":8522:8525   */\n      dup4\n        /* \"#utility.yul\":8567:8571   */\n      0x20\n        /* \"#utility.yul\":8559:8565   */\n      dup3\n        /* \"#utility.yul\":8555:8572   */\n      mul\n        /* \"#utility.yul\":8550:8553   */\n      dup6\n        /* \"#utility.yul\":8546:8573   */\n      add\n        /* \"#utility.yul\":8597:8663   */\n      tag_209\n        /* \"#utility.yul\":8657:8662   */\n      dup6\n        /* \"#utility.yul\":8597:8663   */\n      tag_93\n      jump\t// in\n    tag_209:\n        /* \"#utility.yul\":8686:8693   */\n      dup1\n        /* \"#utility.yul\":8717:8718   */\n      0x00\n        /* \"#utility.yul\":8702:9098   */\n    tag_210:\n        /* \"#utility.yul\":8727:8733   */\n      dup6\n        /* \"#utility.yul\":8724:8725   */\n      dup2\n        /* \"#utility.yul\":8721:8734   */\n      lt\n        /* \"#utility.yul\":8702:9098   */\n      iszero\n      tag_212\n      jumpi\n        /* \"#utility.yul\":8798:8807   */\n      dup5\n        /* \"#utility.yul\":8792:8796   */\n      dup5\n        /* \"#utility.yul\":8788:8808   */\n      sub\n        /* \"#utility.yul\":8783:8786   */\n      dup10\n        /* \"#utility.yul\":8776:8809   */\n      mstore\n        /* \"#utility.yul\":8849:8855   */\n      dup2\n        /* \"#utility.yul\":8843:8856   */\n      mload\n        /* \"#utility.yul\":8877:8961   */\n      tag_213\n        /* \"#utility.yul\":8956:8960   */\n      dup6\n        /* \"#utility.yul\":8941:8954   */\n      dup3\n        /* \"#utility.yul\":8877:8961   */\n      tag_94\n      jump\t// in\n    tag_213:\n        /* \"#utility.yul\":8869:8961   */\n      swap5\n      pop\n        /* \"#utility.yul\":8984:9054   */\n      tag_214\n        /* \"#utility.yul\":9047:9053   */\n      dup4\n        /* \"#utility.yul\":8984:9054   */\n      tag_95\n      jump\t// in\n    tag_214:\n        /* \"#utility.yul\":8974:9054   */\n      swap3\n      pop\n        /* \"#utility.yul\":9083:9087   */\n      0x20\n        /* \"#utility.yul\":9078:9081   */\n      dup11\n        /* \"#utility.yul\":9074:9088   */\n      add\n        /* \"#utility.yul\":9067:9088   */\n      swap10\n      pop\n        /* \"#utility.yul\":8762:9098   */\n      pop\n        /* \"#utility.yul\":8749:8750   */\n      0x01\n        /* \"#utility.yul\":8746:8747   */\n      dup2\n        /* \"#utility.yul\":8742:8751   */\n      add\n        /* \"#utility.yul\":8737:8751   */\n      swap1\n      pop\n        /* \"#utility.yul\":8702:9098   */\n      jump(tag_210)\n    tag_212:\n        /* \"#utility.yul\":8706:8720   */\n      pop\n        /* \"#utility.yul\":9114:9118   */\n      dup3\n        /* \"#utility.yul\":9107:9118   */\n      swap8\n      pop\n        /* \"#utility.yul\":9134:9137   */\n      dup8\n        /* \"#utility.yul\":9127:9137   */\n      swap6\n      pop\n        /* \"#utility.yul\":8306:9143   */\n      pop\n      pop\n      pop\n      pop\n      pop\n        /* \"#utility.yul\":8172:9143   */\n      swap3\n      swap2\n      pop\n      pop\n      jump\t// out\n        /* \"#utility.yul\":9149:9257   */\n    tag_97:\n        /* \"#utility.yul\":9226:9250   */\n      tag_216\n        /* \"#utility.yul\":9244:9249   */\n      dup2\n        /* \"#utility.yul\":9226:9250   */\n      tag_83\n      jump\t// in\n    tag_216:\n        /* \"#utility.yul\":9221:9224   */\n      dup3\n        /* \"#utility.yul\":9214:9251   */\n      mstore\n        /* \"#utility.yul\":9149:9257   */\n      pop\n      pop\n      jump\t// out\n        /* \"#utility.yul\":9313:10218   */\n    tag_98:\n        /* \"#utility.yul\":9428:9431   */\n      0x00\n        /* \"#utility.yul\":9464:9468   */\n      0x60\n        /* \"#utility.yul\":9459:9462   */\n      dup4\n        /* \"#utility.yul\":9455:9469   */\n      add\n        /* \"#utility.yul\":9552:9556   */\n      0x00\n        /* \"#utility.yul\":9545:9550   */\n      dup4\n        /* \"#utility.yul\":9541:9557   */\n      add\n        /* \"#utility.yul\":9535:9558   */\n      mload\n        /* \"#utility.yul\":9605:9608   */\n      dup5\n        /* \"#utility.yul\":9599:9603   */\n      dup3\n        /* \"#utility.yul\":9595:9609   */\n      sub\n        /* \"#utility.yul\":9588:9592   */\n      0x00\n        /* \"#utility.yul\":9583:9586   */\n      dup7\n        /* \"#utility.yul\":9579:9593   */\n      add\n        /* \"#utility.yul\":9572:9610   */\n      mstore\n        /* \"#utility.yul\":9631:9704   */\n      tag_218\n        /* \"#utility.yul\":9699:9703   */\n      dup3\n        /* \"#utility.yul\":9685:9697   */\n      dup3\n        /* \"#utility.yul\":9631:9704   */\n      tag_90\n      jump\t// in\n    tag_218:\n        /* \"#utility.yul\":9623:9704   */\n      swap2\n      pop\n        /* \"#utility.yul\":9479:9715   */\n      pop\n        /* \"#utility.yul\":9800:9804   */\n      0x20\n        /* \"#utility.yul\":9793:9798   */\n      dup4\n        /* \"#utility.yul\":9789:9805   */\n      add\n        /* \"#utility.yul\":9783:9806   */\n      mload\n        /* \"#utility.yul\":9853:9856   */\n      dup5\n        /* \"#utility.yul\":9847:9851   */\n      dup3\n        /* \"#utility.yul\":9843:9857   */\n      sub\n        /* \"#utility.yul\":9836:9840   */\n      0x20\n        /* \"#utility.yul\":9831:9834   */\n      dup7\n        /* \"#utility.yul\":9827:9841   */\n      add\n        /* \"#utility.yul\":9820:9858   */\n      mstore\n        /* \"#utility.yul\":9879:10002   */\n      tag_219\n        /* \"#utility.yul\":9997:10001   */\n      dup3\n        /* \"#utility.yul\":9983:9995   */\n      dup3\n        /* \"#utility.yul\":9879:10002   */\n      tag_96\n      jump\t// in\n    tag_219:\n        /* \"#utility.yul\":9871:10002   */\n      swap2\n      pop\n        /* \"#utility.yul\":9725:10013   */\n      pop\n        /* \"#utility.yul\":10099:10103   */\n      0x40\n        /* \"#utility.yul\":10092:10097   */\n      dup4\n        /* \"#utility.yul\":10088:10104   */\n      add\n        /* \"#utility.yul\":10082:10105   */\n      mload\n        /* \"#utility.yul\":10118:10181   */\n      tag_220\n        /* \"#utility.yul\":10175:10179   */\n      0x40\n        /* \"#utility.yul\":10170:10173   */\n      dup7\n        /* \"#utility.yul\":10166:10180   */\n      add\n        /* \"#utility.yul\":10152:10164   */\n      dup3\n        /* \"#utility.yul\":10118:10181   */\n      tag_97\n      jump\t// in\n    tag_220:\n        /* \"#utility.yul\":10023:10191   */\n      pop\n        /* \"#utility.yul\":10208:10212   */\n      dup1\n        /* \"#utility.yul\":10201:10212   */\n      swap2\n      pop\n        /* \"#utility.yul\":9433:10218   */\n      pop\n        /* \"#utility.yul\":9313:10218   */\n      swap3\n      swap2\n      pop\n      pop\n      jump\t// out\n        /* \"#utility.yul\":10224:10589   */\n    tag_16:\n        /* \"#utility.yul\":10363:10367   */\n      0x00\n        /* \"#utility.yul\":10401:10403   */\n      0x20\n        /* \"#utility.yul\":10390:10399   */\n      dup3\n        /* \"#utility.yul\":10386:10404   */\n      add\n        /* \"#utility.yul\":10378:10404   */\n      swap1\n      pop\n        /* \"#utility.yul\":10450:10459   */\n      dup2\n        /* \"#utility.yul\":10444:10448   */\n      dup2\n        /* \"#utility.yul\":10440:10460   */\n      sub\n        /* \"#utility.yul\":10436:10437   */\n      0x00\n        /* \"#utility.yul\":10425:10434   */\n      dup4\n        /* \"#utility.yul\":10421:10438   */\n      add\n        /* \"#utility.yul\":10414:10461   */\n      mstore\n        /* \"#utility.yul\":10478:10582   */\n      tag_222\n        /* \"#utility.yul\":10577:10581   */\n      dup2\n        /* \"#utility.yul\":10568:10574   */\n      dup5\n        /* \"#utility.yul\":10478:10582   */\n      tag_98\n      jump\t// in\n    tag_222:\n        /* \"#utility.yul\":10470:10582   */\n      swap1\n      pop\n        /* \"#utility.yul\":10224:10589   */\n      swap3\n      swap2\n      pop\n      pop\n      jump\t// out\n        /* \"#utility.yul\":10595:10775   */\n    tag_99:\n        /* \"#utility.yul\":10643:10720   */\n      0x4e487b7100000000000000000000000000000000000000000000000000000000\n        /* \"#utility.yul\":10640:10641   */\n      0x00\n        /* \"#utility.yul\":10633:10721   */\n      mstore\n        /* \"#utility.yul\":10740:10744   */\n      0x22\n        /* \"#utility.yul\":10737:10738   */\n      0x04\n        /* \"#utility.yul\":10730:10745   */\n      mstore\n        /* \"#utility.yul\":10764:10768   */\n      0x24\n        /* \"#utility.yul\":10761:10762   */\n      0x00\n        /* \"#utility.yul\":10754:10769   */\n      revert\n        /* \"#utility.yul\":10781:11101   */\n    tag_36:\n        /* \"#utility.yul\":10825:10831   */\n      0x00\n        /* \"#utility.yul\":10862:10863   */\n      0x02\n        /* \"#utility.yul\":10856:10860   */\n      dup3\n        /* \"#utility.yul\":10852:10864   */\n      div\n        /* \"#utility.yul\":10842:10864   */\n      swap1\n      pop\n        /* \"#utility.yul\":10909:10910   */\n      0x01\n        /* \"#utility.yul\":10903:10907   */\n      dup3\n        /* \"#utility.yul\":10899:10911   */\n      and\n        /* \"#utility.yul\":10930:10948   */\n      dup1\n        /* \"#utility.yul\":10920:11001   */\n      tag_225\n      jumpi\n        /* \"#utility.yul\":10986:10990   */\n      0x7f\n        /* \"#utility.yul\":10978:10984   */\n      dup3\n        /* \"#utility.yul\":10974:10991   */\n      and\n        /* \"#utility.yul\":10964:10991   */\n      swap2\n      pop\n        /* \"#utility.yul\":10920:11001   */\n    tag_225:\n        /* \"#utility.yul\":11048:11050   */\n      0x20\n        /* \"#utility.yul\":11040:11046   */\n      dup3\n        /* \"#utility.yul\":11037:11051   */\n      lt\n        /* \"#utility.yul\":11017:11035   */\n      dup2\n        /* \"#utility.yul\":11014:11052   */\n      sub\n        /* \"#utility.yul\":11011:11095   */\n      tag_226\n      jumpi\n        /* \"#utility.yul\":11067:11085   */\n      tag_227\n      tag_99\n      jump\t// in\n    tag_227:\n        /* \"#utility.yul\":11011:11095   */\n    tag_226:\n        /* \"#utility.yul\":10832:11101   */\n      pop\n        /* \"#utility.yul\":10781:11101   */\n      swap2\n      swap1\n      pop\n      jump\t// out\n        /* \"#utility.yul\":11107:11248   */\n    tag_100:\n        /* \"#utility.yul\":11156:11160   */\n      0x00\n        /* \"#utility.yul\":11179:11182   */\n      dup2\n        /* \"#utility.yul\":11171:11182   */\n      swap1\n      pop\n        /* \"#utility.yul\":11202:11205   */\n      dup2\n        /* \"#utility.yul\":11199:11200   */\n      0x00\n        /* \"#utility.yul\":11192:11206   */\n      mstore\n        /* \"#utility.yul\":11236:11240   */\n      0x20\n        /* \"#utility.yul\":11233:11234   */\n      0x00\n        /* \"#utility.yul\":11223:11241   */\n      keccak256\n        /* \"#utility.yul\":11215:11241   */\n      swap1\n      pop\n        /* \"#utility.yul\":11107:11248   */\n      swap2\n      swap1\n      pop\n      jump\t// out\n        /* \"#utility.yul\":11254:11347   */\n    tag_101:\n        /* \"#utility.yul\":11291:11297   */\n      0x00\n        /* \"#utility.yul\":11338:11340   */\n      0x20\n        /* \"#utility.yul\":11333:11335   */\n      0x1f\n        /* \"#utility.yul\":11326:11331   */\n      dup4\n        /* \"#utility.yul\":11322:11336   */\n      add\n        /* \"#utility.yul\":11318:11341   */\n      div\n        /* \"#utility.yul\":11308:11341   */\n      swap1\n      pop\n        /* \"#utility.yul\":11254:11347   */\n      swap2\n      swap1\n      pop\n      jump\t// out\n        /* \"#utility.yul\":11353:11460   */\n    tag_102:\n        /* \"#utility.yul\":11397:11405   */\n      0x00\n        /* \"#utility.yul\":11447:11452   */\n      dup3\n        /* \"#utility.yul\":11441:11445   */\n      dup3\n        /* \"#utility.yul\":11437:11453   */\n      shl\n        /* \"#utility.yul\":11416:11453   */\n      swap1\n      pop\n        /* \"#utility.yul\":11353:11460   */\n      swap3\n      swap2\n      pop\n      pop\n      jump\t// out\n        /* \"#utility.yul\":11466:11859   */\n    tag_103:\n        /* \"#utility.yul\":11535:11541   */\n      0x00\n        /* \"#utility.yul\":11585:11586   */\n      0x08\n        /* \"#utility.yul\":11573:11583   */\n      dup4\n        /* \"#utility.yul\":11569:11587   */\n      mul\n        /* \"#utility.yul\":11608:11705   */\n      tag_232\n        /* \"#utility.yul\":11638:11704   */\n      0xffffffffffffffffffffffffffffffffffffffffffffffffffffffffffffffff\n        /* \"#utility.yul\":11627:11636   */\n      dup3\n        /* \"#utility.yul\":11608:11705   */\n      tag_102\n      jump\t// in\n    tag_232:\n        /* \"#utility.yul\":11726:11765   */\n      tag_233\n        /* \"#utility.yul\":11756:11764   */\n      dup7\n        /* \"#utility.yul\":11745:11754   */\n      dup4\n        /* \"#utility.yul\":11726:11765   */\n      tag_102\n      jump\t// in\n    tag_233:\n        /* \"#utility.yul\":11714:11765   */\n      swap6\n      pop\n        /* \"#utility.yul\":11798:11802   */\n      dup1\n        /* \"#utility.yul\":11794:11803   */\n      not\n        /* \"#utility.yul\":11787:11792   */\n      dup5\n        /* \"#utility.yul\":11783:11804   */\n      and\n        /* \"#utility.yul\":11774:11804   */\n      swap4\n      pop\n        /* \"#utility.yul\":11847:11851   */\n      dup1\n        /* \"#utility.yul\":11837:11845   */\n      dup7\n        /* \"#utility.yul\":11833:11852   */\n      and\n        /* \"#utility.yul\":11826:11831   */\n      dup5\n        /* \"#utility.yul\":11823:11853   */\n      or\n        /* \"#utility.yul\":11813:11853   */\n      swap3\n      pop\n        /* \"#utility.yul\":11542:11859   */\n      pop\n      pop\n        /* \"#utility.yul\":11466:11859   */\n      swap4\n      swap3\n      pop\n      pop\n      pop\n      jump\t// out\n        /* \"#utility.yul\":11865:11925   */\n    tag_104:\n        /* \"#utility.yul\":11893:11896   */\n      0x00\n        /* \"#utility.yul\":11914:11919   */\n      dup2\n        /* \"#utility.yul\":11907:11919   */\n      swap1\n      pop\n        /* \"#utility.yul\":11865:11925   */\n      swap2\n      swap1\n      pop\n      jump\t// out\n        /* \"#utility.yul\":11931:12073   */\n    tag_105:\n        /* \"#utility.yul\":11981:11990   */\n      0x00\n        /* \"#utility.yul\":12014:12067   */\n      tag_236\n        /* \"#utility.yul\":12032:12066   */\n      tag_237\n        /* \"#utility.yul\":12041:12065   */\n      tag_238\n        /* \"#utility.yul\":12059:12064   */\n      dup5\n        /* \"#utility.yul\":12041:12065   */\n      tag_83\n      jump\t// in\n    tag_238:\n        /* \"#utility.yul\":12032:12066   */\n      tag_104\n      jump\t// in\n    tag_237:\n        /* \"#utility.yul\":12014:12067   */\n      tag_83\n      jump\t// in\n    tag_236:\n        /* \"#utility.yul\":12001:12067   */\n      swap1\n      pop\n        /* \"#utility.yul\":11931:12073   */\n      swap2\n      swap1\n      pop\n      jump\t// out\n        /* \"#utility.yul\":12079:12154   */\n    tag_106:\n        /* \"#utility.yul\":12122:12125   */\n      0x00\n        /* \"#utility.yul\":12143:12148   */\n      dup2\n        /* \"#utility.yul\":12136:12148   */\n      swap1\n      pop\n        /* \"#utility.yul\":12079:12154   */\n      swap2\n      swap1\n      pop\n      jump\t// out\n        /* \"#utility.yul\":12160:12429   */\n    tag_107:\n        /* \"#utility.yul\":12270:12309   */\n      tag_241\n        /* \"#utility.yul\":12301:12308   */\n      dup4\n        /* \"#utility.yul\":12270:12309   */\n      tag_105\n      jump\t// in\n    tag_241:\n        /* \"#utility.yul\":12331:12422   */\n      tag_242\n        /* \"#utility.yul\":12380:12421   */\n      tag_243\n        /* \"#utility.yul\":12404:12420   */\n      dup3\n        /* \"#utility.yul\":12380:12421   */\n      tag_106\n      jump\t// in\n    tag_243:\n        /* \"#utility.yul\":12372:12378   */\n      dup5\n        /* \"#utility.yul\":12365:12369   */\n      dup5\n        /* \"#utility.yul\":12359:12370   */\n      sload\n        /* \"#utility.yul\":12331:12422   */\n      tag_103\n      jump\t// in\n    tag_242:\n        /* \"#utility.yul\":12325:12329   */\n      dup3\n        /* \"#utility.yul\":12318:12423   */\n      sstore\n        /* \"#utility.yul\":12236:12429   */\n      pop\n        /* \"#utility.yul\":12160:12429   */\n      pop\n      pop\n      pop\n      jump\t// out\n        /* \"#utility.yul\":12435:12508   */\n    tag_108:\n        /* \"#utility.yul\":12480:12483   */\n      0x00\n        /* \"#utility.yul\":12435:12508   */\n      swap1\n      jump\t// out\n        /* \"#utility.yul\":12514:12703   */\n    tag_109:\n        /* \"#utility.yul\":12591:12623   */\n      tag_246\n      tag_108\n      jump\t// in\n    tag_246:\n        /* \"#utility.yul\":12632:12697   */\n      tag_247\n        /* \"#utility.yul\":12690:12696   */\n      dup2\n        /* \"#utility.yul\":12682:12688   */\n      dup5\n        /* \"#utility.yul\":12676:12680   */\n      dup5\n        /* \"#utility.yul\":12632:12697   */\n      tag_107\n      jump\t// in\n    tag_247:\n        /* \"#utility.yul\":12567:12703   */\n      pop\n        /* \"#utility.yul\":12514:12703   */\n      pop\n      pop\n      jump\t// out\n        /* \"#utility.yul\":12709:12895   */\n    tag_110:\n        /* \"#utility.yul\":12769:12889   */\n    tag_249:\n        /* \"#utility.yul\":12786:12789   */\n      dup2\n        /* \"#utility.yul\":12779:12784   */\n      dup2\n        /* \"#utility.yul\":12776:12790   */\n      lt\n        /* \"#utility.yul\":12769:12889   */\n      iszero\n      tag_251\n      jumpi\n        /* \"#utility.yul\":12840:12879   */\n      tag_252\n        /* \"#utility.yul\":12877:12878   */\n      0x00\n        /* \"#utility.yul\":12870:12875   */\n      dup3\n        /* \"#utility.yul\":12840:12879   */\n      tag_109\n      jump\t// in\n    tag_252:\n        /* \"#utility.yul\":12813:12814   */\n      0x01\n        /* \"#utility.yul\":12806:12811   */\n      dup2\n        /* \"#utility.yul\":12802:12815   */\n      add\n        /* \"#utility.yul\":12793:12815   */\n      swap1\n      pop\n        /* \"#utility.yul\":12769:12889   */\n      jump(tag_249)\n    tag_251:\n        /* \"#utility.yul\":12709:12895   */\n      pop\n      pop\n      jump\t// out\n        /* \"#utility.yul\":12901:13444   */\n    tag_111:\n        /* \"#utility.yul\":13002:13004   */\n      0x1f\n        /* \"#utility.yul\":12997:13000   */\n      dup3\n        /* \"#utility.yul\":12994:13005   */\n      gt\n        /* \"#utility.yul\":12991:13437   */\n      iszero\n      tag_254\n      jumpi\n        /* \"#utility.yul\":13036:13074   */\n      tag_255\n        /* \"#utility.yul\":13068:13073   */\n      dup2\n        /* \"#utility.yul\":13036:13074   */\n      tag_100\n      jump\t// in\n    tag_255:\n        /* \"#utility.yul\":13120:13149   */\n      tag_256\n        /* \"#utility.yul\":13138:13148   */\n      dup5\n        /* \"#utility.yul\":13120:13149   */\n      tag_101\n      jump\t// in\n    tag_256:\n        /* \"#utility.yul\":13110:13118   */\n      dup2\n        /* \"#utility.yul\":13106:13150   */\n      add\n        /* \"#utility.yul\":13303:13305   */\n      0x20\n        /* \"#utility.yul\":13291:13301   */\n      dup6\n        /* \"#utility.yul\":13288:13306   */\n      lt\n        /* \"#utility.yul\":13285:13334   */\n      iszero\n      tag_257\n      jumpi\n        /* \"#utility.yul\":13324:13332   */\n      dup2\n        /* \"#utility.yul\":13309:13332   */\n      swap1\n      pop\n        /* \"#utility.yul\":13285:13334   */\n    tag_257:\n        /* \"#utility.yul\":13347:13427   */\n      tag_258\n        /* \"#utility.yul\":13403:13425   */\n      tag_259\n        /* \"#utility.yul\":13421:13424   */\n      dup6\n        /* \"#utility.yul\":13403:13425   */\n      tag_101\n      jump\t// in\n    tag_259:\n        /* \"#utility.yul\":13393:13401   */\n      dup4\n        /* \"#utility.yul\":13389:13426   */\n      add\n        /* \"#utility.yul\":13376:13387   */\n      dup3\n        /* \"#utility.yul\":13347:13427   */\n      tag_110\n      jump\t// in\n    tag_258:\n        /* \"#utility.yul\":13006:13437   */\n      pop\n      pop\n        /* \"#utility.yul\":12991:13437   */\n    tag_254:\n        /* \"#utility.yul\":12901:13444   */\n      pop\n      pop\n      pop\n      jump\t// out\n        /* \"#utility.yul\":13450:13567   */\n    tag_112:\n        /* \"#utility.yul\":13504:13512   */\n      0x00\n        /* \"#utility.yul\":13554:13559   */\n      dup3\n        /* \"#utility.yul\":13548:13552   */\n      dup3\n        /* \"#utility.yul\":13544:13560   */\n      shr\n        /* \"#utility.yul\":13523:13560   */\n      swap1\n      pop\n        /* \"#utility.yul\":13450:13567   */\n      swap3\n      swap2\n      pop\n      pop\n      jump\t// out\n        /* \"#utility.yul\":13573:13742   */\n    tag_113:\n        /* \"#utility.yul\":13617:13623   */\n      0x00\n        /* \"#utility.yul\":13650:13701   */\n      tag_262\n        /* \"#utility.yul\":13698:13699   */\n      0x00\n        /* \"#utility.yul\":13694:13700   */\n      not\n        /* \"#utility.yul\":13686:13691   */\n      dup5\n        /* \"#utility.yul\":13683:13684   */\n      0x08\n        /* \"#utility.yul\":13679:13692   */\n      mul\n        /* \"#utility.yul\":13650:13701   */\n      tag_112\n      jump\t// in\n    tag_262:\n        /* \"#utility.yul\":13646:13702   */\n      not\n        /* \"#utility.yul\":13731:13735   */\n      dup1\n        /* \"#utility.yul\":13725:13729   */\n      dup4\n        /* \"#utility.yul\":13721:13736   */\n      and\n        /* \"#utility.yul\":13711:13736   */\n      swap2\n      pop\n        /* \"#utility.yul\":13624:13742   */\n      pop\n        /* \"#utility.yul\":13573:13742   */\n      swap3\n      swap2\n      pop\n      pop\n      jump\t// out\n        /* \"#utility.yul\":13747:14042   */\n    tag_114:\n        /* \"#utility.yul\":13823:13827   */\n      0x00\n        /* \"#utility.yul\":13969:13998   */\n      tag_264\n        /* \"#utility.yul\":13994:13997   */\n      dup4\n        /* \"#utility.yul\":13988:13992   */\n      dup4\n        /* \"#utility.yul\":13969:13998   */\n      tag_113\n      jump\t// in\n    tag_264:\n        /* \"#utility.yul\":13961:13998   */\n      swap2\n      pop\n        /* \"#utility.yul\":14031:14034   */\n      dup3\n        /* \"#utility.yul\":14028:14029   */\n      0x02\n        /* \"#utility.yul\":14024:14035   */\n      mul\n        /* \"#utility.yul\":14018:14022   */\n      dup3\n        /* \"#utility.yul\":14015:14036   */\n      or\n        /* \"#utility.yul\":14007:14036   */\n      swap1\n      pop\n        /* \"#utility.yul\":13747:14042   */\n      swap3\n      swap2\n      pop\n      pop\n      jump\t// out\n        /* \"#utility.yul\":14047:15442   */\n    tag_21:\n        /* \"#utility.yul\":14164:14201   */\n      tag_266\n        /* \"#utility.yul\":14197:14200   */\n      dup3\n        /* \"#utility.yul\":14164:14201   */\n      tag_87\n      jump\t// in\n    tag_266:\n        /* \"#utility.yul\":14266:14284   */\n      0xffffffffffffffff\n        /* \"#utility.yul\":14258:14264   */\n      dup2\n        /* \"#utility.yul\":14255:14285   */\n      gt\n        /* \"#utility.yul\":14252:14308   */\n      iszero\n      tag_267\n      jumpi\n        /* \"#utility.yul\":14288:14306   */\n      tag_268\n      tag_72\n      jump\t// in\n    tag_268:\n        /* \"#utility.yul\":14252:14308   */\n    tag_267:\n        /* \"#utility.yul\":14332:14370   */\n      tag_269\n        /* \"#utility.yul\":14364:14368   */\n      dup3\n        /* \"#utility.yul\":14358:14369   */\n      sload\n        /* \"#utility.yul\":14332:14370   */\n      tag_36\n      jump\t// in\n    tag_269:\n        /* \"#utility.yul\":14417:14484   */\n      tag_270\n        /* \"#utility.yul\":14477:14483   */\n      dup3\n        /* \"#utility.yul\":14469:14475   */\n      dup3\n        /* \"#utility.yul\":14463:14467   */\n      dup6\n        /* \"#utility.yul\":14417:14484   */\n      tag_111\n      jump\t// in\n    tag_270:\n        /* \"#utility.yul\":14511:14512   */\n      0x00\n        /* \"#utility.yul\":14535:14539   */\n      0x20\n        /* \"#utility.yul\":14522:14539   */\n      swap1\n      pop\n        /* \"#utility.yul\":14567:14569   */\n      0x1f\n        /* \"#utility.yul\":14559:14565   */\n      dup4\n        /* \"#utility.yul\":14556:14570   */\n      gt\n        /* \"#utility.yul\":14584:14585   */\n      0x01\n        /* \"#utility.yul\":14579:15197   */\n      dup2\n      eq\n      tag_272\n      jumpi\n        /* \"#utility.yul\":15241:15242   */\n      0x00\n        /* \"#utility.yul\":15258:15264   */\n      dup5\n        /* \"#utility.yul\":15255:15332   */\n      iszero\n      tag_273\n      jumpi\n        /* \"#utility.yul\":15307:15316   */\n      dup3\n        /* \"#utility.yul\":15302:15305   */\n      dup8\n        /* \"#utility.yul\":15298:15317   */\n      add\n        /* \"#utility.yul\":15292:15318   */\n      mload\n        /* \"#utility.yul\":15283:15318   */\n      swap1\n      pop\n        /* \"#utility.yul\":15255:15332   */\n    tag_273:\n        /* \"#utility.yul\":15358:15425   */\n      tag_274\n        /* \"#utility.yul\":15418:15424   */\n      dup6\n        /* \"#utility.yul\":15411:15416   */\n      dup3\n        /* \"#utility.yul\":15358:15425   */\n      tag_114\n      jump\t// in\n    tag_274:\n        /* \"#utility.yul\":15352:15356   */\n      dup7\n        /* \"#utility.yul\":15345:15426   */\n      sstore\n        /* \"#utility.yul\":15214:15436   */\n      pop\n        /* \"#utility.yul\":14549:15436   */\n      jump(tag_271)\n        /* \"#utility.yul\":14579:15197   */\n    tag_272:\n        /* \"#utility.yul\":14631:14635   */\n      0x1f\n        /* \"#utility.yul\":14627:14636   */\n      not\n        /* \"#utility.yul\":14619:14625   */\n      dup5\n        /* \"#utility.yul\":14615:14637   */\n      and\n        /* \"#utility.yul\":14665:14702   */\n      tag_275\n        /* \"#utility.yul\":14697:14701   */\n      dup7\n        /* \"#utility.yul\":14665:14702   */\n      tag_100\n      jump\t// in\n    tag_275:\n        /* \"#utility.yul\":14724:14725   */\n      0x00\n        /* \"#utility.yul\":14738:14946   */\n    tag_276:\n        /* \"#utility.yul\":14752:14759   */\n      dup3\n        /* \"#utility.yul\":14749:14750   */\n      dup2\n        /* \"#utility.yul\":14746:14760   */\n      lt\n        /* \"#utility.yul\":14738:14946   */\n      iszero\n      tag_278\n      jumpi\n        /* \"#utility.yul\":14831:14840   */\n      dup5\n        /* \"#utility.yul\":14826:14829   */\n      dup10\n        /* \"#utility.yul\":14822:14841   */\n      add\n        /* \"#utility.yul\":14816:14842   */\n      mload\n        /* \"#utility.yul\":14808:14814   */\n      dup3\n        /* \"#utility.yul\":14801:14843   */\n      sstore\n        /* \"#utility.yul\":14882:14883   */\n      0x01\n        /* \"#utility.yul\":14874:14880   */\n      dup3\n        /* \"#utility.yul\":14870:14884   */\n      add\n        /* \"#utility.yul\":14860:14884   */\n      swap2\n      pop\n        /* \"#utility.yul\":14929:14931   */\n      0x20\n        /* \"#utility.yul\":14918:14927   */\n      dup6\n        /* \"#utility.yul\":14914:14932   */\n      add\n        /* \"#utility.yul\":14901:14932   */\n      swap5\n      pop\n        /* \"#utility.yul\":14775:14779   */\n      0x20\n        /* \"#utility.yul\":14772:14773   */\n      dup2\n        /* \"#utility.yul\":14768:14780   */\n      add\n        /* \"#utility.yul\":14763:14780   */\n      swap1\n      pop\n        /* \"#utility.yul\":14738:14946   */\n      jump(tag_276)\n    tag_278:\n        /* \"#utility.yul\":14974:14980   */\n      dup7\n        /* \"#utility.yul\":14965:14972   */\n      dup4\n        /* \"#utility.yul\":14962:14981   */\n      lt\n        /* \"#utility.yul\":14959:15138   */\n      iszero\n      tag_279\n      jumpi\n        /* \"#utility.yul\":15032:15041   */\n      dup5\n        /* \"#utility.yul\":15027:15030   */\n      dup10\n        /* \"#utility.yul\":15023:15042   */\n      add\n        /* \"#utility.yul\":15017:15043   */\n      mload\n        /* \"#utility.yul\":15075:15123   */\n      tag_280\n        /* \"#utility.yul\":15117:15121   */\n      0x1f\n        /* \"#utility.yul\":15109:15115   */\n      dup10\n        /* \"#utility.yul\":15105:15122   */\n      and\n        /* \"#utility.yul\":15094:15103   */\n      dup3\n        /* \"#utility.yul\":15075:15123   */\n      tag_113\n      jump\t// in\n    tag_280:\n        /* \"#utility.yul\":15067:15073   */\n      dup4\n        /* \"#utility.yul\":15060:15124   */\n      sstore\n        /* \"#utility.yul\":14982:15138   */\n      pop\n        /* \"#utility.yul\":14959:15138   */\n    tag_279:\n        /* \"#utility.yul\":15184:15185   */\n      0x01\n        /* \"#utility.yul\":15180:15181   */\n      0x02\n        /* \"#utility.yul\":15172:15178   */\n      dup9\n        /* \"#utility.yul\":15168:15182   */\n      mul\n        /* \"#utility.yul\":15164:15186   */\n      add\n        /* \"#utility.yul\":15158:15162   */\n      dup9\n        /* \"#utility.yul\":15151:15187   */\n      sstore\n        /* \"#utility.yul\":14586:15197   */\n      pop\n      pop\n      pop\n        /* \"#utility.yul\":14549:15436   */\n    tag_271:\n      pop\n        /* \"#utility.yul\":14139:15442   */\n      pop\n      pop\n      pop\n        /* \"#utility.yul\":14047:15442   */\n      pop\n      pop\n      jump\t// out\n        /* \"#utility.yul\":15448:15628   */\n    tag_115:\n        /* \"#utility.yul\":15496:15573   */\n      0x4e487b7100000000000000000000000000000000000000000000000000000000\n        /* \"#utility.yul\":15493:15494   */\n      0x00\n        /* \"#utility.yul\":15486:15574   */\n      mstore\n        /* \"#utility.yul\":15593:15597   */\n      0x11\n        /* \"#utility.yul\":15590:15591   */\n      0x04\n        /* \"#utility.yul\":15583:15598   */\n      mstore\n        /* \"#utility.yul\":15617:15621   */\n      0x24\n        /* \"#utility.yul\":15614:15615   */\n      0x00\n        /* \"#utility.yul\":15607:15622   */\n      revert\n        /* \"#utility.yul\":15634:15828   */\n    tag_25:\n        /* \"#utility.yul\":15674:15678   */\n      0x00\n        /* \"#utility.yul\":15694:15714   */\n      tag_283\n        /* \"#utility.yul\":15712:15713   */\n      dup3\n        /* \"#utility.yul\":15694:15714   */\n      tag_83\n      jump\t// in\n    tag_283:\n        /* \"#utility.yul\":15689:15714   */\n      swap2\n      pop\n        /* \"#utility.yul\":15728:15748   */\n      tag_284\n        /* \"#utility.yul\":15746:15747   */\n      dup4\n        /* \"#utility.yul\":15728:15748   */\n      tag_83\n      jump\t// in\n    tag_284:\n        /* \"#utility.yul\":15723:15748   */\n      swap3\n      pop\n        /* \"#utility.yul\":15772:15773   */\n      dup3\n        /* \"#utility.yul\":15769:15770   */\n      dup3\n        /* \"#utility.yul\":15765:15774   */\n      sub\n        /* \"#utility.yul\":15757:15774   */\n      swap1\n      pop\n        /* \"#utility.yul\":15796:15797   */\n      dup2\n        /* \"#utility.yul\":15790:15794   */\n      dup2\n        /* \"#utility.yul\":15787:15798   */\n      gt\n        /* \"#utility.yul\":15784:15821   */\n      iszero\n      tag_285\n      jumpi\n        /* \"#utility.yul\":15801:15819   */\n      tag_286\n      tag_115\n      jump\t// in\n    tag_286:\n        /* \"#utility.yul\":15784:15821   */\n    tag_285:\n        /* \"#utility.yul\":15634:15828   */\n      swap3\n      swap2\n      pop\n      pop\n      jump\t// out\n        /* \"#utility.yul\":15834:16014   */\n    tag_33:\n        /* \"#utility.yul\":15882:15959   */\n      0x4e487b7100000000000000000000000000000000000000000000000000000000\n        /* \"#utility.yul\":15879:15880   */\n      0x00\n        /* \"#utility.yul\":15872:15960   */\n      mstore\n        /* \"#utility.yul\":15979:15983   */\n      0x32\n        /* \"#utility.yul\":15976:15977   */\n      0x04\n        /* \"#utility.yul\":15969:15984   */\n      mstore\n        /* \"#utility.yul\":16003:16007   */\n      0x24\n        /* \"#utility.yul\":16000:16001   */\n      0x00\n        /* \"#utility.yul\":15993:16008   */\n      revert\n\n    auxdata: 0xa26469706673582212201d69c28f78b3057dcb873e88dc3d0a2318d3c6d1f14dcaf3da27952832017ef464736f6c63430008160033\n}\n",
				"bytecode": {
					"linkReferences": {},
					"object": "608060405234801561000f575f80fd5b50610cf08061001d5f395ff3fe608060405234801561000f575f80fd5b5060043610610034575f3560e01c806308f1d3b7146100385780633afc728214610068575b5f80fd5b610052600480360381019061004d91906106d1565b610098565b60405161005f9190610768565b60405180910390f35b610082600480360381019061007d9190610781565b61018b565b60405161008f9190610944565b60405180910390f35b5f8060405180606001604052808681526020018581526020018481525090507378731d3ca6b7e34ac0f824c42a7cc18a495cabab73ffffffffffffffffffffffffffffffffffffffff163373ffffffffffffffffffffffffffffffffffffffff161461010a57620186a0915050610184565b5f81908060018154018082558091505060019003905f5260205f2090600302015f909190919091505f820151815f0190816101459190610b5e565b50602082015181600101908051906020019061016292919061037d565b5060408201518160020155505060015f805490506101809190610c5a565b9150505b9392505050565b6101936103d4565b5f82101580156101a657505f8054905082105b15610349575f82815481106101be576101bd610c8d565b5b905f5260205f2090600302016040518060600160405290815f820180546101e490610991565b80601f016020809104026020016040519081016040528092919081815260200182805461021090610991565b801561025b5780601f106102325761010080835404028352916020019161025b565b820191905f5260205f20905b81548152906001019060200180831161023e57829003601f168201915b5050505050815260200160018201805480602002602001604051908101604052809291908181526020015f905b82821015610330578382905f5260205f200180546102a590610991565b80601f01602080910402602001604051908101604052809291908181526020018280546102d190610991565b801561031c5780601f106102f35761010080835404028352916020019161031c565b820191905f5260205f20905b8154815290600101906020018083116102ff57829003601f168201915b505050505081526020019060010190610288565b5050505081526020016002820154815250509050610378565b6060604051806060016040528060405180602001604052805f81525081526020018281526020015f8152509150505b919050565b828054828255905f5260205f209081019282156103c3579160200282015b828111156103c25782518290816103b29190610b5e565b509160200191906001019061039b565b5b5090506103d091906103f4565b5090565b604051806060016040528060608152602001606081526020015f81525090565b5b80821115610413575f818161040a9190610417565b506001016103f5565b5090565b50805461042390610991565b5f825580601f106104345750610451565b601f0160209004905f5260205f20908101906104509190610454565b5b50565b5b8082111561046b575f815f905550600101610455565b5090565b5f604051905090565b5f80fd5b5f80fd5b5f80fd5b5f80fd5b5f601f19601f8301169050919050565b7f4e487b71000000000000000000000000000000000000000000000000000000005f52604160045260245ffd5b6104ce82610488565b810181811067ffffffffffffffff821117156104ed576104ec610498565b5b80604052505050565b5f6104ff61046f565b905061050b82826104c5565b919050565b5f67ffffffffffffffff82111561052a57610529610498565b5b61053382610488565b9050602081019050919050565b828183375f83830152505050565b5f61056061055b84610510565b6104f6565b90508281526020810184848401111561057c5761057b610484565b5b610587848285610540565b509392505050565b5f82601f8301126105a3576105a2610480565b5b81356105b384826020860161054e565b91505092915050565b5f67ffffffffffffffff8211156105d6576105d5610498565b5b602082029050602081019050919050565b5f80fd5b5f6105fd6105f8846105bc565b6104f6565b905080838252602082019050602084028301858111156106205761061f6105e7565b5b835b8181101561066757803567ffffffffffffffff81111561064557610644610480565b5b808601610652898261058f565b85526020850194505050602081019050610622565b5050509392505050565b5f82601f83011261068557610684610480565b5b81356106958482602086016105eb565b91505092915050565b5f819050919050565b6106b08161069e565b81146106ba575f80fd5b50565b5f813590506106cb816106a7565b92915050565b5f805f606084860312156106e8576106e7610478565b5b5f84013567ffffffffffffffff8111156107055761070461047c565b5b6107118682870161058f565b935050602084013567ffffffffffffffff8111156107325761073161047c565b5b61073e86828701610671565b925050604061074f868287016106bd565b9150509250925092565b6107628161069e565b82525050565b5f60208201905061077b5f830184610759565b92915050565b5f6020828403121561079657610795610478565b5b5f6107a3848285016106bd565b91505092915050565b5f81519050919050565b5f82825260208201905092915050565b5f5b838110156107e35780820151818401526020810190506107c8565b5f8484015250505050565b5f6107f8826107ac565b61080281856107b6565b93506108128185602086016107c6565b61081b81610488565b840191505092915050565b5f81519050919050565b5f82825260208201905092915050565b5f819050602082019050919050565b5f61085a83836107ee565b905092915050565b5f602082019050919050565b5f61087882610826565b6108828185610830565b93508360208202850161089485610840565b805f5b858110156108cf57848403895281516108b0858261084f565b94506108bb83610862565b925060208a01995050600181019050610897565b50829750879550505050505092915050565b6108ea8161069e565b82525050565b5f606083015f8301518482035f86015261090a82826107ee565b91505060208301518482036020860152610924828261086e565b915050604083015161093960408601826108e1565b508091505092915050565b5f6020820190508181035f83015261095c81846108f0565b905092915050565b7f4e487b71000000000000000000000000000000000000000000000000000000005f52602260045260245ffd5b5f60028204905060018216806109a857607f821691505b6020821081036109bb576109ba610964565b5b50919050565b5f819050815f5260205f209050919050565b5f6020601f8301049050919050565b5f82821b905092915050565b5f60088302610a1d7fffffffffffffffffffffffffffffffffffffffffffffffffffffffffffffffff826109e2565b610a2786836109e2565b95508019841693508086168417925050509392505050565b5f819050919050565b5f610a62610a5d610a588461069e565b610a3f565b61069e565b9050919050565b5f819050919050565b610a7b83610a48565b610a8f610a8782610a69565b8484546109ee565b825550505050565b5f90565b610aa3610a97565b610aae818484610a72565b505050565b5b81811015610ad157610ac65f82610a9b565b600181019050610ab4565b5050565b601f821115610b1657610ae7816109c1565b610af0846109d3565b81016020851015610aff578190505b610b13610b0b856109d3565b830182610ab3565b50505b505050565b5f82821c905092915050565b5f610b365f1984600802610b1b565b1980831691505092915050565b5f610b4e8383610b27565b9150826002028217905092915050565b610b67826107ac565b67ffffffffffffffff811115610b8057610b7f610498565b5b610b8a8254610991565b610b95828285610ad5565b5f60209050601f831160018114610bc6575f8415610bb4578287015190505b610bbe8582610b43565b865550610c25565b601f198416610bd4866109c1565b5f5b82811015610bfb57848901518255600182019150602085019450602081019050610bd6565b86831015610c185784890151610c14601f891682610b27565b8355505b6001600288020188555050505b505050505050565b7f4e487b71000000000000000000000000000000000000000000000000000000005f52601160045260245ffd5b5f610c648261069e565b9150610c6f8361069e565b9250828203905081811115610c8757610c86610c2d565b5b92915050565b7f4e487b71000000000000000000000000000000000000000000000000000000005f52603260045260245ffdfea26469706673582212201d69c28f78b3057dcb873e88dc3d0a2318d3c6d1f14dcaf3da27952832017ef464736f6c63430008160033",
					"opcodes": "PUSH1 0x80 PUSH1 0x40 MSTORE CALLVALUE DUP1 ISZERO PUSH2 0xF JUMPI PUSH0 DUP1 REVERT JUMPDEST POP PUSH2 0xCF0 DUP1 PUSH2 0x1D PUSH0 CODECOPY PUSH0 RETURN INVALID PUSH1 0x80 PUSH1 0x40 MSTORE CALLVALUE DUP1 ISZERO PUSH2 0xF JUMPI PUSH0 DUP1 REVERT JUMPDEST POP PUSH1 0x4 CALLDATASIZE LT PUSH2 0x34 JUMPI PUSH0 CALLDATALOAD PUSH1 0xE0 SHR DUP1 PUSH4 0x8F1D3B7 EQ PUSH2 0x38 JUMPI DUP1 PUSH4 0x3AFC7282 EQ PUSH2 0x68 JUMPI JUMPDEST PUSH0 DUP1 REVERT JUMPDEST PUSH2 0x52 PUSH1 0x4 DUP1 CALLDATASIZE SUB DUP2 ADD SWAP1 PUSH2 0x4D SWAP2 SWAP1 PUSH2 0x6D1 JUMP JUMPDEST PUSH2 0x98 JUMP JUMPDEST PUSH1 0x40 MLOAD PUSH2 0x5F SWAP2 SWAP1 PUSH2 0x768 JUMP JUMPDEST PUSH1 0x40 MLOAD DUP1 SWAP2 SUB SWAP1 RETURN JUMPDEST PUSH2 0x82 PUSH1 0x4 DUP1 CALLDATASIZE SUB DUP2 ADD SWAP1 PUSH2 0x7D SWAP2 SWAP1 PUSH2 0x781 JUMP JUMPDEST PUSH2 0x18B JUMP JUMPDEST PUSH1 0x40 MLOAD PUSH2 0x8F SWAP2 SWAP1 PUSH2 0x944 JUMP JUMPDEST PUSH1 0x40 MLOAD DUP1 SWAP2 SUB SWAP1 RETURN JUMPDEST PUSH0 DUP1 PUSH1 0x40 MLOAD DUP1 PUSH1 0x60 ADD PUSH1 0x40 MSTORE DUP1 DUP7 DUP2 MSTORE PUSH1 0x20 ADD DUP6 DUP2 MSTORE PUSH1 0x20 ADD DUP5 DUP2 MSTORE POP SWAP1 POP PUSH20 0x78731D3CA6B7E34AC0F824C42A7CC18A495CABAB PUSH20 0xFFFFFFFFFFFFFFFFFFFFFFFFFFFFFFFFFFFFFFFF AND CALLER PUSH20 0xFFFFFFFFFFFFFFFFFFFFFFFFFFFFFFFFFFFFFFFF AND EQ PUSH2 0x10A JUMPI PUSH3 0x186A0 SWAP2 POP POP PUSH2 0x184 JUMP JUMPDEST PUSH0 DUP2 SWAP1 DUP1 PUSH1 0x1 DUP2 SLOAD ADD DUP1 DUP3 SSTORE DUP1 SWAP2 POP POP PUSH1 0x1 SWAP1 SUB SWAP1 PUSH0 MSTORE PUSH1 0x20 PUSH0 KECCAK256 SWAP1 PUSH1 0x3 MUL ADD PUSH0 SWAP1 SWAP2 SWAP1 SWAP2 SWAP1 SWAP2 POP PUSH0 DUP3 ADD MLOAD DUP2 PUSH0 ADD SWAP1 DUP2 PUSH2 0x145 SWAP2 SWAP1 PUSH2 0xB5E JUMP JUMPDEST POP PUSH1 0x20 DUP3 ADD MLOAD DUP2 PUSH1 0x1 ADD SWAP1 DUP1 MLOAD SWAP1 PUSH1 0x20 ADD SWAP1 PUSH2 0x162 SWAP3 SWAP2 SWAP1 PUSH2 0x37D JUMP JUMPDEST POP PUSH1 0x40 DUP3 ADD MLOAD DUP2 PUSH1 0x2 ADD SSTORE POP POP PUSH1 0x1 PUSH0 DUP1 SLOAD SWAP1 POP PUSH2 0x180 SWAP2 SWAP1 PUSH2 0xC5A JUMP JUMPDEST SWAP2 POP POP JUMPDEST SWAP4 SWAP3 POP POP POP JUMP JUMPDEST PUSH2 0x193 PUSH2 0x3D4 JUMP JUMPDEST PUSH0 DUP3 LT ISZERO DUP1 ISZERO PUSH2 0x1A6 JUMPI POP PUSH0 DUP1 SLOAD SWAP1 POP DUP3 LT JUMPDEST ISZERO PUSH2 0x349 JUMPI PUSH0 DUP3 DUP2 SLOAD DUP2 LT PUSH2 0x1BE JUMPI PUSH2 0x1BD PUSH2 0xC8D JUMP JUMPDEST JUMPDEST SWAP1 PUSH0 MSTORE PUSH1 0x20 PUSH0 KECCAK256 SWAP1 PUSH1 0x3 MUL ADD PUSH1 0x40 MLOAD DUP1 PUSH1 0x60 ADD PUSH1 0x40 MSTORE SWAP1 DUP2 PUSH0 DUP3 ADD DUP1 SLOAD PUSH2 0x1E4 SWAP1 PUSH2 0x991 JUMP JUMPDEST DUP1 PUSH1 0x1F ADD PUSH1 0x20 DUP1 SWAP2 DIV MUL PUSH1 0x20 ADD PUSH1 0x40 MLOAD SWAP1 DUP2 ADD PUSH1 0x40 MSTORE DUP1 SWAP3 SWAP2 SWAP1 DUP2 DUP2 MSTORE PUSH1 0x20 ADD DUP3 DUP1 SLOAD PUSH2 0x210 SWAP1 PUSH2 0x991 JUMP JUMPDEST DUP1 ISZERO PUSH2 0x25B JUMPI DUP1 PUSH1 0x1F LT PUSH2 0x232 JUMPI PUSH2 0x100 DUP1 DUP4 SLOAD DIV MUL DUP4 MSTORE SWAP2 PUSH1 0x20 ADD SWAP2 PUSH2 0x25B JUMP JUMPDEST DUP3 ADD SWAP2 SWAP1 PUSH0 MSTORE PUSH1 0x20 PUSH0 KECCAK256 SWAP1 JUMPDEST DUP2 SLOAD DUP2 MSTORE SWAP1 PUSH1 0x1 ADD SWAP1 PUSH1 0x20 ADD DUP1 DUP4 GT PUSH2 0x23E JUMPI DUP3 SWAP1 SUB PUSH1 0x1F AND DUP3 ADD SWAP2 JUMPDEST POP POP POP POP POP DUP2 MSTORE PUSH1 0x20 ADD PUSH1 0x1 DUP3 ADD DUP1 SLOAD DUP1 PUSH1 0x20 MUL PUSH1 0x20 ADD PUSH1 0x40 MLOAD SWAP1 DUP2 ADD PUSH1 0x40 MSTORE DUP1 SWAP3 SWAP2 SWAP1 DUP2 DUP2 MSTORE PUSH1 0x20 ADD PUSH0 SWAP1 JUMPDEST DUP3 DUP3 LT ISZERO PUSH2 0x330 JUMPI DUP4 DUP3 SWAP1 PUSH0 MSTORE PUSH1 0x20 PUSH0 KECCAK256 ADD DUP1 SLOAD PUSH2 0x2A5 SWAP1 PUSH2 0x991 JUMP JUMPDEST DUP1 PUSH1 0x1F ADD PUSH1 0x20 DUP1 SWAP2 DIV MUL PUSH1 0x20 ADD PUSH1 0x40 MLOAD SWAP1 DUP2 ADD PUSH1 0x40 MSTORE DUP1 SWAP3 SWAP2 SWAP1 DUP2 DUP2 MSTORE PUSH1 0x20 ADD DUP3 DUP1 SLOAD PUSH2 0x2D1 SWAP1 PUSH2 0x991 JUMP JUMPDEST DUP1 ISZERO PUSH2 0x31C JUMPI DUP1 PUSH1 0x1F LT PUSH2 0x2F3 JUMPI PUSH2 0x100 DUP1 DUP4 SLOAD DIV MUL DUP4 MSTORE SWAP2 PUSH1 0x20 ADD SWAP2 PUSH2 0x31C JUMP JUMPDEST DUP3 ADD SWAP2 SWAP1 PUSH0 MSTORE PUSH1 0x20 PUSH0 KECCAK256 SWAP1 JUMPDEST DUP2 SLOAD DUP2 MSTORE SWAP1 PUSH1 0x1 ADD SWAP1 PUSH1 0x20 ADD DUP1 DUP4 GT PUSH2 0x2FF JUMPI DUP3 SWAP1 SUB PUSH1 0x1F AND DUP3 ADD SWAP2 JUMPDEST POP POP POP POP POP DUP2 MSTORE PUSH1 0x20 ADD SWAP1 PUSH1 0x1 ADD SWAP1 PUSH2 0x288 JUMP JUMPDEST POP POP POP POP DUP2 MSTORE PUSH1 0x20 ADD PUSH1 0x2 DUP3 ADD SLOAD DUP2 MSTORE POP POP SWAP1 POP PUSH2 0x378 JUMP JUMPDEST PUSH1 0x60 PUSH1 0x40 MLOAD DUP1 PUSH1 0x60 ADD PUSH1 0x40 MSTORE DUP1 PUSH1 0x40 MLOAD DUP1 PUSH1 0x20 ADD PUSH1 0x40 MSTORE DUP1 PUSH0 DUP2 MSTORE POP DUP2 MSTORE PUSH1 0x20 ADD DUP3 DUP2 MSTORE PUSH1 0x20 ADD PUSH0 DUP2 MSTORE POP SWAP2 POP POP JUMPDEST SWAP2 SWAP1 POP JUMP JUMPDEST DUP3 DUP1 SLOAD DUP3 DUP3 SSTORE SWAP1 PUSH0 MSTORE PUSH1 0x20 PUSH0 KECCAK256 SWAP1 DUP2 ADD SWAP3 DUP3 ISZERO PUSH2 0x3C3 JUMPI SWAP2 PUSH1 0x20 MUL DUP3 ADD JUMPDEST DUP3 DUP2 GT ISZERO PUSH2 0x3C2 JUMPI DUP3 MLOAD DUP3 SWAP1 DUP2 PUSH2 0x3B2 SWAP2 SWAP1 PUSH2 0xB5E JUMP JUMPDEST POP SWAP2 PUSH1 0x20 ADD SWAP2 SWAP1 PUSH1 0x1 ADD SWAP1 PUSH2 0x39B JUMP JUMPDEST JUMPDEST POP SWAP1 POP PUSH2 0x3D0 SWAP2 SWAP1 PUSH2 0x3F4 JUMP JUMPDEST POP SWAP1 JUMP JUMPDEST PUSH1 0x40 MLOAD DUP1 PUSH1 0x60 ADD PUSH1 0x40 MSTORE DUP1 PUSH1 0x60 DUP2 MSTORE PUSH1 0x20 ADD PUSH1 0x60 DUP2 MSTORE PUSH1 0x20 ADD PUSH0 DUP2 MSTORE POP SWAP1 JUMP JUMPDEST JUMPDEST DUP1 DUP3 GT ISZERO PUSH2 0x413 JUMPI PUSH0 DUP2 DUP2 PUSH2 0x40A SWAP2 SWAP1 PUSH2 0x417 JUMP JUMPDEST POP PUSH1 0x1 ADD PUSH2 0x3F5 JUMP JUMPDEST POP SWAP1 JUMP JUMPDEST POP DUP1 SLOAD PUSH2 0x423 SWAP1 PUSH2 0x991 JUMP JUMPDEST PUSH0 DUP3 SSTORE DUP1 PUSH1 0x1F LT PUSH2 0x434 JUMPI POP PUSH2 0x451 JUMP JUMPDEST PUSH1 0x1F ADD PUSH1 0x20 SWAP1 DIV SWAP1 PUSH0 MSTORE PUSH1 0x20 PUSH0 KECCAK256 SWAP1 DUP2 ADD SWAP1 PUSH2 0x450 SWAP2 SWAP1 PUSH2 0x454 JUMP JUMPDEST JUMPDEST POP JUMP JUMPDEST JUMPDEST DUP1 DUP3 GT ISZERO PUSH2 0x46B JUMPI PUSH0 DUP2 PUSH0 SWAP1 SSTORE POP PUSH1 0x1 ADD PUSH2 0x455 JUMP JUMPDEST POP SWAP1 JUMP JUMPDEST PUSH0 PUSH1 0x40 MLOAD SWAP1 POP SWAP1 JUMP JUMPDEST PUSH0 DUP1 REVERT JUMPDEST PUSH0 DUP1 REVERT JUMPDEST PUSH0 DUP1 REVERT JUMPDEST PUSH0 DUP1 REVERT JUMPDEST PUSH0 PUSH1 0x1F NOT PUSH1 0x1F DUP4 ADD AND SWAP1 POP SWAP2 SWAP1 POP JUMP JUMPDEST PUSH32 0x4E487B7100000000000000000000000000000000000000000000000000000000 PUSH0 MSTORE PUSH1 0x41 PUSH1 0x4 MSTORE PUSH1 0x24 PUSH0 REVERT JUMPDEST PUSH2 0x4CE DUP3 PUSH2 0x488 JUMP JUMPDEST DUP2 ADD DUP2 DUP2 LT PUSH8 0xFFFFFFFFFFFFFFFF DUP3 GT OR ISZERO PUSH2 0x4ED JUMPI PUSH2 0x4EC PUSH2 0x498 JUMP JUMPDEST JUMPDEST DUP1 PUSH1 0x40 MSTORE POP POP POP JUMP JUMPDEST PUSH0 PUSH2 0x4FF PUSH2 0x46F JUMP JUMPDEST SWAP1 POP PUSH2 0x50B DUP3 DUP3 PUSH2 0x4C5 JUMP JUMPDEST SWAP2 SWAP1 POP JUMP JUMPDEST PUSH0 PUSH8 0xFFFFFFFFFFFFFFFF DUP3 GT ISZERO PUSH2 0x52A JUMPI PUSH2 0x529 PUSH2 0x498 JUMP JUMPDEST JUMPDEST PUSH2 0x533 DUP3 PUSH2 0x488 JUMP JUMPDEST SWAP1 POP PUSH1 0x20 DUP2 ADD SWAP1 POP SWAP2 SWAP1 POP JUMP JUMPDEST DUP3 DUP2 DUP4 CALLDATACOPY PUSH0 DUP4 DUP4 ADD MSTORE POP POP POP JUMP JUMPDEST PUSH0 PUSH2 0x560 PUSH2 0x55B DUP5 PUSH2 0x510 JUMP JUMPDEST PUSH2 0x4F6 JUMP JUMPDEST SWAP1 POP DUP3 DUP2 MSTORE PUSH1 0x20 DUP2 ADD DUP5 DUP5 DUP5 ADD GT ISZERO PUSH2 0x57C JUMPI PUSH2 0x57B PUSH2 0x484 JUMP JUMPDEST JUMPDEST PUSH2 0x587 DUP5 DUP3 DUP6 PUSH2 0x540 JUMP JUMPDEST POP SWAP4 SWAP3 POP POP POP JUMP JUMPDEST PUSH0 DUP3 PUSH1 0x1F DUP4 ADD SLT PUSH2 0x5A3 JUMPI PUSH2 0x5A2 PUSH2 0x480 JUMP JUMPDEST JUMPDEST DUP2 CALLDATALOAD PUSH2 0x5B3 DUP5 DUP3 PUSH1 0x20 DUP7 ADD PUSH2 0x54E JUMP JUMPDEST SWAP2 POP POP SWAP3 SWAP2 POP POP JUMP JUMPDEST PUSH0 PUSH8 0xFFFFFFFFFFFFFFFF DUP3 GT ISZERO PUSH2 0x5D6 JUMPI PUSH2 0x5D5 PUSH2 0x498 JUMP JUMPDEST JUMPDEST PUSH1 0x20 DUP3 MUL SWAP1 POP PUSH1 0x20 DUP2 ADD SWAP1 POP SWAP2 SWAP1 POP JUMP JUMPDEST PUSH0 DUP1 REVERT JUMPDEST PUSH0 PUSH2 0x5FD PUSH2 0x5F8 DUP5 PUSH2 0x5BC JUMP JUMPDEST PUSH2 0x4F6 JUMP JUMPDEST SWAP1 POP DUP1 DUP4 DUP3 MSTORE PUSH1 0x20 DUP3 ADD SWAP1 POP PUSH1 0x20 DUP5 MUL DUP4 ADD DUP6 DUP2 GT ISZERO PUSH2 0x620 JUMPI PUSH2 0x61F PUSH2 0x5E7 JUMP JUMPDEST JUMPDEST DUP4 JUMPDEST DUP2 DUP2 LT ISZERO PUSH2 0x667 JUMPI DUP1 CALLDATALOAD PUSH8 0xFFFFFFFFFFFFFFFF DUP2 GT ISZERO PUSH2 0x645 JUMPI PUSH2 0x644 PUSH2 0x480 JUMP JUMPDEST JUMPDEST DUP1 DUP7 ADD PUSH2 0x652 DUP10 DUP3 PUSH2 0x58F JUMP JUMPDEST DUP6 MSTORE PUSH1 0x20 DUP6 ADD SWAP5 POP POP POP PUSH1 0x20 DUP2 ADD SWAP1 POP PUSH2 0x622 JUMP JUMPDEST POP POP POP SWAP4 SWAP3 POP POP POP JUMP JUMPDEST PUSH0 DUP3 PUSH1 0x1F DUP4 ADD SLT PUSH2 0x685 JUMPI PUSH2 0x684 PUSH2 0x480 JUMP JUMPDEST JUMPDEST DUP2 CALLDATALOAD PUSH2 0x695 DUP5 DUP3 PUSH1 0x20 DUP7 ADD PUSH2 0x5EB JUMP JUMPDEST SWAP2 POP POP SWAP3 SWAP2 POP POP JUMP JUMPDEST PUSH0 DUP2 SWAP1 POP SWAP2 SWAP1 POP JUMP JUMPDEST PUSH2 0x6B0 DUP2 PUSH2 0x69E JUMP JUMPDEST DUP2 EQ PUSH2 0x6BA JUMPI PUSH0 DUP1 REVERT JUMPDEST POP JUMP JUMPDEST PUSH0 DUP2 CALLDATALOAD SWAP1 POP PUSH2 0x6CB DUP2 PUSH2 0x6A7 JUMP JUMPDEST SWAP3 SWAP2 POP POP JUMP JUMPDEST PUSH0 DUP1 PUSH0 PUSH1 0x60 DUP5 DUP7 SUB SLT ISZERO PUSH2 0x6E8 JUMPI PUSH2 0x6E7 PUSH2 0x478 JUMP JUMPDEST JUMPDEST PUSH0 DUP5 ADD CALLDATALOAD PUSH8 0xFFFFFFFFFFFFFFFF DUP2 GT ISZERO PUSH2 0x705 JUMPI PUSH2 0x704 PUSH2 0x47C JUMP JUMPDEST JUMPDEST PUSH2 0x711 DUP7 DUP3 DUP8 ADD PUSH2 0x58F JUMP JUMPDEST SWAP4 POP POP PUSH1 0x20 DUP5 ADD CALLDATALOAD PUSH8 0xFFFFFFFFFFFFFFFF DUP2 GT ISZERO PUSH2 0x732 JUMPI PUSH2 0x731 PUSH2 0x47C JUMP JUMPDEST JUMPDEST PUSH2 0x73E DUP7 DUP3 DUP8 ADD PUSH2 0x671 JUMP JUMPDEST SWAP3 POP POP PUSH1 0x40 PUSH2 0x74F DUP7 DUP3 DUP8 ADD PUSH2 0x6BD JUMP JUMPDEST SWAP2 POP POP SWAP3 POP SWAP3 POP SWAP3 JUMP JUMPDEST PUSH2 0x762 DUP2 PUSH2 0x69E JUMP JUMPDEST DUP3 MSTORE POP POP JUMP JUMPDEST PUSH0 PUSH1 0x20 DUP3 ADD SWAP1 POP PUSH2 0x77B PUSH0 DUP4 ADD DUP5 PUSH2 0x759 JUMP JUMPDEST SWAP3 SWAP2 POP POP JUMP JUMPDEST PUSH0 PUSH1 0x20 DUP3 DUP5 SUB SLT ISZERO PUSH2 0x796 JUMPI PUSH2 0x795 PUSH2 0x478 JUMP JUMPDEST JUMPDEST PUSH0 PUSH2 0x7A3 DUP5 DUP3 DUP6 ADD PUSH2 0x6BD JUMP JUMPDEST SWAP2 POP POP SWAP3 SWAP2 POP POP JUMP JUMPDEST PUSH0 DUP2 MLOAD SWAP1 POP SWAP2 SWAP1 POP JUMP JUMPDEST PUSH0 DUP3 DUP3 MSTORE PUSH1 0x20 DUP3 ADD SWAP1 POP SWAP3 SWAP2 POP POP JUMP JUMPDEST PUSH0 JUMPDEST DUP4 DUP2 LT ISZERO PUSH2 0x7E3 JUMPI DUP1 DUP3 ADD MLOAD DUP2 DUP5 ADD MSTORE PUSH1 0x20 DUP2 ADD SWAP1 POP PUSH2 0x7C8 JUMP JUMPDEST PUSH0 DUP5 DUP5 ADD MSTORE POP POP POP POP JUMP JUMPDEST PUSH0 PUSH2 0x7F8 DUP3 PUSH2 0x7AC JUMP JUMPDEST PUSH2 0x802 DUP2 DUP6 PUSH2 0x7B6 JUMP JUMPDEST SWAP4 POP PUSH2 0x812 DUP2 DUP6 PUSH1 0x20 DUP7 ADD PUSH2 0x7C6 JUMP JUMPDEST PUSH2 0x81B DUP2 PUSH2 0x488 JUMP JUMPDEST DUP5 ADD SWAP2 POP POP SWAP3 SWAP2 POP POP JUMP JUMPDEST PUSH0 DUP2 MLOAD SWAP1 POP SWAP2 SWAP1 POP JUMP JUMPDEST PUSH0 DUP3 DUP3 MSTORE PUSH1 0x20 DUP3 ADD SWAP1 POP SWAP3 SWAP2 POP POP JUMP JUMPDEST PUSH0 DUP2 SWAP1 POP PUSH1 0x20 DUP3 ADD SWAP1 POP SWAP2 SWAP1 POP JUMP JUMPDEST PUSH0 PUSH2 0x85A DUP4 DUP4 PUSH2 0x7EE JUMP JUMPDEST SWAP1 POP SWAP3 SWAP2 POP POP JUMP JUMPDEST PUSH0 PUSH1 0x20 DUP3 ADD SWAP1 POP SWAP2 SWAP1 POP JUMP JUMPDEST PUSH0 PUSH2 0x878 DUP3 PUSH2 0x826 JUMP JUMPDEST PUSH2 0x882 DUP2 DUP6 PUSH2 0x830 JUMP JUMPDEST SWAP4 POP DUP4 PUSH1 0x20 DUP3 MUL DUP6 ADD PUSH2 0x894 DUP6 PUSH2 0x840 JUMP JUMPDEST DUP1 PUSH0 JUMPDEST DUP6 DUP2 LT ISZERO PUSH2 0x8CF JUMPI DUP5 DUP5 SUB DUP10 MSTORE DUP2 MLOAD PUSH2 0x8B0 DUP6 DUP3 PUSH2 0x84F JUMP JUMPDEST SWAP5 POP PUSH2 0x8BB DUP4 PUSH2 0x862 JUMP JUMPDEST SWAP3 POP PUSH1 0x20 DUP11 ADD SWAP10 POP POP PUSH1 0x1 DUP2 ADD SWAP1 POP PUSH2 0x897 JUMP JUMPDEST POP DUP3 SWAP8 POP DUP8 SWAP6 POP POP POP POP POP POP SWAP3 SWAP2 POP POP JUMP JUMPDEST PUSH2 0x8EA DUP2 PUSH2 0x69E JUMP JUMPDEST DUP3 MSTORE POP POP JUMP JUMPDEST PUSH0 PUSH1 0x60 DUP4 ADD PUSH0 DUP4 ADD MLOAD DUP5 DUP3 SUB PUSH0 DUP7 ADD MSTORE PUSH2 0x90A DUP3 DUP3 PUSH2 0x7EE JUMP JUMPDEST SWAP2 POP POP PUSH1 0x20 DUP4 ADD MLOAD DUP5 DUP3 SUB PUSH1 0x20 DUP7 ADD MSTORE PUSH2 0x924 DUP3 DUP3 PUSH2 0x86E JUMP JUMPDEST SWAP2 POP POP PUSH1 0x40 DUP4 ADD MLOAD PUSH2 0x939 PUSH1 0x40 DUP7 ADD DUP3 PUSH2 0x8E1 JUMP JUMPDEST POP DUP1 SWAP2 POP POP SWAP3 SWAP2 POP POP JUMP JUMPDEST PUSH0 PUSH1 0x20 DUP3 ADD SWAP1 POP DUP2 DUP2 SUB PUSH0 DUP4 ADD MSTORE PUSH2 0x95C DUP2 DUP5 PUSH2 0x8F0 JUMP JUMPDEST SWAP1 POP SWAP3 SWAP2 POP POP JUMP JUMPDEST PUSH32 0x4E487B7100000000000000000000000000000000000000000000000000000000 PUSH0 MSTORE PUSH1 0x22 PUSH1 0x4 MSTORE PUSH1 0x24 PUSH0 REVERT JUMPDEST PUSH0 PUSH1 0x2 DUP3 DIV SWAP1 POP PUSH1 0x1 DUP3 AND DUP1 PUSH2 0x9A8 JUMPI PUSH1 0x7F DUP3 AND SWAP2 POP JUMPDEST PUSH1 0x20 DUP3 LT DUP2 SUB PUSH2 0x9BB JUMPI PUSH2 0x9BA PUSH2 0x964 JUMP JUMPDEST JUMPDEST POP SWAP2 SWAP1 POP JUMP JUMPDEST PUSH0 DUP2 SWAP1 POP DUP2 PUSH0 MSTORE PUSH1 0x20 PUSH0 KECCAK256 SWAP1 POP SWAP2 SWAP1 POP JUMP JUMPDEST PUSH0 PUSH1 0x20 PUSH1 0x1F DUP4 ADD DIV SWAP1 POP SWAP2 SWAP1 POP JUMP JUMPDEST PUSH0 DUP3 DUP3 SHL SWAP1 POP SWAP3 SWAP2 POP POP JUMP JUMPDEST PUSH0 PUSH1 0x8 DUP4 MUL PUSH2 0xA1D PUSH32 0xFFFFFFFFFFFFFFFFFFFFFFFFFFFFFFFFFFFFFFFFFFFFFFFFFFFFFFFFFFFFFFFF DUP3 PUSH2 0x9E2 JUMP JUMPDEST PUSH2 0xA27 DUP7 DUP4 PUSH2 0x9E2 JUMP JUMPDEST SWAP6 POP DUP1 NOT DUP5 AND SWAP4 POP DUP1 DUP7 AND DUP5 OR SWAP3 POP POP POP SWAP4 SWAP3 POP POP POP JUMP JUMPDEST PUSH0 DUP2 SWAP1 POP SWAP2 SWAP1 POP JUMP JUMPDEST PUSH0 PUSH2 0xA62 PUSH2 0xA5D PUSH2 0xA58 DUP5 PUSH2 0x69E JUMP JUMPDEST PUSH2 0xA3F JUMP JUMPDEST PUSH2 0x69E JUMP JUMPDEST SWAP1 POP SWAP2 SWAP1 POP JUMP JUMPDEST PUSH0 DUP2 SWAP1 POP SWAP2 SWAP1 POP JUMP JUMPDEST PUSH2 0xA7B DUP4 PUSH2 0xA48 JUMP JUMPDEST PUSH2 0xA8F PUSH2 0xA87 DUP3 PUSH2 0xA69 JUMP JUMPDEST DUP5 DUP5 SLOAD PUSH2 0x9EE JUMP JUMPDEST DUP3 SSTORE POP POP POP POP JUMP JUMPDEST PUSH0 SWAP1 JUMP JUMPDEST PUSH2 0xAA3 PUSH2 0xA97 JUMP JUMPDEST PUSH2 0xAAE DUP2 DUP5 DUP5 PUSH2 0xA72 JUMP JUMPDEST POP POP POP JUMP JUMPDEST JUMPDEST DUP2 DUP2 LT ISZERO PUSH2 0xAD1 JUMPI PUSH2 0xAC6 PUSH0 DUP3 PUSH2 0xA9B JUMP JUMPDEST PUSH1 0x1 DUP2 ADD SWAP1 POP PUSH2 0xAB4 JUMP JUMPDEST POP POP JUMP JUMPDEST PUSH1 0x1F DUP3 GT ISZERO PUSH2 0xB16 JUMPI PUSH2 0xAE7 DUP2 PUSH2 0x9C1 JUMP JUMPDEST PUSH2 0xAF0 DUP5 PUSH2 0x9D3 JUMP JUMPDEST DUP2 ADD PUSH1 0x20 DUP6 LT ISZERO PUSH2 0xAFF JUMPI DUP2 SWAP1 POP JUMPDEST PUSH2 0xB13 PUSH2 0xB0B DUP6 PUSH2 0x9D3 JUMP JUMPDEST DUP4 ADD DUP3 PUSH2 0xAB3 JUMP JUMPDEST POP POP JUMPDEST POP POP POP JUMP JUMPDEST PUSH0 DUP3 DUP3 SHR SWAP1 POP SWAP3 SWAP2 POP POP JUMP JUMPDEST PUSH0 PUSH2 0xB36 PUSH0 NOT DUP5 PUSH1 0x8 MUL PUSH2 0xB1B JUMP JUMPDEST NOT DUP1 DUP4 AND SWAP2 POP POP SWAP3 SWAP2 POP POP JUMP JUMPDEST PUSH0 PUSH2 0xB4E DUP4 DUP4 PUSH2 0xB27 JUMP JUMPDEST SWAP2 POP DUP3 PUSH1 0x2 MUL DUP3 OR SWAP1 POP SWAP3 SWAP2 POP POP JUMP JUMPDEST PUSH2 0xB67 DUP3 PUSH2 0x7AC JUMP JUMPDEST PUSH8 0xFFFFFFFFFFFFFFFF DUP2 GT ISZERO PUSH2 0xB80 JUMPI PUSH2 0xB7F PUSH2 0x498 JUMP JUMPDEST JUMPDEST PUSH2 0xB8A DUP3 SLOAD PUSH2 0x991 JUMP JUMPDEST PUSH2 0xB95 DUP3 DUP3 DUP6 PUSH2 0xAD5 JUMP JUMPDEST PUSH0 PUSH1 0x20 SWAP1 POP PUSH1 0x1F DUP4 GT PUSH1 0x1 DUP2 EQ PUSH2 0xBC6 JUMPI PUSH0 DUP5 ISZERO PUSH2 0xBB4 JUMPI DUP3 DUP8 ADD MLOAD SWAP1 POP JUMPDEST PUSH2 0xBBE DUP6 DUP3 PUSH2 0xB43 JUMP JUMPDEST DUP7 SSTORE POP PUSH2 0xC25 JUMP JUMPDEST PUSH1 0x1F NOT DUP5 AND PUSH2 0xBD4 DUP7 PUSH2 0x9C1 JUMP JUMPDEST PUSH0 JUMPDEST DUP3 DUP2 LT ISZERO PUSH2 0xBFB JUMPI DUP5 DUP10 ADD MLOAD DUP3 SSTORE PUSH1 0x1 DUP3 ADD SWAP2 POP PUSH1 0x20 DUP6 ADD SWAP5 POP PUSH1 0x20 DUP2 ADD SWAP1 POP PUSH2 0xBD6 JUMP JUMPDEST DUP7 DUP4 LT ISZERO PUSH2 0xC18 JUMPI DUP5 DUP10 ADD MLOAD PUSH2 0xC14 PUSH1 0x1F DUP10 AND DUP3 PUSH2 0xB27 JUMP JUMPDEST DUP4 SSTORE POP JUMPDEST PUSH1 0x1 PUSH1 0x2 DUP9 MUL ADD DUP9 SSTORE POP POP POP JUMPDEST POP POP POP POP POP POP JUMP JUMPDEST PUSH32 0x4E487B7100000000000000000000000000000000000000000000000000000000 PUSH0 MSTORE PUSH1 0x11 PUSH1 0x4 MSTORE PUSH1 0x24 PUSH0 REVERT JUMPDEST PUSH0 PUSH2 0xC64 DUP3 PUSH2 0x69E JUMP JUMPDEST SWAP2 POP PUSH2 0xC6F DUP4 PUSH2 0x69E JUMP JUMPDEST SWAP3 POP DUP3 DUP3 SUB SWAP1 POP DUP2 DUP2 GT ISZERO PUSH2 0xC87 JUMPI PUSH2 0xC86 PUSH2 0xC2D JUMP JUMPDEST JUMPDEST SWAP3 SWAP2 POP POP JUMP JUMPDEST PUSH32 0x4E487B7100000000000000000000000000000000000000000000000000000000 PUSH0 MSTORE PUSH1 0x32 PUSH1 0x4 MSTORE PUSH1 0x24 PUSH0 REVERT INVALID LOG2 PUSH5 0x6970667358 0x22 SLT KECCAK256 SAR PUSH10 0xC28F78B3057DCB873E88 0xDC RETURNDATASIZE EXP 0x23 XOR 0xD3 0xC6 0xD1 CALL 0x4D 0xCA RETURN 0xDA 0x27 SWAP6 0x28 ORIGIN ADD PUSH31 0xF464736F6C6343000816003300000000000000000000000000000000000000 "
				},
				"gasEstimates": {
					"creation": {
						"codeDepositCost": "662400",
						"executionCost": "694",
						"totalCost": "663094"
					},
					"external": {
						"getVoting(uint256)": "infinite",
						"initiateVoting(string,string[],uint256)": "infinite"
					}
				},
				"methodIdentifiers": {
					"getVoting(uint256)": "3afc7282",
					"initiateVoting(string,string[],uint256)": "08f1d3b7"
				}
			},
			"storageLayout": {
				"storage": [
					{
						"astId": 6,
						"contract": "contracts/e-voting scheme/Initiate.sol:Initiate",
						"label": "votingList",
						"offset": 0,
						"slot": "0",
						"type": "t_array(t_struct(voting)100_storage)dyn_storage"
					}
				],
				"types": {
					"t_array(t_string_storage)dyn_storage": {
						"base": "t_string_storage",
						"encoding": "dynamic_array",
						"label": "string[]",
						"numberOfBytes": "32"
					},
					"t_array(t_struct(voting)100_storage)dyn_storage": {
						"base": "t_struct(voting)100_storage",
						"encoding": "dynamic_array",
						"label": "struct Utils.voting[]",
						"numberOfBytes": "32"
					},
					"t_string_storage": {
						"encoding": "bytes",
						"label": "string",
						"numberOfBytes": "32"
					},
					"t_struct(voting)100_storage": {
						"encoding": "inplace",
						"label": "struct Utils.voting",
						"members": [
							{
								"astId": 94,
								"contract": "contracts/e-voting scheme/Initiate.sol:Initiate",
								"label": "title",
								"offset": 0,
								"slot": "0",
								"type": "t_string_storage"
							},
							{
								"astId": 97,
								"contract": "contracts/e-voting scheme/Initiate.sol:Initiate",
								"label": "options",
								"offset": 0,
								"slot": "1",
								"type": "t_array(t_string_storage)dyn_storage"
							},
							{
								"astId": 99,
								"contract": "contracts/e-voting scheme/Initiate.sol:Initiate",
								"label": "deadline",
								"offset": 0,
								"slot": "2",
								"type": "t_uint256"
							}
						],
						"numberOfBytes": "96"
					},
					"t_uint256": {
						"encoding": "inplace",
						"label": "uint256",
						"numberOfBytes": "32"
					}
				}
			},
			"userdoc": {
				"kind": "user",
				"methods": {},
				"version": 1
			}
		}
	}
}